:020000040800F2
:1000000088170120C1010008094500084939000886
:10001000A1440008150A00088B5D000800000000DC
:10002000000000000000000000000000FB5000087D
:10003000830B0008000000007948000819550008EB
:10004000DB010008DB010008DB010008DB01000820
:10005000DB010008DB010008DB010008DB01000810
:10006000DB010008DB010008DB010008190A0008B9
:10007000290A0008DB010008390A0008DB01000832
:10008000490A0008590A0008DB010008DB010008E2
:10009000DB010008DB010008DB010008DB010008D0
:1000A000DB010008DB010008DB010008DB010008C0
:1000B000DB010008DB010008DB010008DB010008B0
:1000C000DB010008DB010008DB010008DB010008A0
:1000D000DB010008DB010008815C0008955C00087A
:1000E000DB010008DB010008DB010008DB01000880
:1000F000DB010008DB010008DB010008690A0008D9
:10010000DB010008DB010008DB010008DB0100085F
:10011000DB01000889560008DB010008DB0100084C
:10012000DB010008DB010008DB010008DB0100083F
:10013000DB010008DB010008DB010008DB0100082F
:10014000DB010008DB010008DB010008DB0100081F
:10015000DB010008DB010008DB010008DB0100080F
:10016000DB010008DB010008DB010008DB010008FF
:10017000DB010008DB010008DB01000800000000D3
:10018000DB010008DB010008DB010008DB010008DF
:10019000DB010008DB010008DB010008DB010008CF
:1001A0000000000000000000DB010008DFF80CD0B8
:1001B00000F034FB00480047116000088817012058
:1001C0000648804706480047FEE7FEE7FEE7FEE7F1
:1001D000FEE7FEE7FEE7FEE7FEE7FEE7255600083E
:1001E000AD0100082DE9F05F0546002092469B46D0
:1001F00088460646814640241BE02846414647463D
:10020000224600F054FA53465A46C01A914110D380
:1002100011461846224600F03BFA2D1A67EB0108FA
:100220004F4622460120002100F032FA17EB000968
:100230004E41201EA4F10104DFDC484631462A4627
:100240004346BDE8F09F40EA01039B0703D009E065
:1002500008C9121F08C0042AFAD203E011F8013BB2
:1002600000F8013B521EF9D2704710B5044604E075
:100270000B7800F8013B03B1491C521EF8D220460E
:1002800010BD421C10F8011B0029FBD1801A7047D9
:100290002DE9FE4F804681EA0300C00F0C46009016
:1002A00021F0004123F00045B8EB0200A94105D23E
:1002B0004046214690461C460B46024623F000402D
:1002C000104347D0270DC7F30A00C3F30A51029029
:1002D000401A019040286BDAC3F3130040F4801BEE
:1002E0000098924620B10023D2EB030A63EB0B0B7C
:1002F00001985946C0F14002504600F0C9F906463F
:100300000D4650465946019A00F0E1F910EB0800FD
:100310006141002487EA115284EAE7731A4340D00E
:10032000009A62B3019A012A4FEA075215DC001BBA
:1003300061EB02014FF0004202EA0752CDE90042B0
:10034000001C41F5801132462B4600F018FA03B02C
:10035000BDE8F08F40462146F9E7001B61EB020142
:10036000001C41F5801300185B412018A2F500170E
:1003700047EB030140EAD570B6196D4111E06D08F5
:100380004FEA360645EAC0754FEA0752001B61EB9B
:100390000201001C41F5801149084FEA30000019A4
:1003A000514132462B4603B0BDE8F04F00F0D8B9BA
:1003B0000098012240000023D0EB020263EBE073BF
:1003C000009821464FEAE074B8EB000061EB0401AD
:1003D000E9E783F000435BE781F0004158E72DE94E
:1003E000FE4F81EA030404F0004421F00041009430
:1003F0004FF0000B23F0004350EA01045ED052EAB4
:1004000003045BD0C3F30A54C1F30A552C44A4F28D
:10041000F3340194A0FB0254C1F3130141F48011A1
:10042000C3F3130343F4801301FB024400FB034EA8
:10043000840A970A44EA815447EA8357A4FB076871
:1004400002958D0A05FB07854FEA932C04FB0C549B
:100450002705029D4FEA065847EA1637B5EB08050F
:100460006EEB070C870E920E47EA811742EA831261
:10047000A7FB0201B6EB0B0164EB00042B0D43EA72
:100480000C335E1844EB1C50DA465146E7FB020180
:10049000C5F313044FEA0B3343EA14534FEA043213
:1004A000019C43EA0603A4F10C040294009CCDE9EC
:1004B00000B400F064F903B0BDE8F08F00200146FD
:1004C000F9E72DE9F04D81EA030404F0004B21F037
:1004D000004514464FF0000A23F0004150EA05029F
:1004E00020D054EA01021DD0C5F30A570246C5F3D5
:1004F0001303C1F31300C1F30A5640F4801543F40B
:100500008013A7EB0608101BD64608F2FD3873EBE4
:10051000050002D308F1010801E092185B41B8F12F
:10052000000F03DA00200146BDE8F08D00204FF4F3
:100530008011064684460EE0171B73EB050705D3B2
:10054000121B63EB050306434CEA010C49084FEA12
:10055000300092185B4150EA0107EDD152EA0300E6
:1005600012D082EA040083EA0501084305D0101B7B
:10057000AB4106D20122002306E000224FF00043E7
:1005800002E06FF0010253101AEB06004CEB085129
:1005900010EB0A0041EB0B01BDE8F04D00F0E0B8B4
:1005A0000EB5C10F80EAE0700844CA07002140F28E
:1005B00033438DE80E000A460B4600F0E0F803B026
:1005C00000BD70B5C1F30A5201F000450024C1F32B
:1005D000130140F2FF3341F480119A4201DA002006
:1005E00070BD40F233439A42A2F2334203DC5242DE
:1005F00000F05DF800E090402C43F1D0404270BD27
:10060000C1F30A5210B5C1F3130140F2FF3341F4B4
:1006100080119A4201DA002010BD40F233439A4221
:10062000A2F2334203DC524200F041F810BD904088
:1006300010BD00F0004230F000400AD0C10D01F5BD
:100640006071C0F3160042EA0151C208400711432D
:10065000704700200146704701F0004330B421F09C
:10066000004150EA010206D00A0DA2F56072C1F302
:100670001301002A02DC30BC00207047440F44EA1A
:10068000C104C100E01830BC00EBC25000F031B82A
:10069000202A04DB203A00FA02F100207047914042
:1006A000C2F1200320FA03F3194390407047202A37
:1006B00004DB203A21FA02F00021704721FA02F30C
:1006C000D040C2F120029140084319467047202AC9
:1006D00006DBCB17203A41FA02F043EAE07306E06A
:1006E00041FA02F3D040C2F120029140084319467A
:1006F00070470029A8BF7047401C490008BF20F080
:100700000100704710B4B0FA80FC00FA0CF050EA17
:10071000010404BF10BC704749B1CCF1200421FA98
:1007200004F411FA0CF118BF012121430843A3EB93
:100730000C01CB1D4FEA00614FEA102042BF0020A0
:1007400010BC704700EBC35010440029A4BF10BC7C
:100750007047401C490008BF20F0010010BC7047E2
:1007600010B5141E73F1000408DA401C41F10001B9
:1007700092185B411A4301D120F0010010BD2DE910
:10078000F04D92469B4611B1B1FA81F202E0B0FA07
:1007900080F220329046FFF77BFF04460F4640EA86
:1007A0000A0041EA0B0153465A46084313D011464A
:1007B00053EA010019D0C8F140025046FFF777FF15
:1007C00005460E46504659464246FFF761FF08432C
:1007D00005D0012004E020463946BDE8F08D002018
:1007E000054346EAE0762C4337430A986305E40A5A
:1007F000A0EB08000022FD0A44EA47540A3002D563
:1008000000200146E9E7010510196941DDE90845C5
:1008100000196941BDE8F04DA2E70000064C074D04
:1008200006E0E06840F0010394E8070098471034C0
:10083000AC42F6D3FFF7BEFCEC6200080C63000884
:1008400054494A6822F440324A604A6843681A436D
:100850004A600268526822F4807203685A60026833
:100860005368026943EA022203685A6002685268C8
:1008700022F0407203685A600268526883681A4323
:1008800003685A600268926822F4006203689A6002
:1008900002689268C3681A4303689A603E4B826A92
:1008A0009A4218D00268926822F0706203689A60D7
:1008B00002689268836A1A4303689A6002689268C1
:1008C00022F0405203689A6002689268C36A1A4331
:1008D00003689A600BE00268926822F07062036815
:1008E0009A600268926822F0405203689A60026837
:1008F000926822F0020203689A6002689368826933
:1009000043EA420203689A60026AA2B1026852682E
:1009100042F4006203685A600268526822F460423E
:1009200003685A6002685368426A521E43EA4232C0
:1009300003685A6005E00268526822F400620368A6
:100940005A600268D26A22F470020368DA620268AE
:10095000D36A828B521E43EA02520368DA6202684B
:10096000926822F4007203689A6002689368026BCE
:1009700043EA422203689A600268926822F4806225
:1009800003689A6002689368426943EA82220368B6
:100990009A607047002301400100000F2DE9F05FCD
:1009A00004460D46002600272046FFF76AFC8346D2
:1009B0002846FFF766FC8146B0464FF0FF3A04B187
:1009C00015B90020BDE8F09F20E0A05DE95D8842F8
:1009D00008D1A9F10100B84201D10120F2E7761C4B
:1009E0007F1C13E0A9EB070000EB060814F80810C1
:1009F000284600F0E0F882460AF1010018B908F133
:100A00000106002702E0A8EB0A0600275E45DCDBB2
:100A10000020D7E700BFFEE710B5024801F01CFA3E
:100A200010BD0000EC0C012010B5024801F014FAD2
:100A300010BD00006C0E012010B5024801F00CFA48
:100A400010BD0000CC0E012010B5024801F004FAE0
:100A500010BD0000AC0D012010B5024801F0FCF9FA
:100A600010BD00000C0E012010B5024801F0F4F991
:100A700010BD00004C0D01200146087810381823E5
:100A8000B0FBF3F20848805CC865032A05D9086802
:100A90006FF30900001D886503E008686FF3090023
:100AA0008865886D70470000A86000080146002036
:100AB0008A6A8B69CBB932B1012A0DD0022A03D0E0
:100AC000032A10D10EE000BFCB6A03F08073B3F1AC
:100AD000807F00D1012007E0CB6AB3F1C07F00D155
:100AE000012001E000E000BF34E08B69B3F5005F56
:100AF0001AD132B1012A07D0022A03D0032A11D118
:100B00000AE000BF01200EE0CB6A03F08073B3F16E
:100B1000807F00D1012006E0CB6AB3F1C07F00D115
:100B2000012000E000BF15E032B1012A05D0022A01
:100B300004D0032A0CD103E000BF00BF012008E06D
:100B4000CB6A03F08073B3F1807F00D1012000E015
:100B500000BF00BF704730B50468246824F48024C7
:100B600005682C60046863608468402C04D10468C4
:100B7000A2600468E16003E00468A1600468E260C8
:100B800030BD704770B504460D46164632462946BC
:100B9000204603F0B9F8012800D170BD0020FCE721
:100BA00070B504460D46164632462946204603F0E7
:100BB0003BF9012070BD70B505460E4600240DB905
:100BC000002070BD2846FFF75CFB441E05E0285D51
:100BD000B04201D12046F4E7641E002CF7DA4FF052
:100BE000FF30EEE738B56648007801287ED1002056
:100BF00003F044FE634800780A281AD14FF4FA60E3
:100C000004F00EF80128F1D14FF47A7005F0F6F9EE
:100C10005D49CA68143150180A2301225B4903F068
:100C200055FE002862D00121002002F0B7FF01200C
:100C300038BD00F059FE0128D8D10620544908607B
:100C40005149CA68143150180A2301224F4903F050
:100C50003DFE0028E6D01B204E4908604E494C4A14
:100C6000126888184B490A684849FFF7ECFA484867
:100C700000684849096808444549086047490A68C6
:100C80004549434B1B68C8184449091DFFF7DBFA67
:100C90003F480068801C3E4908603E480068801C50
:100CA0003C4908603D490A683B49394B1B68C818F4
:100CB0003A490831FFF7C7FA3548006835490968ED
:100CC00008443349086035480068324909680844D7
:100CD0003049086030482E490968084430490A689C
:100CE0000260496841602A48006800E045E02949FF
:100CF00009680844264908602648006808302549E4
:100D00000860684605F076F9012405E022490819D3
:100D1000694605F05CF9641C1E480068C01C8442EA
:100D2000F4D30098C2B21C491A480068001D0A5446
:100D30000098C0F3072217480068401D0A54154860
:100D40000268921C174801681348FFF729FF1548ED
:100D5000006810490968084412490860084600689C
:100D60004FF6FF71884202D300200E49086004212B
:100D7000002002F013FF01205AE7002058E700008E
:100D8000A8000020B8000020541101200009012013
:100D9000BC000020C80000208C0901201C09012093
:100DA000A0000020B40000202DE9F04F2DED108BA5
:100DB00083B080460C469146FA48C0F80080B9F1ED
:100DC000000F7DD1006890F805A0F6480168022068
:100DD00000F029FCF349096811F800B0BAF1430F9B
:100DE0006FD1BBF1410FFBD1EE480168042000F048
:100DF0001AFCEC490968085CA074EA4801680620FE
:100E000000F011FCE7490968085CE074E5480168F6
:100E1000032000F008FCE34909684718384600F051
:100E20000BFDB0EE40CAF0EE60CADE480168052056
:100E300000F0F9FBDB4909684718384600F0FCFC74
:100E4000B0EE40DAF0EE60DA51EC1C0BFFF7B9FBC4
:100E5000642190FBF1F020702178642211FB02F0F4
:100E6000FFF79EFB53EC1C2BFFF7B6FACDE9000110
:100E70009DED000B51EC100BFFF7EEFB08EE900A16
:100E8000BDEEE80A10EE100A6070607800EE100AFD
:100E9000B8EE400A38EEC00ADFEDC30A60EE20AAC1
:100EA000BDEEEA0A10EE100AA07051EC1D0BFFF720
:100EB00088FB642190FBF1F0E070E178642201E0AE
:100EC00082E105E211FB02F0FFF76AFB53EC1D2BF8
:100ED000FFF782FACDE900019DED000B51EC100BFC
:100EE000FFF7BAFB0AEE100ABDEECA0A10EE100AAE
:100EF0002071207900EE100AB8EE400A3AEE400A5E
:100F0000DFEDA90A20EE20FABDEECF0A10EE100A9E
:100F10006071A4480168072000F085FBA1490968B9
:100F20004718384600F0ABFCF0EE40FA1FEE900A8E
:100F3000FFF77FFB9FED9D0B53EC102BFFF74FFA54
:100F400041EC190B9FED9B0B53EC102B51EC190B43
:100F5000FFF745FA41EC190B9FED960B53EC102B64
:100F600051EC190BFFF7ADFA9FED940B53EC102BDE
:100F7000CDE900019DED000B51EC100BFFF7A1FA3C
:100F8000FFF73EFBA0719FED8B0B53EC102B51EC48
:100F9000190BFFF796FAFFF714FB0746C01707EB8C
:100FA00010600012A7EB0020E07151EC190BFFF765
:100FB00008FB642190FBF1F201FB120020727948DA
:100FC0000168082000F02FFB764909684718384669
:100FD00000F055FC8DED010A0198FFF72AFB41EC6A
:100FE0001B0B9FED760B53EC102B51EC1B0BFFF7FB
:100FF00068FAFFF705FB607251EC1B0BFFF7E1FA93
:101000000746C01707EB10600012A7EB002000EEA8
:10101000100AB8EEC00AB0EE408ABCEEC80A10EE64
:10102000100AA0729FED630B53EC102B51EC1B0BBD
:10103000FFF7D5F9FFF7C5FA642190FBF1F201FB48
:10104000120000EE100AB8EEC00AB0EE408A9FED22
:101050005D0AC8EE000AB0EE608A9FED530A28EEE2
:10106000000ABCEEC00A10EE100AE0729FED4E0AB4
:1010700028EE000ADFED530A20EE200ABDEEC00A7A
:1010800010EE100A90FBF1F201FB120000EE100AC4
:10109000B8EEC00AB0EE408A18EE100AFFF7C9FA9F
:1010A0009FED440B53EC102BFFF70BFACDE9000139
:1010B0009DED000B51EC100BFFF7CEFA08EE100A75
:1010C0009FED390A28EE000ABCEEC00A10EE100AA5
:1010D000207334480068007A303832490968C97989
:1010E000303901EB810100EB410020762D4800688A
:1010F000807A30382B490968497A303901EB81010F
:1011000000EB4100607627480068007B30382549B5
:101110000968C97A303901EB810100EB4100A07602
:1011200020480168092000F07EFAC5B21D48016818
:10113000681C085C30381B490968495D303901EB8F
:10114000810100EB4100E07516480168E81C085C6D
:10115000303814490A68A91C515C303901EB81010F
:1011600000EB4100A0750F480168681D085C30382D
:101170000C490A68291D515C303901EB810100EBF3
:10118000410000F5FA6604F1140004F08DFD002022
:1011900020741B206074012003B0BDEC108BBDE8EF
:1011A000F08F000084000020000070429A99999905
:1011B0009999FD3F00000000000059400000000028
:1011C000000070400000C842FE48006800782B28EC
:1011D0007ED1FC480068407A3A28F9D1F948016884
:1011E000012000F020FAC5B2002020746074F54898
:1011F0000068405DA074A07C4E2808D0A07C5328D5
:1012000005D0002003B0BDEC108BBDE8F08FED4899
:101210000168022000F007FAC5B2EA4909684819D6
:1012200000F00AFBB0EE40DAF0EE60DAE548016863
:10123000032000F0F8F9C5B2E2480068405DE074B0
:10124000E0480168012000F0D0F9C5B2DD49096825
:10125000481900F0F1FAB0EE40CAF0EE60CA51EC65
:101260001C0BFFF7AEF9642190FBF1F020702178A0
:10127000642211FB02F0FFF793F953EC1C2BCDE92C
:1012800000019DED000B51EC100BFFF7A5F8FFF7E7
:10129000E3F908EE900ABDEEE80A10EE100A60705D
:1012A000607800EE100AB8EE400A38EEC00A5FED32
:1012B000420A60EE20AABDEEEA0A10EE100AA07003
:1012C00051EC1D0BFFF77DF9642190FBF1F000E07C
:1012D00089E1E070E178642211FB02F0FFF760F928
:1012E00053EC1D2BCDE900019DED000B51EC100BD3
:1012F000FFF772F8FFF7B0F90AEE100ABDEECA0A5E
:1013000010EE100A2071207900EE100AB8EE400AA3
:101310003AEE400A5FED5C0A20EE20FABDEECF0AFD
:1013200010EE100A6071A7480168072000F07BF9F1
:10133000C5B2A4490968481900F0A1FAF0EE40FAD4
:101340001FEE900AFFF775F91FED680B53EC102B99
:10135000FFF745F8CDE900019DED000B51EC100BB6
:10136000FFF77AF90FEE900A1FED6A0A2FEE800A56
:1013700010EE101A0846FFF75CF941EC190B1FED4F
:10138000730B53EC102B51EC190BFFF79AF81FED70
:10139000750B53EC102BFFF794F8CDE900019DED90
:1013A000000B51EC100BFFF72BF9A0711FED7F0B19
:1013B00053EC102B51EC190BFFF783F8FFF701F9F1
:1013C0000746C01707EB10600012A7EB0020E07182
:1013D00051EC190BFFF7F5F8642190FBF1F201FBDA
:1013E0001200207277480168082000F01CF9C5B28D
:1013F00000BF74490968481900F060FA10EE107ACD
:101400003846FFF716F941EC1B0B1FED940B53EC1C
:10141000102B51EC1B0BFFF754F8FFF7F1F860723B
:1014200051EC1B0BFFF7CDF80746C01707EB106018
:101430000012A7EB002000EE100AB8EEC00AB0EED2
:10144000408ABCEEC80A10EE100AA0721FEDA70B6E
:1014500053EC102B51EC1B0BFEF7C1FFFFF7B1F85B
:10146000642190FBF1F201FB120000EE100AB8EECD
:10147000C00AB0EE408A1FEDAD0AC8EE000AB0EE19
:10148000608A1FEDB70A28EE000ABCEEC00A10EE13
:10149000100AE0721FEDBC0A28EE000A5FEDB70AE1
:1014A00020EE200ABDEEC00A10EE100A90FBF1F209
:1014B00001FB120000EE100AB8EEC00AB0EE408A3E
:1014C00018EE100AFFF7B5F81FEDC60B53EC102B02
:1014D000FEF7F7FFCDE900019DED000B51EC100B7D
:1014E000FFF7BAF808EE100A1FEDD10A28EE000A3D
:1014F000BCEEC00A10EE100A2073324801680520C5
:1015000000F091F8C5B22F480168681C085C3038BB
:101510002C490968495D303901EB810100EB41003C
:10152000207628480168E81C085C303825490A689C
:10153000A91C515C303901EB810100EB4100607660
:1015400020480168681D085C30381E490A68291D5A
:10155000515C303901EB810100EB4100A076194864
:101560000168042000F05FF8C5B216480168681CE5
:10157000085C303813490968495D303901EB810155
:1015800000EB4100E0750F480168E81C085C30384A
:101590000C490A68A91C515C303901EB810100EB50
:1015A0004100A07507480168681D085C303805498E
:1015B0000A68291D515C303901EB810100EB4100C3
:1015C00002E000008400002000F5FA66300A207571
:1015D000667504F1140004F067FB002020741B20E2
:1015E000607401200EE600200CE62DE9F047064667
:1015F0000D464FF0000900272846FEF742FE8046C0
:1016000000240CE0285D3A2802D009F1010900E02D
:101610007F1CB74202D1601CBDE8F087641C4445C2
:10162000F0DB0020F8E72DE9F04706460D464FF0C5
:10163000000900272846FEF724FE804600240CE01F
:10164000285D2C2802D009F1010900E07F1CB74277
:1016500002D1601CBDE8F087641C4445F0DB00202B
:10166000F8E7000000B587B0364800780A2866D150
:101670001C2235496846FEF7E6FD3449CA68143134
:10168000501831490C390EC902F047FA002856D0DB
:1016900000202E4908720846C068801D1431085C7D
:1016A00029490C3908720846007A012844D1274894
:1016B000C068C01D2549143101442348C01E0A6872
:1016C00002604A6842608968816009384068A0F118
:1016D00019021E48C06813301C4B1433C1181A4835
:1016E0000C30FEF7B0FD1948C06817490C3949683D
:1016F0000844801F15491431085C13490C390877D8
:101700001248C06849680844401F10491431014418
:101710000D480C380968C0F81D100C48C0680A490B
:101720000C3949680844401E08491431085C0649D0
:101730000C3981F8210002E00220054908700020E0
:1017400007B000BDB800002070090120541101202D
:10175000B10000202DE9FC4106460C46002727E099
:10176000002521E0314800F069FA4FF6FF712F485B
:1017700000F006FA2D4800F0A1F92D4908603DB9A6
:101780002A4800F09BF92A4909680844284908605A
:10179000012D07D1254800F091F926490968084430
:1017A00024490860681CC5B2022DDBDB781CC7B277
:1017B000A742D5DB1E480068B0FBF4F01C49086066
:1017C0001C480068B0FBF4F01A490860184800682B
:1017D000000E8DF8040016480068010C8DF8051005
:1017E00013480088010A8DF80610114801788DF819
:1017F000071010480068000E8DF800000D480068C2
:10180000000C8DF801000B480088000A8DF80200DA
:10181000084800788DF80300044800F08FFA00981B
:10182000306001987060BDE8FC8100008C0B0120E5
:10183000D0000020D400002030B52DED028B83B005
:10184000054629460120FFF7EEFEC4B2601EC4B271
:10185000224629466846FEF708FD00200DF80400E0
:10186000684603F051FDB0EE408AF0EE608AB0EEBB
:10187000480AF0EE680A03B0BDEC028B30BD30B50B
:101880002DED028B83B0054629460120FFF7CBFEE4
:10189000C4B2601EC4B2224629466846FEF7E5FC83
:1018A00000200DF80400684603F0B8FDB0EE408A51
:1018B000B0EE480A03B0BDEC028B30BD10B52DED83
:1018C000028B84B004460122214601A8FEF7CDFC1C
:1018D00001A803F0A3FDB0EE408AB0EE480A04B0C0
:1018E000BDEC028B10BD0000034800781E2801DB10
:1018F000012070470020FCE77C00002001480078B0
:101900007047000074000020014800787047000014
:10191000AF00002003490A6802608A8882808979C2
:1019200081717047F400002038B502460020009015
:1019300000BF92F83C00012801D1022038BD0120EF
:1019400082F83C0000BF0868092816D91068C068F2
:101950000C780A3C04EB44050724AC40A04314680F
:10196000E0600C780A3C04EB44048868A0401468EA
:10197000E46820431468E06013E0106800690C78A4
:1019800004EB44050724AC40A043146820610C78A4
:1019900004EB44048868A040146824692043146858
:1019A00020614868072817D21068406B0C79641EC4
:1019B00004EB84051F24AC40A043146860630888CE
:1019C00080B20C79641E04EB8404A0401468646B3C
:1019D00020431468606331E048680D2817D210680E
:1019E000006B0C79E41F04EB84051F24AC40A0437A
:1019F00014682063088880B20C79E41F04EB840427
:101A0000A0401468246B20431468206316E010681B
:101A1000C06A0C790D3C04EB84051F24AC40A04344
:101A20001468E062088880B20C790D3C04EB8404F1
:101A3000A0401468E46A20431468E0621A4B1B4C0F
:101A40001068A04206D10868122803D1586840F4F3
:101A500080005860154C1068A0421ED1144C0868D4
:101A6000A04202D00868112817D1586840F400003D
:101A700058600F4C0868A0420FD10E4800680E4C09
:101A8000B0FBF4F000EB80004000009002E0009812
:101A9000401E009000980028F9D100BF002082F875
:101AA0003C0000BF00BF49E7002301400020014087
:101AB000120000100000002040420F00014608689C
:101AC000C06C704770B5044600250CB9012070BD8C
:101AD0001549A06A884200D000BF206C30B90020B0
:101AE000606484F83C00204600F020F8206C00F090
:101AF000100088B9206C20F4885040F00200206467
:101B00002046FEF79DFE00206064206C20F002005D
:101B100040F00100206400E0012500BF002084F8AF
:101B20003C0000BF2846D2E70100000F10B586B088
:101B3000044610492068884219D100BF0020009057
:101B40000D48006840F480700B4908600846006842
:101B500000F48070009000BF00BF0C2001900320B3
:101B600002900020039001A9044800F05BFB06B03E
:101B700010BD00000020014044380240000802402F
:101B800070B504460D4600262068806800F4806029
:101B900078B12068806800F4807050B1206C40F00B
:101BA0002000206400BF002084F83C0000BF01201A
:101BB00070BD00F053FC064612E0681C80B125B1F0
:101BC00000F04CFC801BA8420AD9206C40F00400B5
:101BD000206400BF002084F83C0000BF0320E7E73A
:101BE0002068006800F002000228E6D16FF01200C1
:101BF00021680860206C40F40070206420688068D0
:101C000000F04050B8B9A069A8B92068C06A00F4D3
:101C1000700020B12068806800F4806058B9206CA2
:101C200020F480702064206C00F4805018B9206C7F
:101C300040F0010020640020BAE7000008B501462A
:101C40000020009000BF91F83C00012801D1022043
:101C500008BD012081F83C0000BF0868806800F0E2
:101C60000100A0B90868806840F001000B68986026
:101C70002E4800682E4BB0FBF3F000EB40000090C4
:101C800002E00098401E009000980028F9D10868F2
:101C9000806800F00100002845D0086C40F2016324
:101CA000984340F4807008640868406800F48060DD
:101CB00028B1086C20F4005040F480500864086C8F
:101CC00000F4805020B1486C20F00600486401E028
:101CD0000020486400BF002081F83C0000BF154A86
:101CE0006FF022000B681860506800F01F0058B9B0
:101CF0000868806800F04050A8B90868806840F023
:101D000080400B6898600EE00B4B086898420AD13F
:101D10000868806800F0405028B90868806840F082
:101D200080400B689860002092E7000000000020CF
:101D300040420F000023014000200140014600BF47
:101D400091F83C00012801D102207047012081F860
:101D50003C0000BF0868806820F001000A689060BD
:101D60000868806800F0010028B9086C20F48850E9
:101D700040F00100086400BF002081F83C0000BF73
:101D800000BFE2E770B50446A56D00F067FB0646AC
:101D900094F83500022808D08020606500BF00203C
:101DA00084F8340000BF012070BD2068006820F076
:101DB0001600216808602068406920F080002168D2
:101DC0004861206C08B9A06C28B12068006820F038
:101DD0000800216808602068006820F00100216880
:101DE00008600FE000F03AFB801B05280AD920208C
:101DF000606500BF002084F8340000BF032084F831
:101E00003500D1E72068006800F001000028E9D122
:101E100094F85C103F208840A86000BF002084F840
:101E2000340000BF012084F835000020BCE70146E3
:101E300091F83500022803D08020486501207047C2
:101E4000052081F835000868006820F001000A6864
:101E500010600020F3E70000F8B504460020009071
:101E60008C4800684FF41651B0FBF1F7A56D2E6851
:101E700094F85C1008208840304098B120680068D1
:101E800000F0040070B12068006820F004002168B0
:101E9000086094F85C1008208840A860606D40F0ED
:101EA0000100606594F85C1001208840304068B102
:101EB0002068406900F0800040B194F85C10012077
:101EC0008840A860606D40F00200606594F85C1086
:101ED00004208840304068B12068006800F00200AB
:101EE00040B194F85C1004208840A860606D40F018
:101EF0000400606594F85C1010208840304078B38E
:101F00002068006800F0080050B394F85C101020BE
:101F10008840A8602068006800F4802080B12068B4
:101F2000006800F4002028B9206CC8B12046216C5C
:101F3000884715E0A06C98B12046A16C88470FE057
:101F40002068006800F4807028B92068006820F0DC
:101F5000080021680860206C10B12046216C884779
:101F600094F85C10202088403040002865D020681C
:101F7000006800F0100000285FD094F85C1020206A
:101F80008840A86094F83500052828D120680068AA
:101F900020F01600216808602068406920F0800069
:101FA00021684861206C08B9A06C28B120680068DD
:101FB00020F008002168086094F85C103F208840F9
:101FC000A86000BF002084F8340000BF012084F81E
:101FD0003500206D10B12046216D8847F8BD20687E
:101FE000006800F4802080B12068006800F40020C0
:101FF00028B9606C10B12046616C88471DE0E06B29
:10200000D8B12046E16B884717E02068006800F4EB
:10201000807068B92068006820F0100021680860AE
:1020200000BF002084F8340000BF012084F8350090
:10203000E06B10B12046E16B8847606D38B3606D8E
:1020400000F00100F0B1052084F835002068006838
:1020500020F001002168086000BF0098401C00903B
:10206000B84200D905E02068006800F001000028AF
:10207000F3D100BF00BF002084F8340000BF01206E
:1020800084F83500E06C10B12046E16C884700BF51
:10209000A4E70000000000202DE9F04104460025DF
:1020A00000F0DCF9074614B90120BDE8F081606A50
:1020B00000B100BF00BF002084F8340000BF022040
:1020C00084F835002068006820F00100216808606D
:1020D0000AE000F0C3F9C01B052805D9202060657F
:1020E000032084F83500E0E72068006800F0010074
:1020F0000028EED12068056821480540D4E9010197
:102100000843E16808432169084361690843A169FC
:102110000843E1690843216A08430543606A0428CB
:1021200003D1D4E90B01084305432068056020680A
:10213000456925F00705606A0543606A04280DD1EA
:10214000A06A0543E06A48B12046FEF7AFFC28B11B
:1021500040206065012084F83500A6E720684561CD
:102160002046FEF789FC064694F85C103F20884024
:10217000B06000206065012084F83500002094E7FD
:102180003F8010F02DE9F04704460D4616461F46E5
:102190004FF00008D4F8589000BF94F8340001289C
:1021A00002D10220BDE8F087012084F8340000BF8E
:1021B00094F8350001282BD1022084F83500002046
:1021C00060653B46324629462046FEF7C4FC94F83B
:1021D0005C103F208840C9F808002068006840F083
:1021E0001600216808602068406940F0800021687E
:1021F0004861206C28B12068006840F00800216820
:1022000008602068006840F001002168086006E06E
:1022100000BF002084F8340000BF4FF002084046A1
:10222000C0E70000F8B502460B4600250024002058
:102230000021E6E0012606FA01F51E6806EA05041B
:10224000AC4273D15E68022E02D05E68122E13D1AA
:10225000CF0802F1200656F827004E07F70E0F268A
:10226000BE40B0434F07FF0E1E69BE403043CF084B
:1022700002F1200646F8270010684F000326BE40F2
:10228000B0431E7906F003064F00BE403043106095
:102290005E68012E08D05E68022E05D05E68112EA1
:1022A00002D05E68122E13D190684F000326BE4004
:1022B000B0434F00DE68BE40304390605068012656
:1022C0008E40B0431E79C6F300168E4030435060F6
:1022D000D0684F000326BE40B0434F009E68BE400A
:1022E0003043D0605E6806F08056B6F1805FA8D1BA
:1022F00000BF00260096454E366846F48046434FA0
:102300003E603E46366806F48046009600BF00BF39
:102310003F4E8F0856F827008E07370F0F26BE4016
:10232000B0433C4EB24202D100262EE068E03A4E65
:10233000B24201D1012628E0384EB24201D1022634
:1023400023E0374EB24201D103261EE0354EB242A1
:1023500001D1042619E0344EB24201D1052614E021
:10236000324EB24201D106260FE0314EB24201D1C7
:1023700007260AE02F4EB24201D1082605E02E4E74
:10238000B24201D1092600E00A268F073F0FBE4066
:1023900030431F4E8F0846F82700284E3068A04370
:1023A0005E6806F48036B6F5803F00D12043234EA8
:1023B0003060361D3068A0435E6806F40036B6F51E
:1023C000003F00D120431D4E361D3060361D306861
:1023D000A0435E6806F48016B6F5801F00D1204346
:1023E000164E08363060361D3068A0435E6806F42D
:1023F0000016B6F5001F00D12043104E0C36306099
:10240000491C1029FFF416AFF8BD00004438024003
:102410000838014000000240000402400008024069
:10242000000C02400010024000140240001802405C
:10243000001C02400020024000240240003C0140F9
:10244000024613690B400BB1012000E000207047E9
:102450000AB1816101E00B048361704701480068A3
:1024600070470000640000200348006803490978B1
:102470000844014908607047640000206C00002097
:1024800010B50D48006840F400700B49086008461C
:10249000006840F4806008600846006840F480707E
:1024A0000860032000F0A6F8002000F007F800F014
:1024B0002BF8002010BD0000003C024070B504461F
:1024C0000E4800784FF47A71B1FBF0F00C490968BE
:1024D000B1FBF0F5284600F0FDFD08B1012070BD0C
:1024E000102C07D200222146501E00F045F8054866
:1024F000046001E00120F2E70020F0E76C0000201A
:10250000000000206800002010B5032000F072F8E1
:10251000002211466FF00B0000F02EF80022114649
:102520006FF00A0000F028F8002211466FF0090051
:1025300000F022F800221146501F00F01DF8002282
:102540001146101F00F018F800221146901E00F0EE
:1025500013F800221146501E00F00EF810BD00BF07
:1025600000F01F02012191404209920002F1E02295
:10257000C2F8001100BF70472DE9F05F80460D469C
:102580001646002701F0C2FF074639462A46334661
:1025900001F00700C0F1070ABAF1040F02D94FF0A9
:1025A000040A01E0C0F1070AD14600F1040ABAF1B9
:1025B000070F02D24FF0000A01E0A0F1030AD4464F
:1025C0004FF0010A0AFA09FAAAF1010A0AEA020A14
:1025D0000AFA0CFA4FF0010B0BFA0CFBABF1010BF2
:1025E0000BEA030B4AEA0B042146404601F096FF32
:1025F000BDE8F09F00BF00F00702064B19684FF6D8
:10260000FF031940044B0B4343EA0221014B1960BD
:1026100000BF70470CED00E00000FA0538B500245B
:1026200000BF002000901D48006840F080501B490A
:1026300008600846006800F08050009000BF00BFAE
:10264000012017490864FFF709FF044607E0FFF778
:1026500005FF001BB0F57A7F01D9032038BD114872
:10266000406800F48030B0F5803FF0D101200C4983
:102670004864FFF7F3FE044607E0FFF7EFFE001B98
:10268000B0F57A7F01D90320E8E70648406800F4F6
:102690000030B0F5003FF0D10020DFE740380240C5
:1026A00000000E420070004070B504460D460CB9A3
:1026B000012070BD5848006800F00F00A84209D200
:1026C00055490D700846006800F00F00A84201D07F
:1026D0000120EEE7207800F0020002281DD12078CA
:1026E00000F00400042805D14C48006840F4E05094
:1026F0004A490860207800F00800082805D14748BA
:10270000006840F46040454908604448006820F093
:10271000F000A168084341490860207800F00100FA
:10272000A8B36068012807D13C4808380068C0F3A6
:102730004040B8B90120BCE76068022802D0606858
:10274000032807D1354808380068C0F3406048B90D
:102750000120AEE7314808380068C0F3400008B9EE
:102760000120A6E72D48006820F0030061680843B7
:102770002A490860FFF772FE064609E0FFF76EFE81
:10278000801B41F28831884202D9032091E707E09B
:102790002248006800F00C006168B0EB810FEDD1B9
:1027A0001D48006800F00F00A84209D91A490D70B1
:1027B0000846006800F00F00A84201D0012078E729
:1027C000207800F00400042807D11448006820F4A1
:1027D000E050E168084311490860207800F00800E3
:1027E000082808D10D48006820F46040216940EABB
:1027F000C1000A49086000F03DF808490968C1F3C2
:102800000311074A515CC840064908600020FFF7E1
:1028100055FE00204DE70000003C02400838024011
:102820009060000800000020014800687047000028
:102830000000002000B5FFF7F7FF04490968C1F365
:102840008221034A515CC84000BD000008380240A4
:10285000A060000800B5FFF7E7FF04490968C1F36D
:102860004231034A515CC84000BD000008380240B4
:10287000A06000082DE9F047002400250026A146AD
:102880002548006800F00C0020B1042805D0082875
:102890003AD105E0DFF8849039E0DFF8849036E043
:1028A0001D48001F006800F03F041B48001F00681F
:1028B00000F4800078B11A481749091F0968C1F36C
:1028C0008811A0FB01700146224600233846FDF71F
:1028D00089FC05460EE011480F49091F0968C1F33C
:1028E0008811A0FB01700146224600233846FDF7FF
:1028F00079FC05460848001F0068C0F30140401CF1
:102900004600B5FBF6F902E0DFF8109000BF00BF0B
:102910004846BDE8F0870000083802400024F40073
:1029200040787D01F8B504460CB90120F8BD207847
:1029300000F00100002874D0F948006800F00C0095
:1029400004280DD0F648006800F00C00082813D1C8
:10295000F348001F006800F48000B0F5800F0BD131
:10296000EF4808380068C0F34040002859D060683C
:10297000002856D10120D9E700BF6068B0F5803F3C
:1029800008D1E7480838006840F48030E449083945
:1029900008601EE06068B0F5A02F0DD1E04808384F
:1029A000006840F48020DE49083908600846006865
:1029B00040F4803008600CE0D9480838006820F402
:1029C0008030D749083908600846006820F4802024
:1029D000086000BF606890B1FFF740FD054606E063
:1029E000FFF73CFD401B642801D903209EE7CC483B
:1029F00008380068C0F340400028F1D011E0FFF72C
:102A00002DFD054606E0FFF729FD401B642801D98E
:102A100003208BE7C24808380068C0F34040002814
:102A2000F1D1207800F0020002285FD1BC48006894
:102A300000F00C0058B1BA48006800F00C000828FB
:102A40001CD1B748001F006800F48000B0B9B4483A
:102A500008380068C0F3400020B1E068012801D0C8
:102A6000012063E7AE480838006820F0F8002169CB
:102A700040EAC100AA490839086037E0E06800B3BD
:102A80000120A8490860FFF7E9FC054606E0FFF7CA
:102A9000E5FC401B022801D9032047E7A04808387D
:102AA0000068C0F340000028F1D09D480838006855
:102AB00020F0F800216940EAC1009949083908600E
:102AC00014E0002097490860FFF7C8FC054606E0BF
:102AD000FFF7C4FC401B022801D9032026E79048D9
:102AE00008380068C0F340000028F1D1207800F0D9
:102AF000080008282CD16069A8B101208A49086023
:102B0000FFF7ACFC054606E0FFF7A8FC401B0228D7
:102B100001D903200AE782486C300068C0F3400006
:102B20000028F1D014E000207F490860FFF796FCF0
:102B3000054606E0FFF792FC401B022801D903205E
:102B4000F4E677486C300068C0F340000028F1D10B
:102B5000207800F00400042870D100267048383036
:102B6000006800F0805090B900BF002000906C48D1
:102B70003830006840F080506949383108600846B4
:102B8000006800F08050009000BF00BF0126674839
:102B9000006800F48070B0B96448006840F4807048
:102BA00062490860FFF75AFC054606E0FFF756FC4D
:102BB000401B022801D90320B8E65C48006800F4F5
:102BC00080700028F2D000BFA068012808D15448C6
:102BD0006830006840F001005149683108601DE02C
:102BE000A06805280DD14E486830006840F0040008
:102BF0004B49683108600846006840F001000860F1
:102C00000CE047486830006820F001004449683112
:102C100008600846006820F00400086000BFA06853
:102C2000A8B1FFF71BFC054609E0FFF717FC401BA6
:102C300041F28831884202D9032077E626E03848FD
:102C400068300068C0F340000028EED013E0FFF7C2
:102C500005FC054608E0FFF701FC401B41F2883106
:102C6000884201D9032061E62D4868300068C0F32E
:102C700040000028EFD1012E07D1294838300068E4
:102C800020F0805026493831086000BFA069B8B3F1
:102C90002348006800F00C0008285ED0A0690228D4
:102CA00046D100201F490866FFF7D8FB054606E01D
:102CB000FFF7D4FB401B022801D9032036E6184851
:102CC00008380068C0F340600028F1D1D4E907015A
:102CD0000843616A40EA81110122A06AC2EB5000F8
:102CE00041EA00412C20005D41EA00600C49091FC7
:102CF000086001200B490866FFF7B0FB054607E0B6
:102D00002DE0FFF7ABFB401B022801D903200DE6A5
:102D1000034808380068C0F340600028F1D01EE086
:102D20000838024000004742800E474200700040D1
:102D300000200C490866FFF791FB054606E0FFF707
:102D40008DFB401B022801D90320EFE506480068EF
:102D5000C0F340600028F2D101E00120E6E5002048
:102D6000E4E50000000047420038024010B5044688
:102D70000CB9012010BD606A00B900BF0021A1623A
:102D800094F8510028B9002084F85000204600F043
:102D900033F8022084F851002068006820F04000D9
:102DA00021680860D4E901010843E168084321690A
:102DB000084361690843218B01F400710843E1690C
:102DC0000843216A0843A16A084321680860042176
:102DD000A06901EA1040616A0843216848602068E0
:102DE000C06920F400602168C8610020606501208E
:102DF00084F851000020BDE710B586B0044619499B
:102E0000206888422BD100BF00200090164800683F
:102E100040F48050144908600846006800F480506F
:102E2000009000BF00BF60200190022002900120AE
:102E30000390032004900520059001A90B48FFF79B
:102E4000F1F98020019002200290002003900320DD
:102E500004900520059001A90448FFF7E3F906B0A6
:102E600010BD000000300140443802400000024024
:102E70002DE9FE4F04460D4616461F46DDF830800C
:102E80004FF0000A0020029081464FF0010B0190A4
:102E900000BF94F85000012802D10220BDE8FE8F47
:102EA000012084F8500000BFFFF7D8FA814694F85B
:102EB00051A060680290BAF1010F0BD00298B0F5F2
:102EC000827F04D1A06810B9BAF1040F02D00220A9
:102ED0000190D2E00DB106B117B901200190CCE00C
:102EE00094F85100012802D1052084F851000020F7
:102EF0006065A663E787A7872563E786A7862064C2
:102F000060642068006800F04000402805D0206818
:102F1000006840F0400021680860E068B0F5006F8C
:102F200043D1606810B1E08E012806D1288821685D
:102F3000C860AD1CE08E401EE0862FE0BBF1000FA4
:102F400010D0E08E70B12068806800F00200022886
:102F500008D128882168C860AD1CE08E401EE0863C
:102F60004FF0000BE08F68B12068806800F001002E
:102F700040B12068C0683080B61CE08F401EE087FA
:102F80004FF0010B08F1010040B1FFF767FAA0EB29
:102F90000900404502D3032001906EE0E08E002836
:102FA000CCD1E08F0028C9D142E0606810B1E08E3A
:102FB000012806D12878216808736D1CE08E401E18
:102FC000E0862FE0BBF1000F10D0E08E70B12068DA
:102FD000806800F00200022808D115F8010B216872
:102FE0000873E08E401EE0864FF0000BE08F68B162
:102FF0002068806800F0010040B12068C06806F8D1
:10300000010BE08F401EE0874FF0010B08F101003B
:1030100040B1FFF723FAA0EB0900404502D303209B
:1030200001902AE0E08E0028CCD1E08F0028C9D1A1
:103030004346012202212046CDF8009002F008F814
:1030400010B10320019018E04A464146204601F0A5
:10305000EBFF20B101200190202060650DE0A06809
:1030600050B900BF002000902068C0680090206820
:103070008068009000BF00BF00BF012084F85100AD
:1030800000BF002084F8500000BF019806E7042824
:1030900008D14FF0E021096941F004014FF0E0222E
:1030A000116107E04FF0E021096921F004014FF0C0
:1030B000E02211617047000000B50548006820B1AA
:1030C00003480068401E0249086002F0E3F800BDB2
:1030D000FC00002070B504462546681EB0F1807FD4
:1030E00001D301200FE0681E4FF0E02148610F215D
:1030F0004FF0FF3001F012FA00204FF0E02188611C
:1031000007200861002070BD10B5FFF7D5FF10BD86
:103110000146002200BF91F83800012801D10220A9
:103120007047012081F8380000BF08684069C0F38B
:10313000C01291F83900212806D12AB108684069E7
:1031400020F080000B68586108684069C0F3801265
:1031500091F83A00222812D18AB10868C06820F498
:1031600080700B68D8600868406920F001000B6827
:1031700058610868406920F040000B68586100BF42
:10318000002081F8380000BF00BFC9E708B501463C
:1031900000BF91F83800012801D1022008BD0120AC
:1031A00081F8380000BF91F83900212805D108685E
:1031B000406940F080000A68506191F83A00222886
:1031C0001CD100BF002000900868006800900868CB
:1031D0004068009000BF00BF0868C06840F480707D
:1031E0000A68D0600868406940F001000A685061D0
:1031F0000868406940F040000A68506100BF002044
:1032000081F8380000BF00BFC8E770B5044600254C
:1032100020684069C0F3C01594F8390021280ED108
:103220006DB12068406920F0800021684861206B02
:1032300010B1206BFEF7A6FD204602F0ABFA206825
:103240004069C0F3801594F83A0022280ED16DB180
:103250002068406920F0400021684861606B10B12F
:10326000606BFEF78FFD204602F074FA002070BDFF
:10327000704700002DE9F047044620680568206883
:10328000C668206847694FF00008C14605F00F087E
:10329000B8F1000F0AD105F0200038B106F0200087
:1032A00020B1204602F080FABDE8F087B8F1000FA7
:1032B0006DD007F0010018B906F49070002866D0B0
:1032C00005F0010030B106F4807018B1E06B40F0F9
:1032D0000100E06305F0040030B107F0010018B10F
:1032E000E06B40F00200E06305F0020030B107F04F
:1032F000010018B1E06B40F00400E06305F0080045
:1033000030B107F0010018B1E06B40F00800E06355
:10331000E06B68B305F0200028B106F0200010B182
:10332000204602F041FA20684069C0F38019E06B42
:1033300000F0080010B9B9F1000F22D0204602F0C9
:1033400009FA2068406900F04000B0B12068406987
:1033500020F0400021684861606B50B11748616BF4
:103360000865606BFEF763FD10B1606B016D884707
:103370000CE02046FFF77CFF08E02046FFF778FFCF
:1033800004E02046FFF774FF0020E0638CE705F0BF
:10339000800030B106F0800018B1204602F006FC33
:1033A00082E705F0400030B106F0400018B1204639
:1033B00002F0E0F978E700BF76E700009D560008CC
:1033C00010B504460CB9012010BDA06900B100E0A1
:1033D00000BF94F8390028B9002084F8380020464E
:1033E00000F028F8242084F839002068C06820F410
:1033F00000502168C860204602F024FA2068006965
:1034000020F49040216808612068406920F02A007B
:10341000216848612068C06840F400502168C86095
:103420000020E063202084F8390084F83A0000206E
:10343000CAE7000010B586B00446BC49206888423F
:103440007AD100BF00200090B948006840F4801095
:10345000B74908600846006800F48010009000BF7B
:1034600000BF8814019002200290012003900320E5
:1034700004900820059001A9AE48FEF7D3FE042071
:103480000190022002900120039003200490082064
:10349000059001A9A848FEF7C5FEA848A8490860FC
:1034A000C00548600021A6488160C1604FF480617A
:1034B00001610021416181614FF48071C16100218E
:1034C00001624162FEF7E8FD18B1DB219DA002F028
:1034D0006DFD00BF9A486063846300BF9748A830C1
:1034E0009F4908604FF00060486040219C4881601F
:1034F0000021C1604FF4806101610021416181615F
:103500004FF48071C161002101624162FEF7C4FD88
:1035100018B1ED218BA002F049FD00BF9048206357
:10352000846300BF002211463520FFF725F83520BF
:10353000FFF715F8F7E0FFE78A49206888427ED157
:1035400000BF002000907A48006840F400307849BD
:1035500008600846006800F40030009000BF00BF1B
:103560000420019002200290012003900320049087
:103570000720059001A97C48FEF754FE40200190E9
:103580000220029001200390032004900720059060
:1035900001A96948FEF746FE68487830734908601B
:1035A0004FF000604860002170488160C1604FF4B6
:1035B000806101610021416181614FF48071C161CD
:1035C000002101624162FEF767FD20B140F2211146
:1035D0005CA002F0EBFC00BF64486063846300BF42
:1035E00056489030624908604FF0006048604021C2
:1035F0005F4881600021C1604FF48061016100215A
:10360000416181614FF48071C161002101624162B9
:10361000FEF742FD20B140F233114AA002F0C6FC91
:1036200000BF53482063846300BF00221146262058
:10363000FEF7A2FF2620FEF792FF74E0FFE74D4958
:10364000206888426FD100BF002000903848006891
:1036500040F48020364908600846006800F4802065
:10366000009000BF00BF4FF4407001900220029014
:1036700001200390032004900720059001A92E4803
:10368000FEF7D0FD2D4818303B4908604FF0006030
:103690004860002138488160C1604FF48061016159
:1036A0000021416181614FF48071C161002101629B
:1036B0004162FEF7F1FC20B14FF4B07121A002F09D
:1036C00075FC00BF2C486063846300BF1B48483012
:1036D0002A4908604FF00060486040212748816017
:1036E0000021C1604FF4806101610021416181616D
:1036F0004FF48071C161002101624162FEF7CCFC90
:1037000020B14FF4B9710FA002F050FC00BF1B486C
:103710002063846300BF002211462720FEF72CFFA0
:103720002720FEF71CFF06B010BD0000005000402F
:103730004038024000080240000C02401060024085
:10374000EC0C01202E2E2F5372632F73746D3332C5
:10375000663478785F68616C5F6D73702E6300000B
:103760004C0D01200044004000000240AC0D01203F
:103770000C0E0120004800406C0E0120CC0E0120F0
:1037800077B581B00446154694F83A00202850D108
:10379000029800B115B9012004B070BD00BF94F8C3
:1037A0003800012801D10220F6E7012084F8380012
:1037B00000BF0298A062A5850020E063222084F863
:1037C0003A001D48616BC8631C48616B08641C4863
:1037D000616BC8640020616B086502AE32682368C3
:1037E000191D2B46606BFEF7CDFC00BF002000903A
:1037F00020680068009020684068009000BF00BF0B
:1038000000BF002084F8380000BF2068C06840F482
:1038100080702168C8602068406940F0010021681C
:1038200048612068406940F04000216848610020FC
:10383000B2E70220B0E70000015700084757000830
:10384000B1560008704770472DE9F84304460D460D
:1038500016461F464FF0000994F8390020285CD125
:1038600005B116B90120BDE8F88300BF94F838000F
:10387000012801D10220F6E7012084F8380000BFBA
:103880000020E063212084F83900FEF7E7FD81463F
:10389000A684E6842BE0E08C401EE084A068B0F5AE
:1038A000805F16D14B46002280212046009702F00F
:1038B000B1F908B10320D6E7A846B8F80000C0F374
:1038C000080021684860206908B9AD1C0FE06D1C34
:1038D0000DE04B46002280212046009702F09AF925
:1038E00008B10320BFE715F8010B21684860E08CA0
:1038F0000028D0D14B46002240212046009702F0FC
:1039000089F908B10320AEE7202084F8390000BF10
:10391000002084F8380000BFA5E70220A3E7704725
:1039200010B5FEF7ADFD01F005FE00F007FC00F05C
:10393000C1FB00F00FFD00F06DFB00F039FD00F061
:103940005FFD00F085FD10BD00BFFEE710B5044629
:1039500014B1012C24D112E000224FF4006111486F
:10396000FEF776FD00224FF480610F48FEF770FDF0
:1039700000224FF4C0510C48FEF76AFD10E001220E
:10398000D1020848FEF764FD012291020648FEF7C5
:103990005FFD01224FF4C0510348FEF759FD00BFFF
:1039A00000BF10BD00040240000C024070B5054687
:1039B0000C468DB914B1012C0DD106E000224FF454
:1039C00080612448FEF744FD05E001229102214870
:1039D000FEF73EFD00BF3BE0012D11D114B1012CDB
:1039E0000DD106E000224FF400611B48FEF730FDC8
:1039F00005E00122D1021848FEF72AFD00BF27E0AA
:103A0000022D11D114B1012C0DD106E000224FF48A
:103A100000611048FEF71CFD05E00122D1020D48AF
:103A2000FEF716FD00BF13E0032D11D114B1012CD8
:103A30000DD106E000224FF480510648FEF708FD44
:103A400005E0012211030348FEF702FD00BF00BF9D
:103A500070BD0000000C02400004024010B5044696
:103A600014B1012C0CD105E0002240210548FEF7DD
:103A7000EFFC00BF012240210248FEF7E9FC00BF35
:103A800000BF10BD0008024010B500224FF4806155
:103A90000B48FEF7DDFC4FF4FA7002F0AFFA01229A
:103AA00091020748FEF7D4FC4FF4FA7002F0A6FA30
:103AB00000224FF480610248FEF7CAFC10BD0000EE
:103AC0000008024010B500224FF400410B48FEF7F9
:103AD000BFFC4FF4FA7002F091FA0122D1030748BB
:103AE000FEF7B6FC4FF4FA7002F088FA00224FF4A9
:103AF00000410248FEF7ACFC10BD0000000002408F
:103B000010B500F0C5F800F0D5F80120FFF7A6FFCA
:103B1000FFF7BAFFFFF7D6FF10BD0FB4F8B50446A4
:103B2000002000906078217800EB01264FF6FD50D0
:103B3000864230D1A078E17818318840217910315F
:103B40008840A179083188400890684602F052FA0E
:103B5000022504E06019694602F039FA6D1C0898E4
:103B6000801CA842F6D800981090E81C205C1099A0
:103B7000884201D1012000E00020C0B248B1281DD8
:103B8000205C1099B0EB112F03D10120F8BC5DF837
:103B900014FB0020FAE70020F8E7000090BB07299B
:103BA0002FD2DFE801F02E040B1219202700294A3A
:103BB000127842F00102274B1A7022E0254A12784F
:103BC00042F00202234B1A701BE0224A127842F0A4
:103BD0000402204B1A7014E01E4A127842F00802C8
:103BE0001C4B1A700DE01B4A127842F01002194B60
:103BF0001A7006E0174A127842F08002154B1A70CC
:103C000000BF26E0FFE7012906D007290BD00829CD
:103C100010D009291CD114E00E4A127802F0FE02DD
:103C20000C4B1A7014E00B4A127802F0F702094BA1
:103C30001A700DE0074A127802F07F02054B1A70E5
:103C400006E0044A127802F0EF02024B1A7000BF3D
:103C500000BF7047AF00002010B5FDF755FE00F023
:103C6000800090B10948807801060848C07801EBCF
:103C700000410648007901EB0020044949794418C5
:103C8000A01D81B2014801F019FB10BD8C09012073
:103C900010B5002240F242410448FEF7D9FB002251
:103CA0004FF400410248FEF7D3FB10BD000802406C
:103CB0000000024010B5012202210248FEF7C8FBB5
:103CC00010BD00000008024010B50446240400F0B6
:103CD00041F9002002F054F9D82001F095F9C4F31D
:103CE000074001F091F9C4F3072001F08DF9E0B22B
:103CF00001F08AF9012002F043F9012002F07EF977
:103D000000F08DF810BD00002DE9F04106460C468C
:103D10001746002002F034F9032001F075F9C4F3CE
:103D2000074001F071F9C4F3072001F06DF9E0B22A
:103D300001F06AF9002506E007480560FF2001F060
:103D400063F970556D1CBD42F6D3012002F018F9DD
:103D50000120BDE8F08100009400002010B500248F
:103D6000002002F00DF9052001F04EF900BFFF2000
:103D700001F04AF9044604F001000028F7D10120BF
:103D800002F0FEF8204610BD38B50446002002F0CF
:103D9000F7F8032001F038F9002001F035F9002090
:103DA00001F032F9002001F02FF9FF2001F02CF989
:103DB0008DF80000FF2001F027F98DF80100FF20A9
:103DC00001F022F98DF80200FF2001F01DF98DF8B5
:103DD0000300012002F0D4F89DF80000FF280DD167
:103DE0009DF80100FF2809D19DF80200FF2805D1A8
:103DF0009DF80300FF2801D1002038BD9DF8000088
:103E00009DF80110183188409DF80210103188404B
:103E10009DF803100831884020600120EDE710B5BF
:103E2000FFF79CFF10BD00002DE9F04781460F46CB
:103E300015464648464908604FEA17481FFA87FA70
:103E4000CAF58036B54200D82E464FEA08413246C0
:103E50003F480068FFF758FF3D4800680078284455
:103E60003B49096849781831884039490968897897
:103E70001031884036490968C978083100FA01F4E0
:103E80004FF6FF7084420FD3280E3149096808703D
:103E9000280C2F4909684870280A2D49096888703C
:103EA0002B490968CD700EE0200E29490968087079
:103EB000200C274909684870200A2549096888703C
:103EC00023490968CC703DE0002408E00AEB0400B7
:103ED0001F490968085CFF2800D002E0641CB44256
:103EE000F4D300BFB44217D24046FFF7EDFE0024E2
:103EF00007E019F8040004EB0A01154A126850544F
:103F0000641CB442F5D34FEA08414FF480321048A4
:103F1000006800F02AF804E032463946484600F0CE
:103F200024F8B54200D10EE008F101084FF0000A74
:103F3000B1443744AD1BB5F5803F02D94FF480360C
:103F400000E02E46C0E700BFBDE8F087000100207A
:103F50009C00002010B5002002F012F8062001F0AD
:103F600053F8012002F00CF810BD2DE9F04107468E
:103F70000E461446F0B2C0F58075AC4200D8254616
:103F800011E02A463146384600F012F8AC4200D122
:103F90000AE02F442E44641BB4F5807F02D94FF40D
:103FA000807500E02546ECE700BFBDE8F081000029
:103FB0002DE9F04106460C461746FFF7CBFF0020DF
:103FC00001F0DEFF022001F01FF8C4F3074001F00A
:103FD0001BF8C4F3072001F017F8E0B201F014F861
:103FE000002508E0705D01F00FF809480068401CEA
:103FF000074908606D1CBD42F4D3012001F0C0FFE9
:10400000012001F0FBFFFFF70AFFBDE8F08100008F
:10401000980000201FB51F481F4908604FF48030EA
:10402000486000211C4881600121016100218161FB
:10403000012101620021C162184981620021C16031
:104040000221C1610021016301214161FDF73AFDB7
:1040500018B1A12112A001F0A9FF0C2000900120AD
:1040600001900520029069460B48FDF75DFC18B1F0
:10407000AB210BA001F09AFF0D20009002200190CF
:1040800069460548FDF750FC18B1B42104A001F0C1
:104090008DFF1FBD002001408C0B01200100000F8F
:1040A0002E2E5C5372635C4253505C4253502E631D
:1040B0000000000008B500BF002000901E48006806
:1040C00040F400101C4908600846006800F4001025
:1040D000009000BF00BF002201210B20FEF74CFA28
:1040E0000B20FEF73CFA002201210C20FEF744FAD7
:1040F0000C20FEF734FA002201210E20FEF73CFAD4
:104100000E20FEF72CFA002201211020FEF734FACF
:104110001020FEF724FA002201211120FEF72CFACC
:104120001120FEF71CFA002211462F20FEF724FA78
:104130002F20FEF714FA08BD3038024000B587B0D2
:1041400000BF002001907C48006840F010007A49D0
:1041500008600846006800F01000019000BF00BF32
:1041600000BF002001900846006840F08000086011
:104170000846006800F08000019000BF00BF00BF4B
:10418000002001900846006840F0040008600846DE
:10419000006800F00400019000BF00BF00BF0020D5
:1041A00001900846006840F0010008600846006879
:1041B00000F00100019000BF00BF00BF002001908F
:1041C0000846006840F0020008600846006800F0F9
:1041D0000200019000BF00BF00BF00200190084610
:1041E000006840F0080008600846006800F0080019
:1041F000019000BF00BF002240F242414F48FEF74D
:1042000027F9012218214E48FEF722F901224FF426
:1042100040614C48FEF71CF900224FF480614A4887
:10422000FEF716F901224FF4C0514748FEF710F986
:1042300000224FF400414248FEF70AF94FF4827021
:10424000029000200390049002A94048FDF7EAFF85
:1042500040F242400290012003900020049005901B
:1042600002A93648FDF7DEFF0820029011200390D6
:1042700000200490059002A93148FDF7D3FF1020DB
:1042800002900120039004900020059002A92C4880
:10429000FDF7C8FF4FF404700290002003900490D3
:1042A00002A92648FDF7BEFF4FF48060029001206E
:1042B000039004900020059002A92248FDF7B2FF68
:1042C0004FF40060029001200390002004900590BC
:1042D00002A91C48FDF7A6FF4FF4005002901C48AD
:1042E00003900020049002A91648FDF79BFF4FF4AD
:1042F000E05002900120039000200490059002A954
:104300001148FDF78FFF4FF4004002900120039009
:10431000022004900020059002A90948FDF782FFC1
:104320001020029000200390049002A90648FDF797
:1043300079FF07B000BD000030380240000802409D
:104340000000024000040240000C02400010024045
:104350000000111010B50F480F4908604FF482702B
:10436000486000210C488160C160016141614FF4E7
:10437000007181611821C161002101624162816285
:104380000A21C162FEF7F2FC18B1CC2103A001F0B2
:104390000DFE10BD00300140D40B01202E2E5C53C9
:1043A00072635C4253505C4253502E630000000025
:1043B00010B50C480C4908604FF4E130486000210A
:1043C00009488160C16001610C2141610021816166
:1043D000C161FEF7F5FF18B1DF2104A001F0E6FD91
:1043E00010BD0000005000402C0C01202E2E5C530C
:1043F00072635C4253505C4253502E6300000000D5
:1044000010B50C480C4908604FF4E13048600021B9
:1044100009488160C16001610C2141610021816115
:10442000C161FEF7CDFF18B1F22104A001F0BEFD7D
:1044300010BD0000004400406C0C01202E2E5C5387
:1044400072635C4253505C4253502E630000000084
:1044500010B50C480C4908604FF4E1304860002169
:1044600009488160C16001610C21416100218161C5
:10447000C161FEF7A5FF20B140F2051103A001F0D4
:1044800095FD10BD00480040AC0C01202E2E5C5361
:1044900072635C4253505C4253502E630000000034
:1044A00000BFFEE71CB500F06BF800F08DFEFDF7D5
:1044B00025FA114908706846FDF72CFA0F48009953
:1044C0000160BDF8041081809DF806108171FCF731
:1044D00089FB38B90A484268C3681430191809487A
:1044E000FBF7B1FE00F09EF900F0EAFC0A216846F5
:1044F000FDF730F91CBD0000B8000020A800002026
:10450000541101208C090120704700000248006806
:10451000C0F30220704700000CED00E010B5002849
:1045200007DA0A07140E054A00F00F031B1FD454C4
:1045300003E00A07130E024A135410BD18ED00E001
:1045400000E400E010B510210C48FDF779FF98B9A0
:104550000A2001F053FD10210848FDF771FF0128E2
:1045600001D1002010BD00BF10210448FDF768FFF5
:104570000028F9D00120F5E700BFF3E7000C024066
:1045800010B5FFF7DFFF012820D111480078E8B906
:104590000F48007840B901200D490870FFF78AFBE9
:1045A0000020FFF75BFA11E0FFF7BAF90020084995
:1045B00008700120FFF7CAF901210020FFF7F6F982
:1045C00001F03AFDFFF79CFA00F098FD10BD0000E5
:1045D000CC00002038B5054600200090002D7DD18C
:1045E0001B2088490860062087490860FE2087490B
:1045F00008704870844A1268881882490A68844999
:10460000FBF721FE804800687E49096808447E491E
:10461000086080490A687D497B4B1B68C8187D4942
:10462000091DFBF710FE78480068801C7649086079
:1046300074480068801C7349086076490A687349A9
:10464000714B1B68C81873490831FBF7FCFD6E48B5
:1046500000686C49096808446B4908606B48096840
:1046600008446D490A68026049684160654800680D
:1046700008306449086008460068000E6349887085
:1046800060480068000CC8705E480088000A087125
:104690005C480078487100205B490860684601F07A
:1046A000A9FC012405E059490819694601F08FFC6D
:1046B000641C54480068C01C8442F4D30098C2B201
:1046C000524950480068001D0A540098C0F3072161
:1046D0004E4A4C480068401D115400E004E0FE21A1
:1046E0000120FFF75BFA88E04C48FFF74DFB0128FB
:1046F0003FD14A48006800283BD148480068B0F5DF
:10470000007F16D804204049086040493E4A12689C
:10471000881842490A6842490968FCF733FAF721C8
:104720000120FFF73BFA00203D4908603649086048
:1047300063E03548006810B9042033490860334904
:10474000314A126888184FF4007235490968FCF73D
:1047500019FA3348006800F50070314908602F48A5
:104760000068A0F500702D49086000202649086007
:1047700043E02A48006800283FD028480068B0F588
:10478000007F1BD804202049086020491E4A126877
:10479000881822490A6822490968FCF7F3F90020C1
:1047A0001E490860184908601D490860F72101206A
:1047B000FFF7F4F90020144908601EE01248006871
:1047C00010B904201049086010490F4A126888186F
:1047D0004FF4007212490968FCF7D4F910480068D8
:1047E00000F500700E4908600C480068A0F50070E4
:1047F0000A49086000200449086006210020FFF7EC
:10480000CDF938BDC8000020BC0000208C09012073
:10481000000901201C090120A0000020C000002088
:10482000C400002010B5134800780A2820D1FDF7F5
:104830006BF800F0080048B10120FFF7CBFEFFF74E
:104840000BFA06210120FFF7A9F911E0FDF75CF84A
:1048500000F0010060B10020FFF7BCFEFFF7FCF99B
:1048600001210846FFF79AF906210120FFF796F982
:1048700010BD0000B800002070470000072821D2BA
:10488000DFE800F004080C1014181C0000210E4A88
:10489000117017E000210C4A517013E000210A4A00
:1048A00091700FE00021084AD1700BE00021064A08
:1048B000117107E00021044A517103E00021024A0E
:1048C000917100BF00BF7047F40000202DE9F04750
:1048D00006460F4692461C464FF000081D48FBF75F
:1048E000D0FC1FFA80F949461A4800F0E7FC002C7A
:1048F0002ED026E00A2001F081FB1748007A01281B
:104900001FD1002505E0705D2B2800D105E0681C53
:10491000C5B211484068A842F5D800BF70190122FD
:104920003946FCF741FA60B14FF0010800200A490E
:104930000872962000F044FA012801D1BDE8F08702
:1049400002E0601E041ED5D100BF0CB94FF0000874
:104950004046F3E7A86200085411012070B50446F0
:1049600000251348FBF78DFC86B23146104800F055
:10497000A5FCD4B113E00A2001F040FB0D48007AF9
:1049800001280CD10B49CA68143150180A49FCF7A8
:1049900005F820B1002007490872012502E0601ED9
:1049A000041EE8D100BF04B90025284670BD0000F0
:1049B000A961000854110120B460000870B50446D4
:1049C000002514480068FBF75CFC86B231461148AC
:1049D000006800F073FCD4B113E00A2001F00EFB74
:1049E0000D48007A01280CD10B49CA6814315018BF
:1049F0000A49FBF7D3FF20B10125002006490872C0
:104A000002E0601E041EE8D100BF04B9002568B2B0
:104A100070BD0000700000205411012037610008B3
:104A200070B5044600251348FBF72BFC86B23146CF
:104A3000104800F043FCD4B113E00A2001F0DEFA84
:104A40000D48007A01280CD10B49CA68143150185E
:104A50000A49FBF7A3FF20B101250020064908728F
:104A600002E0601E041EE8D100BF04B9002568B250
:104A700070BD0000E261000854110120B46000081C
:104A800070B504460025D4B113E00A2001F0B6FA4F
:104A90000C48007A01280CD10A49CA681431501810
:104AA0000949FBF77BFF20B1002006490872012568
:104AB00002E0601E041EE8D100BF04B900252846AC
:104AC00070BD000054110120B960000870B50446A3
:104AD00000251848FBF7D5FB86B23146154800F093
:104AE000EDFB24B31DE00A2001F088FA1248007A99
:104AF000012814D11049CA68143150180F49FBF726
:104B00004DFF38B90C49CA68143150180C49FBF7ED
:104B100045FF20B1012500200749087204E004B9CF
:104B20000025601E041EDED100BF68B270BD00BF4C
:104B3000FCE700001D6200085411012047610008D5
:104B40001C61000870B5044600251948FBF799FB65
:104B500086B23146164800F0B1FB3CB320E00A2093
:104B600001F04CFA1348007A012819D11149CA689A
:104B7000143150181049FBF711FF20B100200D49E6
:104B8000087200250FE00B49CA68143150180B4910
:104B9000FBF704FF18B1012500200649087202E066
:104BA000601E041EDBD100BF04B9002568B270BDD1
:104BB000DA61000854110120FB6000080B61000855
:104BC00070B5044600251348FBF75BFB86B23146FF
:104BD000104800F073FBD4B113E00A2001F00EFA84
:104BE0000D48007A01280CD10B49CA6814315018BD
:104BF0000A49FBF7D3FE20B10020074908720125BE
:104C000002E0601E041EE8D100BF04B9002568B2AE
:104C100070BD0000C461000854110120B460000898
:104C200070B5044600251448FBF72BFB86B23146CD
:104C3000114800F043FBECB116E0012001F0DEF971
:104C40000E48007A01280FD10C49CA681431501857
:104C50000B49FBF7A3FE38B10125C82001F0CEF9BE
:104C600000200649087202E0601E041EE5D100BF64
:104C700004B9002568B270BD7561000854110120A7
:104C8000B460000870B5044600251448FBF7F9FA33
:104C900086B23146114800F011FBE4B110480460BF
:104CA00013E00A2001F0AAF90E48007A01280CD17D
:104CB0000C49CA68143150180B49FBF76FFE20B13C
:104CC000002008490872012502E0601E041EE8D198
:104CD00000BF04B9002568B270BD0000BA610008C9
:104CE0008000002054110120EC60000870B50446DB
:104CF00000251348FBF7C5FA86B23146104800F08C
:104D0000DDFAD4B113E00A2001F078F90D48007AF9
:104D100001280CD10B49CA68143150180A49FBF715
:104D20003DFE20B1012500200649087202E0601E08
:104D3000041EE8D100BF04B9002568B270BD0000B0
:104D40008E62000854110120B460000870B504465A
:104D5000002554B323E0052001F050F91448007AEF
:104D600001281CD11249CA68143150181149FBF7A7
:104D700015FE78B90E49CA68143150180E49FBF770
:104D80000DFE38B90A49CA68143150180B49FBF7AF
:104D900005FE20B1012500200549087202E0601ED1
:104DA000041ED8D100BF04B9002568B270BD000050
:104DB00054110120896100085361000879610008DD
:104DC00070B5044600251348FBF75BFA86B23146FE
:104DD000104800F073FAD4B113E00A2001F00EF984
:104DE0000D48007A01280CD10B49CA6814315018BB
:104DF0000A49FBF7D3FD20B10125002006490872BE
:104E000002E0601E041EE8D100BF04B9002568B2AC
:104E100070BD000070610008541101203761000866
:104E200070B5044600251348FBF72BFA86B23146CD
:104E3000104800F043FAD4B113E00A2001F0DEF884
:104E40000D48007A01280CD10B49CA68143150185A
:104E50000A49FBF7A3FD20B101250020064908728D
:104E600002E0601E041EE8D100BF04B9002568B24C
:104E700070BD00000F62000854110120B4600008EA
:104E80000D48007848B10C4800780A2805D00B4836
:104E90000068401C0949086006E0074800780A28B5
:104EA00002D100200549086004480068142802D394
:104EB000FF2001490870704774000020780000202E
:104EC00010B5FFF7DDFF4E48007806284ED006DC0F
:104ED00006287FD2DFE800F01019232D374109287A
:104EE0005FD004DC07284AD0082873D150E00A2894
:104EF00061D0FF286ED167E04FF47A70FFF7C0FDF4
:104F0000012801D13E49087064E04FF4FA70FFF7C0
:104F100025FD012802D10220394908705AE04FF4DA
:104F2000FA70FFF74DFE012802D1032034490870C2
:104F300050E04FF4FA70FFF7A5FE012802D10420DB
:104F40002F49087046E04FF4FA70FFF7FBFD012887
:104F500002D105202A4908703CE0C820FFF760FD17
:104F6000012802D106202649087033E0C820FFF747
:104F7000BDFE012802D10720214908702AE0C8207F
:104F8000FFF74EFF012802D108201D49087021E0DB
:104F9000C820FFF79BFD012802D10920184908709D
:104FA00018E04FF4FA70FFF709FD012802D10A203A
:104FB000134908700EE02820FFF7C8FE012802D12F
:104FC00009200F49087005E0FEF77CFD00200C4920
:104FD000087000BF00BF0A48007860B10848007838
:104FE0000A2808D007480078064908700846007863
:104FF000401C087002E000200249087010BD00004B
:10500000740000207C00002001B582B00A2001233A
:1050100001AA02A900900348FDF72AFF9DF80400A9
:105020000EBD0000D40B0120F8B504460D4616460F
:105030002B46002280212046009600F009F828B176
:10504000606D40F0200060650320F8BD0020FCE7A3
:105050002DE9F04104460E4617461D46DDF818803E
:105060003FE0681CE0B32DB1FDF7F8F9A0EB0800B4
:10507000A84236D32068406820F0E00021684860EC
:105080006068B0F5827F0DD1A068B0F5004F03D005
:10509000A068B0F5806F05D12068006820F040005E
:1050A00021680860A06AB0F5005F0ED100BF2068DB
:1050B00000684DF6FF7108402168086020680068AC
:1050C00040F400502168086000BF012084F85100BE
:1050D00000BF002084F8500000BF0320BDE8F0812D
:1050E000FFE7206880683040B04201D1012000E035
:1050F0000020B842B5D10020F0E7704700204EE014
:10510000284951F82010002947D1072844D2DFE868
:1051100000F0040D161F28313A0023490968214A7E
:1051200042F820100021214A117035E02049096819
:105130001C4A42F8201000211C4A51702CE01D49E5
:105140000968184A42F820100021184A917023E09B
:1051500019490968134A42F820100021134AD170F6
:105160001AE0164909680F4A42F8201000210F4A38
:10517000117111E0124909680A4A42F82010002111
:105180000A4A517108E00F490968064A42F820109E
:105190000021064A917100BF00BF411CC8B2072818
:1051A000AEDB704768130120D8000020F400002017
:1051B000E4000020DC000020E0000020E8000020E7
:1051C000EC000020F000002000204EE0284951F8BB
:1051D0002010002947D1072844D2DFE800F0040D51
:1051E000161F28313A0023490968214A42F8201045
:1051F0000121214A117035E0204909681C4A42F812
:10520000201001211C4A51702CE01D490968184AE0
:1052100042F820100121184A917023E019490968C9
:10522000134A42F820100121134AD1701AE016499E
:1052300009680F4A42F8201001210F4A117111E04C
:10524000124909680A4A42F8201001210A4A51719C
:1052500008E00F490968064A42F820100121064A71
:10526000917100BF00BF411CC8B20728AEDB704778
:1052700068130120D8000020F4000020E400002082
:10528000DC000020E0000020E8000020EC0000200E
:10529000F000002000200CE0074951F8201031B147
:1052A000054951F82010491E034A42F82010411CBC
:1052B000C8B20728F0DB70476813012070B50446B8
:1052C0000D460E48FDF7A1FF0C48FDF75FFF0020DB
:1052D0000B49C8600860486008614FF400721431DF
:1052E0000648FEF74DFA00200649087064232A4656
:1052F00021460248FEF7A8FA70BD00002C0C0120E0
:1053000054110120580000202DE9F0412DED028BB1
:1053100005469FED400AB0EE408A01272C466BE01F
:1053200020782E380C283ED2DFE800F0383D060BFE
:1053300010151A1F24292E339FED360AF0EE408AED
:1053400031E0B7EE000AF0EE408A2CE0B0EE000A41
:10535000F0EE408A27E0B0EE080AF0EE408A22E044
:10536000B1EE000AF0EE408A1DE0B1EE040AF0EE64
:10537000408A18E0B1EE080AF0EE408A13E0B1EE80
:105380000C0AF0EE408A0EE0B2EE000AF0EE408A1F
:1053900009E0B2EE020AF0EE408A04E09FED1E0A38
:1053A000F0EE408A00BF00BF9FED1B0AF4EE408A7A
:1053B000F1EE10FA03D100270126641C1CE0012F36
:1053C00008D1F2EE040AB0EE680A08EE200AB0EE48
:1053D000408A0FE006EB8600400000EE100AF8EE6F
:1053E000C00A88EEA00A30EE080AB0EE408A06EB4A
:1053F00086004600641C00BF2078002890D118EE7B
:10540000100AFBF716F941EC100BBDEC028BBDE85E
:10541000F0810000000000000000384230B5014675
:105420009FED3B1AB0EE410A012308466BE0047879
:105430002E3C0C2C3ED2DFE804F0383D060B101554
:105440001A1F24292E339FED321AF0EE410A31E063
:10545000B7EE001AF0EE410A2CE0B0EE001AF0EEC2
:10546000410A27E0B0EE081AF0EE410A22E0B1EE60
:10547000001AF0EE410A1DE0B1EE041AF0EE410A06
:1054800018E0B1EE081AF0EE410A13E0B1EE0C1A82
:10549000F0EE410A0EE0B2EE001AF0EE410A09E029
:1054A000B2EE021AF0EE410A04E09FED1A1AF0EE95
:1054B000410A00BF00BF9FED171AF4EE410AF1EE5A
:1054C00010FA03D100230122401C1CE0012B08D15B
:1054D000F2EE041AB0EE601A00EE211AB0EE410AA4
:1054E0000FE002EB8204640001EE104AF8EEC11AEC
:1054F00080EEA11A31EE001AB0EE410A02EB8204EE
:105500006200401C00BF0478002C90D130BD000028
:10551000000000000000384210B5FCF7A5FFFDF7C1
:10552000F3FD03480068401C0149086010BD0000FD
:105530006000002010B592B000BF002000903248FB
:10554000006840F08050304908600846006800F06C
:105550008050009000BF00BF00BF002000902B488B
:10556000006820F4404040F4804028490860084624
:10557000006800F44040009000BF00BF012006908A
:105580000004079002200C9041050D910F210E910F
:105590006C210F91022110910421119106A8FDF7B1
:1055A000C1F918B167211AA000F000FDFDF736F827
:1055B00018B16E2116A000F0F9FC0F200190022016
:1055C0000290002003904FF480500490002005903A
:1055D000022101A8FDF768F818B17C210CA000F0A9
:1055E000E5FCFDF721F94FF47A71B0FBF1F42046A8
:1055F000FDF770FD0420FDF74AFD00221146501E04
:10560000FCF7BAFF12B010BD4038024000700040F5
:105610002E2E5C5372635C4253505C4253502E6397
:10562000000000001448006840F47000124908604F
:105630001248006840F001001049086000200F493E
:10564000083108600D4800680D4908400B490860A2
:105650000C48091D0860081F006820F48020091FFD
:105660000860002005490C3108604FF000600249D5
:10567000803908607047000088ED00E00038024083
:10568000FFFFF6FE1030002410B5052000F080FB6F
:105690000148FDF7EFFD10BD2C0C012070B505464B
:1056A000AC6B0020E085E0842046FDF7E1FD70BD95
:1056B00070B506460025B46B20684069C0F3C0157C
:1056C00094F83900212805D125B10020E084204636
:1056D00000F060F820684069C0F3801594F83A0043
:1056E000222805D125B10020E085204600F032F8BF
:1056F000E06B40F01000E0632046FDF7B9FD70BD9F
:1057000070B50546AC6B2868006800F48070B0B9CD
:105710000020E0852068C06820F480702168C8609F
:105720002068406920F001002168486120684069D4
:1057300020F0400021684861202084F83A0020468B
:10574000FEF780F870BD70B50446A56B2846FEF7DD
:105750007AF870BD0168C96821F490710268D1605F
:105760000168496921F0010102685161202180F836
:105770003A10704710B504462068C06820F0400019
:105780002168C860202084F839002046FEF7C7F859
:10579000002010BD0168C96821F0C0010268D16015
:1057A000202180F83910704770B5044694F83A000B
:1057B000222844D1A068B0F5805F13D1A56A206982
:1057C00040B920684068C0F308002880A06A801CA7
:1057D000A06219E020684068C0B22880A06A401C1E
:1057E000A06211E0206938B920684068C1B2A26A9D
:1057F000501CA062117007E02068406800F07F0133
:10580000A26A501CA0621170E08D401E80B2E0853B
:1058100098B92068C06820F490702168C86020683A
:10582000406920F0010021684861202084F83A0096
:105830002046FEF707F8002070BD0020FCE702209C
:10584000FAE700002DE9F0410446002520680569CB
:1058500025F44055E0680543206805612068C56867
:1058600049F20C6085432169A068084361690843D7
:10587000E169084305432068C5602068456925F44F
:105880004075A069054320684561E069B0F5004FA7
:105890007ED1C4492068884203D0C3492068884229
:1058A0005DD1FCF7D7FF00EBC00101EB0010616890
:1058B0004900B0FBF1F06421B0FBF1F00601FCF708
:1058C000C9FF00EBC00101EB001061684900B0FBAB
:1058D000F1F7FCF7BFFF00EBC00101EB00106168BE
:1058E0004900B0FBF1F06421B0FBF1F000EBC00126
:1058F00001EB0010A7EB8000322101EBC000642116
:10590000B0FBF1F000F0F80006EB4006FCF7A2FF58
:1059100000EBC00101EB001061684900B0FBF1F73A
:10592000FCF798FF00EBC00101EB00106168490033
:10593000B0FBF1F06421B0FBF1F000EBC00101EB32
:105940000010A7EB8000322101EBC0006421B0FB06
:10595000F1F000F0070030442168886020E1FCF796
:1059600069FF00EBC00101EB001061684900B0FB6A
:10597000F1F06421B0FBF1F00601FCF75BFF00EBF6
:10598000C00101EB001061684900B0FBF1F700E0D5
:1059900045E0FCF74FFF00EBC00101EB0010616830
:1059A0004900B0FBF1F06421B0FBF1F000EBC00165
:1059B00001EB0010A7EB8000322101EBC000642155
:1059C000B0FBF1F000F0F80006EB4006FCF732FF08
:1059D00000EBC00101EB001061684900B0FBF1F77A
:1059E000FCF728FF00EBC00101EB001061684900E3
:1059F000B0FBF1F06421B0FBF1F000EBC00101EB72
:105A00000010A7EB8000322101EBC0006421B0FB45
:105A1000F1F000F00700304421688860C0E061497F
:105A20002068884203D06049206888425CD1FCF736
:105A300011FF00EBC00101EB001061688900B0FBB1
:105A4000F1F6FCF707FF00EBC00101EB0010616805
:105A50008900B0FBF1F06421B0FBF1F000EBC00174
:105A600001EB0010A6EB8000322101EB0010642155
:105A7000B0FBF1F000F0F006FCF7ECFE00EBC0012B
:105A800001EB001061688900B0FBF1F06421B0FB0C
:105A9000F1F006EB0016FCF7DDFE00EBC00101EBB8
:105AA000001061688900B0FBF1F7FCF7D3FE00EB52
:105AB000C00101EB001061688900B0FBF1F06421C6
:105AC000B0FBF1F000EBC00101EB0010A7EB800090
:105AD000322101EB00106421B0FBF1F000F00F0067
