:020000040800F2
:1000000068070020CD0100080D0200080F0200085B
:1000100013020008170200081B020008000000007D
:100020000000000000000000000000001F020008A7
:100030002102000800000000230200082502000839
:10004000E7010008E7010008E7010008E7010008F0
:10005000E7010008E7010008E7010008E7010008E0
:10006000E7010008E7010008E7010008E7010008D0
:10007000E7010008E7010008E7010008E7010008C0
:10008000E7010008E7010008E7010008E7010008B0
:100090002D020008E7010008E7010008E701000859
:1000A000E7010008E7010008E7010008E701000890
:1000B000E7010008E7010008E7010008E701000880
:1000C000E7010008E7010008E7010008E701000870
:1000D000E7010008B7090008E7010008E701000888
:1000E000E7010008E7010008E7010008E701000850
:1000F000E7010008E7010008E7010008E701000840
:10010000E7010008E7010008E7010008E70100082F
:10011000E7010008E7010008E7010008E70100081F
:10012000E7010008E7010008E7010008E70100080F
:1001300000F002F800F03AF80AA090E8000C8244BF
:100140008344AAF10107DA4501D100F02FF8AFF29C
:10015000090EBAE80F0013F0010F18BFFB1A43F0A5
:10016000010318476837000088370000103A24BFA1
:1001700078C878C1FAD8520724BF30C830C144BF0C
:1001800004680C607047000000230024002500264E
:10019000103A28BF78C1FBD8520728BF30C148BFEA
:1001A0000B6070471FB51FBD10B510BD02F0FBFB03
:1001B0001146FFF7F7FF00F023FA02F019FC03B431
:1001C000FFF7F2FF03BC02F01DFC00000948804766
:1001D00009480047FEE7FEE7FEE7FEE7FEE7FEE729
:1001E000FEE7FEE7FEE7FEE704480549054A064B41
:1001F000704700009F2800083101000868010020B6
:10020000680700206803002068030020704700BFD3
:10021000FEE700BFFEE700BFFEE700BFFEE7704756
:100220007047704710B500F0A7F810BD10B500205A
:1002300011490860486008728872C874C872002149
:100240000D48017302460D4802F049F80A48807AC9
:1002500002280DD10848007B0749C97A40EA0120ED
:100260004DF6CA61884203D101200549087002E0B9
:1002700000200349087010BDD00000200064004039
:100280000400002000B587B00121880301F051F976
:100290004FF42040ADF8040018208DF8070003202B
:1002A0008DF8060001A9FE4800F07AFE4FF4805058
:1002B000ADF8040010208DF8070003208DF806002B
:1002C00001A9F74800F06CFE4020ADF804001020B2
:1002D0008DF8070003208DF8060001A9F14800F011
:1002E0005FFE0120ADF8040003208DF80600102009
:1002F0008DF8070001A9EA4800F052FE4FF4404093
:10030000ADF808004FF48270ADF80A000020ADF897
:100310000C000220ADF80E000120ADF810004002E4
:10032000ADF812001820ADF814000020ADF816004A
:100330000720ADF8180002A9DB4801F077F9012188
:10034000D94801F018FA07B000BD10B502F0A7FABD
:100350000121480601F0EDF8012144F27D0001F091
:10036000DBF810BD01B5D1490098086000BFCF4847
:1003700000680028FBD108BDCC48006820B1CB48FC
:100380000068401EC9490860704710B504464FF424
:100390001650C749086000208880C880088188817D
:1003A0000C204881204601F052FB012240F22551E9
:1003B000C04801F0E4FB012240F22771BD4801F082
:1003C000DEFB0121BB4801F0CEFB10BD4FF6BF7133
:1003D000B84A118000200FE0B74931F82010C1F36E
:1003E0000801B44A121D118000BFB249098801F00A
:1003F00080010029F9D0401C0528EDDB704700B5CD
:100400008DB04FF40050ADF8140003208DF81600A5
:1004100010208DF8170005A9A84800F0C1FD4FF481
:100420000051A64800F06BFE01214FF4EA1000F0E5
:1004300088FE4FF48070ADF8140048208DF8170046
:1004400005A9974800F0ACFD4FF40070ADF814001A
:1004500018208DF8170003208DF8160005A9904884
:1004600000F09EFD964801F0B3FC0AA801F0D4FD0F
:1004700000208DF82E008DF82F008DF830008DF8BB
:1004800031008DF8320001208DF8330000208DF806
:100490002A008DF82B0001208DF82C0002208DF809
:1004A0002D000C20ADF828000AA9854801F0A9FC10
:1004B00000208DF822008DF8230001208DF8240003
:1004C0000020ADF8180049F2A410ADF81A004FF65C
:1004D000FF70ADF81C00ADF81E000020ADF8200044
:1004E00001208DF8250006A801F015FD012202214A
:1004F000734802F00FF800200090724800680190E5
:1005000004208DF8080000208DF8090005208DF8E2
:100510000A006D4800788DF80B006C4801788DF862
:100520000C106B4801788DF80D106A4801788DF831
:100530000E10694801788DF80F1000206749087087
:1005400067480068012806D10020654908606946AF
:100550005B4801F0CFFDFF206249086001220221C3
:10056000574801F0D7FF5F480068C0B20DB000BD2A
:1005700008B52020ADF8000010208DF803000320FE
:100580008DF802006946464800F00AFD4FF40070FD
:10059000ADF8000018208DF803006946524800F0BD
:1005A000FFFC4FF48060ADF8000004208DF80300DC
:1005B00069464D4800F0F4FC08BD08B54FF4E06012
:1005C00001F094F914208DF8000000208DF801004E
:1005D00001208DF802008DF80300684601F08BF9C8
:1005E00025208DF8000000208DF8010002208DF8F4
:1005F000020001208DF80300684601F07CF908BD77
:100600000024FFF7A2FEFFF7D8FFFFF7B1FF4FF47A
:100610006161B1F1807F01D301201DE021F07F40B5
:10062000401E4FF0E022506150170F22002807DAD9
:1006300013071E0E2D4B00F00F052D1F5E5503E016
:1006400013071D0E2A4B1D5400BF00204FF0E0225F
:10065000906107201061002008B100BFFEE7FFF79E
:1006600011FE01210E4800F04AFD00F0E6FA1148A3
:10067000FFF78BFEEAE000F0B4FA1E4B08220021DF
:10068000084600F0A9FB1C4A02210A2000F05DFB8D
:100690001A4A0221322000F058FB194A022131E0A7
:1006A000000C014000100140003800401400002000
:1006B000E4000020003801407000002000140140D8
:1006C00000640040A0000020880000208C00002072
:1006D0009000002094000020A40000205C00002076
:1006E00010000020080000200008014018ED00E084
:1006F00000E400E0322A0008180000201D0000205D
:1007000022000020642000F020FB4FF4FA60FFF785
:1007100029FE4FF4FA60FFF725FE4FF4FA60FFF769
:1007200021FE4FF4FA60FFF71DFE4FF4FA60FFF769
:1007300019FE4FF4FA60FFF715FE4FF4FA60FFF769
:1007400011FE4FF4FA60FFF70DFE4FF4FA60FFF769
:1007500009FE4FF4FA60FFF705FE4FF4FA60FFF769
:1007600001FE4FF4FA60FFF7FDFD4FF4FA60FFF76A
:10077000F9FD4FF4FA60FFF7F5FD4FF4FA60FFF76B
:10078000F1FD4FF4FA60FFF7EDFD4FF4FA60FFF76B
:10079000E9FD4FF4FA60FFF7E5FD4FF4FA60FFF76B
:1007A000E1FD4FF4FA60FFF7DDFD4FF4FA60FFF76B
:1007B000D9FD4FF4FA60FFF7D5FD4FF4FA60FFF76B
:1007C000D1FD4FF4FA60FFF7CDFD4FF4FA60FFF76B
:1007D000C9FD4FF4FA60FFF7C5FD4FF4FA60FFF76B
:1007E000C1FD4FF4FA60FFF7BDFD4FF4FA60FFF76B
:1007F000B9FD4FF4FA60FFF7B5FD4FF4FA60FFF76B
:10080000B1FD4FF4FA60FFF7ADFD4FF4FA60FFF76A
:10081000A9FD4FF4FA60FFF7A5FDFFF7F0FDC14910
:100820000870C1480078012810D10020BE49087026
:10083000FFF7CCFD2CB92021BC4800F05EFC012460
:1008400004E02021B94800F05AFC002413E7F0B579
:1008500003460D461646002729460A2E03D00020DF
:1008600008702846F0BD33B9302001F8010B002094
:1008700008702846F6E7002B03DA2D2001F8010B5B
:100880005B4242F210720DE093FBF2F404B937B10F
:1008900004F1300001F8010B04FB123301270A2098
:1008A00092FBF0F2002AEFDC002008702846D9E71E
:1008B0000FB470B586B006460CA8019073E00B9893
:1008C00000785C281CD10B98401C0B9000786E2897
:1008D00009D072280FD10D21304601F0B1F90B98E3
:1008E000401C0B900BE00A21304601F0A9F90B984F
:1008F000401C0B9003E00B98401C0B9000BF4BE09A
:100900000B980078252840D10B98401C0B9000785C
:10091000642818D0732833D1019810C801900BE0D7
:100920002178304601F08CF900BF4021304601F0BB
:10093000F5F90028F9D0641C20780028F0D10B9834
:10094000401C0B9020E0019820C801900A2202A9C7
:100950002846FFF77CFF02AC0BE02178304601F01F
:100960006FF900BF4021304601F0D8F90028F9D0D6
:10097000641C20780028F0D10B98401C0B9003E0F9
:100980000B98401C0B9000BF06E00B9810F8011B61
:100990000B90304601F054F900BF4021304601F081
:1009A000BDF90028F9D00B980078002887D106B04F
:1009B00070BC5DF814FB70B540F225515C4801F045
:1009C000C3F900287ED05A4801F03EF9C1B2594817
:1009D0000578681C574A10705748415557480068B9
:1009E00090B910460078401E5349085C544908608D
:1009F0000A22544952480068FFF729FF4F4800680F
:100A0000401C4E4908606CE04C48006801280CD13D
:100A100048480078401E4849085C4B4908604748F0
:100A20000068401C454908605BE0444800680228B3
:100A300016D140480078401E3F49085C4249096889
:100A400000EB0120414908600A2241493F48006803
:100A5000FFF7FDFE39480068401C3849086040E057
:100A600036480068032812D132480078401E3249C7
:100A7000085C3849086008460068072801D1012051
:100A800008602E480068401C2C49086029E02B486B
:100A90000068042817D127480078401E2649085CC2
:100AA0002C49096800EB01202B4908600A222B49D8
:100AB00029480068FFF7CBFE20480068401C1F490A
:100AC00008600EE020E01D480068052809D119489B
:100AD0000078401E1849085C214908600020174929
:100AE0000860002404E01448005D1E490855641C99
:100AF000104800788442F6D301201B490860002189
:100B000018480C4A1278815440F22771084801F0C5
:100B10001BF928B1002240F22771054801F02FF897
:100B200070BD00000C00002004000020000C0140FB
:100B3000003801405C0000205900002084000020A3
:100B4000A000002018000020880000208C00002059
:100B50001D000020900000209400002022000020B2
:100B6000A40000202C0000201000002010B5044636
:100B700000BF0221D54800F082FE0028F9D02146AE
:100B8000D24800F029FE10BD10B504464021D048DF
:100B900000F0B3FA2046FFF7E9FF10BD10B5044698
:100BA0004021CB4800F0ABFA2046FFF7DFFF10BD35
:100BB00070B504460D462120FFF7F0FFE0B2FFF7C5
:100BC000EDFF7F20FFF7EAFF2220FFF7E7FFE8B203
:100BD000FFF7E4FF0720FFF7E1FF0120FFF7C2FB6B
:100BE00070BD70B52120FFF7D9FF0020FFF7D6FFB9
:100BF0007F20FFF7D3FF0120FFF7B4FB002419E0AB
:100C00002220FFF7CBFFE0B2FFF7C8FF0720FFF776
:100C1000C5FF0120FFF7A6FB002504E00020FFF739
:100C2000B3FF681CC5B2802DF8DB0120FFF79AFBEB
:100C3000601CC4B2082CE3DB70BD10B54FF48051CA
:100C4000A44800F05CFA4FF47A70FFF78BFB4FF486
:100C50008051A04800F051FAAE20FFF79FFFA82076
:100C6000FFF79CFF3F20FFF799FFD320FFF796FF88
:100C70000020FFF793FF4020FFF790FFA120FFF730
:100C80008DFFC820FFF78AFFDA20FFF787FF1220C9
:100C9000FFF784FF8120FFF781FFCF20FFF77EFF62
:100CA000A420FFF77BFFA620FFF778FFD520FFF7F2
:100CB00075FF8020FFF772FF8D20FFF76FFF142074
:100CC000FFF76CFFAF20FFF769FFD920FFF766FF42
:100CD000F820FFF763FFDB20FFF760FF4020FFF7FE
:100CE0005DFF10BD2DE9F0470446884615464FF0DC
:100CF00000090026002723E0E85D203800F0FF0906
:100D00007E2C04DD002408F1010000F0FF084146BC
:100D10002046FFF74DFF00260CE009EB49016E4A23
:100D200002EB4101885DFFF72FFF0120FFF71AFB5F
:100D3000701CC6B2062EF0DBA01DC4B2781CC7B270
:100D4000E85D0028D8D1BDE8F0872DE9F0470646D8
:100D50000F46904600250024A14637E018F8090008
:100D60002038C5B2782E02DD0026781CC7B239467D
:100D70003046FFF71DFF00240AE004EB0511574A37
:100D8000505CFFF701FF0120FFF7ECFA601CC4B2D2
:100D9000082CF2DB781CC1B23046FFF709FF0024B3
:100DA0000BE004EB051108314C4A505CFFF7ECFEF8
:100DB0000120FFF7D7FA601CC4B2082CF1DB06F162
:100DC0000800C6B209F1010000F0FF0918F8090097
:100DD0000028C3D1BDE8F0872DE9F04707468946D2
:100DE000924698460024002600252DE0102101FBA4
:100DF0000571C8B24946FFF7DBFE002409E018F888
:100E00000600FFF7C1FE0120FFF7ACFA761C601C5C
:100E1000C4B2102CF3DB09F10102D1B2102202FBA3
:100E20000572D0B2FFF7C4FE002409E018F80600EE
:100E3000FFF7AAFE0120FFF795FA761C601CC4B2EA
:100E4000102CF3DB681CC5B25545CFDBBDE8F0873D
:100E50002DE9F05F06460F4690461C46DDF828A0B7
:100E60004FF0000BE11704EB5171C910A4EBC10165
:100E700031B92046E11704EB5171C1F3C70506E013
:100E80002046E11704EB5171C910491CCDB23D4613
:100E900017E029463046FFF78BFEB1460DE0594674
:100EA0000BF1010B1AF80100FFF76EFE0120FFF7AE
:100EB00059FA09F1010000F0FF09C145EFDB681C98
:100EC000C5B2A542E5DBBDE8F09F00000038004058
:100ED00000100140000C0140B2300008DA32000876
:100EE00010B50446CC48844208D10121042000F00A
:100EF0002DFB0021042000F029FB46E0C748844276
:100F000008D10121082000F021FB0021082000F079
:100F10001DFB3AE0C248844208D10121102000F0B4
:100F200015FB0021102000F011FB2EE0BD4884428B
:100F300008D10121202000F009FB0021202000F031
:100F400005FB22E0B848844208D10121402000F08E
:100F5000FDFA0021402000F0F9FA16E0B34884427F
:100F600008D10121802000F0F1FA0021802000F05A
:100F7000EDFA0AE0AE48844207D10121801500F065
:100F8000E5FA0021A01500F0E1FA10BD10B501212D
:100F9000084600F0DBFA0021012000F0D7FA10BD6E
:100FA0002DE9F04102460025002600200023002400
:100FB000002791F803C00CF00F0591F803C00CF066
:100FC000100CBCF1000F03D091F802C04CEA0505EB
:100FD00091F800C0BCF1000F31D0146800202BE064
:100FE0004FF0010C0CFA00F3B1F800C00CEA030654
:100FF0009E4220D183004FF00F0C0CFA03F7BC4344
:1010000005FA03FC4CEA040491F803C0BCF1280F74
:1010100006D14FF0010C0CFA00FCC2F814C00AE033
:1010200091F803C0BCF1480F05D14FF0010C0CFA48
:1010300000FCC2F810C0401C0828D1D31460B1F8DD
:1010400000C0BCF1FF0F34DD546800202EE000F139
:10105000080C4FF0010808FA0CF3B1F800C00CEAD4
:1010600003069E4221D183004FF00F0C0CFA03F7C8
:10107000BC4305FA03FC4CEA040491F803C0BCF13C
:10108000280F05D100F1080C08FA0CF8C2F81480FA
:1010900091F803C0BCF1480F07D100F1080C4FF0E4
:1010A000010808FA0CF8C2F81080401C0828CED3BA
:1010B0005460BDE8F0814FF6FF710180022181701C
:1010C0000421C17070470246002093680B400BB1A9
:1010D000012000E0002070470146886880B2704718
:1010E00002460020D3680B400BB1012000E0002035
:1010F00070470146C86880B270470161704741611E
:1011000070470AB1016100E041617047C1607047FA
:101110004FF480320A43826181618261826982690F
:10112000704702460020434B18684FF68073184002
:1011300040EA021008433F4B186070473E49C861BF
:101140007047F0B50A46002300240021002500F076
:101150000046B6F1004F02D1364EF16901E0354E3E
:101160007168C0F3034583B200F44016B6F5401F22
:1011700008D121F070612F4E766826F070662D4FF1
:101180007E6012E000F48016B6F5801F06D10326BB
:1011900006FA05F4A14341F0706106E0460D360100
:1011A00003FA06F6B14341F0706122B1460D3601F3
:1011B00003FA06F6314300F00046B6F1004F02D1C3
:1011C0001C4EF16101E01B4E7160F0BD30B5002294
:1011D0008B071C0F0F2303FA04F2164B08338C10F5
:1011E00053F824309343134C08348D1044F82530C1
:1011F00023468C1053F824308C07240F00FA04F493
:1012000023430C4C08348D1044F8253030BD0A4976
:10121000DC3108607047000000080140000C01400C
:10122000001001400014014000180140001C014062
:10123000002001400000014000002042DF4800681B
:1012400040F00100DD49086008464068DC4908407C
:10125000DA49486008460068DA490840D74908601A
:101260000846006820F4802008600846406820F4A2
:10127000FE0048604FF41F0088607047CF4909683E
:1012800021F48031CD4A11601146096821F4802192
:101290001160B0F5803F03D0B0F5802F0ED106E08D
:1012A000C649096841F48031C44A116007E0C34966
:1012B000096841F4A021C14A116000E000BF00BFED
:1012C000704710B501460022002300204A11012A70
:1012D00002D1BA4C236806E0022A02D1B74C236A35
:1012E00001E0B64C636A01F01F02012494401C40E7
:1012F0000CB1012000E0002010BD38B500200090A6
:101300000024002500BF3120FFF7DBFF05460098D1
:10131000401C00900098B0F5A06F01D0002DF2D0D5
:101320003120FFF7CEFF08B1012400E00024204661
:1013300038BD01460020A14A106820F0F80040EABC
:10134000C10010607047A049086070470246002045
:101350009A4B586820F47C1042EA01031843974BDB
:101360005860704798490866704701460020934AC4
:10137000506820F003000843506070478F48406871
:1013800000F00C007047014600208C4A506820F0A5
:10139000F00008435060704701460020874A5068BB
:1013A00020F4E06008435060704701460020834A03
:1013B000506820F4605040EAC1005060704729B185
:1013C0007E4A527A02437D4B5A7204E07B4A527A3B
:1013D00082437A4B5A7270477B49D8310860704714
:1013E00001460020754A506820F440400843506090
:1013F00070470021714A20321170704A82F8201023
:10140000012802D004280AD104E001216B4A2032CD
:10141000117005E00521694A2032117000E000BF1B
:1014200000BF70476949086070476449096A014311
:10143000624A11627047654944390860704730B5A7
:1014400000210022002400235C4D6D6805F00C0192
:1014500021B1042905D0082923D105E05C4D0560A0
:1014600022E05B4D05601FE0544D6D6805F470127D
:10147000524D6D6805F48034022505EB92421CB98B
:10148000544D554305600BE04C4D6D6805F4003537
:101490001DB1504D5543056002E04D4D554305606B
:1014A00002E04B4D056000BF00BF444D6D6805F084
:1014B000F0010909484D6B5C0568DD4045603F4D12
:1014C0006D6805F4E061090A434D6B5C4568DD40D9
:1014D00085603A4D6D6805F46051C90A3E4D6B5CFC
:1014E0004568DD40C560354D6D6805F44041890BA8
:1014F0003A4D6B5CC568B5FBF3F5056130BD29B1AC
:101500002E4A526902432D4B5A6104E02B4A52691C
:1015100082432A4B5A61704729B1284A9269024393
:10152000264B9A6104E0254A92698243234B9A61D3
:10153000704729B1214AD2690243204BDA6104E0A5
:101540001E4AD26982431D4BDA61704729B11B4A9A
:10155000D2680243194BDA6004E0184AD268824329
:10156000164BDA60704729B1144A12690243134BD3
:101570001A6104E0114A12698243104B1A617047E4
:1015800012494039086070470F49C86470470B49D9
:10159000C87170470948406A40F080700749486246
:1015A000704701460020054A92680A400AB10120AE
:1015B00000E0002070470149887270470010024027
:1015C0000000FFF8FFFFF6FE0000424280044242A6
:1015D00000127A0000093D00A8000020B800002099
:1015E00010B50446BE48844208D101218014FFF79B
:1015F000ADFF0021A014FFF7A9FF16E0B94884420F
:1016000008D101210014FFF7AEFF00212014FFF7DD
:10161000AAFF0AE0B448844207D10121C013FFF7B2
:10162000A2FF0021E013FFF79EFF10BD10B50022BE
:10163000028802F441520B884C8823438C88234350
:10164000CC8823430C8923434C8923438C8923432F
:10165000CC8923431A430280838B4FF2FF742340CB
:1016600083830B8A038210BD2DE9F04F85B00546B8
:101670000C464FF0000902274FF000084FF0010B15
:101680000026B246A88B4FF240010840A8830220F2
:101690002884B5F81C90A068022801D100BF38E06A
:1016A000A08810B94FF0010B01E04FF0020B8D48FC
:1016B000854200D100E000BF6846FFF7C0FEDDF8BC
:1016C00000A0E088B0F5007F0AD14FEA1A2000EBB5
:1016D00080004000A168B0FBF1F0401D86B20BE035
:1016E0004FEA4B10BAFBF0F000EB80004000A1681D
:1016F000B0FBF1F0401D86B20A20B6FBF0F606F012
:101700000108A6EB0800C0F34F074FF6FF7000EA90
:101710000828022F01DBFF2F02DD02274FF000080F
:10172000E08840EA080038432884A088A18908435B
:10173000618808432188084340F4006040EA0909B1
:10174000A5F81C9005B0BDE8F08F00210180418014
:101750008180C180018141818181C1810721018214
:1017600070470021018041808180C1800221816019
:1017700000218181704721B1028842F0400202803D
:1017800004E002884FF6BF731A400280704721B10F
:10179000828B42F48062828304E0828B4FF6FF33B7
:1017A0001A408283704730B5002400230C110125B4
:1017B000A540ABB21AB185881D43858002E08588BB
:1017C0009D43858030BD1AB183880B43838002E03E
:1017D00083888B4383807047818170470146888965
:1017E00070474FF6FF62914204D0028842F4807243
:1017F000028004E002884FF6FF631A4002807047BF
:1018000021B1828842F00402828004E082884FF68F
:10181000FB731A408280704702884FF2FF731A40B0
:10182000028002880A4302807047018841F4805197
:101830000180704721B1028842F40052028004E026
:1018400002884DF6FF731A4002807047024600205E
:10185000012901D0108B00E0908A70470146088A68
:101860007047B1F5804F04D1028842F48042028073
:1018700004E002884BF6FF731A400280704702466C
:10188000002013890B400BB1012000E000207047BD
:10189000CA4302817047F0B50246002000240023AD
:1018A000002501F00F070126BE40B4B20B1101263E
:1018B0009E40B3B2968806EA03051689264016B103
:1018C0000DB1012000E00020F0BD10B5002201F0B4
:1018D0000F040123A3409AB2D343038110BD00003B
:1018E0000030014000380040003C004031490143D5
:1018F000314A1160704770B5002100230F22C4786F
:1019000004B32D4C246804F4E064C4F5E064210AB7
:10191000C1F10403CA40447804FA03F18478144006
:1019200021430901254C0678A155047804F01F05D0
:101930000124AC4005786D11AD0005F1E025C5F836
:10194000004109E0047804F01F050124AC401C4D5F
:101950000678761145F8264070BD1A4A0A400243BF
:10196000154B1B1F1A60704739B1134A121D1268BC
:101970000243114B1B1D1A6006E00F4A121D12682C
:1019800082430D4B1B1D1A607047042808D14FF08D
:10199000E021096941F004014FF0E022116107E004
:1019A0004FF0E021096921F004014FF0E0221161BC
:1019B000704700000000FA050CED00E000E400E0D4
:1019C00080E100E080FFFF1F10B50446FB48844221
:1019D00009D101218803FFF7B9FD00214FF48040B0
:1019E000FFF7B4FD32E0F648844209D101214804F2
:1019F000FFF7B9FD00214FF40030FFF7B4FD25E0FB
:101A0000F048844209D101218804FFF7ACFD002190
:101A10004FF48020FFF7A7FD18E0EB48844209D17E
:101A20000121C804FFF79FFD00214FF40020FFF7BC
:101A30009AFD0BE0E548844208D101210805FFF733
:101A400092FD00214FF48010FFF78DFD10BD2DE9B0
:101A5000F04786B005460E460024A24600BFA146C8
:101A60000027B08900B100BF2F462C8A4CF6FF70CA
:101A70000440F08804432C82AC894EF6F3100440F5
:101A8000B08831890843718908430443AC81AC8A2A
:101A90004FF6FF400440B0890443AC8201A8FFF731
:101AA000CEFCC648874202D1DDF810A001E0DDF887
:101AB0000CA0A88900F4004040B10AEBCA0000EB7A
:101AC0000A1031684900B0FBF1F807E00AEBCA00E0
:101AD00000EB0A1031688900B0FBF1F86420B8FB14
:101AE000F0F004012009642101FB1089A88900F4A9
:101AF000004040B1322000EBC900B0FBF1F000F033
:101B00000700044308E0322000EB09106421B0FB19
:101B1000F1F000F00F0004432C8106B0BDE8F0871F
:101B20004FF41651016000218180C18001810C2198
:101B3000418100218181704710B502460020108A42
:101B40004FF2FF0318400B884C8823438C882343B3
:101B5000CC8823431843108210BD002101804180AE
:101B60008180C180704721B1828942F40052828114
:101B700004E082894DF6FF731A4082817047F0B508
:101B80000346002400260025002040F66A17B942CB
:101B900000D100BF1846C1F3421401F01F0601270F
:101BA00007FA06F5012C01D10C3004E0022C01D11A
:101BB000103000E014301AB107682F43076002E0CC
:101BC0000768AF430760F0BD1AB1838A0B43838275
:101BD00002E0838A8B4383827047028A4FF6F07358
:101BE0001A400282028A0A430282704782894FF2B7
:101BF000FF731A40828182890A438281704721B132
:101C0000828942F00202828104E082894FF6FD73EC
:101C10001A4082817047028A4FF6DF731A400282AF
:101C2000028A0A430282704721B1028A42F480424A
:101C3000028204E0028A4BF6FF731A400282704768
:101C4000C1F308028280704701468888C0F308000B
:101C50007047818941F0010181817047028BD2B2C6
:101C60000283028B42EA012202837047028B02F454
:101C70007F420283028B0A430283704721B1828A2A
:101C800042F02002828204E0828A4FF6DF731A401B
:101C90008282704721B1828A42F01002828204E07F
:101CA000828A4FF6EF731A408282704721B1828A8E
:101CB00042F00802828204E0828A4FF6F7731A40EB
:101CC0008282704721B1828942F40042828103E01E
:101CD0008289C2F30E028281704721B1828A42F466
:101CE0000062828204E0828A4FF2FF731A4082828D
:101CF0007047828A4FF6FB731A408282828A0A43B7
:101D00008282704721B1828A42F00202828204E01C
:101D1000828A4FF6FD731A40828270470246002085
:101D2000B1F5007F00D100BF13880B400BB101203B
:101D300000E00020704701F40072B2F5007F00D18E
:101D400000BFCA430280704770B5024600240023DA
:101D50000025002040F66A16B14200D100BFC1F351
:101D6000421501F01F03012606FA03F3012D02D1EB
:101D70009689334006E0022D02D1168A334001E0F5
:101D8000968A33400C12012606FA04F41688344071
:101D900013B10CB1012000E0002070BD10B500228D
:101DA000002340F66A14A14200D100BF0A120124A8
:101DB0009440A3B2DC43048010BD00000038014011
:101DC0000044004000480040004C004000500040EB
:101DD00010B50446FE48844209D101214806FFF7A8
:101DE000C2FB00214FF00070FFF7BDFB08E00121AE
:101DF0008806FFF7B8FB00214FF08060FFF7B3FBC8
:101E000010BD30B5024600200023146824F00204FF
:101E10001460146844F00104146000E05B1C546812
:101E200004F001041CB94FF6FF74A342F6D15468C4
:101E300004F001040CB900206CE08C79012C04D171
:101E4000146844F08004146003E0146824F08004F3
:101E50001460CC79012C04D1146844F0400414605F
:101E600003E0146824F0400414600C7A012C04D1BF
:101E7000146844F02004146003E0146824F0200483
:101E800014604C7A012C04D1146844F010041460DE
:101E900003E0146824F0100414608C7A012C04D13F
:101EA000146844F00804146003E0146824F0080483
:101EB0001460CC7A012C04D1146844F0040414603A
:101EC00003E0146824F0040414608C78A407CD782F
:101ED00044EA05640D7944EA05444D7944EA055421
:101EE0000D886D1E2C43D461146824F00104146025
:101EF000002300E05B1C546804F001041CB14FF6A1
:101F0000FF74A342F6D1546804F001040CB1002020
:101F100000E0012030BD10B50021837A012202FAD1
:101F200003F1AC4A126842F00102AA4B1A60A94AB6
:101F30001C3212688A43A74B1C331A60027BCAB951
:101F4000A44A0C3212688A43A24B0C331A604288AE
:101F5000C38842EA03439F4A4032847A42F83430CD
:101F60000288838842EA03439A4A4032847A02EB29
:101F7000C4025360027B012A19D1964A0C321268BE
:101F80000A43944B0C331A604288038842EA0343A5
:101F9000904A4032847A42F83430C288838842EAD8
:101FA00003438C4A4032847A02EBC4025360C27A03
:101FB0003AB9884A121D12688A43864B1B1D1A6063
:101FC00006E0844A121D12680A43824B1B1D1A60E8
:101FD000028932B97F4A143212688A437D4B143326
:101FE0001A600289012A06D17A4A143212680A4319
:101FF000784B14331A60427B012A06D1754A1C3291
:1020000012680A43734B1C331A60724A126822F03A
:102010000102704B1A6010BD00218171C171017203
:1020200041728172C1728170C170032101710221FC
:1020300041710121018070476649096841F0010141
:10204000644A11601146096843F60E729143614A71
:1020500011601146096841EA0021116011460968C2
:1020600021F001011160704721B1026842F4803211
:10207000026003E0026822F4803202607047E1B13E
:10208000026842F0800202604FF4C272125842F4B9
:1020900080734FF4C27213504FF4CA72125842F454
:1020A00080734FF4CA7213504FF4D272125842F434
:1020B00080734FF4D27213501BE0026822F080024A
:1020C00002604FF4C272125822F480734FF4C2724D
:1020D00013504FF4CA72125822F480734FF4CA722C
:1020E00013504FF4D272125822F480734FF4D2720C
:1020F0001350704710B502460020936803F08063C8
:10210000B3F1806F00D110E0936803F00063B3F186
:10211000006F01D1012008E0936803F08053B3F110
:10212000805F01D1022000E00420042879D002F56C
:10213000C07303EB00131B6803F0010402F5C073C6
:1021400003EB00131C600B7A7BB94B7A0C8843EAD3
:10215000445302F5C07404EB00142468234302F5D1
:10216000C07404EB0014236010E00B7A4C6843EA5F
:10217000C4034C7A234302F5C07404EB00142468B2
:10218000234302F5C07404EB001423608B7A03F040
:102190000F038B7202F5C07303EB00135B6823F02F
:1021A0000F0402F5C07303EB00135C6002F5C0730B
:1021B00003EB00135B688C7A234302F5C07404EBD5
:1021C000001463608B7B1C064B7B44EA034403E0F2
:1021D00000640040006600400B7B44EA0323CC7A95
:1021E000234302F5C07404EB0014A3608B7C1C062F
:1021F0004B7C44EA03440B7C44EA0323CC7B23431B
:1022000002F5C07404EB0014E36002F5C07303EB45
:1022100000131B6843F0010402F5C07303EB0013C5
:102220001C6010BD10B50246002321B1012907D062
:1022300002290FD109E09068F94C00EA04030BE091
:102240009068F84C00EA040306E09068F64C00EA57
:10225000040301E0002300BF00BFF44C181BA3429D
:1022600016D007DC83B16FF08060184470B102288B
:1022700018D111E0B0F5007F10D0ED4C204448B1EA
:10228000B0F5003F0ED10BE002230DE000230BE080
:10229000002309E0002307E0012305E0012303E018
:1022A000012301E0002300BF00BFD8B210BD21B15F
:1022B000012907D002290FD109E0826842F080028B
:1022C00082600AE0826842F40042826005E082682F
:1022D00042F40002826000E000BF00BF704710B50A
:1022E00000F5D87303EB01131B6803F004031372AA
:1022F000137A53B900F5D87303EB01131B6840F24E
:10230000FF7404EA5353136009E000F5D87303EB3C
:1023100001131B686FF0604404EAD303536000F5B7
:10232000D87303EB01131B6803F00203537200F52B
:10233000D87303EB01135B6803F00F03937200F58E
:10234000D87303EB01135B681B0AD37400F5D873D1
:1023500003EB01139B68D37200F5D87303EB0113F1
:102360009B681C0A147300F5D87303EB01139B6878
:102370001C0C547300F5D87303EB01139B681B0E00
:10238000937300F5D87303EB0113DB68D37300F587
:10239000D87303EB0113DB681C0A147400F5D873BF
:1023A00003EB0113DB681C0C547400F5D87303EBCA
:1023B0000113DB681B0E937421B9C36843F020033B
:1023C000C36003E0036943F02003036110BD21B93A
:1023D000C26842F02002C26003E0026942F02002BB
:1023E000026170470246002019B9D36803F0030068
:1023F00006E0012903D1136903F0030000E0002087
:10240000704710B502460B4600204FF6FF71BBB96E
:10241000146824F0020444F00104146000E0491E32
:10242000546804F00304012C01D00029F7D154684A
:1024300004F00304012C01D0002032E0012030E040
:10244000012B13D1146824F00304146000E0491E2A
:10245000546804F003040CB10029F8D1546804F066
:1024600003040CB100201CE001201AE0022B17D15C
:10247000146824F0010444F00204146000E0491ED2
:10248000546804F00304022C01D00029F7D15468E9
:1024900004F00304022C01D0002002E0012000E03F
:1024A000002010BD014600200A6822F0010242F01F
:1024B00002020A604A6802F00302022A00D10120E7
:1024C000704701464FF6FF7200200B6823F00203AD
:1024D0000B6000E0521E4B6803F00203022B01D197
:1024E000002AF7D14B6803F00203022B00D0012031
:1024F0007047014600208A6902F07000704701466B
:1025000000208A69100E7047014600208A69C2F3D4
:10251000074070471AB143690B43436102E04369C6
:102520008B434361704710B50246002001F47003ED
:1025300043B19369C1F3130423400BB101202DE093
:1025400000202BE001F0807343B15368C1F3130402
:1025500023400BB1012021E000201FE001F00063C7
:1025600043B19368C1F3130423400BB1012015E07C
:10257000002013E001F0007343B1D368C1F31304EA
:1025800023400BB1012009E0002007E01369C1F3EB
:10259000130423400BB1012000E0002010BD0022F5
:1025A000244B994202D10023836111E0C1F313024D
:1025B00001F000730BB1C2600AE001F080630BB15F
:1025C000026105E001F000630BB1826000E042604F
:1025D00070470246002002EA01030BB1012000E02F
:1025E0000020704770B504460D46002660692840FB
:1025F000002872D0B5F5807F69D01DDC082D42D04F
:1026000006DC012D2DD0022D31D0042D7FD134E0F8
:10261000102D3ED0202D42D0402D78D145E0000035
:10262000030000040003000800000310000100087C
:102630000001FFF77000F030B5F5004F61D009DC04
:10264000B5F5007F4AD0B5F5806F4DD0B5F5006F78
:102650005DD150E0B5F5803F2DD0B5F5003F56D1A6
:102660002FE0A0685549FFF7B4FF064651E0E06847
:102670000321FFF7AEFF06464BE0E0680821FFF7B5
:10268000A8FF064645E0E0681021FFF7A2FF0646D6
:102690003FE020690321FFF79CFF064639E02069EF
:1026A0000821FFF796FF064633E020691021FFF767
:1026B00090FF06462DE060680821FFF78AFF064676
:1026C00027E060681021FFF784FF064621E0A0693B
:1026D0000121FFF77EFF06461BE01BE0A0690221F7
:1026E000FFF777FF064614E0A0690421FFF771FFAA
:1026F00006460EE00BE0A0697021FFF76AFF064670
:1027000007E060680421FFF764FF064601E0002649
:1027100000BF00E00026304670BDB1F5007F3AD022
:102720000FDC202928D006DC01291CD004291DD06B
:10273000082940D11DE0402921D0B1F5807F3AD150
:1027400026E0B1F5004F31D006DCB1F5806F25D021
:10275000B1F5006F2FD124E0B1F5803F12D0B1F573
:10276000003F28D111E0154A826025E00822C260AE
:1027700022E01022C2601FE0082202611CE0102249
:10278000026119E00822426016E01022426013E064
:102790000422426010E0042242600DE00422426004
:1027A0000AE0002282610422426005E00022826188
:1027B0000422426000E000BF00BF70470101010039
:1027C0000CB50020019000906C48006840F4803007
:1027D0006A49086000BF6948006800F40030009052
:1027E0000198401C0190009818B90198B0F5A06FAD
:1027F000F1D16248006800F4003010B1012000906F
:1028000001E0002000900098012843D15C48006856
:1028100040F010005A4908600846006820F00300A4
:1028200008600846006840F00200086053484068AD
:10283000524948600846406848600846406840F48D
:10284000806048600846406820F47C104860084674
:10285000406840F4E81048600846006840F0807026
:10286000086000BF4548006800F000700028F9D0FB
:102870004248406820F003004049486008464068EC
:1028800040F00200486000BF3C48406800F00C0087
:102890000828F9D10CBD10B5FFF792FF10BD10B597
:1028A0003648006840F00100344908600846406836
:1028B00034490840314948600846006832490840B8
:1028C0002E4908600846006820F480200860084609
:1028D000406820F4FE0048604FF41F008860FFF756
:1028E000DAFF4FF000602949086010BD10B50021E3
:1028F00000200022214B5B6803F00C0121B1042968
:1029000006D0082928D107E0214B224C236027E07C
:102910001F4B204C236023E0184B5B6803F47010BE
:10292000164B5B6803F48032022303EB904022B91C
:10293000194B4343174C23600DE0104B5B6803F4C5
:10294000003323B1144B4343124C236003E0104B7C
:102950004343104C236003E00D4B0E4C236000BF3B
:1029600000BF064B5B68C3F303130C4CE15C094BDF
:102970001B68CB40074C236010BD000000100240D4
:10298000002002400000FFF8FFFFF6FE08ED00E027
:1029900000127A00BC00002000093D00C0000020A9
:1029A000704770477047754600F028F8AE4605003E
:1029B0006946534620F00700854618B020B5FDF75C
:1029C00013FCBDE820404FF000064FF000074FF029
:1029D00000084FF0000B21F00701AC46ACE8C0093D
:1029E000ACE8C009ACE8C009ACE8C0098D46704746
:1029F0000446AFF300802046FDF7E1FB0048704736
:102A00000401002001491820ABBEFEE726000200A9
:102A100070478080808080808080808080808080FF
:102A20008000000000000000000000000000000026
:102A30000000202020FF202080F88040FF2010F0A0
:102A400000001030100F0808003F40405F42444330
:102A50007800202020FF202000F80000FF404040A8
:102A600000001030100F0848407F40407F40404039
:102A70004000000000000000000000000000000016
:102A80000000000000000000000000000000000046
:102A900000001060028C000E22120AC20A12220EDE
:102AA000000004047E012021110905FF0509112100
:102AB000200000040404FF5454545454FF0404043C
:102AC000000011118985939191FD91919385891150
:102AD00011000000000000000000000000000000E5
:102AE00000000000000000000000000000000000E6
:102AF00000001060028C00909090FF90494A48407E
:102B0000000004047E0100404020130C142241F810
:102B1000000000040404FF5454545454FF040404FB
:102B2000000011118985939191FD919193858911EF
:102B30001100000000FC242424242222222322202D
:102B400020004020180700FE424242424242FE005E
:102B500000001010D0FF901008080809FA080808B3
:102B60000800040300FF0003404141417F4141410F
:102B700040000808E8292E28E80808C80C0BE808D7
:102B800008000000FF0949897F00000F40807F0096
:102B900000004850E21400209A423E8202FE0008E3
:102BA000300044442524140D04FF040C152424444F
:102BB0004400001088C43310545454FF54547C1003
:102BC0001000020100FF0010121212FF1212121068
:102BD00000004044C4444444401010FF101010F062
:102BE0000000103C131014B840300E014080403FEC
:102BF00000008080808080808080808080808080D5
:102C00008000000000000000000000000000000044
:102C1000000000FE9292FE9292FE00F21AD612F28C
:102C2000020022120A06FF060A12804F300F204FC0
:102C3000800004040484E43C2724242424E40404C1
:102C4000040004020100FF0909090949897F000005
:102C50000000001010101010FF1010101010F000E5
:102C600000000080402018060100204080403F0006
:102C700000000000800000E0020418000000408016
:102C80000000100C0300003F40404040407800012D
:102C90000E0000FE2222FE0000F8080809EE0808D7
:102CA0000800807F0282FF80601F4041417F4141D8
:102CB00040000000000000000000000000000000D4
:102CC0000000000000000000000000000000000004
:102CD00000000000000000000000000000000000F4
:102CE00000000000008080C0C0C0E0E0E070303034
:102CF0009098D8C8E8E0E0F0F0F0F0F0F0F0F0F0F4
:102D0000E0E0C0C000000000000000000000000083
:102D100000000000000000000000000000000000B3
:102D200000000000000000000000000000000000A3
:102D30000000000000000000000000000000000093
:102D40000000000000000000000000000000000083
:102D50000000000000000000000080C0E0F0F0F87B
:102D6000FCFC7E3F1F8F87C7E3F1F9FCFCFEFFFFF1
:102D7000FFFFFFFFFFFFFFFFFFFFFFFFFFFFFFFF63
:102D8000FFFFFFFFFFFE000000000000000000004A
:102D90000000000000000000000000000000000033
:102DA0000000000000000000000000000000000023
:102DB0000000000000000000000000000000000013
:102DC0000000000000000000000000000000000003
:102DD000000080C0E0F0F8FCFEFFFF3F1F0F87C33C
:102DE000E1F0F8FCFEFFFFFFFFFFFFFFFFFFFFFF2B
:102DF000FF7F3F3F1F1F0F0F0F0F0F0F0F1F3F7F53
:102E0000FFFFFFFFFF1F80C0E0E0F0F8F8FCFCFCD4
:102E1000FEFEFEFEFCFCF8F0E000000000000000FA
:102E200000000000000000000000000000000000A2
:102E30000000000000000000000000000000000092
:102E400000000000000000000000000000C0E0F0F2
:102E5000FCFEFFFFFF7F3F0F87C1E0F8FCFEFFFF96
:102E6000FFFFFFFFFFFFFFFFFF7F3F1F0F07030174
:102E70000000000000000000000000000000000052
:102E8000FFFFFFFF7F3F3F1F0F0F070707030303EE
:102E9000030307070F7FFFFF7F0000000000000013
:102EA0000000000000000000000000000000000022
:102EB0000000000000000000000000000000000012
:102EC000000000000000101C1F1F1F1F1F1F1F1FDE
:102ED0001F1F1F0701000C0E0F0F0F0F0F0F0F0FFB
:102EE0000F0F0F0F0F0F070300000000000000007E
:102EF0000000000000000000000000000000000FC3
:102F000007030100000000000000000000000000B6
:102F100000000000000007010000000000000000A9
:102F200000000000000000000000000000000000A1
:102F30000000000000000000000000000000000091
:102F40000000000000000000000000000000000081
:102F500000FFFFFFFFFF0240E0F0B030302020E034
:102F6000F0FEFFFF9F1F7FFFFCF08000030F3FFF7D
:102F7000FFFFFCF08000000080E0F0FCFEFFFFFFA0
:102F8000FFFF0000C0F0F8F8FCFC3E1E0E0F0F071C
:102F9000878787878F8E8E0E00000000000000005C
:102FA0000000000000000000000000000000000021
:102FB0000000000000000000000000000000000011
:102FC0000000000000000080C0C0C0C0C0C0C0C081
:102FD000E0FFFFFFFF7F10000103078FEEFCFFFF04
:102FE0007F7F63E0E1C1C3C3DFFFFFFEF8C00000E5
:102FF000031F7FFFFFFEFCFFFF3F1F0701FFFFFFD7
:10300000FFFF00000F1F3F7FFFFFF8F0E0E0E0E36D
:10301000E3E3C3FFFFFFFFFF00000000000000002C
:1030200000000000000000000000000000000000A0
:103030000000000000000000000000000000000090
:103040000000000000000000010101010101010178
:103050000101010000000000000000010101010168
:103060000000000000000001010101010101010058
:103070000000000101010101000000000001010148
:103080000101000000000000000000010101010139
:10309000010101010101000000000000000000002A
:1030A0000000000000000000000000000000000020
:1030B00000000000000000000000002F00000000E1
:1030C0000700070000147F147F1400242A7F2A12AF
:1030D000006264081323003649552250000005039E
:1030E000000000001C224100000041221C000014CE
:1030F000083E08140008083E0808000000A0600010
:10310000000808080808000060600000002010089F
:103110000402003E5149453E0000427F400000420B
:1031200061514946002141454B31001814127F106E
:10313000002745454539003C4A494930000171099D
:10314000050300364949493600064949291E000051
:1031500036360000000056360000000814224100F8
:103160000014141414140000412214080002015128
:10317000090600324959513E007C1211127C007F31
:1031800049494936003E41414122007F4141221CCC
:10319000007F49494941007F09090901003E414931
:1031A000497A007F0808087F0000417F4100002025
:1031B00040413F01007F08142241007F40404040D1
:1031C000007F020C027F007F0408107F003E414117
:1031D000413E007F09090906003E4151215E007F02
:1031E000091929460046494949310001017F010179
:1031F000003F4040403F001F2040201F003F40381C
:10320000403F00631408146300070870080700615A
:103210005149454300007F41410000552A552A5538
:10322000000041417F0000040201020400404040D0
:103230004040000001020400002054545478007FF4
:103240004844443800384444442000384444487FCB
:1032500000385454541800087E0901020018A4A430
:10326000A47C007F080404780000447D40000040F6
:1032700080847D00007F102844000000417F4000D2
:10328000007C04180478007C080404780038444466
:10329000443800FC242424180018242418FC007C42
:1032A0000804040800485454542000043F444020BB
:1032B000003C4040207C001C2040201C003C403052
:1032C000403C004428102844001CA0A0A07C0044DE
:1032D00064544C441414141414140000000000002E
:1032E00000000000000000000000000000F80000E6
:1032F0000000000000333000000000100C06100C2D
:103300000600000000000000000040C07840C078C7
:103310004000043F04043F040400007088FC0830AF
:103320000000001820FF211E0000F008F000E01847
:10333000000000211C031E211E0000F00888700000
:1033400000001E2123241927211010160E00000052
:1033500000000000000000000000000000E0180471
:103360000200000000071820400000020418E000DE
:1033700000000040201807000000404080F080401E
:1033800040000202010F01020200000000F00000F4
:1033900000000101011F0101010000000000000008
:1033A000000080B07000000000000000000000007D
:1033B0000000000101010101010100000000000006
:1033C00000000030300000000000000000008060BD
:1033D0001804006018060100000000E01008081042
:1033E000E000000F102020100F00001010F8000067
:1033F00000000020203F20200000007008080888FE
:1034000070000030282422213000003008888848CD
:1034100030000018202020110E000000C02010F8FD
:10342000000000070424243F240000F808888808CE
:1034300008000019212020110E0000E010888818D3
:103440000000000F112020110E0000380808C838B5
:1034500008000000003F0000000000708808088895
:103460007000001C222121221C0000E0100808101E
:10347000E0000000312222110F00000000C0C00057
:10348000000000000030300000000000008000005C
:10349000000000008060000000000000804020105C
:1034A0000800000102040810200040404040404055
:1034B00040000404040404040400000810204080B8
:1034C00000000020100804020100007048080808ED
:1034D000F0000000003036010000C030C828E810BD
:1034E000E0000718272423140B000000C038E00078
:1034F0000000203C23020227382008F888888870C2
:103500000000203F202020110E00C03008080808CD
:103510003800071820202010080008F808080810B4
:10352000E000203F202020100F0008F88888E808DD
:103530001000203F20202320180008F88888E80881
:103540001000203F200003000000C03008080838A9
:10355000000007182020221E020008F808000008BA
:10356000F808203F210101213F20000808F8080841
:1035700000000020203F2020000000000808F8087C
:103580000800C08080807F00000008F888C02818EC
:103590000800203F20012638200008F8080000001D
:1035A0000000203F20202020300008F8F800F8F824
:1035B0000800203F003F003F200008F830C000080E
:1035C000F808203F200007183F00E0100808081006
:1035D000E0000F10202020100F0008F8080808084D
:1035E000F000203F210101010000E0100808081050
:1035F000E0000F18242438504F0008F88888888885
:103600007000203F2000030C30200070880808085C
:1036100038000038202121221C00180808F808086A
:1036200018000000203F2000000008F808000008F3
:10363000F808001F202020201F000878880000C8FC
:103640003808000007380E010000F80800F80008EC
:10365000F800033C0700073C0300081868808068F6
:10366000180820302C03032C30200838C800C83834
:1036700008000000203F2000000010080808C8389B
:1036800008002038262120201800000000FE020239
:1036900002000000007F40404000000C30C00000ED
:1036A0000000000000010638C00000020202FE0017
:1036B0000000004040407F000000000004020202C1
:1036C00004000000000000000000000000000000F6
:1036D00000008080808080808080000202040000E2
:1036E00000000000000000000000000080808080DA
:1036F00000000019242222223F2008F800808000C8
:103700000000003F112020110E000000008080808A
:103710000000000E11202020110000000080808891
:10372000F800000E112020103F20000080808080D3
:103730000000001F222222221300008080F08888CF
:1037400088180020203F202000000000808080801A
:103750008000006B94949493600008F8008080804F
:103760000000203F210000203F20008098980000AA
:1037700000000020203F20200000000000809898DA
:10378000000000C08080807F000008F8000080807A
:103790008000203F24022D302000000808F800009F
:1037A00000000020203F202000008080808080805A
:1037B0008000203F20003F20003F808000808080EC
:1037C0000000203F210000203F20000080808080FA
:1037D0000000001F202020201F008080008080002B
:1037E000000080FFA12020110E00000000808080DA
:1037F0008000000E112020A0FF808080800080804B
:10380000800020203F212000010000008080808077
:1038100080000033242424241900008080E080806C
:1038200000000000001F20200000808000000080B9
:103830008000001F202020103F208080800000801A
:10384000808000010E30080601008080008000802A
:1038500080800F300C030C300F00008080008080CF
:1038600080000020312E0E312000808080000080FA
:10387000808080818E7018060100008080808080AA
:1038800080000021302C2221300000000000807CCC
:10389000020200000000003F404000000000FF0066
:1038A000000000000000FF0000000002027C800019
:1038B00000000040403F000000000006010102023D
:1038C000040400000000000000000000EC380008C4
:1038D00000000020D00000006C010008BC39000886
:1038E000D0000020980600008801000800000000B9
:1038F00000000000000000000000000000000000C8
:1039000000000000000000000000000000000000B7
:103910000000000000000000555341525420496E41
:1039200074657272757074204578616D706C653A5B
:1039300020546869732069732055534152543120D3
:1039400044454D4F00000000000000000000000052
:10395000000000000000000000000000FF00000068
:10396000FF00000001000000AA000000BB000000F2
:103970000000000000000000000000000000000047
:103980000000000000000000000000000000000037
:103990000000000000000000010203040102030413
:1039A000060708090204060800A24A0400000000F5
:0C39B000000000000102030406070809E3
:0400000508000131BD
:00000001FF
