:020000040800F2
:1000000070060020090100086B120008D50D0008D9
:1000100067120008490500086F280008000000006A
:10002000000000000000000000000000791F000830
:10003000E1080008000000003D140008C12100088C
:10004000230100082301000823010008A51B000864
:100050002301000823010008E50800080D09000835
:1000600023010008230100082301000823010008E0
:1000700023010008230100082301000823010008D0
:1000800023010008230100082301000823010008C0
:1000900023010008230100082301000823010008B0
:1000A00023010008230100082301000823010008A0
:1000B0005123000823010008A5230008230100089C
:1000C0002301000823010008230100082301000880
:1000D00023010008230100082301000871260008FD
:1000E0002301000823010008230100082301000860
:1000F00023010008DFF80CD000F02AF80048004780
:10010000652A000870060020064880470648004718
:10011000FEE7FEE7FEE7FEE7FEE7FEE7FEE7FEE7B7
:10012000FEE7FEE7C5210008F5000008D2B201E0B5
:1001300000F8012B491EFBD270470022F6E710B5EC
:1001400013460A4604461946FFF7F0FF204610BD45
:10015000064C074D06E0E06840F0010394E8070014
:1001600098471034AC42F6D3FFF7C8FFB03D000803
:10017000D03D000870B58C1810F8015B15F007032E
:1001800001D110F8013B2A1106D110F8012B03E030
:1001900010F8016B01F8016B5B1EF9D12B0705D438
:1001A0000023521E0DD401F8013BFAE710F8013B81
:1001B000CB1A921C03E013F8015B01F8015B521E9D
:1001C000F9D5A142D8D3002070BDCA430260704760
:1001D00021B1826842F00102826003E0826822F06D
:1001E000010282607047000000B589B023480068B2
:1001F00040F00100214908600E20019003208DF895
:10020000080000208DF80B0001A91D4800F008FD32
:10021000012001F05BFA00BF212001F035FA00282F
:10022000FAD00121480201F057F9002003908DF81F
:10023000100001208DF8110000200590079001208A
:100240008DF8200003A90F4800F034F801224FF484
:1002500040310C4800F058F810210A4800F014F81A
:1002600001210848FFF7B4FF00BF4021054800F016
:1002700017F80028F9D009B000BD00001C38024072
:1002800000000240002401400A460021816821F05C
:10029000F0011143816070470146886D80B270475C
:1002A0000246002013680B400BB1012000E0002043
:1002B0007047000030B50246002000235068104C03
:1002C00020400D790C6844EA052420435060906872
:1002D0000C4C2040D1E903542C438D682C434D79BC
:1002E00044EA450420439060106B20F0F8700C7DC8
:1002F000641EE4B2234340EA0350106330BD0000A3
:10030000FFFEFFFCFDF7FFC01AB143680B434360DB
:1003100002E043688B4343607047F0B504460D46E6
:1003200000200021132D11DDE068A5F1140606EB75
:100330004607072606FA07F18843A5F1140606EBDF
:10034000460603FA06F10843E06020E0092D11DDBE
:100350002069A5F10A0606EB4607072606FA07F10B
:100360008843A5F10A0606EB460603FA06F10843A0
:1003700020610CE0606905EB4507072606FA07F1E6
:10038000884305EB450603FA06F108436061072A36
:100390000FDA206C561E06EB86071F2606FA07F1B9
:1003A0008843561E06EB860605FA06F108432064CC
:1003B0004AE00D2A0FDAE06BD61F06EB86071F26F0
:1003C00006FA07F18843D61F06EB860605FA06F102
:1003D0000843E06338E0132A11DAA06BA2F10D069E
:1003E00006EB86071F2606FA07F18843A2F10D06E1
:1003F00006EB860605FA06F10843A06324E0192AF5
:1004000011DA606BA2F1130606EB86071F2606FAC7
:1004100007F18843A2F1130606EB860605FA06F1FA
:100420000843606310E0206BA2F1190606EB860713
:100430001F2606FA07F18843A2F1190606EB860685
:1004400005FA06F108432063F0BD816841F0804160
:100450008160704770B50546012000F0F1FF00246F
:1004600008E04FF4C87002F0A5FA204600F048FCFE
:10047000601CC4B2042CF4DB034A0449034810385E
:1004800000F092FB70BD00009400002030000808CE
:100490000448008800F0020008B1CB207047CA2051
:1004A000FCE70000100802401CB50220009000206C
:1004B0008DF804008DF806008DF805008DF8070012
:1004C0006946024800F0ACFB1CBD00000008024079
:1004D00070B501F011F8194801F056F81748406856
:1004E0006422B0FBF2F1B1F1807F00D31DE021F076
:1004F0007F40401E4FF0E022506150170F2200282D
:1005000007DA13071D0E0E4B00F00F04241F1D55B4
:1005100003E013071C0E0B4B1C5400BF00204FF0D0
:10052000E02290610720106100BF00F095FFFFF707
:100530005BFEFFF7B9FF02F0F5F970BDCC010020BA
:1005400018ED00E000E400E000BFFEE710B588B061
:1005500004462E48006840F480202C4908602B484F
:100560000838006840F0020028490839086007226E
:100570000A21274800F09CFB07220B21244800F0A9
:1005800097FB4FF48060069002208DF81C0003203A
:100590008DF81D0000208DF81E0001208DF81F0031
:1005A00006A91B4800F03CFB4FF40060069006A92A
:1005B000174800F035FB02940020ADF80C00ADF8B0
:1005C0000E00ADF81000ADF814000C20ADF81200CC
:1005D00002A9104802F0E0F801210E4802F080F86C
:1005E000012240F225510B4802F0B0F827208DF887
:1005F000040001208DF805008DF806008DF8070035
:1006000001A800F073FE08B010BD000024380240BD
:1006100000040240004800402DE9F041774800689E
:10062000401C76490860764A76497648103800F0D2
:1006300093FA754A734920317248103000F08CFAF1
:100640007248FFF707FF724A6E4940316D483030FB
:1006500000F082FA6E480088C0F308006D490880F7
:1006600000BF6C48001F008800F040000028F8D050
:1006700067488088C0F308006649088000BF654865
:10068000001F008800F040000028F8D06048008972
:10069000C0F308005F49088000BF5E48001F008863
:1006A00000F040000028F8D059488089C0F30800C5
:1006B0005849088000BF5748001F008800F04000DC
:1006C0000028F8D0514800785249088000BF5148AE
:1006D000001F008800F040000028F8D04A48006859
:1006E000050AC5F308004B49088000BF4948001FB0
:1006F000008800F040000028F8D043480088C0F38C
:1007000008004449088000BF4248001F008800F0EC
:1007100040000028F8D03C484068060AC6F30800AC
:100720003C49088000BF3B48001F008800F04000A3
:100730000028F8D034488088C0F308003549088084
:1007400000BF3448001F008800F040000028F8D0A7
:1007500000243048048000BF2E48001F008800F0AD
:1007600040000028F8D000202A49088000BF29480E
:10077000001F008800F040000028F8D00020254924
:10078000088000BF2348001F008800F040000028B8
:10079000F8D000201F49088000BF1E48001F0088B5
:1007A00000F040000028F8D0FFF772FE16490861FB
:1007B00008460769C7F308001649088000BF1548B6
:1007C000001F008800F040000028F8D0F0201149F8
:1007D000088000BF0F48001F008800F0400000287C
:1007E000F8D0E7200B49088000BF0A48001F0088A6
:1007F00000F040000028F8D0BDE8F081640000203F
:100800008C01002010000808940000202400002023
:10081000AC010020044800401CB50121042000F078
:100820003BFE0121084600F037FE4FF4C0700090F7
:1008300001208DF8040003208DF8050000208DF8BC
:10084000060001208DF8070069460B4800F0E8F922
:100850004FF48070009001208DF8040003208DF883
:10086000050000208DF8060001208DF8070069467C
:10087000024800F0D5F91CBD00080240000002400B
:1008800030B504460425680300F076F90546042DCA
:1008900001D100202060284630BD70B504460D46C9
:1008A0000426700300F068F90646042E04D1256082
:1008B000400300F061F90646304670BD0548006807
:1008C00000F0010028B104480249083108600348DB
:1008D00008607047043C0240EFCDAB890504030279
:1008E0007047000010B5012000F02AF840B1012047
:1008F00004490870002004490870012000F01AF82B
:1009000010BD00006C0000206D00002010B502201A
:1009100000F016F840B10020044908700120044995
:100920000870022000F006F810BD00006C000020E6
:100930006D00002001490860704700001404014068
:10094000014600200022074B1B6803EA0102054B09
:1009500014331B680B4013B10AB1012000E00020E2
:100960007047000000040140002123498279002AD9
:100970003AD00A46126803689A430B461A600A1D69
:10098000126803689A430B1D1A60027911440A68C1
:1009900003681A430A60184A0832126803689A43C7
:1009A000154B08331A601A1D126803689A43124BDC
:1009B0000C331A604279102A0ED11A1F126803688C
:1009C0001A430D4B08331A601A1D126803681A4344
:1009D000094B0C331A600DE00749427911440A684B
:1009E00003681A430A6005E0027911440A68036843
:1009F0009A430A6070470000000401401CB50121C1
:100A00001D2000F049FD03208DF804008DF805003D
:100A100000208DF807004FF6FF70009069462F48C0
:100A200000F0FEF869462E4800F0FAF869462D48B5
:100A300000F0F6F84FF6FC70009003208DF80400EB
:100A40008DF8050000208DF807006946264800F063
:100A5000E7F86946244800F0E3F800211D2000F083
:100A60001BFD4FF0804000884FF6FE7108404FF0AC
:100A7000804108801D4800884FF6FE7108401B49E0
:100A800008801B4800884FF6BF710840184908804D
:100A9000184800884DF6FF7108401649088016482E
:100AA000006820F00100144908601448006820F430
:100AB000007012490860081D0068114908400F497C
:100AC000091D086001F0ECFE01F00AF9012000F0B8
:100AD00079FC0121084600F07FFC1CBD00080240A3
:100AE000000C0240001002400004024000040040DC
:100AF000003800400C4800400824014020380240E3
:100B0000FCBFFBFF0149086070470000183C024031
:100B100004200B49096801F0010109B101200EE030
:100B20000749096801F4807109B1022007E004490E
:100B3000096801F4F05109B1032000E00420704776
:100B4000183C02400348006840F002000149086078
:100B500070470000043C02401EB50023029301933D
:100B60000093019305E00368009C42F82430121DB5
:100B7000001D8842F7D31EBD08B502460420009030
:100B8000FFF7C6FF009003E0FFF7C2FF0090521E80
:100B90009DF80000012801D1002AF5D10AB90520ED
:100BA00000909DF8000008BD70B504460D4616463D
:100BB000FFF784FE41F60270FFF7A4FF281B401CDC
:100BC0008008144908600020134908600DE01249AC
:100BD0000968042202FB0140FFF752FE0F4908702A
:100BE0000D480068401C0C4908600B480068094922
:100BF00009688842EBD307E020463168FFF74DFED5
:100C0000042801D1361D241DAC42F5D3FFF79AFF0D
:100C100070BD000010010020140100200C01002014
:100C2000F0B50A4600210023002400BF3DE0012565
:100C300005FA01F3156805EA03049C4234D10568FE
:100C40004F000326BE40B543056015794E00B54000
:100C50000668354305601579012D02D01579022DFE
:100C600016D185684F000326BE40B543856055798F
:100C70004E00B540866835438560858801268E40E4
:100C8000B5438580858896798E40B6B23543858098
:100C9000C5684F000326BE40B543C560D5794E00F8
:100CA000B540C6683543C560491C1029BFD3F0BDA7
:100CB000F0B5002300244D07ED0E02FA05F3CE1027
:100CC00000F1200555F826504E07F70E0F26BE40BE
:100CD000B543CF1000F1200646F82750CE1000F1A2
:100CE000200555F8265045EA0304CE1000F12005F2
:100CF00045F82640F0BD41837047018370470000EE
:100D000010B5044624B1012C09D0022C15D10DE0F8
:100D10000623012211462D48FFF7FFFA0DE00623B6
:100D2000012202212948FFF7F8FA06E006230122F2
:100D300003212648FFF7F1FA00BF00BF0121234835
:100D4000FFF746FA2148FFF780FB00BF02211F484A
:100D5000FFF7A6FA0028F9D01C48FFF79DFAA0F289
:100D6000B91042F2F0314843102101EBE03018494C
:100D700041F82400084650F82400B0F5167F03D946
:100D8000002041F8240014E0114850F8240008B174
:100D9000012000E000200E4951F82410202901D242
:100DA000012100E00021084018B10020084941F865
:100DB000240002210548FFF708FA0448FFF745FB25
:100DC00000210248FFF704FA10BD00000024014092
:100DD0009400002000BFFEE730B589B005460C4600
:100DE0002748006840F00400254908602448083876
:100DF000006840F0020022490839086002208DF89E
:100E0000080003208DF8090000208DF80A00012059
:100E10008DF80B004020019001A91A48FFF700FF50
:100E2000022206211748FFF743FF0795ADF8184047
:100E30000020ADF82000ADF81A0006A9124801F014
:100E4000B9FB0020ADF80C000220ADF80E00012027
:100E5000ADF810000020ADF812000320ADF814002A
:100E600003A9094801F037FB0121074801F013FBF2
:100E700001220321044801F065FB09B030BD0000E8
:100E800024380240000402400008004070B52120D0
:100E900000F054F9002000F051F97F2000F04EF9E5
:100EA000012001F061FD002419E0222000F046F944
:100EB000E0B200F043F9072000F040F9012001F012
:100EC00053FD002504E0002000F044F9681CC5B281
:100ED000802DF8DB012001F047FD601CC4B2082C16
:100EE000E3DB70BD10B54FF480512848FFF703FFD6
:100EF000642001F039FD4FF480512448FFF7FDFED6
:100F0000AE2000F01BF9A82000F018F93F2000F0F7
:100F100015F9D32000F012F9002000F00FF940205D
:100F200000F00CF9A12000F009F9C82000F006F942
:100F3000DA2000F003F9122000F000F9812000F01F
:100F4000FDF8CF2000F0FAF8A42000F0F7F8A62072
:100F500000F0F4F8D52000F0F1F8802000F0EEF871
:100F60008D2000F0EBF8142000F0E8F8AF2000F03E
:100F7000E5F8D92000F0E2F8F82000F0DFF8DB20F7
:100F800000F0DCF8402000F0D9F810BD0004024069
:100F90002DE9F047074689469246984600240026E8
:100FA00000252DE0102101FB0571C8B2494600F073
:100FB000ABF8002409E018F8060000F0CBF8012097
:100FC00001F0D2FC761C601CC4B2102CF3DB09F1DA
:100FD0000102D1B2102202FB0572D0B200F094F8E7
:100FE000002409E018F8060000F0B4F8012001F030
:100FF000BBFC761C601CC4B2102CF3DB681CC5B2B1
:101000005545CFDBBDE8F0872DE9F047044688461B
:1010100015464FF000090026002723E0E85D203840
:1010200000F0FF097E2C04DD002408F1010000F02F
:10103000FF084146204600F067F800260CE009EB67
:1010400049010B4A02EB4101885D00F083F8012061
:1010500001F08AFC701CC6B2062EF0DBA01DC4B2E3
:10106000781CC7B2E85D0028D8D1BDE8F087000041
:10107000983500082DE9F04706460F4690460025B2
:101080000024A14637E018F809002038C5B2782EB0
:1010900002DD0026781CC7B23946304600F034F82D
:1010A00000240AE004EB0511164A505C00F052F8E7
:1010B000012001F059FC601CC4B2082CF2DB781C42
:1010C000C1B2304600F020F800240BE004EB05111B
:1010D00008310C4A505C00F03DF8012001F044FC5E
:1010E000601CC4B2082CF1DB06F10800C6B209F19D
:1010F000010000F0FF0918F809000028C3D1BDE87D
:10110000F0870000C037000870B504460D46212066
:1011100000F014F8E0B200F011F87F2000F00EF8B3
:10112000222000F00BF8E8B200F008F8072000F0E9
:1011300005F8012001F018FC70BD000010B5044650
:1011400040210348FFF7D7FD204600F015F910BDF8
:101150000008024010B5044640210348FFF7CDFDCA
:10116000204600F009F910BD0008024018B1012125
:10117000034A118003E00121014A921C118070474B
:10118000180802401CB50D48006840F004000B49E7
:101190000860012000908DF804008DF80500002003
:1011A0008DF806008DF8070069460548FFF738FD01
:1011B000012003491A3108801CBD00001C38024080
:1011C000000802401CB50121042000F065F9102040
:1011D000009001208DF8040003208DF80500002008
:1011E0008DF8060001208DF8070069460948FFF7D1
:1011F00017FD10210748FFF780FD00F08DFD03E08B
:1012000000F00EF80449086003480068034988426A
:10121000F6D11CBD00080240280100201620200045
:101220002DE9F0410024002500260027002001F0D0
:1012300021FB9F2000F0D8FDFF2000F0D5FD0546E2
:10124000FF2000F0D1FD0646FF2000F0CDFD07464F
:10125000012001F00FFB280440EA062040EA0704C1
:101260002046BDE8F08100BFFEE7704708B54FF4A7
:10127000E06000F077F81E208DF8000004208DF863
:10128000010001208DF802008DF80300684600F08F
:101290002DF81C208DF8000008208DF80100042096
:1012A0008DF8020001208DF80300684600F01EF85A
:1012B00006208DF800000E208DF801008DF8020048
:1012C00001208DF80300684600F010F807208DF823
:1012D00000000F208DF801008DF8020001208DF82C
:1012E0000300684600F002F808BD000070B5002158
:1012F00000230F22C4781CB3174C246804F4E06464
:10130000C4F5E064C4F30721C1F10404E3B20A4167
:1013100044789C40E1B28478144021430C07210EAC
:101320000E4C05786155047804F01F050124AC408B
:1013300005786D11AD0005F1E025C5F8004109E023
:10134000047804F01F050124AC40054D06787611A1
:1013500045F8264070BD00000CED00E000E400E020
:1013600080E100E002490143024A11607047000039
:101370000000FA050CED00E010B5044600BF0221A4
:10138000044800F0D5FD0028F9D02146014800F0BE
:10139000D8FD10BD0038004010B540F23F6001F0AC
:1013A00039F9FFF7EFFE0120FFF7E0FE012000F022
:1013B00047F840F23F614FF4FA60FFF70DFDFFF789
:1013C00055FF10BD0349096841EA8001014A1160D7
:1013D000704700000070004010B5024600200C4B22
:1013E000186820F00300104318600A4B1B6843F094
:1013F0000403084C2360012901D130BF00E020BF65
:10140000044B1B6823F00403024C236010BD000052
:101410000070004010ED00E0014988627047000054
:1014200000000E42014908627047000000000E42B1
:10143000014948627047000000000E4270470000FA
:1014400018B12021034A118003E02021014A921C97
:1014500011807047180802401CB50D48006840F024
:1014600004000B4908602020009001208DF8040042
:101470008DF8050000208DF806008DF807006946FC
:101480000448FFF7CDFB202002491A3108801CBD1B
:101490001C3802400008024029B1064A1268024383
:1014A000044B1A6004E0034A12688243014B1A603D
:1014B000704700001C38024029B1064A12680243F6
:1014C000044B1A6004E0034A12688243014B1A601D
:1014D000704700002438024029B1064A12680243CE
:1014E000044B1A6004E0034A12688243014B1A60FD
:1014F000704700002038024010B5012000F0E6F8E7
:1015000000BF212000F0C0F80028FAD0012000F030
:101510001DF94FF4404000F0E5F8002000F0CEF84F
:10152000312000F0B1F808B100BFFEE710BD0000A7
:101530001248006840F48070104908600F48083075
:1015400000680F4908400D49083108600B480068E1
:101550000C490840094908600846006820F48020CA
:10156000086006480830006820F47D00034908310F
:1015700008600020091D0860704700000038024024
:101580000CC0FF88FEFFFEEEF0B500210022002314
:10159000002600240025374F3F6807F00C0131B1C9
:1015A000042912D0082913D00C2934D113E0314F6B
:1015B0003F1F3F68C7F342356F1C4FF0010C0CFA18
:1015C00007FC4FEACC37076033E02B4F076030E071
:1015D0002A4F07602DE0274F3F6807F47012254F10
:1015E0003F6807F44003264F07EB92473A780127FC
:1015F00007EB93531F4F3F6807F480362EB91E4FF9
:101600005743B7FBF3F7076004E01C4F5743B7FBA2
:10161000F3F707600DE0174F3F1F3F68C7F34235F0
:101620006F1C4FF0010C0CFA07FC4FEACC37076037
:1016300000BF00BF0F4F3F6807F0F0010909114FCD
:101640007C5C0768E74047600A4F3F6807F4E06149
:10165000090A0C4F7C5C4768E7408760054F3F688C
:1016600007F46051C90A074F7C5C4768E740C760D0
:10167000F0BD0000083802400024F40000127A0097
:10168000400100204901002010B50146002200233E
:1016900000204A11012A02D1074C236802E0064CBF
:1016A0003434236801F01F02012494401C400CB123
:1016B000012000E0002010BD003802400021024A55
:1016C00011701146087070470238024001490860E5
:1016D0007047000000004742014908607047000061
:1016E0008006474201460020034A106820F460400B
:1016F0000843106070470000043802400149086048
:1017000070470000D8064742002100F44032B2F58D
:10171000403F08D10C4A116821F0C04100F0C0429E
:101720001143094A1160084A3432126822F44032E7
:10173000054B34331A601A46126800F440331A43DA
:10174000014B34331A6070470038024001460020D4
:10175000034A106820F0030008431060704700003F
:1017600008380240014600BF080900EB8000420033
:1017700001F00F001044C0B270470146002204E09F
:10178000501CC2B2A1F10A00C1B20A29F8DA10074E
:1017900041EA106070470000C0F3100141F0800181
:1017A000044A126802F0800262EA0101014A1160F3
:1017B000704700000C280040002101098AB242F065
:1017C0008002044B1B6803F0800363EA0202014BB2
:1017D0001A6070470C28004008B5002200920020D3
:1017E0000021104A126802F04002CAB9421E0D4B95
:1017F0001A6000BF0B4A126802F04001009A521CA6
:101800000092009AB2F5005F01D00029F2D0054A9B
:10181000126802F040020AB1012002E0002000E05C
:10182000012008BD0C2800400348006820F080001B
:1018300001490860704700000C28004030B501469F
:101840000020002200230D4C246804F004020B4CFD
:10185000383C24680C408D0C21FA05F502EAD53598
:1018600044EA0503054C343C246804EA11121BB118
:1018700094B20CB1012000E0002030BD40280040AF
:101880000EB500F022F84FF48010FFF753F84FF434
:101890008010009000208DF8040008208DF80500CD
:1018A00001208DF806006846FFF75EF803208DF8EA
:1018B000080000208DF809008DF80A0001208DF83D
:1018C0000B0002A8FFF712FD0EBD0EB54FF48010FD
:1018D000FFF730F84FF48010009000208DF80400DE
:1018E00008208DF8050000208DF806006846FFF7F7
:1018F0003BF803208DF8080000208DF809008DF8D2
:101900000A008DF80B0002A8FFF7F0FC4FF48040AE
:10191000FFF752FF00214FF4804000F005F84FF42C
:101920008040FFF749FF0EBDCA22174B1A605322B1
:101930001A6091B1144A1C3A126820F004031A4349
:10194000114B1C3B1A60104A1C32126800F0040351
:101950001A430D4B1C331A6011E00B4A1C3A1268F3
:1019600020F004039A43084B1C3B1A60064A1C32C1
:10197000126800F004039A43034B1C331A60FF22E1
:10198000014B1A60704700002428004030B504461F
:101990000025CA201549086053200860FFF71CFF86
:1019A00000B91DE011481C38006820F040000F49C4
:1019B0001C39086008460068216808430B491C3937
:1019C00008600A491439A068086008460068A188C0
:1019D00040EA0140054914390860FFF725FF012559
:1019E000FF2002490860284630BD0000242800403E
:1019F0002DE9F04105460C46002600274DB96078D8
:101A000000F01000102804D1607820F010000A3097
:101A1000607005B908E06078FFF7A4FE0646A0787C
:101A2000FFF7A0FE064600BF55B1E07800046178DC
:101A300040EA0120A1780843217840EA413611E0CC
:101A4000E078FFF79AFE4FEA00486078FFF795FECE
:101A500048EA0028A078FFF790FE48EA00082078BE
:101A600048EA4036CA201249086053200860FFF750
:101A7000B3FE08B9002714E00E4830400C49203965
:101A80000860FFF7D1FE0A481C38006800F020000B
:101A900030B900F0A1F808B9002702E0012700E002
:101AA0000127FF20024908603846BDE8F0810000A8
:101AB000242800403FFFFF002DE9F04105460C4679
:101AC000002600274DB92E48006800F0400000B104
:101AD00002E00020E07000BF0DE02948006800F03F
:101AE000400020B12078FFF73DFE064602E00020CE
:101AF000E07000BF00BF55B120780004617840EA73
:101B00000120A1780843E17840EA014611E02078FD
:101B1000FFF733FE4FEA00486078FFF72EFE48EAF1
:101B20000028A078FFF729FE48EA0008E07848EA94
:101B30000046CA2012491C31086053200860FFF794
:101B40004BFE08B9002713E00E4830400C49083915
:101B50000860FFF769FE0A48006800F0200030B90D
:101B600000F03AF808B9002702E0012700E0012759
:101B7000FF2003491C3108603846BDE8F0810000B1
:101B8000082800407F7F7F00CA21054A1160532149
:101B90001160034910390860FF211160704700008F
:101BA0002428004010B54FF48040FFF747FE78B17D
:101BB0000120084908700005FEF7BCFE0120FFF770
:101BC00031FC4FF48040FFF7F7FD0020FFF72AFCBF
:101BD00010BD00001C01002008B50022009200206A
:101BE0000021CA22134B1A6053221A60114A183A74
:101BF000126822F0A0020F4B183B1A6000BF0D4A7A
:101C0000183A126802F02001009A521C0092009AC1
:101C1000B2F5004F01D00029F1D0064A183A1268F7
:101C200002F020020AB1012000E00020FF22014B57
:101C30001A6008BD24280040CA210A4A11605321B5
:101C4000116008491C39096821F00701054A1C3A4E
:101C500011601146096801431160FF21014A1160BA
:101C6000704700002428004018B501460023009367
:101C700000220020CA23194C23605323236049B15A
:101C8000164B1C3B1B6843F48063144C1C3C2360C4
:101C900001201FE0114B1C3B1B6823F480630F4C99
:101CA0001C3C236000BF0D4B183B1B6803F0040273
:101CB000009B5B1C0093009BB3F5005F01D0002AE2
:101CC000F1D0064B183B1B6803F004030BB900204E
:101CD00000E00120FF23014C236018BD24280040B0
:101CE00010B50020FFF7C0FFFFF7CAFD4FF480607A
:101CF000FFF752FD0420FFF79FFF0520FFF744FF89
:101D00004FF48040FFF758FD01218803FFF70CFED8
:101D10000120FFF7A9FF10BD00B587B001210846DB
:101D2000FFF7CAFB01210803FFF7D6FB0522114686
:101D30002B48FEF7BDFF052206212948FEF7B8FF14
:101D4000052207212648FEF7B3FFE020009002207D
:101D50008DF8040003208DF8050000208DF80600A2
:101D600069461F48FEF75CFF4FF480700090012029
:101D70008DF8040003208DF8050000208DF8060082
:101D800001208DF8070069461548FEF749FF01203C
:101D900000F070FD0020ADF808004FF48270ADF83F
:101DA0000A000020ADF80C000220ADF80E00012062
:101DB000ADF810004002ADF812001820ADF8140084
:101DC0000020ADF816000720ADF8180002A905485C
:101DD00000F0B9F80121034800F01EF807B000BD7B
:101DE0000000024000300140014600BF094A12894C
:101DF00002F00202002AF9D0064A918100BF054A8A
:101E0000128902F00102002AF9D0024A9289D0B266
:101E1000704700000030014021B1028842F04002CA
:101E2000028004E002884FF6BF731A4002807047B8
:101E300000B587B001218803FFF73EFB05220D2185
:101E40003848FEF735FF05220E213648FEF730FFF1
:101E500005220F213348FEF72BFF4FF4204000905E
:101E600002208DF8040003208DF8050000208DF875
:101E7000060069462B48FEF7D3FE4FF480500090D1
:101E800001208DF8040003208DF8050000208DF856
:101E9000060069462348FEF7C3FE4020009001205B
:101EA0008DF8040003208DF8050000208DF8060051
:101EB00069461D48FEF7B4FE0420009001208DF80D
:101EC000040003208DF8050000208DF80600694607
:101ED0001448FEF7A5FE4FF44040ADF808004FF45B
:101EE0008270ADF80A000020ADF80C000220ADF8B9
:101EF0000E000120ADF810004002ADF812001820CD
:101F0000ADF814000020ADF816000720ADF8180059
:101F100002A9064800F017F801210448FFF77CFFEA
:101F200007B000BD00040240000802400038004035
:101F30000246002013890B400BB1012000E0002075
:101F400070478181704710B50022028802F4415227
:101F50000B884C8823438C882343CC8823430C89EB
:101F600023434C8923438C892343CC8923431A433D
:101F700002800B8A038210BD7047000030B500223A
:101F80008B071C0F0F2303FA04F20B4B8C1053F832
:101F900024309343084C8D1044F8253023468C1090
:101FA00053F824308C07240F00FA04F42343024C26
:101FB0008D1044F8253030BD080001400FB583B0C6
:101FC00000200290019001210807FFF775FA012017
:101FD000FFF728FA0120FFF77FFB00BF4120FFF742
:101FE00053FB0028FAD04FF40030FFF78DFB01209F
:101FF000FFF784FBFFF7F0FD7F2019494860FF20C1
:102000008860002008600846FFF7C0FC9DF81000BB
:102010008DF808009DF811008DF809009DF8120058
:102020008DF80A009DF817008DF80B0002A9012019
:10203000FFF742FD9DF815008DF804009DF814008F
:102040008DF805009DF813008DF806009DF8160028
:102050008DF8070001A90120FFF7CAFC07B000BDF9
:102060006002002070B504460E46FE22052120467F
:10207000FEF75CF8AA2060713078A0710E480078F5
:10208000E07170782072FEF703FA60745520A07436
:102090000A4A0B490A481038FEF75EFD002507E0A2
:1020A000002104F1090041550421001D41556D1C1A
:1020B000042DF5DB70BD000001000020940000201D
:1020C000300008080CB50020019000902F480068EF
:1020D00040F001002D49086000BF2C48006800F066
:1020E00002000090009818B90198B0F5A06FF4D1E3
:1020F0002648006800F0020010B10120009001E0C5
:1021000000200090009801283FD12148006820F06D
:1021100001001F4908600846006820F002000860BE
:102120000846006820F00400086018482430006861
:1021300040F08050154924310860C81415490860E2
:1021400000BF1448406800F010000028F9D10F4883
:10215000083000680D4908310860084600680860CA
:102160000846006808600846006820F00300086020
:102170000846006840F00100086000BF03480830CE
:10218000006800F00C000428F8D10CBD00380240B3
:10219000003C024000700040042808D14FF0E021CC
:1021A000096941F004014FF0E022116107E04FF0AE
:1021B000E021096921F004014FF0E022116170472C
:1021C0007047000010B51548006840F4807013494E
:1021D0000860124808300068114908400F4908316A
:1021E00008600E4800680F4908400C49086008461E
:1021F000006820F48020086008480830006820F457
:102200007D000649083108600020091D0860FFF7BD
:1022100059FF4FF000600449086010BD00380240CB
:102220000CC0FF88FEFFFEEE08ED00E0F0B50C46A6
:10223000154600210022068C4FF6FE773E400684AC
:10224000018B028C4FF60C7631407E1C06EA031699
:102250002E4331434FF6F576324044F001063243C7
:1022600001830284F0BDF0B50C4615460021002222
:102270000026078C4FF6EF7C07EA0C070784018BDA
:10228000028C4FF6FF7707EA041640F6FF47394005
:102290004FF6FF7707EA033739434FF6FF7707EA30
:1022A000052739434FF65F773A4046F010073A4327
:1022B00001830284F0BDF0B50C46154600210022D2
:1022C0000026078C4FF6FF6C07EA0C070784818B0A
:1022D000028C4FF6FF7707EA04264FF60C77394059
:1022E0004FF6FF7707EA03172F4339434FF2FF57A3
:1022F0003A4046F480773A4381830284F0BDF0B5DA
:102300000C461546002100220026078C4EF6FF7C65
:1023100007EA0C070784818B028C4FF6FF7707EAE8
:10232000043640F6FF4739404FF6FF7707EA0527A6
:1023300039434FF6FF7707EA0337394345F6FF770E
:102340003A4046F480573A4381830284F0BD00004E
:1023500010B50121880700F0ADF8D8B10121880738
:1023600000F096F80020FEF7CBFC0120FEF7C8FC39
:102370000220FEF7C5FC08480078401C064908709A
:102380000121880700F084F8044A05490448103800
:10239000FEF70AFC10BD00006E0000209400002033
:1023A0003000080810B50221354800F083F80128F4
:1023B00044D100220121324800F0C4F831480078AD
:1023C00020B101280DD0022828D126E000212C4878
:1023D00000F0C1F800202C4908600120294908704C
:1023E0001DE029480068212810D2254800F05FF838
:1023F00025490A680968491C234B1960234941F89B
:10240000220000211E4800F0A6F805E002201D4928
:10241000087000201C49086001E000E000BF00BF18
:102420000221174800F034F80121154800F030F877
:1024300001221146124800F085F81FE001211048E2
:1024400000F038F8012819D10E480078012805D18C
:1024500000200C4908700C49086006E00948007823
:10246000022802D10320074908700121044800F026
:102470000FF800220121024800F064F810BD0000AE
:10248000000800406F00002070000020DC010020E8
:10249000CA430282704721B1028842F001020280E1
:1024A00004E002884FF6FE731A400280704701462E
:1024B000486A704730B50246002000230024158A80
:1024C00005EA0103958905EA010413B10CB1012065
:1024D00000E0002030BD70B505460C46208850B99C
:1024E0002389A28861882846FFF7A0FEE188284654
:1024F00000F033F825E0208804280AD12389A28837
:1025000061882846FFF7AFFEE188284600F02EF8E4
:1025100017E0208808280AD12389A28861882846E4
:10252000FFF7C9FEE188284600F02DF809E023896D
:10253000A28861882846FFF7E2FEE188284600F07D
:102540002BF870BD1AB183890B43838102E0838924
:102550008B438381704741627047028B4FF6F37360
:102560001A400283028B0A4302837047028B4FF2A8
:10257000FF331A400283028B4FF6FF7303EA0123F5
:102580001A4302837047828B4FF6F3731A4082839B
:10259000828B0A4382837047828B4FF2FF331A404B
:1025A0008283828B4FF6FF7303EA01231A438283EF
:1025B0007047000000220288B0F1804F08D0104B15
:1025C000984205D00F4B984202D00F4B984204D14D
:1025D0004FF68F731A404B881A430C4B984207D022
:1025E0000B4B984204D04FF6FF431A400B891A4315
:1025F00002804B68C3620B88038501238382704786
:102600000004004000080040000C004000100040A2
:10261000001400403EB504461448006840F0010034
:1026200012490860019442F20F70ADF800000020DA
:10263000ADF80800ADF8020069464FF08040FFF7A2
:10264000B9FF4FF6FE704FF08041088208460088BF
:1026500040F0800008800846008840F001000880B3
:102660000846808940F0010088813EBD2438024040
:1026700010B540F22551144800F03EF818B3124846
:1026800000F0F0F8C1B2114802680068401C0F4B1E
:1026900018600F48815401200E4908600E480068F8
:1026A000401C0D490860FEF7B7F84FF480710B48E5
:1026B000FEF721FB06480078C12804D1FDF7ACFFE6
:1026C00000200249086010BD0048004000010020C1
:1026D000E8000020E0000020DC00002000080240AC
:1026E00021B1828942F40052828104E082894DF650
:1026F000FF731A408281704770B5024600240023A0
:102700000025002040F66A16B14200D100BFC1F397
:10271000421501F01F03012606FA03F3012D02D131
:102720009689334006E0022D02D1168A334001E03B
:10273000968A33400C12012606FA04F416883440B7
:1027400013B10CB1012000E0002070BDF0B50346CC
:10275000002400260025002040F66A17B94200D167
:1027600000BF1846C1F3421401F01F06012707FA03
:1027700006F5012C01D10C3004E0022C01D11030FF
:1027800000E014301AB107682F43076002E00768C1
:10279000AF430760F0BD00002DE9FF4705460E4638
:1027A0000024A14600BFA046B08900B100BF2C8A1A
:1027B00024F44054F08804432C82AC8941F20C602C
:1027C0008443B08831890843718908430443AC814C
:1027D000AC8A24F44074B0890443AC826846FEF7A6
:1027E000D3FE1F48854202D1DDF80C9001E0DDF8F0
:1027F0000890A88900F4004040B109EBC90000EB43
:10280000091031684900B0FBF1F707E009EBC90096
:1028100000EB091031688900B0FBF1F76420B7FBC9
:10282000F0F004012009642101FB1078A88900F46C
:10283000004040B1322000EBC800B0FBF1F000F0E6
:102840000700044308E0322000EB08106421B0FBCD
:10285000F1F000F00F0004432C81BDE8FF87000079
:102860000038014001468888C0F30800704700BF67
:10287000FEE7000010B5044614B1012C0CD105E0B0
:102880004FF480710548FEF736FA05E04FF4807189
:102890000248FEF732FA00BF00BF10BD0000024040
:1028A0001FB50320009000208DF8040001208DF852
:1028B00005008DF8070069461148FEF7B1F90121BE
:1028C0000846FEF709FE00210120FFF757FB012112
:1028D0000846FFF753FB0120029000208DF80C0002
:1028E0000C208DF80D0001208DF80E0002A8FEF7D7
:1028F0003BF80220029002A8FEF736F81FBD000048
:102900000004024002E008C8121F08C1002AFAD1E0
:1029100070477047002001E001C1121F002AFBD15F
:102920007047000010B56FF00400FFF735FC0A484F
:1029300000680A49B0FBF1F00949087008460078C0
:1029400000EB4001C1EBC0104FF6FF7101EAC0007F
:102950000449088010BD0000740000200024F40029
:10296000680000206A0000200146114A12884A438C
:102970004FF0E0235A6100229A611A46126942F030
:1029800001021A6100BF4FF0E022106900F001025D
:102990001AB100F48032002AF5D04FF0E02212691B
:1029A00022F001024FF0E0231A6100229A61704781
:1029B0006A0000200146114A12784A434FF0E02392
:1029C0005A6100229A611A46126942F001021A61A4
:1029D00000BF4FF0E022106900F001021AB100F4CC
:1029E0008032002AF5D04FF0E022126922F0010275
:1029F0004FF0E0231A6100229A61704768000020BE
:102A0000F0B503460D461646002729460A2E03D088
:102A1000002008702846F0BD33B9302001F8010BC2
:102A2000002008702846F6E7002B03DA2D2001F875
:102A3000010B5B4242F210720DE093FBF2F404B919
:102A400037B104F1300001F8010B04FB1233012708
:102A50000A2092FBF0F2002AEFDC002008702846E2
:102A6000D9E7000086B00120FEF7D6FC0121080757
:102A7000FEF722FD0120FEF7DBFC0020E049087094
:102A8000E0490870FEF7F2FBFEF752FD0020DE4938
:102A9000C87219208872012008721220C8710020A3
:102AA00008731120087123204871042088710A20BE
:102AB000086008460FC8FFF781FA0120D349087063
:102AC00004204870FDF7A8FE4FF48071D048FEF74F
:102AD00014F98021CE48FEF70EF9FFF7A9F9042179
:102AE000CC48FEF708F9012404E0601ECA490C54E2
:102AF000601CC4B2112CF8DBFEF764FB0120C7494F
:102B0000086000204860402088600B20C8600A46AA
:102B1000C349C3481038FEF747F8AA20C1490860E6
:102B20000B204860C0480068407888605520C86025
:102B30000A46BB494039BA485038FEF735F8FFF726
:102B4000CFF8FFF7ADFE5AE1FDF758FFFDF7C0FCE7
:102B5000FFF7C6F8B54AB2494039B1485038FDF7D9
:102B6000FBFFB2480068AA280AD1B048C0685528BF
:102B700006D1AE480079A5490870AC48007A487083
:102B80009F4800789F49097840EA4100012827D1F1
:102B9000FEF702FC4FF4E130FDF7D8FC9B4901A899
:102BA000FFF760FA0120A24908700846007848B192
:102BB000A0480068012802D100209E49086000203A
:102BC0009B4908709148FDF745FC00208C4908702E
:102BD0008C4908704FF480718D48FEF78EF80EE135
:102BE000874800788749097840EA4100022803D0E5
:102BF000914800780028A6D000208F490870FEF781
:102C0000CBFB00208D490870FFF712F904218148A1
:102C1000FEF771F8FEF766F9FEF738F9884B0222E5
:102C200000212420FEF7B4F9804A7D4940397C48D0
:102C30005038FDF791FF834A794920397848303878
:102C4000FDF78AFF7148FDF705FC784800796F4968
:102C5000087008460078744909680870724800686E
:102C60000078794908700A22784977480078FFF798
:102C7000C7FE764A00215620FEF7FCF9744B082265
:102C800003210020FEF784F96E4800680A21B0FB9A
:102C9000F1F0704908606B4800680A21B0FBF1F25E
:102CA00001FB12006C4908600A226C4969480068FF
:102CB000FFF7A6FE67480068092815D9674A06216C
:102CC0001220FEF7D7F966A207212220FEF79CF911
:102CD0000A22644960480068FFF792FE614A0621B3
:102CE0002720FEF7C7F914E05C4A06211520FEF7FD
:102CF000C1F95BA207211D20FEF786F90A22594976
:102D000055480068FFF77CFE564A06212220FEF750
:102D1000B1F94C4840680A21B0FBF1F05249086013
:102D2000484840680A21B0FBF1F201FB12004F490C
:102D300008600A224E494C480068FFF761FE4A4885
:102D40000068092815D94A4A06215120FEF792F950
:102D500043A207216120FEF757F90A22454943485B
:102D60000068FFF74DFE434A06216620FEF782F910
:102D700014E03F4A06215420FEF77CF938A20721CF
:102D80005C20FEF741F90A223A4938480068FFF70B
:102D900037FE384A06216120FEF76CF9C820FFF79C
:102DA000E3FDC820FFF7E0FDC820FFF7DDFDC820E8
:102DB000FFF7DAFDC820FFF7D7FDC820FFF7D4FDE5
:102DC000C820FFF7D1FDC820FFF7CEFDC820FFF7D0
:102DD000CBFDC820FFF7C8FDC820FFF7C5FDC82000
:102DE000FFF7C2FD00200749087005490870FEF78B
:102DF0004DF80020FEF724FB0020FEF7B7F9A3E60C
:102E00006C0000206D0000205C01002024000020E8
:102E100000080240000402406C010020BC010020B8
:102E2000500008089C010020200000208C01002098
:102E300000000020E00000201C0100206E000020A7
:102E4000782E0008940000201C000020260000209E
:102E5000B82E00084C000020500000202B0000205D
:102E60002E000000300000205400002058000020F8
:102E7000350000203A0000200484E45C44C40000D3
:102E8000F808090E0808080002017F10103F806052
:102E90001F000000000000000000FE02828282820B
:102EA000FA8282828282020080601F40404040405D
:102EB0007F404044584040000808E8292E28E80890
:102EC00008C80C0BE80808000000FF0949897F00CA
:102ED000000F40807F0000001010D0FF9010080805
:102EE0000809FA0808080800040300FF000340412D
:102EF00041417F41414140000000000000000000CE
:102F000000000000000000000000000000000000C1
:102F10000000000000000000000000FC2424242425
:102F200022222223222020004020180700FE4242B5
:102F300042424242FE0000001010D0FF90100808EC
:102F40000809FA0808080800040300FF00034041CC
:102F500041417F414141400000000000000000006D
:102F60000000000000000000000000000000000061
:102F700000000000000000000808E8292E28E808EA
:102F800008C80C0BE80808000000FF0949897F0009
:102F9000000F40807F0000004850E21400209A4259
:102FA0003E8202FE0008300044442524140D04FF34
:102FB000040C1524244444004042CC0000445454E2
:102FC000547F54545444400000007F201000FF15EB
:102FD000151555957F000000404042CC0040A09E52
:102FE0008282829EA02020000000003F9088404303
:102FF0002C10284641808000001715D55557557D67
:10300000555755D5151700004040407F555555552B
:103010005555557F40404000202020FF202080F85B
:103020008040FF2010F000001030100F0808003F13
:1030300040405F4244437800202020FF202000F8D9
:103040000000FF40404000001030100F0848407F53
:1030500040407F40404040000808E8292E28E8080A
:1030600008C80C0BE80808000000FF0949897F0028
:10307000000F40807F0000004850E21400209A4278
:103080003E8202FE0008300044442524140D04FF53
:10309000040C152424444400001088C433105454F4
:1030A00054FF54547C101000020100FF0010121253
:1030B00012FF1212121000004044C4444444401055
:1030C00010FF101010F00000103C131014B8403026
:1030D0000E014080403F00008080808080808080A2
:1030E0008080808080808000000000000000000060
:1030F000000000000000000000FE9292FE9292FE8E
:1031000000F21AD612F2020022120A06FF060A1272
:10311000804F300F204F800004040484E43C2724B7
:10312000242424E40404040004020100FF09090922
:103130000949897F00000000001010101010FF10D6
:1031400010101010F0000000008040201806010050
:10315000204080403F0000000000800000E00204AA
:103160001800000040800000100C0300003F4040A9
:103170004040407800010E0000FE2222FE0000F8D0
:10318000080809EE08080800807F0282FF80601F9F
:103190004041417F4141400000000000000000002C
:1031A000000000000000000000000000000000001F
:1031B000000000000000000000000000000000000F
:1031C00000000000000000000000008080C0C0C0BF
:1031D000E0E0E07030309098D8C8E8E0E0F0F0F03F
:1031E000F0F0F0F0F0F0E0E0C0C0000000000000FF
:1031F00000000000000000000000000000000000CF
:1032000000000000000000000000000000000000BE
:1032100000000000000000000000000000000000AE
:10322000000000000000000000000000000000009E
:10323000000000000000000000000000000000008E
:1032400080C0E0F0F0F8FCFC7E3F1F8F87C7E3F101
:10325000F9FCFCFEFFFFFFFFFFFFFFFFFFFFFFFF8B
:10326000FFFFFFFFFFFFFFFFFFFFFFFE000000006B
:10327000000000000000000000000000000000004E
:10328000000000000000000000000000000000003E
:10329000000000000000000000000000000000002E
:1032A000000000000000000000000000000000001E
:1032B000000000000000000080C0E0F0F8FCFEFF0D
:1032C000FF3F1F0F87C3E1F0F8FCFEFFFFFFFFFF8A
:1032D000FFFFFFFFFFFFFF7F3F3F1F1F0F0F0F0F7E
:1032E0000F0F0F1F3F7FFFFFFFFFFF1F80C0E0E0BA
:1032F000F0F8F8FCFCFCFEFEFEFEFCFCF8F0E00042
:1033000000000000000000000000000000000000BD
:1033100000000000000000000000000000000000AD
:10332000000000000000000000000000000000009D
:10333000000000C0E0F0FCFEFFFFFF7F3F0F87C1F1
:10334000E0F8FCFEFFFFFFFFFFFFFFFFFFFFFF7F37
:103350003F1F0F07030100000000000000000000F5
:10336000000000000000FFFFFFFF7F3F3F1F0F0F27
:10337000070707030303030307070F7FFFFF7F0010
:10338000000000000000000000000000000000003D
:10339000000000000000000000000000000000002D
:1033A000000000000000000000000000101C1F1FB3
:1033B0001F1F1F1F1F1F1F1F1F0701000C0E0F0FB6
:1033C0000F0F0F0F0F0F0F0F0F0F0F0F070300003F
:1033D00000000000000000000000000000000000ED
:1033E00000000000000F07030100000000000000C3
:1033F00000000000000000000000000007010000C5
:1034000000000000000000000000000000000000BC
:1034100000000000000000000000000000000000AC
:10342000000000000000000000000000000000009C
:1034300000000000000000FFFFFFFFFF0240E0F07F
:10344000B030302020E0F0FEFFFF9F1F7FFFFCF038
:103450008000030F3FFFFFFFFCF08000000080E0D2
:10346000F0FCFEFFFFFFFFFF0000C0F0F8F8FCFCDF
:103470003E1E0E0F0F07878787878F8E8E0E0000E8
:10348000000000000000000000000000000000003C
:10349000000000000000000000000000000000002C
:1034A0000000000000000000000000000080C0C01C
:1034B000C0C0C0C0C0C0E0FFFFFFFF7F100001031D
:1034C000078FEEFCFFFF7F7F63E0E1C1C3C3DFFF37
:1034D000FFFEF8C00000031F7FFFFFFEFCFFFF3F61
:1034E0001F0701FFFFFFFFFF00000F1F3F7FFFFFD0
:1034F000F8F0E0E0E0E3E3E3C3FFFFFFFFFF0000DD
:1035000000000000000000000000000000000000BB
:1035100000000000000000000000000000000000AB
:103520000000000000000000000000000000010199
:103530000101010101010101010000000000000082
:103540000001010101010000000000000001010173
:103550000101010101000000000101010101000061
:103560000000000101010101000000000000000056
:103570000001010101010101010101010000000040
:10358000000000000000000000000000000000003B
:10359000000000000000000000000000000000002B
:1035A000002F000000000700070000147F147F14A4
:1035B00000242A7F2A12006264081323003649552A
:1035C000225000000503000000001C224100000002
:1035D00041221C000014083E08140008083E080898
:1035E000000000A0600000080808080800006060F3
:1035F0000000002010080402003E5149453E000032
:10360000427F4000004261514946002141454B3113
:10361000001814127F10002745454539003C4A49DF
:103620004930000171090503003649494936000651
:103630004949291E000036360000000056360000B9
:103640000008142241000014141414140000412234
:10365000140800020151090600324959513E007C0C
:103660001211127C007F49494936003E41414122F6
:10367000007F4141221C007F49494941007F0909DF
:103680000901003E4149497A007F0808087F00008F
:10369000417F4100002040413F01007F081422414A
:1036A000007F40404040007F020C027F007F040802
:1036B000107F003E4141413E007F09090906003E5E
:1036C0004151215E007F0919294600464949493187
:1036D0000001017F0101003F4040403F001F2040AA
:1036E000201F003F4038403F006314081463000768
:1036F0000870080700615149454300007F414100BF
:1037000000552A552A55000041417F00000402015E
:10371000020400404040404000000102040000203C
:1037200054545478007F484444380038444444207A
:1037300000384444487F00385454541800087E0927
:1037400001020018A4A4A47C007F080404780000EF
:10375000447D4000004080847D00007F10284400AC
:103760000000417F4000007C04180478007C0804BD
:10377000047800384444443800FC242424180018F9
:10378000242418FC007C08040408004854545420E5
:1037900000043F444020003C4040207C001C20406E
:1037A000201C003C4030403C004428102844001CB1
:1037B000A0A0A07C004464544C44141414141414A9
:1037C00000000000000000000000000000000000F9
:1037D000000000F80000000000000033300000008E
:1037E00000100C06100C0600000000000000000095
:1037F00040C07840C0784000043F04043F04040007
:10380000007088FC08300000001820FF211E000016
:10381000F008F000E018000000211C031E211E002B
:1038200000F00888700000001E21232419272110B1
:1038300010160E0000000000000000000000000054
:10384000000000E0180402000000000718204000FB
:1038500000020418E00000000040201807000000EB
:10386000404080F0804040000202010F010202004F
:10387000000000F0000000000101011F0101010033
:10388000000000000000000080B070000000000098
:103890000000000000000000000101010101010121
:1038A00000000000000000000030300000000000B8
:1038B000000000008060180400601806010000008D
:1038C00000E010080810E000000F102020100F008A
:1038D000001010F8000000000020203F2020000011
:1038E0000070080808887000003028242221300069
:1038F00000300888884830000018202020110E0071
:103900000000C02010F8000000070424243F240019
:1039100000F80888880808000019212020110E00EE
:1039200000E0108888180000000F112020110E0000
:1039300000380808C83808000000003F00000000F8
:103940000070880808887000001C222121221C00B9
:1039500000E010080810E0000000312222110F00E2
:10396000000000C0C0000000000000303000000077
:1039700000000080000000000000806000000000E7
:103980000000804020100800000102040810200000
:10399000404040404040400004040404040404004B
:1039A00000081020408000000020100804020100E0
:1039B000007048080808F0000000003036010000E0
:1039C000C030C828E810E0000718272423140B0093
:1039D0000000C038E0000000203C2302022738200D
:1039E00008F8888888700000203F202020110E00F1
:1039F000C0300808080838000718202020100800E8
:103A000008F808080810E000203F202020100F00D0
:103A100008F88888E8081000203F2020232018009C
:103A200008F88888E8081000203F20000300000004
:103A3000C03008080838000007182020221E0200A5
:103A400008F808000008F808203F210101213F2064
:103A5000000808F8080800000020203F202000008F
:103A600000000808F8080800C08080807F0000007F
:103A700008F888C028180800203F200126382000B8
:103A800008F8080000000000203F2020202030001F
:103A900008F8F800F8F80800203F003F003F200039
:103AA00008F830C00008F808203F200007183F0041
:103AB000E01008080810E0000F10202020100F0070
:103AC00008F808080808F000203F21010101000063
:103AD000E01008080810E0000F18242438504F00A8
:103AE00008F8888888887000203F2000030C302068
:103AF00000708808080838000038202121221C00A6
:103B0000180808F8080818000000203F20000000EE
:103B100008F808000008F808001F202020201F00D7
:103B20000878880000C83808000007380E01000037
:103B3000F80800F80008F800033C0700073C030001
:103B4000081868808068180820302C03032C302067
:103B50000838C800C83808000000203F20000000D6
:103B600010080808C838080020382621202018002E
:103B7000000000FE020202000000007F4040400002
:103B8000000C30C000000000000000010638C0003A
:103B900000020202FE000000004040407F000000E2
:103BA0000000040202020400000000000000000007
:103BB0000000000000000000808080808080808005
:103BC00000020204000000000000000000000000ED
:103BD00000008080808000000019242222223F20E3
:103BE00008F8008080000000003F112020110E0026
:103BF0000000008080800000000E112020201100B5
:103C0000000000808088F800000E112020103F2066
:103C10000000808080800000001F222222221300EA
:103C2000008080F0888888180020203F2020000035
:103C30000000808080808000006B949494936000EA
:103C400008F8008080800000203F210000203F20F5
:103C500000809898000000000020203F20200000F5
:103C6000000000809898000000C08080807F0000E5
:103C700008F8000080808000203F24022D302000C2
:103C8000000808F8000000000020203F202000006D
:103C90008080808080808000203F20003F20003F87
:103CA0008080008080800000203F210000203F2095
:103CB0000000808080800000001F202020201F0046
:103CC000808000808000000080FFA12020110E0075
:103CD0000000008080808000000E112020A0FF8066
:103CE000808080008080800020203F212000010013
:103CF0000000808080808000003324242424190068
:103D0000008080E0808000000000001F2020000074
:103D10008080000000808000001F202020103F20B5
:103D2000808080000080808000010E300806010045
:103D300080800080008080800F300C030C300F00EA
:103D400000808000808080000020312E0E31200015
:103D5000808080000080808080818E701806010045
:103D600000808080808080000021302C2221300063
:103D700000000000807C020200000000003F404084
:103D800000000000FF00000000000000FF00000035
:103D90000002027C800000000040403F0000000064
:103DA00000060101020204040000000000000000FF
:103DB000D03D0008000000205C01000074010008F4
:103DC000143E00085C0100201405000014290008BE
:103DD000110210E1035028040210011324F4780AA0
:103DE000030406080C10182030251A02135C07087B
:103DF0000930A90432AA320829AB02230232CAF2DE
:103E0000557A0501011A0912F9041D172020B9C8B5
:043E100029C499C860
:0400000508000109E5
:00000001FF
