:020000040800F2
:1000000018190120C1010008494F0008DD4200080D
:10001000C94E0008A10A0008656D00080000000034
:10002000000000000000000000000000815E0008E9
:10003000730C000800000000DD5200080564000891
:10004000DB010008DB010008DB010008DB01000820
:10005000DB010008DB010008DB010008DB01000810
:10006000DB010008DB010008A90C0008F90A000800
:10007000090B0008DB010008190B0008DB01000870
:10008000290B0008390B0008BD080008DB01000837
:10009000DB010008DB010008DB010008DB010008D0
:1000A000DB010008DB010008DB010008DB010008C0
:1000B000DB010008DB010008DB010008DB010008B0
:1000C000DB010008DB010008DB010008DB010008A0
:1000D000DB010008DB010008C56B0008D96B0008D4
:1000E000DB010008DB010008DB010008DB01000880
:1000F000DB010008DB010008DB010008490B0008F8
:10010000DB010008DB010008DB010008DB0100085F
:10011000DB010008CD650008DB010008DB010008F9
:10012000590B0008DB010008DB010008DB010008B7
:10013000DB010008DB010008DB010008DB0100082F
:10014000DB010008DB010008DB010008DB0100081F
:10015000DB010008DB010008DB010008DB0100080F
:10016000DB010008DB010008DB010008DB010008FF
:10017000DB010008DB010008DB01000800000000D3
:10018000DB010008DB010008DB010008DB010008DF
:10019000DB010008DB010008DB010008DB010008CF
:1001A0000000000000000000DB010008DFF80CD0B8
:1001B00000F046FB004800472D7000081819012088
:1001C0000648804706480047FEE7FEE7FEE7FEE7F1
:1001D000FEE7FEE7FEE7FEE7FEE7FEE71165000843
:1001E000AD0100082DE9F05F0546002092469B46D0
:1001F00088460646814640241BE02846414647463D
:10020000224600F066FA53465A46C01A914110D36E
:1002100011461846224600F04DFA2D1A67EB0108E8
:100220004F4622460120002100F044FA17EB000956
:100230004E41201EA4F10104DFDC484631462A4627
:100240004346BDE8F09F40EA01039B0703D009E065
:1002500008C9121F08C0042AFAD203E011F8013BB2
:1002600000F8013B521EF9D27047D2B201E000F80B
:10027000012B491EFBD270470022F6E710B513464A
:100280000A4604461946FFF7F0FF204610BD10B598
:10029000044604E00B7800F8013B03B1491C521EF0
:1002A000F8D2204610BD421C10F8011B0029FBD1DA
:1002B000801A70472DE9FE4F804681EA0300C00F87
:1002C0000C46009021F0004123F00045B8EB0200FD
:1002D000A94105D24046214690461C460B4602469F
:1002E00023F00040104347D0270DC7F30A00C3F3A3
:1002F0000A510290401A019040286BDAC3F31300B0
:1003000040F4801B0098924620B10023D2EB030AF0
:1003100063EB0B0B01985946C0F14002504600F0C8
:10032000C9F906460D4650465946019A00F0E1F9D2
:1003300010EB08006141002487EA115284EAE77358
:100340001A4340D0009A62B3019A012A4FEA075239
:1003500015DC001B61EB02014FF0004202EA07527C
:10036000CDE90042001C41F5801132462B4600F0D9
:1003700018FA03B0BDE8F08F40462146F9E7001BAC
:1003800061EB0201001C41F5801300185B4120184D
:10039000A2F5001747EB030140EAD570B6196D418D
:1003A00011E06D084FEA360645EAC0754FEA07527C
:1003B000001B61EB0201001C41F5801149084FEA66
:1003C00030000019514132462B4603B0BDE8F04FD2
:1003D00000F0D8B90098012240000023D0EB0202BF
:1003E00063EBE073009821464FEAE074B8EB00003D
:1003F00061EB0401E9E783F000435BE781F0004132
:1004000058E72DE9FE4F81EA030404F0004421F08F
:10041000004100944FF0000B23F0004350EA010428
:100420005ED052EA03045BD0C3F30A54C1F30A5509
:100430002C44A4F2F3340194A0FB0254C1F3130141
:1004400041F48011C3F3130343F4801301FB02440E
:1004500000FB034E840A970A44EA815447EA835713
:10046000A4FB076802958D0A05FB07854FEA932CCC
:1004700004FB0C542705029D4FEA065847EA16373D
:10048000B5EB08056EEB070C870E920E47EA811755
:1004900042EA8312A7FB0201B6EB0B0164EB0004F6
:1004A0002B0D43EA0C335E1844EB1C50DA465146E0
:1004B000E7FB0201C5F313044FEA0B3343EA14537D
:1004C0004FEA0432019C43EA0603A4F10C040294AF
:1004D000009CCDE900B400F064F903B0BDE8F08FF2
:1004E00000200146F9E72DE9F04D81EA030404F00C
:1004F000004B21F0004514464FF0000A23F0004164
:1005000050EA050220D054EA01021DD0C5F30A5773
:100510000246C5F31303C1F31300C1F30A5640F4B6
:10052000801543F48013A7EB0608101BD64608F28B
:10053000FD3873EB050002D308F1010801E09218C1
:100540005B41B8F1000F03DA00200146BDE8F08DF1
:1005500000204FF48011064684460EE0171B73EB13
:10056000050705D3121B63EB050306434CEA010C98
:1005700049084FEA300092185B4150EA0107EDD17B
:1005800052EA030012D082EA040083EA050108431C
:1005900005D0101BAB4106D20122002306E0002249
:1005A0004FF0004302E06FF0010253101AEB060017
:1005B0004CEB085110EB0A0041EB0B01BDE8F04D8C
:1005C00000F0E0B80EB5C10F80EAE0700844CA0739
:1005D000002140F233438DE80E000A460B4600F03E
:1005E000E0F803B000BD70B5C1F30A5201F0004558
:1005F0000024C1F3130140F2FF3341F480119A4209
:1006000001DA002070BD40F233439A42A2F2334235
:1006100003DC524200F05DF800E090402C43F1D042
:10062000404270BDC1F30A5210B5C1F3130140F24C
:10063000FF3341F480119A4201DA002010BD40F2EC
:1006400033439A42A2F2334203DC524200F041F8B3
:1006500010BD904010BD00F0004230F000400AD0C4
:10066000C10D01F56071C0F3160042EA0151C208E4
:1006700040071143704700200146704701F00043D6
:1006800030B421F0004150EA010206D00A0DA2F573
:100690006072C1F31301002A02DC30BC00207047F5
:1006A000440F44EAC104C100E01830BC00EBC25062
:1006B00000F031B8202A04DB203A00FA02F10020D1
:1006C00070479140C2F1200320FA03F31943904090
:1006D0007047202A04DB203A21FA02F000217047FB
:1006E00021FA02F3D040C2F120029140084319469A
:1006F0007047202A06DBCB17203A41FA02F043EA82
:10070000E07306E041FA02F3D040C2F120029140CA
:100710000843194670470029A8BF7047401C49008C
:1007200008BF20F00100704710B4B0FA80FC00FA56
:100730000CF050EA010404BF10BC704749B1CCF181
:10074000200421FA04F411FA0CF118BF012121430D
:100750000843A3EB0C01CB1D4FEA00614FEA1020C8
:1007600042BF002010BC704700EBC350104400296A
:10077000A4BF10BC7047401C490008BF20F0010016
:1007800010BC704710B5141E73F1000408DA401C49
:1007900041F1000192185B411A4301D120F00100A0
:1007A00010BD2DE9F04D92469B4611B1B1FA81F290
:1007B00002E0B0FA80F220329046FFF77BFF044659
:1007C0000F4640EA0A0041EA0B0153465A460843E5
:1007D00013D0114653EA010019D0C8F14002504627
:1007E000FFF777FF05460E46504659464246FFF74B
:1007F00061FF084305D0012004E020463946BDE8EA
:10080000F08D0020054346EAE0762C4337430A98F2
:100810006305E40AA0EB08000022FD0A44EA4754FD
:100820000A3002D500200146E9E7010510196941A7
:10083000DDE9084500196941BDE8F04DA2E7000077
:10084000064C074D06E0E06840F0010394E807001D
:1008500098471034AC42F6D3FFF7ACFC447500085F
:100860006475000870B58C1810F8015B15F007036B
:1008700001D110F8013B2A1106D110F8012B03E039
:1008800010F8016B01F8016B5B1EF9D12B0705D441
:100890000023521E0DD401F8013BFAE710F8013B8A
:1008A000CB1A921C03E013F8015B01F8015B521EA6
:1008B000F9D5A142D8D3002070BD000010B5024880
:1008C00001F09AFB10BD0000B40C012054494A68A5
:1008D00022F440324A604A6843681A434A60026818
:1008E000526822F4807203685A6002685368026991
:1008F00043EA022203685A600268526822F040729A
:1009000003685A600268526883681A4303685A6031
:100910000268926822F4006203689A600268926832
:10092000C3681A4303689A603E4B826A9A4218D0A1
:100930000268926822F0706203689A6002689268A6
:10094000836A1A4303689A600268926822F04052F0
:1009500003689A6002689268C36A1A4303689A60DF
:100960000BE00268926822F0706203689A60026885
:10097000926822F0405203689A600268926822F0FE
:10098000020203689A6002689368826943EA42023D
:1009900003689A60026AA2B10268526842F4006277
:1009A00003685A600268526822F4604203685A6021
:1009B00002685368426A521E43EA423203685A6030
:1009C00005E00268526822F4006203685A60026817
:1009D000D26A22F470020368DA620268D36A828BF8
:1009E000521E43EA02520368DA620268926822F4F5
:1009F000007203689A6002689368026B43EA4222BD
:100A000003689A600268926822F4806203689A60C0
:100A100002689368426943EA822203689A607047D9
:100A2000002301400100000F2DE9F05F04460D4650
:100A3000002600272046FFF736FC83462846FFF7AE
:100A400032FC8146B0464FF0FF3A04B115B90020A0
:100A5000BDE8F09F20E0A05DE95D884208D1A9F1E2
:100A60000100B84201D10120F2E7761C7F1C13E09F
:100A7000A9EB070000EB060814F80810284600F060
:100A80009DFA82460AF1010018B908F10106002713
:100A900002E0A8EB0A0600275E45DCDB0020D7E772
:100AA00000BFFEE7FCB504460D460020019001A8FA
:100AB00006F0AEFA002704E0E01901A906F095FA65
:100AC0007F1CA81EB842F7D87D20009001A9684677
:100AD00006F08BFAA81E205C0199C9B2884207D1A2
:100AE000681E205C0199B0EB112F01D1012600E0B6
:100AF00000263046FCBD000010B5024801F03CFD68
:100B000010BD0000140E012010B5024801F034FDA4
:100B100010BD0000940F012010B5024801F02CFD1B
:100B200010BD0000F40F012010B5024801F024FDB3
:100B300010BD0000D40E012010B5024801F01CFDCC
:100B400010BD0000340F012010B5024801F014FD63
:100B500010BD0000740E012010B5024801F00CFD1C
:100B600010BD0000541001200146087810381823E9
:100B7000B0FBF3F20848805CC865032A05D9086811
:100B80006FF30900001D886503E008686FF3090032
:100B90008865886D704700001073000801460020CA
:100BA0008A6A8B69CBB932B1012A0DD0022A03D0EF
:100BB000032A10D10EE000BFCB6A03F08073B3F1BB
:100BC000807F00D1012007E0CB6AB3F1C07F00D164
:100BD000012001E000E000BF34E08B69B3F5005F65
:100BE0001AD132B1012A07D0022A03D0032A11D127
:100BF0000AE000BF01200EE0CB6A03F08073B3F17E
:100C0000807F00D1012006E0CB6AB3F1C07F00D124
:100C1000012000E000BF15E032B1012A05D0022A10
:100C200004D0032A0CD103E000BF00BF012008E07C
:100C3000CB6A03F08073B3F1807F00D1012000E024
:100C400000BF00BF704730B50468246824F48024D6
:100C500005682C60046863608468402C04D10468D3
:100C6000A2600468E16003E00468A1600468E260D7
:100C700030BD704770B504460D46164632462946CB
:100C8000204603F041FD012800D170BD0020FCE7A3
:100C900070B504460D46164632462946204603F0F6
:100CA000C3FD012070BD000010B5102001F01EFF33
:100CB0004FF48061064802F03DF800220221054809
:100CC00002F03CF803F0F2FA05F022FC10BD00003F
:100CD000000C02400008024010B5002201B909E0F2
:100CE000012901D10A0205E0022901D10A0201E02D
:100CF0004FF440720B2800D9001D0E4B1B6823F4E3
:100D000040730C4C236023461B6813432360234627
:100D10001B6823F0F803236023461B68022444EA7F
:100D2000C0042343034C236023461B6843F48033F1
:100D3000236010BD103C02401C48006800F40070A5
:100D4000B0B11A48006820F400701849086000BF6C
:100D50000846006840F4006008600846006820F417
:100D60000060086000BF0846006840F4007008603A
:100D70000E48006800F48060B0B10C48006820F4B0
:100D800080600A49086000BF0846006840F480504F
:100D900008600846006820F48050086000BF0846DC
:100DA000006840F48060086070470000003C02402A
:100DB000134A126822F44072114B1A60032906D1BB
:100DC0001A461268DB131A430D4B1A600EE0012914
:100DD00006D10B4A126842F00402094B1A6005E082
:100DE000074A126842F40042054B1A60044A12682E
:100DF0004FF4803343EA00231A43014B1A607047D3
:100E0000103C0240074A126822F44072054B1A60F7
:100E10001A4612681A601A46126842F001021A60F5
:100E200001707047103C024010B50949096821F46F
:100E30004071074C21602146096841F440712160EE
:100E40002146096841F0010121600260436010BD44
:100E5000103C0240084A126822F44072064B1A60A5
:100E60001A46126842F480721A601A46126842F0FA
:100E700001021A6001807047103C0240084A126863
:100E800022F44072064B1A601A46126842F400724D
:100E90001A601A46126842F001021A600160704737
:100EA000103C02402A48006800F0100040B1294878
:100EB000C06940F010002749C8611020244908602B
:100EC0002348006800F0200040B12248C06940F08B
:100ED00008002049C86120201D4908601C4800689E
:100EE00000F0400040B11B48C06940F004001949BF
:100EF000C8614020164908601548006800F080006D
:100F000040B11448C06940F002001249C861802015
:100F10000F4908600E48006800F4807048B10D4821
:100F2000C06940F001000B49C8614FF48070084966
:100F300008600748006800F0020040B10548C06939
:100F400040F020000349C861022001490860704751
:100F50000C3C0240CC01002070B504460025002066
:100F60001449C86101F0F0FE054609E0601C38B183
:100F700024B101F0E9FE401BA04201D9032070BD5D
:100F80000D48006800F480300028EFD10A4800685E
:100F900000F0010010B10120074908600648006810
:100FA00000F4F97018B1FFF77DFF0120E7E700209A
:100FB000E5E70000CC0100200C3C024070B505467E
:100FC0000E4600240DB9002070BD2846FFF76BF9CE
:100FD000441E05E0285DB04201D12046F4E7641EBE
:100FE000002CF7DA4FF0FF30EEE7000010B555485F
:100FF000007801287ED1002004F072F95248007870
:101000000C281AD14FF47A7004F098FB0128F1D122
:101010004FF4FA7006F000F84C49CA6814315018C1
:101020000A2301224A4904F083F9002862D00121F1
:10103000002003F065FA012010BD00F0EBFE01284E
:101040007DD14249CA68143150180A23012240490F
:1010500004F06EF9002872D006203E4908601B207B
:101060003D4908603D493B4A126888183A490A6878
:101070003749FFF7E8F837480068374909680844F6
:101080003449086000242AE03448324909680144A0
:10109000334800EB8400006808602E480068001D9B
:1010A0002C4908602C480068001D2B4908602B481B
:1010B0002849096801442A480C3000EBC400026842
:1010C0000A60406848602348006808302149086089
:1010D00021480068083020490860601CC4B2032C15
:1010E000D2DB1E481B49096808441E490A68026091
:1010F000496800E023E0416017480068083016495D
:10110000086008460268184801681448801DFFF707
:10111000BFFD154800681049096808441249086075
:10112000084600684FF6FF71884202D300200E493E
:1011300008600421002003F0E3F901207CE700208F
:101140007AE700000C0100201C010020DC120120C5
:10115000EC090120200100202C010020900A012030
:101160000C0A012004010020180100202DE9F04F95
:101170002DED108B83B080460C469146FA48C0F89E
:101180000080B9F1000F7DD1006890F805A0F64805
:101190000168022000F03CFCF349096811F800B036
:1011A000BAF1430F6FD1BBF1410FFBD1EE4801689B
:1011B000042000F02DFCEC490968085CA074EA48A2
:1011C0000168062000F024FCE7490968085CE07427
:1011D000E5480168032000F01BFCE3490968471853
:1011E000384600F0BFFDB0EE40CAF0EE60CADE48FF
:1011F0000168052000F00CFCDB49096847183846F7
:1012000000F0B0FDB0EE40DAF0EE60DA51EC1C0B0D
:10121000FFF7E9F9642190FBF1F020702178642256
:1012200011FB02F0FFF7CEF953EC1C2BFFF7E6F8A9
:10123000CDE900019DED000B51EC100BFFF71EFAFC
:1012400008EE900ABDEEE80A10EE100A60706078B1
:1012500000EE100AB8EE400A38EEC00ADFEDC30A0D
:1012600060EE20AABDEEEA0A10EE100AA07051EC62
:101270001D0BFFF7B8F9642190FBF1F0E070E17805
:10128000642201E082E105E211FB02F0FFF79AF926
:1012900053EC1D2BFFF7B2F8CDE900019DED000BDB
:1012A00051EC100BFFF7EAF90AEE100ABDEECA0A7C
:1012B00010EE100A2071207900EE100AB8EE400AF4
:1012C0003AEE400ADFEDA90A20EE20FABDEECF0A81
:1012D00010EE100A6071A4480168072000F098FB26
:1012E000A14909684718384600F05FFDF0EE40FA62
:1012F0001FEE900AFFF7AFF99FED9D0B53EC102BFB
:10130000FFF77FF841EC190B9FED9B0B53EC102B73
:1013100051EC190BFFF775F841EC190B9FED960B8B
:1013200053EC102B51EC190BFFF7DDF89FED940BEC
:1013300053EC102BCDE900019DED000B51EC100B8F
:10134000FFF7D1F8FFF76EF9A0719FED8B0B53EC0F
:10135000102B51EC190BFFF7C6F8FFF744F90746BD
:10136000C01707EB10600012A7EB0020E07151ECF2
:10137000190BFFF738F9642190FBF1F201FB120021
:10138000207279480168082000F042FB764909681C
:101390004718384600F009FD8DED010A0198FFF766
:1013A0005AF941EC1B0B9FED760B53EC102B51ECD3
:1013B0001B0BFFF798F8FFF735F9607251EC1B0B28
:1013C000FFF711F90746C01707EB10600012A7EBF3
:1013D000002000EE100AB8EEC00AB0EE408ABCEE63
:1013E000C80A10EE100AA0729FED630B53EC102B8D
:1013F00051EC1B0BFFF705F8FFF7F5F8642190FBA4
:10140000F1F201FB120000EE100AB8EEC00AB0EED5
:10141000408A9FED5D0AC8EE000AB0EE608A9FED3B
:10142000530A28EE000ABCEEC00A10EE100AE07261
:101430009FED4E0A28EE000ADFED530A20EE200A47
:10144000BDEEC00A10EE100A90FBF1F201FB120093
:1014500000EE100AB8EEC00AB0EE408A18EE100A8C
:10146000FFF7F9F89FED440B53EC102BFFF73BF817
:10147000CDE900019DED000B51EC100BFFF7FEF8DC
:1014800008EE100A9FED390A28EE000ABCEEC00AE9
:1014900010EE100A207334480068007A3038324960
:1014A0000968C979303901EB810100EB41002076F0
:1014B0002D480068807A30382B490968497A3039DC
:1014C00001EB810100EB4100607627480068007B5A
:1014D000303825490968C97A303901EB810100EBC0
:1014E0004100A07620480168092000F091FAC5B2B9
:1014F0001D480168681C085C30381B490968495D53
:10150000303901EB810100EB4100E07516480168BC
:10151000E81C085C303814490A68A91C515C303951
:1015200001EB810100EB4100A0750F480168681DC7
:10153000085C30380C490A68291D515C303901EBD0
:10154000810100EB410000F5FA6604F1140005F09A
:101550004DFB002020741B206074012003B0BDEC03
:10156000108BBDE8F08F0000E80000200000704202
:101570009A9999999999FD3F0000000000005940FF
:1015800000000000000070400000C842FE480068F3
:1015900000782B287ED1FC480068407A3A28F9D19F
:1015A000F9480168012000F033FAC5B20020207428
:1015B0006074F5480068405DA074A07C4E2808D097
:1015C000A07C532805D0002003B0BDEC108BBDE8F3
:1015D000F08FED480168022000F01AFAC5B2EA491E
:1015E0000968481900F0BEFBB0EE40DAF0EE60DAB0
:1015F000E5480168032000F00BFAC5B2E248006834
:10160000405DE074E0480168012000F0E3F9C5B2F4
:10161000DD490968481900F0A5FBB0EE40CAF0EEBC
:1016200060CA51EC1C0BFEF7DEFF642190FBF1F069
:1016300020702178642211FB02F0FEF7C3FF53EC07
:101640001C2BCDE900019DED000B51EC100BFEF7BA
:10165000D5FEFFF713F808EE900ABDEEE80A10EE8B
:10166000100A6070607800EE100AB8EE400A38EE9A
:10167000C00A5FED420A60EE20AABDEEEA0A10EE53
:10168000100AA07051EC1D0BFEF7ADFF642190FB1A
:10169000F1F000E089E1E070E178642211FB02F0F2
:1016A000FEF790FF53EC1D2BCDE900019DED000BE3
:1016B00051EC100BFEF7A2FEFEF7E0FF0AEE100A57
:1016C000BDEECA0A10EE100A2071207900EE100A51
:1016D000B8EE400A3AEE400A5FED5C0A20EE20FACE
:1016E000BDEECF0A10EE100A6071A748016807200E
:1016F00000F08EF9C5B2A4490968481900F055FBFD
:10170000F0EE40FA1FEE900AFEF7A5FF1FED680B02
:1017100053EC102BFEF775FECDE900019DED000B9B
:1017200051EC100BFEF7AAFF0FEE900A1FED6A0AAC
:101730002FEE800A10EE101A0846FEF78CFF41ECDF
:10174000190B1FED730B53EC102B51EC190BFEF71B
:10175000CAFE1FED750B53EC102BFEF7C4FECDE94E
:1017600000019DED000B51EC100BFEF75BFFA0712B
:101770001FED7F0B53EC102B51EC190BFEF7B3FE52
:10178000FEF731FF0746C01707EB10600012A7EB0A
:101790000020E07151EC190BFEF725FF642190FB4E
:1017A000F1F201FB1200207277480168082000F076
:1017B0002FF9C5B200BF74490968481900F014FB3D
:1017C00010EE107A3846FEF746FF41EC1B0B1FED7A
:1017D000940B53EC102B51EC1B0BFEF784FEFEF721
:1017E00021FF607251EC1B0BFEF7FDFE0746C01790
:1017F00007EB10600012A7EB002000EE100AB8EE15
:10180000C00AB0EE408ABCEEC80A10EE100AA07200
:101810001FEDA70B53EC102B51EC1B0BFEF7F1FD4A
:10182000FEF7E1FE642190FBF1F201FB120000EEF5
:10183000100AB8EEC00AB0EE408A1FEDAD0AC8EE3D
:10184000000AB0EE608A1FEDB70A28EE000ABCEE6F
:10185000C00A10EE100AE0721FEDBC0A28EE000A62
:101860005FEDB70A20EE200ABDEEC00A10EE100AA6
:1018700090FBF1F201FB120000EE100AB8EEC00A74
:10188000B0EE408A18EE100AFEF7E5FE1FEDC60B1B
:1018900053EC102BFEF727FECDE900019DED000B68
:1018A00051EC100BFEF7EAFE08EE100A1FEDD10A0C
:1018B00028EE000ABCEEC00A10EE100A207332486F
:1018C0000168052000F0A4F8C5B22F480168681C23
:1018D000085C30382C490968495D303901EB8101D9
:1018E00000EB4100207628480168E81C085C30388D
:1018F00025490A68A91C515C303901EB810100EBD4
:101900004100607620480168681D085C30381E4937
:101910000A68291D515C303901EB810100EB41005F
:10192000A07619480168042000F072F8C5B2164884
:101930000168681C085C303813490968495D303912
:1019400001EB810100EB4100E0750F480168E81CE4
:10195000085C30380C490A68A91C515C303901EB2D
:10196000810100EB4100A07507480168681D085C13
:10197000303805490A68291D515C303901EB810175
:1019800000EB410002E00000E800002000F5FA66EC
:10199000300A2075667504F1140005F027F900205F
:1019A00020741B20607401200EE600200CE600006D
:1019B00006480068064908600448001D0068486041
:1019C000024808300068886070470000107AFF1FE6
:1019D000A80C01202DE9F04706460D464FF00009FE
:1019E00000272846FEF75FFC804600240CE0285DB7
:1019F0003A2802D009F1010900E07F1CB74202D168
:101A0000601CBDE8F087641C4445F0DB0020F8E76B
:101A10002DE9F04706460D464FF0000900272846FD
:101A2000FEF741FC804600240CE0285D2C2802D003
:101A300009F1010900E07F1CB74202D1601CBDE83A
:101A4000F087641C4445F0DB0020F8E700B58DB05A
:101A5000624800780C287DD1182261496846FEF75B
:101A6000F2FB6049CA68143150185D490C390EC93F
:101A700002F037FD00286DD000205A490872084650
:101A8000C068801C1431085C000655490C39486058
:101A9000084642685348C068C01C52491431085C6B
:101AA00002EB00404E490C394860084642684D48F8
:101AB000C068011D4B481430405C02EB00204849CF
:101AC0000C394860084642684648C068401D454990
:101AD0001431085C104442490C3948604148C068E0
:101AE000123040491431085C3D490C3908750846EC
:101AF000007D012867D13B48C068801D39491431F9
:101B0000084437490C3902688A604268CA608068B4
:101B10000861084640680F38C8614C213248FEF71A
:101B2000ABFB2F480C38C069821E2E48C0681530A8
:101B30002C4B1433C1182C48FEF785FB2948C0688C
:101B4000143028491431085C25490C3948750120A6
:101B5000264900E03FE008704FF6FE6006902448FA
:101B6000006807902348006808902348006809909F
:101B7000224800680A90224800680B9021480068BB
:101B80000C90012206A9204804F020F914480C38D2
:101B9000C06919300690012206A91B48001D04F0F7
:101BA00015F9062207A91848083004F00FF90C4867
:101BB0000C38C06900F112020B4914391248203068
:101BC00004F004F907E006480C38007D102802D123
:101BD00002200649087000200DB000BD1C01002045
:101BE000780A0120DC1201204501002015010020A7
:101BF000A4010020A8010020AC010020B4010020B5
:101C0000B8010020BC01002000000108F0B52DED56
:101C1000028B83B006460C46002727E0002521E012
:101C2000464800F09BFB20B140F26A2144A005F039
:101C3000CBF90A21414800F033FB3DB93F4800F0A1
:101C4000D7F944490968084442490860012D07D181
:101C50003A4800F0CDF94049096808443E49086017
:101C6000681CC5B2022DDBDB781CC7B2A742D5DBEE
:101C700038480068B0FBF4F0364908603648006820
:101C8000B0FBF4F034490860324890ED000AB8EE39
:101C9000400AB0EE408ADFED310A88EE200ADFED1F
:101CA000300A20EE200AB0EE408ABCEEC80A80ED71
:101CB000000A0068000E8DF8080026480068010C34
:101CC0008DF8091023480088010A8DF80A10214870
:101CD00001788DF80B10204890ED000AB8EE400A0C
:101CE000B0EE408ADFED1D0A88EE200ADFED1C0A07
:101CF00020EE200AB0EE408ABCEEC80A80ED000A51
:101D00000068000E8DF8040013480068000C8DF880
:101D1000050011480088000A8DF806000E4800787A
:101D20008DF80700054800F099FB01983060029893
:101D3000706003B0BDEC028BF0BD0000B40C01205C
:101D40002E2E5C5372635C4253505C4253502E63A0
:101D5000000000009C010020A00100200000804540
:101D60000000044230B52DED028B83B005462946B4
:101D70000120FFF74DFEC4B2601EC4B222462946C0
:101D80006846FEF784FA00200DF80400684604F067
:101D900031FAB0EE408AF0EE608AB0EE480AF0EE1A
:101DA000680A03B0BDEC028B30BD30B52DED028B5F
:101DB00083B0054629460120FFF72AFEC4B2601E03
:101DC000C4B2224629466846FEF761FA00200DF8A3
:101DD0000400684604F098FAB0EE408AB0EE480A73
:101DE00003B0BDEC028B30BD10B52DED028B84B07D
:101DF00004460122214601A8FEF749FA01A804F091
:101E000083FAB0EE408AB0EE480A04B0BDEC028B13
:101E100010BD0000034800781E2801DB0120704738
:101E20000020FCE7DC00002001480078704700003B
:101E3000D400002001480078704700001301002002
:101E400003490A6802608A888280897981717047B3
:101E5000C00100207047000038B502460020009005
:101E600000BF92F83C00012801D1022038BD0120BA
:101E700082F83C0000BF0868092816D91068C068BD
:101E80000C780A3C04EB44050724AC40A0431468DA
:101E9000E0600C780A3C04EB44048868A0401468B5
:101EA000E46820431468E06013E0106800690C786F
:101EB00004EB44050724AC40A043146820610C786F
:101EC00004EB44048868A040146824692043146823
:101ED00020614868072817D21068406B0C79641E8F
:101EE00004EB84051F24AC40A04314686063088899
:101EF00080B20C79641E04EB8404A0401468646B07
:101F000020431468606331E048680D2817D21068D8
:101F1000006B0C79E41F04EB84051F24AC40A04344
:101F200014682063088880B20C79E41F04EB8404F1
:101F3000A0401468246B20431468206316E01068E6
:101F4000C06A0C790D3C04EB84051F24AC40A0430F
:101F50001468E062088880B20C790D3C04EB8404BC
:101F6000A0401468E46A20431468E0621A4B1B4CDA
:101F70001068A04206D10868122803D1586840F4BE
:101F800080005860154C1068A0421ED1144C08689F
:101F9000A04202D00868112817D1586840F4000008
:101FA00058600F4C0868A0420FD10E4800680E4CD4
:101FB000B0FBF4F000EB80004000009002E00098DD
:101FC000401E009000980028F9D100BF002082F840
:101FD0003C0000BF00BF49E7002301400020014052
:101FE000120000100000002040420F0070477047B0
:101FF00001460868C06C704770B50446002500268D
:1020000020680068C0F3400520684068C0F34016AF
:1020100095B38EB3206C00F0100018B9206C40F41A
:10202000007020642068806800F04050E8B9A06922
:10203000D8B92068C06A00F4700020B120688068B8
:1020400000F4806088B92068406820F02000216892
:102050004860206C20F480702064206C00F4805074
:1020600018B9206C40F0010020642046FFF7BEFF45
:102070006FF012002168086020680068C0F38005D6
:1020800020684068C0F3C016E5B3DEB3206C00F0F2
:10209000100018B9206C40F400502064206880685B
:1020A00000F4401038BB2068806B00F4401020B171
:1020B0002068806800F48060E8B92068406800F417
:1020C0008060C0B92068806800F0405098B9A0696D
:1020D00088B92068406820F0800021684860206C42
:1020E00020F480502064206C00F4807018B9206CBB
:1020F00040F0010020642046FFF7ACFE6FF00C00BA
:10210000216808602068006800F0010520684068C8
:10211000C0F3801685B17EB12068006800F0010030
:1021200050B1206C40F480302064204600F052F81A
:102130006FF001002168086020680068C0F3401556
:1021400020684068C0F380667DB176B1606C40F075
:10215000020060646FF02000216808602046FFF7ED
:1021600046FF6FF020002168086070BD70B504461E
:1021700000250CB9012070BD1549A06A884200D025
:1021800000BF206C30B90020606484F83C00204619
:1021900000F022F8206C00F0100088B9206C20F4C8
:1021A000885040F0020020642046FEF78FFB00209C
:1021B0006064206C20F0020040F00100206400E028
:1021C000012500BF002084F83C0000BF2846D2E76C
:1021D0000100000F7047000010B586B00446244986
:1021E0002068884241D100BF00200090214800684B
:1021F00040F480701F4908600846006800F4807051
:10220000009000BF00BF0C2001900320029000202E
:10221000039001A9184800F077FC18481849086095
:1022200000204860002116488160C1604FF4806141
:10223000016149004161890081610021C161016240
:10224000416200F0B9FA18B17F210EA004F0BCFE83
:1022500000BF0B48A063846300BF00221146122018
:1022600000F000FE122000F0F0FD06B010BD0000EE
:10227000002001404438024000080240106402403F
:10228000541001202E2E2F5372632F73746D33322E
:10229000663478785F68616C5F6D73702E630000E0
:1022A00070B504460D4600262068806800F4806002
:1022B00078B12068806800F4807050B1206C40F0E4
:1022C0002000206400BF002084F83C0000BF0120F3
:1022D00070BD00F039FD064612E0681C80B125B1E2
:1022E00000F032FD801BA8420AD9206C40F00400A7
:1022F000206400BF002084F83C0000BF0320E7E713
:102300002068006800F002000228E6D16FF0120099
:1023100021680860206C40F40070206420688068A8
:1023200000F04050B8B9A069A8B92068C06A00F4AC
:10233000700020B12068806800F4806058B9206C7B
:1023400020F480702064206C00F4805018B9206C58
:1023500040F0010020640020BAE7000008B5014603
:102360000020009000BF91F83C00012801D102201C
:1023700008BD012081F83C0000BF0868806800F0BB
:102380000100A0B90868806840F001000B689860FF
:102390002E4800682E4BB0FBF3F000EB400000909D
:1023A00002E00098401E009000980028F9D10868CB
:1023B000806800F00100002845D0086C40F20163FD
:1023C000984340F4807008640868406800F48060B6
:1023D00028B1086C20F4005040F480500864086C68
:1023E00000F4805020B1486C20F00600486401E001
:1023F0000020486400BF002081F83C0000BF154A5F
:102400006FF022000B681860506800F01F0058B988
:102410000868806800F04050A8B90868806840F0FB
:1024200080400B6898600EE00B4B086898420AD118
:102430000868806800F0405028B90868806840F05B
:1024400080400B689860002092E7000000000020A8
:1024500040420F000023014000200140014600BF20
:1024600091F83C00012801D102207047012081F839
:102470003C0000BF0868806820F001000A68906096
:102480000868806800F0010028B9086C20F48850C2
:1024900040F00100086400BF002081F83C0000BF4C
:1024A00000BFE2E770B50446A56D00F04DFC06469E
:1024B00094F83500022808D08020606500BF002015
:1024C00084F8340000BF012070BD2068006820F04F
:1024D0001600216808602068406920F080002168AB
:1024E0004861206C08B9A06C28B12068006820F011
:1024F0000800216808602068006820F00100216859
:1025000008600FE000F020FC801B05280AD920207D
:10251000606500BF002084F8340000BF032084F809
:102520003500D1E72068006800F001000028E9D1FB
:1025300094F85C103F208840A86000BF002084F819
:10254000340000BF012084F835000020BCE70146BC
:1025500091F83500022803D080204865012070479B
:10256000052081F835000868006820F001000A683D
:1025700010600020F3E70000F8B50446002000904A
:102580008C4800684FF41651B0FBF1F7A56D2E682A
:1025900094F85C1008208840304098B120680068AA
:1025A00000F0040070B12068006820F00400216889
:1025B000086094F85C1008208840A860606D40F0C6
:1025C0000100606594F85C1001208840304068B1DB
:1025D0002068406900F0800040B194F85C10012050
:1025E0008840A860606D40F00200606594F85C105F
:1025F00004208840304068B12068006800F0020084
:1026000040B194F85C1004208840A860606D40F0F0
:102610000400606594F85C1010208840304078B366
:102620002068006800F0080050B394F85C10102097
:102630008840A8602068006800F4802080B120688D
:10264000006800F4002028B9206CC8B12046216C35
:10265000884715E0A06C98B12046A16C88470FE030
:102660002068006800F4807028B92068006820F0B5
:10267000080021680860206C10B12046216C884752
:1026800094F85C10202088403040002865D02068F5
:10269000006800F0100000285FD094F85C10202043
:1026A0008840A86094F83500052828D12068006883
:1026B00020F01600216808602068406920F0800042
:1026C00021684861206C08B9A06C28B120680068B6
:1026D00020F008002168086094F85C103F208840D2
:1026E000A86000BF002084F8340000BF012084F8F7
:1026F0003500206D10B12046216D8847F8BD206857
:10270000006800F4802080B12068006800F4002098
:1027100028B9606C10B12046616C88471DE0E06B01
:10272000D8B12046E16B884717E02068006800F4C4
:10273000807068B92068006820F010002168086087
:1027400000BF002084F8340000BF012084F8350069
:10275000E06B10B12046E16B8847606D38B3606D67
:1027600000F00100F0B1052084F835002068006811
:1027700020F001002168086000BF0098401C009014
:10278000B84200D905E02068006800F00100002888
:10279000F3D100BF00BF002084F8340000BF012047
:1027A00084F83500E06C10B12046E16C884700BF2A
:1027B000A4E70000000000202DE9F04104460025B8
:1027C00000F0C2FA074614B90120BDE8F081606A42
:1027D00000B100BF00BF002084F8340000BF022019
:1027E00084F835002068006820F001002168086046
:1027F0000AE000F0A9FAC01B052805D92020606571
:10280000032084F83500E0E72068006800F001004C
:102810000028EED12068056821480540D4E901016F
:102820000843E16808432169084361690843A169D5
:102830000843E1690843216A08430543606A0428A4
:1028400003D1D4E90B0108430543206805602068E3
:10285000456925F00705606A0543606A04280DD1C3
:10286000A06A0543E06A48B12046FEF797F928B10F
:1028700040206065012084F83500A6E720684561A6
:102880002046FEF771F9064694F85C103F20884018
:10289000B06000206065012084F83500002094E7D6
:1028A0003F8010F02DE9F04704460D4616461F46BE
:1028B0004FF00008D4F8589000BF94F83400012875
:1028C00002D10220BDE8F087012084F8340000BF67
:1028D00094F8350001282BD1022084F8350000201F
:1028E00060653B46324629462046FEF7ACF994F82F
:1028F0005C103F208840C9F808002068006840F05C
:102900001600216808602068406940F08000216856
:102910004861206C28B12068006840F008002168F8
:1029200008602068006840F001002168086006E047
:1029300000BF002084F8340000BF4FF0020840467A
:10294000C0E700002DE9F04104460E4601270025AE
:1029500000BF2648007E012802D10220BDE8F08198
:1029600001202249087600BF4CF25030FEF7F4FAFD
:102970000746002F32D1401E30602068012810D158
:10298000207C6168FEF714FA4CF25030FEF7E4FA4E
:1029900007461748006848F2040188431449086054
:1029A0001AE0A56812E0217C2846FEF795F94CF262
:1029B0005030FEF7D1FA07460D48006820F0FA00C3
:1029C0000B4908600FB1356005E06D1CD4E90210B9
:1029D0000844A842E7D800BFFEF7AEF900BF0020C8
:1029E0000249087600BF3846B8E70000CC01002055
:1029F000103C02400348006840F000400149086074
:102A000000207047103C02402DE9F04106460F4679
:102A100014461D464FF0010800BF1F48007E0128E4
:102A200002D10220BDE8F08101201B49087600BFD9
:102A30004CF25030FEF790FA8046B8F1000F23D1E7
:102A400026B9E1B23846FEF7DDF912E0012E04D1D5
:102A5000A1B23846FEF7FEF90BE0022E04D1214662
:102A60003846FEF70BFA04E022462B463846FEF7BE
:102A7000DBF94CF25030FEF76FFA804607480068E9
:102A800020F001000549086000BF002002490876D7
:102A900000BF4046C6E70000CC010020103C0240C9
:102AA00000200949096801F0004159B10749064A67
:102AB0000C3A1160064911600349096801F00041B0
:102AC00001B1012070470000103C0240230167451E
:102AD000AB89EFCD10B50446102C03D1810102481B
:102AE00000F028F910BD00000004024010B50446B3
:102AF00004480068204020B1024804602046FFF7E7
:102B0000E9FF10BD143C0140F8B502460B46002514
:102B1000002400200021E6E0012606FA01F51E68E7
:102B200006EA0504AC4273D15E68022E02D05E68EC
:102B3000122E13D1CF0802F1200656F827004E07B7
:102B4000F70E0F26BE40B0434F07FF0E1E69BE4072
:102B50003043CF0802F1200646F8270010684F00E6
:102B60000326BE40B0431E7906F003064F00BE4068
:102B7000304310605E68012E08D05E68022E05D0DA
:102B80005E68112E02D05E68122E13D190684F003D
:102B90000326BE40B0434F00DE68BE403043906025
:102BA000506801268E40B0431E79C6F300168E4051
:102BB00030435060D0684F000326BE40B0434F0002
:102BC0009E68BE403043D0605E6806F08056B6F125
:102BD000805FA8D100BF00260096454E366846F4B7
:102BE0008046434F3E603E46366806F48046009677
:102BF00000BF00BF3F4E8F0856F827008E07370FE3
:102C00000F26BE40B0433C4EB24202D100262EE019
:102C100068E03A4EB24201D1012628E0384EB24275
:102C200001D1022623E0374EB24201D103261EE035
:102C3000354EB24201D1042619E0344EB24201D1E0
:102C4000052614E0324EB24201D106260FE0314E85
:102C5000B24201D107260AE02F4EB24201D1082626
:102C600005E02E4EB24201D1092600E00A268F0768
:102C70003F0FBE4030431F4E8F0846F82700284EB6
:102C80003068A0435E6806F48036B6F5803F00D118
:102C90002043234E3060361D3068A0435E6806F442
:102CA0000036B6F5003F00D120431D4E361D306082
:102CB000361D3068A0435E6806F48016B6F5801FA6
:102CC00000D12043164E08363060361D3068A043D0
:102CD0005E6806F40016B6F5001F00D12043104EC2
:102CE0000C363060491C1029FFF416AFF8BD000007
:102CF000443802400838014000000240000402400D
:102D000000080240000C0240001002400014024083
:102D100000180240001C0240002002400024024033
:102D2000003C0140024613690B400BB1012000E05A
:102D30000020704742694A40426170470AB1816190
:102D400001E00B0483617047014800687047000090
:102D500064000020034800680349097808440149D9
:102D600008607047640000206C00002010B50D481A
:102D7000006840F400700B4908600846006840F4A1
:102D8000806008600846006840F480700860032096
:102D900000F0A6F8002000F007F800F02BF8002063
:102DA00010BD0000003C024070B504460E4800789B
:102DB0004FF47A71B1FBF0F00C490968B1FBF0F502
:102DC000284600F00DFE08B1012070BD102C07D27E
:102DD00000222146501E00F045F80548046001E03D
:102DE0000120F2E70020F0E76C0000200000002046
:102DF0006800002010B5032000F072F80022114690
:102E00006FF00B0000F02EF8002211466FF00A0060
:102E100000F028F8002211466FF0090000F022F8B7
:102E200000221146501F00F01DF800221146101F0D
:102E300000F018F800221146901E00F013F800224E
:102E40001146501E00F00EF810BD00BF00F01F022A
:102E5000012191404209920002F1E022C2F80011E2
:102E600000BF70472DE9F05F80460D4616460027EB
:102E700002F06CF8074639462A46334601F007004F
:102E8000C0F1070ABAF1040F02D94FF0040A01E0B9
:102E9000C0F1070AD14600F1040ABAF1070F02D2C5
:102EA0004FF0000A01E0A0F1030AD4464FF0010AF6
:102EB0000AFA09FAAAF1010A0AEA020A0AFA0CFA5B
:102EC0004FF0010B0BFA0CFBABF1010B0BEA030B00
:102ED0004AEA0B042146404602F040F8BDE8F09F64
:102EE00000BF00F00702064B19684FF6FF031940B8
:102EF000044B0B4343EA0221014B196000BF7047AA
:102F00000CED00E00000FA0538B5002400BF0020F9
:102F100000901D48006840F080501B49086008463A
:102F2000006800F08050009000BF00BF01201749EA
:102F30000864FFF709FF044607E0FFF705FF001BE1
:102F4000B0F57A7F01D9032038BD1148406800F4FC
:102F50008030B0F5803FF0D101200C494864FFF784
:102F6000F3FE044607E0FFF7EFFE001BB0F57A7FA3
:102F700001D90320E8E70648406800F40030B0F5C6
:102F8000003FF0D10020DFE74038024000000E4251
:102F900000700040064A126822F00402044B1A60D6
:102FA000012901D130BF02E040BF20BF20BF7047E0
:102FB00010ED00E070B504460D460CB9012070BD5F
:102FC0005848006800F00F00A84209D255490D701A
:102FD0000846006800F00F00A84201D00120EEE78B
:102FE000207800F0020002281DD1207800F00400B3
:102FF000042805D14C48006840F4E0504A49086074
:10300000207800F00800082805D14748006840F4FF
:103010006040454908604448006820F0F000A1681D
:10302000084341490860207800F00100A8B36068B7
:10303000012807D13C4808380068C0F34040B8B9BF
:103040000120BCE76068022802D06068032807D12D
:10305000354808380068C0F3406048B90120AEE741
:10306000314808380068C0F3400008B90120A6E7DD
:103070002D48006820F00300616808432A49086071
:10308000FFF762FE064609E0FFF75EFE801B41F295
:103090008831884202D9032091E707E0224800687E
:1030A00000F00C006168B0EB810FEDD11D480068A5
:1030B00000F00F00A84209D91A490D7008460068AF
:1030C00000F00F00A84201D0012078E7207800F03E
:1030D0000400042807D11448006820F4E050E16897
:1030E000084311490860207800F00800082808D13A
:1030F0000D48006820F46040216940EAC1000A4997
:10310000086000F03DF808490968C1F30311074A57
:10311000515CC840064908600020FFF745FE0020CA
:103120004DE70000003C024008380240F8720008F9
:1031300000000020014800687047000000000020E7
:1031400000B5FFF7F7FF04490968C1F38221034A7C
:10315000515CC84000BD00000838024008730008F8
:1031600000B5FFF7E7FF04490968C1F34231034A9C
:10317000515CC84000BD00000838024008730008D8
:103180002DE9F047002400250026A14625480068C7
:1031900000F00C0020B1042805D008283AD105E041
:1031A000DFF8849039E0DFF8849036E01D48001F96
:1031B000006800F03F041B48001F006800F4800016
:1031C00078B11A481749091F0968C1F38811A0FB93
:1031D00001700146224600233846FDF703F80546F4
:1031E0000EE011480F49091F0968C1F38811A0FBBF
:1031F00001700146224600233846FCF7F3FF0546DE
:103200000848001F0068C0F30140401C4600B5FBA1
:10321000F6F902E0DFF8109000BF00BF4846BDE8B5
:10322000F0870000083802400024F40040787D0157
:10323000F8B504460CB90120F8BD207800F0010073
:10324000002874D0F948006800F00C0004280DD064
:10325000F648006800F00C00082813D1F348001F5E
:10326000006800F48000B0F5800F0BD1EF480838FB
:103270000068C0F34040002859D06068002856D14B
:103280000120D9E700BF6068B0F5803F08D1E7486A
:103290000838006840F48030E449083908601EE0CE
:1032A0006068B0F5A02F0DD1E0480838006840F400
:1032B0008020DE49083908600846006840F4803004
:1032C00008600CE0D9480838006820F48030D749FD
:1032D000083908600846006820F48020086000BFB4
:1032E000606890B1FFF730FD054606E0FFF72CFD62
:1032F000401B642801D903209EE7CC4808380068A9
:10330000C0F340400028F1D011E0FFF71DFD054655
:1033100006E0FFF719FD401B642801D903208BE765
:10332000C24808380068C0F340400028F1D1207836
:1033300000F0020002285FD1BC48006800F00C00D9
:1033400058B1BA48006800F00C0008281CD1B748F2
:10335000001F006800F48000B0B9B4480838006865
:10336000C0F3400020B1E068012801D0012063E7EC
:10337000AE480838006820F0F800216940EAC10032
:10338000AA490839086037E0E06800B30120A8497D
:103390000860FFF7D9FC054606E0FFF7D5FC401BA7
:1033A000022801D9032047E7A04808380068C0F385
:1033B00040000028F1D09D480838006820F0F8004F
:1033C000216940EAC10099490839086014E00020E9
:1033D00097490860FFF7B8FC054606E0FFF7B4FC24
:1033E000401B022801D9032026E7904808380068CE
:1033F000C0F340000028F1D1207800F00800082830
:103400002CD16069A8B101208A490860FFF79CFCB3
:10341000054606E0FFF798FC401B022801D903206F
:103420000AE782486C300068C0F340000028F1D001
:1034300014E000207F490860FFF786FC054606E09F
:10344000FFF782FC401B022801D90320F4E67748ED
:103450006C300068C0F340000028F1D1207800F003
:103460000400042870D1002670483830006800F04D
:10347000805090B900BF002000906C483830006840
:1034800040F080506949383108600846006800F013
:103490008050009000BF00BF01266748006800F41C
:1034A0008070B0B96448006840F480706249086078
:1034B000FFF74AFC054606E0FFF746FC401B0228E2
:1034C00001D90320B8E65C48006800F48070002849
:1034D000F2D000BFA068012808D1544868300068C5
:1034E00040F001005149683108601DE0A0680528DE
:1034F0000DD14E486830006840F004004B496831F7
:1035000008600846006840F0010008600CE0474889
:103510006830006820F001004449683108600846BE
:10352000006820F00400086000BFA068A8B1FFF7A1
:103530000BFC054609E0FFF707FC401B41F2883110
:10354000884202D9032077E626E0384868300068D0
:10355000C0F340000028EED013E0FFF7F5FB05466E
:1035600008E0FFF7F1FB401B41F28831884201D9A6
:10357000032061E62D4868300068C0F34000002851
:10358000EFD1012E07D129483830006820F0805053
:1035900026493831086000BFA069B8B323480068E5
:1035A00000F00C0008285ED0A069022846D1002057
:1035B0001F490866FFF7C8FB054606E0FFF7C4FB96
:1035C000401B022801D9032036E618480838006855
:1035D000C0F340600028F1D1D4E907010843616AD3
:1035E00040EA81110122A06AC2EB500041EA004189
:1035F0002C20005D41EA00600C49091F0860012091
:103600000B490866FFF7A0FB054607E02DE0FFF732
:103610009BFB401B022801D903200DE60348083814
:103620000068C0F340600028F1D01EE00838024076
:1036300000004742800E47420070004000200C49C5
:103640000866FFF781FB054606E0FFF77DFB401BA0
:10365000022801D90320EFE506480068C0F3406066
:103660000028F2D101E00120E6E50020E4E50000B9
:10367000000047420038024010B504460CB9012052
:1036800010BD606A00B900BF0021A16294F851002A
:1036900028B9002084F85000204600F033F80220BA
:1036A00084F851002068006820F04000216808601C
:1036B000D4E901010843E1680843216908436169CD
:1036C0000843218B01F400710843E1690843216A32
:1036D0000843A16A0843216808600421A06901EA3F
:1036E0001040616A0843216848602068C06920F47E
:1036F00000602168C86100206065012084F85100E5
:103700000020BDE710B586B00446194920688842FC
:103710002BD100BF002000901648006840F4805074
:10372000144908600846006800F48050009000BF0B
:1037300000BF60200190022002900120039003202E
:1037400004900520059001A90B48FFF7DDF98020C2
:103750000190022002900020039003200490052095
:10376000059001A90448FFF7CFF906B010BD00008D
:103770000030014044380240000002402DE9FE4F75
:1037800004460D4616461F46DDF830804FF0000A0D
:103790000020029081464FF0010B019000BF94F889
:1037A0005000012802D10220BDE8FE8F012084F8DC
:1037B000500000BFFFF7C8FA814694F851A0606836
:1037C0000290BAF1010F0BD00298B0F5827F04D1BC
:1037D000A06810B9BAF1040F02D002200190D2E023
:1037E0000DB106B117B901200190CCE094F8510059
:1037F000012802D1052084F8510000206065A663ED
:10380000E787A7872563E786A7862064606420682A
:10381000006800F04000402805D02068006840F0B3
:10382000400021680860E068B0F5006F43D160682F
:1038300010B1E08E012806D128882168C860AD1C2F
:10384000E08E401EE0862FE0BBF1000F10D0E08E2E
:1038500070B12068806800F00200022808D1288832
:103860002168C860AD1CE08E401EE0864FF0000B62
:10387000E08F68B12068806800F0010040B12068E6
:10388000C0683080B61CE08F401EE0874FF0010B0F
:1038900008F1010040B1FFF757FAA0EB09004045DD
:1038A00002D3032001906EE0E08E0028CCD1E08F9F
:1038B0000028C9D142E0606810B1E08E012806D12D
:1038C0002878216808736D1CE08E401EE0862FE08A
:1038D000BBF1000F10D0E08E70B12068806800F05E
:1038E0000200022808D115F8010B21680873E08E48
:1038F000401EE0864FF0000BE08F68B120688068C2
:1039000000F0010040B12068C06806F8010BE08FAC
:10391000401EE0874FF0010B08F1010040B1FFF7B6
:1039200013FAA0EB0900404502D3032001902AE0DE
:10393000E08E0028CCD1E08F0028C9D14346012277
:1039400002212046CDF8009002F034F910B1032096
:10395000019018E04A464146204602F017F920B18E
:1039600001200190202060650DE0A06850B900BFE3
:10397000002000902068C068009020688068009057
:1039800000BF00BF00BF012084F8510000BF00202D
:1039900084F8500000BF019806E7042808D14FF0D2
:1039A000E021096941F004014FF0E022116107E0D4
:1039B0004FF0E021096921F004014FF0E02211618C
:1039C0007047000000B50548006820B10348006852
:1039D000401E0249086002F089FB00BDC8010020BA
:1039E00070B504462546681EB0F1807F01D30120E2
:1039F0000FE0681E4FF0E02148610F214FF0FF30CB
:103A000001F0ACFA00204FF0E02188610720086146
:103A1000002070BD10B5FFF7D5FF10BD0146002294
:103A200000BF91F83800012801D102207047012021
:103A300081F8380000BF08684069C0F3C01291F8EF
:103A40003900212806D12AB10868406920F0800099
:103A50000B68586108684069C0F3801291F83A0019
:103A6000222812D18AB10868C06820F480700B68DF
:103A7000D8600868406920F001000B685861086848
:103A8000406920F040000B68586100BF002081F8B9
:103A9000380000BF00BFC9E708B5014600BF91F874
:103AA0003800012801D1022008BD012081F838002A
:103AB00000BF91F83900212805D10868406940F01D
:103AC00080000A68506191F83A0022281CD100BF9A
:103AD0000020009008680068009008684068009026
:103AE00000BF00BF0868C06840F480700A68D060FA
:103AF0000868406940F001000A6850610868406940
:103B000040F040000A68506100BF002081F8380092
:103B100000BF00BFC8E770B50446002520684069B3
:103B2000C0F3C01594F8390021280ED16DB120687A
:103B3000406920F0800021684861206B10B1206B43
:103B4000FEF7B0FC204602F0C7FD20684069C0F3D4
:103B5000801594F83A0022280ED16DB12068406992
:103B600020F0400021684861606B10B1606BFEF787
:103B700099FC204602F090FD002070BD70470000C7
:103B80002DE9F0470446206805682068C66820686B
:103B900047694FF00008C14605F00F08B8F1000F63
:103BA0000AD105F0200038B106F0200020B12046EF
:103BB00002F09CFDBDE8F087B8F1000F6DD007F072
:103BC000010018B906F49070002866D005F00100D5
:103BD00030B106F4807018B1E06B40F00100E06392
:103BE00005F0040030B107F0010018B1E06B40F0BF
:103BF0000200E06305F0020030B107F0010018B1E7
:103C0000E06B40F00400E06305F0080030B107F01D
:103C1000010018B1E06B40F00800E063E06B68B3AE
:103C200005F0200028B106F0200010B1204602F077
:103C30005DFD20684069C0F38019E06B00F008006A
:103C400010B9B9F1000F22D0204602F025FD2068FE
:103C5000406900F04000B0B12068406920F04000A9
:103C600021684861606B50B11748616B0865606BF3
:103C7000FEF76DFC10B1606B016D88470CE02046CB
:103C8000FFF77CFF08E02046FFF778FF04E02046BE
:103C9000FFF774FF0020E0638CE705F0800030B18F
:103CA00006F0800018B1204602F022FF82E705F0FE
:103CB000400030B106F0400018B1204602F0FCFC94
:103CC00078E700BF76E70000E165000810B504461C
:103CD0000CB9012010BDA06900B100E000BF94F84C
:103CE000390028B9002084F83800204600F028F870
:103CF000242084F839002068C06820F4005021682E
:103D0000C860204602F040FD2068006920F4904021
:103D1000216808612068406920F02A002168486114
:103D20002068C06840F400502168C8600020E0634B
:103D3000202084F8390084F83A000020CAE7000007
:103D400010B586B00446BD49206888427CD100BFCA
:103D500000200090BA48006840F48010B84908601C
:103D60000846006800F48010009000BF00BF88146F
:103D7000019002200290012003900320049008206B
:103D8000059001A9AF48FEF7BFFE04200190022074
:103D9000029001200390032004900820059001A9BF
:103DA000A948FEF7B1FEA948A9490860C0054860C6
:103DB0000021A7488160C1604FF48061016100214A
:103DC000416181614FF48071C161002101624162F2
:103DD000FEF7F2FC20B14FF48B719EA003F0F4F8D3
:103DE00000BF9B486063846300BF9848A830A04927
:103DF00008604FF00060486040219D4881600021CC
:103E0000C1604FF4806101610021416181614FF423
:103E10008071C161002101624162FEF7CDFC20B1D9
:103E20004FF494718BA003F0CFF800BF904820634B
:103E3000846300BF002211463520FFF713F83520B8
:103E4000FFF703F8F7E0FFE78A49206888427ED150
:103E500000BF002000907A48006840F400307849A4
:103E600008600846006800F40030009000BF00BF02
:103E7000042001900220029001200390032004906E
:103E80000720059001A97C48FEF73EFE40200190E6
:103E90000220029001200390032004900720059047
:103EA00001A96948FEF730FE684878307349086018
:103EB0004FF000604860002170488160C1604FF49D
:103EC000806101610021416181614FF48071C161B4
:103ED000002101624162FEF76FFC20B14FF4AE7128
:103EE0005CA003F071F800BF64486063846300BFA6
:103EF00056489030624908604FF0006048604021A9
:103F00005F4881600021C1604FF480610161002140
:103F1000416181614FF48071C161002101624162A0
:103F2000FEF74AFC20B14FF4B7714AA003F04CF8F9
:103F300000BF53482063846300BF0022114626203F
:103F4000FEF790FF2620FEF780FF74E0FFE74D4963
:103F5000206888426FD100BF002000903848006878
:103F600040F48020364908600846006800F480204C
:103F7000009000BF00BF4FF44070019002200290FB
:103F800001200390032004900720059001A92E48EA
:103F9000FEF7BAFD2D4818303B4908604FF000602D
:103FA0004860002138488160C1604FF48061016140
:103FB0000021416181614FF48071C1610021016282
:103FC0004162FEF7F9FB20B140F29B1121A002F003
:103FD000FBFF00BF2C486063846300BF1B48483070
:103FE0002A4908604FF000604860402127488160FE
:103FF0000021C1604FF48061016100214161816154
:104000004FF48071C161002101624162FEF7D4FB6F
:1040100020B140F2AD110FA002F0D6FF00BF1B4847
:104020002063846300BF002211462720FEF71AFF99
:104030002720FEF70AFF06B010BD00000050004028
:104040004038024000080240000C0240106002406C
:10405000140E01202E2E2F5372632F73746D333282
:10406000663478785F68616C5F6D73702E630000F2
:10407000740E01200044004000000240D40E0120D4
:10408000340F012000480040940F0120F40F01205C
:1040900077B581B00446154694F83A00202850D1EF
:1040A000029800B115B9012004B070BD00BF94F8AA
:1040B0003800012801D10220F6E7012084F83800F9
:1040C00000BF0298A062A5850020E063222084F84A
:1040D0003A001D48616BC8631C48616B08641C484A
:1040E000616BC8640020616B086502AE32682368AA
:1040F000191D2B46606BFEF7D5FB00BF002000901A
:1041000020680068009020684068009000BF00BFF1
:1041100000BF002084F8380000BF2068C06840F469
:1041200080702168C8602068406940F00100216803
:1041300048612068406940F04000216848610020E3
:10414000B2E70220B0E70000456600088B66000871
:10415000F5650008704770472DE9F84304460D46A1
:1041600016461F464FF0000994F8390020285CD10C
:1041700005B116B90120BDE8F88300BF94F83800F6
:10418000012801D10220F6E7012084F8380000BFA1
:104190000020E063212084F83900FEF7D5FD814638
:1041A000A684E6842BE0E08C401EE084A068B0F595
:1041B000805F16D14B46002280212046009702F0F6
:1041C000CBFC08B10320D6E7A846B8F80000C0F33E
:1041D000080021684860206908B9AD1C0FE06D1C1B
:1041E0000DE04B46002280212046009702F0B4FCEF
:1041F00008B10320BFE715F8010B21684860E08C87
:104200000028D0D14B46002240212046009702F0E2
:10421000A3FC08B10320AEE7202084F8390000BFDA
:10422000002084F8380000BFA5E70220A3E770470C
:1042300000B587B0FEF79AFD02F0F2F800F07CFCC2
:1042400000F036FC00F098FD00F0E4FB00F0C4FD47
:1042500000F0EAFD00F010FE1020029010480390DC
:104260000020049002A90F48FEF74EFC00221146E0
:104270000A20FEF7F7FD0A20FEF7E7FD00BF002049
:1042800001900948006840F08050074908600846DE
:10429000006800F08050019000BF00BF07B000BD73
:1042A00000002110000C02404038024008B500BF59
:1042B000002000900848006840F0805006490860DF
:1042C0000846006800F08050009000BF00BF012148
:1042D0000020FEF75FFE08BD4038024000BFFEE749
:1042E00010B5044614B1012C24D112E000224FF481
:1042F00000611148FEF722FD00224FF480610F4853
:10430000FEF71CFD00224FF4C0510C48FEF716FDCD
:1043100010E00122D1020848FEF710FD01229102AF
:104320000648FEF70BFD01224FF4C0510348FEF78B
:1043300005FD00BF00BF10BD00040240000C02409C
:1043400070B505460C468DB914B1012C0DD106E0AF
:1043500000224FF480612448FEF7F0FC05E00122C2
:1043600091022148FEF7EAFC00BF3BE0012D11D18C
:1043700014B1012C0DD106E000224FF400611B485E
:10438000FEF7DCFC05E00122D1021848FEF7D6FC5E
:1043900000BF27E0022D11D114B1012C0DD106E090
:1043A00000224FF400611048FEF7C8FC05E001222E
:1043B000D1020D48FEF7C2FC00BF13E0032D11D15E
:1043C00014B1012C0DD106E000224FF480510648B3
:1043D000FEF7B4FC05E0012211030348FEF7AEFC32
:1043E00000BF00BF70BD0000000C0240000402408E
:1043F00010B5044614B1012C0CD105E00022402177
:104400000548FEF79BFC00BF012240210248FEF751
:1044100095FC00BF00BF10BD0008024010B500228F
:104420004FF480610B48FEF789FC4FF4FA7002F0FC
:10443000F3FD012291020748FEF780FC4FF4FA7069
:1044400002F0EAFD00224FF480610248FEF776FC9C
:1044500010BD00000008024010B500224FF40041DA
:104460000B48FEF76BFC4FF4FA7002F0D5FD012209
:10447000D1030748FEF762FC4FF4FA7002F0CCFD5E
:1044800000224FF400410248FEF758FC10BD000026
:104490000000024010B50948007901280DD1042020
:1044A00000F01EFF0648007800F0800028B905489B
:1044B00000780C2801D100F081F810BD0C0100201B
:1044C000130100201C01002010B500F0B1F800F02D
:1044D000E3F80120FFF78CFFFFF7A0FFFFF7BCFF19
:1044E00010BD30B50446002200206378257803EB28
:1044F00005214FF6FD53994200D1012030BD000047
:1045000090BB07292FD2DFE801F02E040B121920EF
:104510002700294A127842F00102274B1A7022E044
:10452000254A127842F00202234B1A701BE0224AFD
:10453000127842F00402204B1A7014E01E4A1278DE
:1045400042F008021C4B1A700DE01B4A127842F030
:104550001002194B1A7006E0174A127842F08002D6
:10456000154B1A7000BF26E0FFE7012906D0072986
:104570000BD0082910D009291CD114E00E4A12785A
:1045800002F0FE020C4B1A7014E00B4A127802F093
:10459000F702094B1A700DE0074A127802F07F0209
:1045A000054B1A7006E0044A127802F0EF02024B43
:1045B0001A7000BF00BF70471301002000B589B01A
:1045C00009A207CA06AB07C30A4A183207CA8DE810
:1045D00007000A2206A903A8FBF735FE1421684646
:1045E00001F098FD09B000BD6C74655F686561728B
:1045F00074000000380A012010B5FDF71BFC00F024
:10460000800088B10948807801060848C07801EB2D
:1046100000410648007901EB00200449497944181B
:104620005B21024801F076FD10BD0000900A0120D8
:1046300010B5002240F242410448FEF77FFB002201
:104640004FF400410248FEF779FB10BD000802401C
:104650000000024010B5012291020E48FEF76EFBE9
:104660004FF4FA7002F0D8FC00224FF48061094840
:10467000FEF764FB4FF4FA7002F0CEFC01229102C7
:104680000448FEF75BFB002202210248FEF756FBBE
:1046900010BD00000008024010B5012202210248AE
:1046A000FEF74CFB10BD00000008024008B505A055
:1046B0000068009004220021684600F0B5F8002050
:1046C00008BD0000FFFFFFFF10B50446240400F002
:1046D00041F9002002F062FCD82001F047FAC4F34F
:1046E000074001F043FAC4F3072001F03FFAE0B2BB
:1046F00001F03CFA012002F051FC012002F08CFC98
:1047000000F08DF810BD00002DE9F04106460C4682
:104710001746002002F042FC032001F027FAC4F300
:10472000074001F023FAC4F3072001F01FFAE0B2BA
:1047300001F01CFA002506E007480560FF2001F0A3
:1047400015FA70556D1CBD42F6D3012002F026FC0F
:104750000120BDE8F0810000F800002010B5002421
:10476000002002F01BFC052001F000FA00BFFF2032
:1047700001F0FCF9044604F001000028F7D1012003
:1047800002F00CFC204610BD38B50446002002F0B3
:1047900005FC032001F0EAF9002001F0E7F9002010
:1047A00001F0E4F9002001F0E1F9FF2001F0DEF969
:1047B0008DF80000FF2001F0D9F98DF80100FF20ED
:1047C00001F0D4F98DF80200FF2001F0CFF98DF847
:1047D0000300012002F0E2FB9DF80000FF280DD14C
:1047E0009DF80100FF2809D19DF80200FF2805D19E
:1047F0009DF80300FF2801D1002038BD9DF800007E
:104800009DF80110183188409DF802101031884041
:104810009DF803100831884020600120EDE710B5B5
:10482000FFF79CFF10BD00002DE9F04781460F46C1
:1048300015464648464908604FEA17481FFA87FA66
:10484000CAF58036B54200D82E464FEA08413246B6
:104850003F480068FFF758FF3D480068007828444B
:104860003B4909684978183188403949096889788D
:104870001031884036490968C978083100FA01F4D6
:104880004FF6FF7084420FD3280E31490968087033
:10489000280C2F4909684870280A2D490968887032
:1048A0002B490968CD700EE0200E2949096808706F
:1048B000200C274909684870200A25490968887032
:1048C00023490968CC703DE0002408E00AEB0400AD
:1048D0001F490968085CFF2800D002E0641CB4424C
:1048E000F4D300BFB44217D24046FFF7EDFE0024D8
:1048F00007E019F8040004EB0A01154A1268505445
:10490000641CB442F5D34FEA08414FF4803210489A
:10491000006800F02AF804E032463946484600F0C4
:1049200024F8B54200D10EE008F101084FF0000A6A
:10493000B1443744AD1BB5F5803F02D94FF4803602
:1049400000E02E46C0E700BFBDE8F087EC01002084
:104950000001002010B5002002F020FB062001F02D
:1049600005F9012002F01AFB10BD2DE9F0410746C0
:104970000E461446F0B2C0F58075AC4200D825460C
:1049800011E02A463146384600F012F8AC4200D118
:104990000AE02F442E44641BB4F5807F02D94FF403
:1049A000807500E02546ECE700BFBDE8F08100001F
:1049B0002DE9F04106460C461746FFF7CBFF0020D5
:1049C00002F0ECFA022001F0D1F8C4F3074001F044
:1049D000CDF8C4F3072001F0C9F8E0B201F0C6F841
:1049E000002508E0705D01F0C1F809480068401C2E
:1049F000074908606D1CBD42F4D3012002F0CEFAD5
:104A0000012002F009FBFFF70AFFBDE8F08100007A
:104A1000FC0000201FB51E481E4908604FF480307E
:104A2000486000211B4881600121016100218161F2
:104A30000162C162184981620021C1600221C16125
:104A40000021016301214161FDF790FB18B1AA210A
:104A500012A002F0B9FA0C2000900120019005206C
:104A6000029069460B48FDF7F7F918B1B4210BA085
:104A700002F0AAFA0D200090022001906946054834
:104A8000FDF7EAF918B1BD2104A002F09DFA1FBD9F
:104A900000200140B40C01200100000F2E2E5C53B9
:104AA00072635C4253505C4253502E63000000001E
:104AB00008B500BF002000901E48006840F40010B8
:104AC0001C4908600846006800F40010009000BF10
:104AD00000BF002211460B20FEF7C4F90B20FEF7A1
:104AE000B4F9002211460C20FEF7BCF90C20FEF7A9
:104AF000ACF9002211460E20FEF7B4F90E20FEF7A5
:104B0000A4F9002211461020FEF7ACF91020FEF7A0
:104B10009CF9002211461120FEF7A4F91120FEF79E
:104B200094F9002211462F20FEF79CF92F20FEF762
:104B30008CF908BD3038024000B587B000BF0020B6
:104B400001908548006840F01000834908600846DD
:104B5000006800F01000019000BF00BF00BF0020FF
:104B600001900846006840F0800008600846006830
:104B700000F08000019000BF00BF00BF0020019046
:104B80000846006840F0040008600846006800F02D
:104B90000400019000BF00BF00BF00200190084644
:104BA000006840F0010008600846006800F001005D
:104BB000019000BF00BF00BF0020019008460068C0
:104BC00040F0020008600846006800F00200019012
:104BD00000BF00BF00BF002001900846006840F001
:104BE000080008600846006800F00800019000BF57
:104BF00000BF002240F242415848FEF79FF80122D0
:104C000018215748FEF79AF801224FF440615548A1
:104C1000FEF794F800224FF480615348FEF78EF8B7
:104C200001224FF4C0515048FEF788F800224FF49B
:104C300000414B48FEF782F84FF48270029000204A
:104C40000390049002A94948FDF75EFF40F24240FC
:104C500002900120039000200490059002A93F4893
:104C6000FDF752FF042002900320039000200490DF
:104C700002A93A48FDF748FF08200290012003905E
:104C800000200490059002A93548FDF73DFF102053
:104C900002900120039004900020059002A9304862
:104CA000FDF732FF4FF4047002900020039004904F
:104CB00002A92A48FDF728FF4FF4806002900120E6
:104CC000039004900020059002A92648FDF71CFFE0
:104CD0004FF40060029001200390002004900590A2
:104CE00002A92048FDF710FF4FF400500290204821
:104CF00003900020049002A91A48FDF705FF4FF425
:104D0000E05002900120039000200490059002A939
:104D10001548FDF7F9FE4FF4004002900120039082
:104D2000022004900020059002A90D48FDF7ECFE3A
:104D3000102002900F4803900020049002A90A4816
:104D4000FDF7E2FE002211460A20FEF78BF80A204A
:104D5000FEF77BF807B000BD303802400008024083
:104D60000000024000040240000C0240001002401B
:104D7000000011100000211010B510481049086003
:104D80004FF48270486000210D488160C1600221AB
:104D9000016101214161490281611021C16100214C
:104DA0000162416281620A21C162FEF765FC18B1AD
:104DB000D62104A002F008F910BD00000030014027
:104DC000FC0C01202E2E5C5372635C4253505C42FB
:104DD00053502E630000000010B50C480C490860C9
:104DE0004FF4E1304860002109488160C1600161F1
:104DF0000C21416100218161C161FEF767FF18B19B
:104E0000E92104A002F0E0F810BD000000500040CD
:104E1000540D01202E2E5C5372635C4253505C4251
:104E200053502E630000000010B50C480C49086078
:104E30004FF4E1304860002109488160C1600161A0
:104E40000C21416100218161C161FEF73FFF18B172
:104E5000FC2104A002F0B8F810BD0000004400409E
:104E6000940D01202E2E5C5372635C4253505C42C1
:104E700053502E630000000010B50C480C49086028
:104E80004FF416504860002109488160C1600161FB
:104E90000C21416100218161C161FEF717FF20B142
:104EA00040F20F1103A002F08FF810BD004800403F
:104EB000D40D01202E2E5C5372635C4253505C4231
:104EC00053502E630000000000BFFEE71CB500F049
:104ED000D5F81948007868BB01F0A2F8FCF7A4FFE8
:104EE000164908706846FCF7ABFF15480099016049
:104EF000BDF8041081809DF80610817101F03AFB25
:104F000002F0B2F8FCF772F808B900F06BFD00F09F
:104F1000F3F8FFF7BFFA0A48807901280AD10A217D
:104F20006846FCF773FE0748DDE9001206C006205C
:104F300000F0D6F91CBD0000300100201C0100204B
:104F40000C010020040100207047000002480068A6
:104F5000C0F30220704700000CED00E010B50028FF
:104F600007DA0A07140E054A00F00F031B1FD4547A
:104F700003E00A07130E024A135410BD18ED00E0B7
:104F800000E400E070B506460C461546062E36D005
:104F900006DC062E4DD2DFE806F012161A1E2A2E67
:104FA0000B2E38D006DC072E2DD0082E2FD00A2E3F
:104FB0003FD114E00C2E32D0FF2E3AD133E0002046
:104FC0001D49087035E001201B49087031E00220BE
:104FD000194908702DE003201749087029E00A20BC
:104FE00015490870012C01D11448056021E0042006
:104FF000114908701DE005200F49087019E00620CE
:105000000D49087015E007200B49087011E00820D1
:10501000094908700DE00B200749087009E00C20D1
:105020000549087005E0FFF717FA002002490870EB
:1050300000BF00BF70BD0000D4000020E0000020D1
:1050400010B510210C48FDF76DFE98B90A2001F04B
:10505000E3FF10210848FDF765FE012801D100207B
:1050600010BD00BF10210448FDF75CFE0028F9D0F8
:105070000120F5E70020F3E7000C024010B5FFF730
:10508000DFFF012814D10B48007858B902200949E4
:105090000870FFF7DFFA0020FFF7AAF90120FFF7F9
:1050A0001FF905E003480078022801D102F036F824
:1050B00010BD00003001002010B5044644B90021A5
:1050C000084600F043F8FE210120FFF719FA0CE032
:1050D0000848006838B90748FFF756FB012804D193
:1050E00001F03EF801E001F03BF806210020FFF757
:1050F00007FA10BD2401002010B5134800780C28D1
:1051000020D1FCF797FE00F0080048B10120FFF71E
:10511000D3FFFFF771FA06210120FFF7F1F911E043
:10512000FCF788FE00F0010060B10020FFF7C4FF2B
:10513000FFF762FA01210846FFF7E2F90621012094
:10514000FFF7DEF910BD00001C010020F8B5054690
:105150000E4600200090FE205949087048705948BA
:105160000068801D57490860554809680844564939
:105170000A6802604A684260896881605148006834
:105180000C3050490860514800680C304F490860A5
:10519000002D4ED14A494B4A126888181B224C49AF
:1051A000FBF751F8474800681B30464908604748FC
:1051B00000681B3045490860002429E04048414907
:1051C00009680144434800EB8400006808603D48DA
:1051D0000068001D3B4908603C480068001D3B49D1
:1051E000086037483749096801443A480C3000EBF9
:1051F000C40002680A6040684860324800680830AD
:105200003049086031480068083030490860641C43
:10521000032CD3D32A482B49096808442E490A682D
:1052200002604968416029480068083027490860E1
:1052300004E0264800683044244908602348006898
:10524000000E1F49887021480068000CC8701F4874
:105250000088000A08711D48007848711B480068E2
:10526000001D1A49086008460068801C086000207C
:10527000144908607D201249144A1268885468460F
:1052800001F0C6FE022405E00D490819694601F047
:10529000ACFE641C0D4800688442F5D30098C1B28E
:1052A00007480A4A126881540098C0F3072204494B
:1052B00006480068401C0A54002004490860F8BDF4
:1052C000900A012020010020A80C01202C010020C0
:1052D000EC0901200C0A01200401002070470000A5
:1052E000072821D2DFE800F004080C1014181C0075
:1052F00000210E4A117017E000210C4A517013E092
:1053000000210A4A91700FE00021084AD1700BE099
:105310000021064A117107E00021044A517103E09F
:105320000021024A917100BF00BF7047C0010020F8
:105330002DE9F04706460F4692461C464FF00008FE
:105340001D48FAF7B0FF1FFA80F949461A4800F0E5
:10535000E1FE002C2ED026E00A2001F05DFE174869
:10536000007A01281FD1002505E0705D2B2800D1AF
:1053700005E0681CC5B211484068A842F5D800BFD6
:10538000701901223946FBF7F1FE60B14FF00108B8
:1053900000200A490872962000F0A0FA012801D1E5
:1053A000BDE8F08702E0601E041ED5D100BF0CB935
:1053B0004FF000084046F3E734750008DC12012086
:1053C00070B5044600251348FAF76DFF86B23146E2
:1053D000104800F09FFED4B115E00A2001F01CFE39
:1053E0000D48007A01280CD10B49CA6814315018B5
:1053F0000A49FBF719FB20B1012500200649087274
:1054000004E004B90025601E041EE6D100BF68B2A6
:1054100070BD0000A6740008DC1201201C73000897
:1054200070B5044600251348FAF73DFF86B23146B1
:10543000104800F06FFED4B113E00A2001F0ECFD3B
:105440000D48007A01280CD10B49CA681431501854
:105450000A49FBF7E9FA20B1002007490872012543
:1054600002E0601E041EE8D100BF04B900252846F2
:1054700070BD000011740008DC1201201C730008CC
:105480002DE9F04104460D4600262846FAF70BFFA9
:1054900087B23946284600F03DFED4B113E00A2019
:1054A00001F0BAFD0C48007A01280CD10A49CA68FB
:1054B000143150180949FBF7B7FA20B10126002032
:1054C0000549087202E0601E041EE8D100BF04B95D
:1054D000002670B2BDE8F081DC1201209F73000845
:1054E00070B5044600251348FAF7DDFE86B2314652
:1054F000104800F00FFED4B113E00A2001F08CFD3B
:105500000D48007A01280CD10B49CA681431501893
:105510000A49FBF789FA20B10125002006490872E3
:1055200002E0601E041EE8D100BF04B9002568B285
:1055300070BD00004A740008DC1201201C730008D2
:1055400070B504460025D4B113E00A2001F064FDD3
:105550000C48007A01280CD10A49CA681431501845
:105560000949FBF761FA20B10020064908720125BC
:1055700002E0601E041EE8D100BF04B900252846E1
:1055800070BD0000DC1201202173000870B50446D4
:1055900000251348FAF787FE86B23146104800F01E
:1055A000B9FDD4B115E00A2001F036FD0D48007AAE
:1055B00001280CD10B49CA68143150180A49FBF76D
:1055C00033FA20B1012500200649087204E004B92D
:1055D0000025601E041EE6D100BF68B270BD000049
:1055E00091740008DC1201201C73000870B5044699
:1055F00000251748FAF757FE86B23146144800F0E6
:1056000089FD14B31DE00A2001F006FD1148007A5F
:10561000012814D10F49CA68143150180E49FBF7FC
:1056200003FA38B90B49CA68143150180B49FBF713
:10563000FBF920B1012500200649087204E004B9F5
:105640000025601E041EDED100BF68B270BD0000E0
:1056500085740008DC120120AF7300088473000811
:1056600070B5044600251948FAF71DFE86B231468A
:10567000164800F04FFD3CB320E00A2001F0CCFCBE
:105680001348007A012819D11149CA6814315018F9
:105690001049FBF7C9F920B100200D490872002517
:1056A0000FE00B49CA68143150180B49FBF7BCF9DD
:1056B00018B1012500200649087202E0601E041E90
:1056C000DBD100BF04B9002568B270BD4274000888
:1056D000DC120120637300087373000870B5044680
:1056E00000251348FAF7DFFD86B23146104800F076
:1056F00011FDD4B113E00A2001F08EFC0D48007AB0
:1057000001280CD10B49CA68143150180A49FBF71B
:105710008BF920B1002007490872012502E0601EC4
:10572000041EE8D100BF04B9002568B270BD0000B6
:105730002C740008DC1201201C73000870B50446AC
:1057400000251448FAF7AFFD86B23146114800F043
:10575000E1FCECB116E0012001F05EFC0E48007A9D
:1057600001280FD10C49CA68143150180B49FBF7B6
:105770005BF938B10125C82001F04EFC0020064934
:10578000087202E0601E041EE5D100BF04B90025C6
:1057900068B270BDDD730008DC1201201C730008C4
:1057A00070B5044600251448FAF77DFD86B23146EF
:1057B000114800F0AFFCE4B11048046013E00A2087
:1057C00001F02AFC0E48007A01280CD10C49CA6865
:1057D000143150180B49FBF727F920B10020084974
:1057E0000872012502E0601E041EE8D100BF04B962
:1057F000002568B270BD000022740008E40000209B
:10580000DC1201205473000870B5044600251348CB
:10581000FAF749FD86B23146104800F07BFCD4B15E
:1058200013E00A2001F0F8FB0D48007A01280CD1A2
:105830000B49CA68143150180A49FBF7F5F820B132
:10584000012500200649087202E0601E041EE8D10E
:1058500000BF04B9002568B270BD00001A750008C9
:10586000DC1201201C73000870B50446002554B3F7
:1058700023E0052001F0D0FB1448007A01281CD158
:105880001249CA68143150181149FBF7CDF878B99C
:105890000E49CA68143150180E49FBF7C5F838B9DB
:1058A0000A49CA68143150180B49FBF7BDF820B1FA
:1058B000012500200549087202E0601E041ED8D1AF
:1058C00000BF04B9002568B270BD0000DC120120E1
:1058D000F1730008BB730008E173000870B504465B
:1058E00000251348FAF7DFFC86B23146104800F075
:1058F00011FCD4B113E00A2001F08EFB0D48007AB0
:1059000001280CD10B49CA68143150180A49FBF719
:105910008BF820B1012500200649087202E0601EC4
:10592000041EE8D100BF04B9002568B270BD0000B4
:10593000D8730008DC1201209F73000870B504467C
:1059400000251348FAF7AFFC86B23146104800F044
:10595000E1FBD4B113E00A2001F05EFB0D48007AB0
:1059600001280CD10B49CA68143150180A49FBF7B9
:105970005BF820B1012500200649087202E0601E94
:10598000041EE8D100BF04B9002568B270BD000054
:1059900077740008DC1201201C7300080F4800789F
:1059A00048B10E4800780C2805D00D480068401C0E
:1059B0000B49086006E0094800780C2802D1002055
:1059C0000749086006480068142805D300200449E8
:1059D0000860FF200149087070470000D4000020D3
:1059E000D800002010B5FFF7D9FF5D4800780728E0
:1059F00033D007DC07281BD2DFE800F0131B253962
:105A0000434D57000B287BD006DC08286DD00928B1
:105A10005FD00A280CD152E00C287DD0FF28F9D1A4
:105A200083E0C820FFF78CFD012801D14C490870A4
:105A300081E04FF49670FFF7F3FC012802D10220B9
:105A40004749087077E04FF49670FFF7DDFE0128B4
:105A500002D10720424908706DE04FF49670FFF7BD
:105A60003DFE012802D103203D49087063E04FF458
:105A70009670FFF795FE012802D10420384908707E
:105A800059E04FF49670FFF7EBFD012802D1052095
:105A9000334908704FE04FF49670FFF721FD01285D
:105AA00002D106202E49087045E04FF49670FFF7AA
:105AB00045FF012802D10820294908703BE04FF436
:105AC0009670FFF77DFC012802D1FF202449087061
:105AD00031E04FF49670FFF759FD012802D10820FC
