:020000040800F2
:1000000098040020D100000881130008F5100008B2
:1000100000000000000000000000000000000000E0
:100020000000000000000000000000002114000893
:100030000000000000000000C9130008231400089D
:10004000E3000008E3000008E3000008E300000804
:10005000E3000008E3000008E3000008C707000809
:10006000E3000008E3000008E3000008E3000008E4
:10007000E3000008E3000008E3000008E3000008D4
:10008000E3000008E300000800000000E3000008AF
:10009000E3000008E3000008E3000008E3000008B4
:1000A000E3000008E3000008E3000008E3000008A4
:1000B000E300000800000000E30000080348854654
:1000C00000F04CFB00480047212200089804002063
:1000D0000448804704480047FEE7FEE7FEE7FEE7E6
:1000E000FEE7FEE775140008BD00000830B50B46BA
:1000F000014600202022012409E00D46D5409D4202
:1001000005D31D469540491B254695404019154687
:10011000521E002DF1DC30BD10B5202A04DB08464C
:10012000203AD040002110BD0B46D340D0402024BF
:10013000A21A91400843194610BDD2B201E00270E4
:10014000401C491EFBD270470022F6E710B513464B
:100150000A4604461946FFF7F0FF204610BD00008E
:10016000F0B51FB488B00B9909980024484009994C
:10017000C00F490049080991C0070B990090490038
:1001800049080B9109990898A64608431CD00B9979
:100190000A98084318D0099801244000420D4800ED
:1001A000410D099824050003000B204309900B988A
:1001B0000003000B20430B9050181C4940180022EC
:1001C00001901446104605E0002001460DB0F0BD38
:1001D000032801DA034600E003239C46C11A0AAE55
:1001E0000AE05F0008ADED5B4F00F75B7D43002741
:1001F000AA187C41491C5B1E6145F2DD410004AB3D
:100200005A522104120C0A43240C401C0828DFDB3C
:10021000019802900099704601910090059B049A04
:100220000799069800F0EAF8D0E700000DFCFFFF00
:1002300070B54B005B0803430BD04B005C0D0026F0
:1002400033466542B341D417AD1AA34102DB002007
:10025000014670BD12053018514170BD0EB5C21770
:10026000C10F5040CA0740180021054B029301926C
:1002700000910A460B4600F0C1F803B000BD000033
:10028000330400000EB505490291002100910A4691
:100290000B46019100F0B2F803B000BD330400003A
:1002A000C20FD207400040080BD0C10D0723DB016D
:1002B000C91840020905400A1143C208400711430A
:1002C0007047002001467047CB0FDB07490010B58F
:1002D000490802460A4307D00A0D07240903E4012E
:1002E000090B121B002A01DC002010BDC900440FBD
:1002F0000C43C100E018D205801800F031F810BDA1
:10030000F0B51FB40646002082B005464024019196
:1003100000901BE0019922460F463046FFF7FCFE95
:10032000049A059B801A994110D31046194622461B
:1003300000F026FA361A8F4101972246012000214B
:10034000009F00F01DFA38184D4100902046641EB1
:100350000028DFDC019B00982946324607B0F0BD3B
:10036000002904DA401C490001D1400840007047D0
:1003700070B40024050C05D11024000402D100291A
:1003800021D01124050E01D100020834050F01D13E
:100390000001241D850F01D18000A41C002801DB71
:1003A0004000641C002908D020252E1B0D46F54076
:1003B000A14000D001212943084301061B1B000A6C
:1003C000DB1D02D5002070BC7047DB0518188018B3
:1003D0000029F8DA401C4900F5D170BC4008400003
:1003E000704710B5002B08DA0024401C61419218B8
:1003F0005B411A4301D14008400010BDF0B51FB465
:1004000082B005460C0003D0084601F0D5F902E0A1
:1004100001F0D2F92030024600902146284600F033
:10042000AFF9049B059A04460F461843114308434D
:1004300014D0184610431BD0009840210A1A1846C1
:100440000599FFF769FE05460E46009A059904983E
:1004500000F096F9084305D0012004E02046394613
:1004600007B0F0BD0020C11705430E432C433743AE
:1004700000990E986305401A7905E40A00220C439E
:10048000FD0A0A3002D500200146E9E701051019EE
:1004900069410C9C0D9D00196941FFF7A2FFDFE740
:1004A000F0B507460846584087B0C00F0490480092
:1004B0000E46590040084908BC1A884105D2384602
:1004C00031461E4617460B46024658004008104368
:1004D0004CD0300D039040055900400D490D05905A
:1004E000401A0290402872DA18030121000B090516
:1004F0000843019004980092002805D001995242C7
:100500000020884100920190029840210A1A019926
:10051000009800F035F905460C466B4607CB00F015
:100520003FF9C0197141039A0E0D0023D7175640A9
:100530001A467A40164344D0049A002A2DD0029AD3
:10054000012A039A15DC1205C01A914101263605CD
:10055000001C7141D20F059ED207009301920296B2
:100560002A462346FFF74AFF07B0F0BD384631461A
:10057000FAE71605224A0F46B218C01AB741012100
:100580000905001C4F4100187F4111461818794198
:10059000E20F10436D19644113E0E2076D08154343
:1005A0006408C2071443039A01261205C01A914138
:1005B0003605001C7141CE07400830434908C01879
:1005C00051412A462346FFF70CFFCDE7FFE7049889
:1005D00001224000C117121A00238B4104983146B2
:1005E000C417381AA141EEE730B40124E407634090
:1005F00030BC55E730B40124E407614030BC4FE71C
:100600000000E0FFF0B50C465C4085B0E40FE40765
:1006100003944C0000266408590094464908024699
:100620000296224321D062460A431ED06200570D33
:100630004A000E032303550D012402462C492405CC
:10064000781B1B0B360B4018234326436146009052
:100650001C46501AB44103D30098401C009002E09D
:10066000921800985B41002803DA0020014605B08B
:10067000F0BD0020012109050746864611E06446C9
:100680001D46141BB54106D36546521BB341744643
:1006900007430C43A646CD07400849082843921853
:1006A0005B4105460D43EAD11046184313D060461E
:1006B000194650407140084306D06046101AB341B5
:1006C00006D20122002306E000220123DB0702E01C
:1006D0000122D2435310009874460105381C614131
:1006E000029C039D00196941FFF77BFEBFE70000F4
:1006F000FD0300004A0009030123090B1B051943F0
:100700000A4B10B5520D9A4202DA0020014610BD84
:10071000064B34339A4203DC9A1AFFF7FDFC10BDF6
:10072000034BD21800F02CF810BD0000FF030000AE
:10073000CDFBFFFF10B5002904DB0124E407404294
:100740008C412146002B04DB1C460123DB0752426F
:10075000A341994200D1904210BD0000064C0125F2
:10076000064E05E0E36807CC2B430C3C9847103459
:10077000B442F7D3FFF7A6FCE422000804230008E4
:1007800010B5202A04DB0146203A9140002010BD1C
:10079000914020239C1A0346E3401943904010BD2A
:1007A00010B5202A06DBCB170846203A1041C117A6
:1007B0000B4306E00B461341D0402024A21A91407F
:1007C0000843194610BD10B5202000F017F810BDE1
:1007D00031B500F0D3F8009C0546601C00D0641CC5
:1007E00000F0CCF8401BA042FAD338BD202802D13B
:1007F00001490120087070470800002010B5044925
:100800004A69024202D04861FFF7F0FF10BD0000C4
:1008100000040140F8B500238DE001249C40A4466B
:1008200022407DD04C68022C01D0122C0CD1DC0867
:10083000A40027183C6A5D07ED0E0F26AE40B443B6
:100840000E69AE4026433E6205685E000324B44054
:100850000F79A543BF07BF0FB7402F4307604D680F
:10086000012D05D0022D03D0112D01D0122D0ED156
:100870008568CF68A543B7402F43876047686546C2
:10088000AF430D79ED06ED0F9D403D434560C568D2
:10089000A5438C68B4402C43C4604C68E40049D53F
:1008A000284CA56901263543A561A4699D083440FB
:1008B0000094254CAD002F19BC689D072E0F0F2505
:1008C000B540AC430925ED06A84201D100250FE053
:1008D0001E4DA84201D101250AE01D4DA84201D1BB
:1008E000022505E01B4DA84201D1032500E00525A6
:1008F000B5402543BD60184C25684E689543F60306
:1009000000D51543256065684E689543B60300D54C
:1009100015436560A5684E689543F60202D500E070
:1009200008E01543A560E5684E689543B60200D51A
:100930001543E5605B1C0A681446DC4000D06CE798
:10094000F8BD000000100240000001400004004813
:1009500000080048000C00480004014000690840FD
:1009600000D00120704742694A4042617047002A26
:1009700001D08161704781627047000001480068C2
:10098000704700001400002002480168491C016003
:10099000704700001400002010B5064801681022BE
:1009A00011430160002000F007F800F017F8002064
:1009B00010BD00000020024010B5044600F0BCF855
:1009C0007D21C900FFF792FB00F0B2FA0022214618
:1009D000501E00F017F8002010BD000008B50848B0
:1009E0008169012211438161816911400091C269CD
:1009F00001040A43C261C0690840009008BD0000BC
:100A00000010024010B500F0BDFC10BDF8B5054661
:100A100044480E460068C007C00FB0420AD24148A1
:100A2000016849084900314301600068C007C00FF0
:100A3000B0425CD128783C4C800705D56068F02135
:100A40008843A968084360602878C0073FD0686879
:100A5000012813D02168022813D08907002946DA1B
:100A600061688908890001436160FFF787FF696851
:100A7000074601290DD0022917D024E021688903F7
:100A8000ECE78901EAE7FFF779FFC11B27488142BC
:100A900017D860680007800F0128F4D117E0FFF72E
:100AA0006DFFC11B214881420BD860680007800F91
:100AB0000228F4D10BE0FFF761FFC11B1B48814204
:100AC00001D90320F8BD60680007800FF3D11548F5
:100AD0000168C907C90FB1420BD90168490849002B
:100AE000314301600068C007C00FB04201D001204F
:100AF000F8BD2878400706D56068072109028843B9
:100B0000E9680843606000F02DF86168084A09064A
:100B1000090F515CC840074908600020FFF74CFFEF
:100B20000020F8BD002002400010024088130000A1
:100B3000CC2200081800002001480068704700001F
:100B4000180000200448054900684968044A49051E
:100B5000490F515CC8407047180000200010024047
:100B6000DC22000810B512A30FCB88B06C460FC46E
:100B700013A30FCB0FC416494A680C201346034039
:100B80001448042B0FD0082B0DD193021B0F6C4679
:100B9000E45CC96A04AB0907090F595CD20304D5A8
:100BA000FFF7A4FA604308B010BD0B486043FAE7B2
:100BB00002030405060708090A0B0C0D0E0F10109E
:100BC0000102030405060708090A0B0C0D0E0F109D
:100BD0000010024000127A0000093D00FEB50446F4
:100BE0000078D04DC00747D068680007800F012803
:100BF00007D068680007800F022809D16868C00321
:100C000006D52868800337D5606800287ED033E099
:100C1000012062680004012A11D08100002A01D05D
:100C2000052A10D02A6882432A60286888432860F1
:100C30006068002814D0FFF7A1FE06460CE0296882
:100C400001432960F4E72A680A432A60F7E7FFF7BF
:100C500095FE801B64286FD828688003F7D50BE0C9
:100C6000FFF78CFE064604E0FFF788FE801B642831
:100C7000F1D828688003F7D420780126800700285F
:100C80003BDA68680007800F07D068680007800FAC
:100C9000022809D16868C00306D42868800715D5E2
:100CA000E068012832D111E0E0680028286815D0FA
:100CB00030432860FFF762FE074604E0FFF75EFE60
:100CC000C01B0228C7D828688007F7D52868F821F4
:100CD00088432169C900084328600EE040084000AD
:100CE0002860FFF74BFE074604E0FFF747FEC01BF6
:100CF0000228B0D828688007F7D42078000724D5C8
:100D0000E0690028686A10D0304300E008E16862BA
:100D1000FFF734FE074604E0FFF730FEC01B022851
:100D200099D8686A8007F7D50FE0400840006862EC
:100D3000FFF724FE074605E09DE0FFF71FFEC01BFE
:100D4000022888D8686A8007F7D4207804274007EB
:100D5000002860DA00200190E869C00008D4E96941
:100D6000B8060143E961E969014001200091019061
:100D70006D480168C90511D40168821511430160ED
:100D8000FFF7FCFD009005E0FFF7F8FD0099401A21
:100D9000642870D864480068C005F5D5A0680128AB
:100DA0000AD0002801D0052810D0286A4008400049
:100DB0002862286AB84301E0286A30432862A068A4
:100DC000002812D0FFF7DAFD00900AE0286A3843C5
:100DD0002862F1E7FFF7D2FD0099411A534881429A
:100DE00049D8286A8007F5D50DE0FFF7C7FD0090C8
:100DF00006E0FFF7C3FD0099411A4C4881423AD8FA
:100E0000286A8007F5D40198002804D0E9690120F8
:100E100000078143E9612078C00635D56069012863
:100E20000CD0401D686B23D038436863686B400862
:100E300040006863FFF7A2FD064622E0686B384376
:100E40006863686B30436863FFF798FD064604E00B
:100E5000FFF794FD801B02285BD8686B8007F7D5ED
:100E6000686BF8218843A169C900084368630BE0F7
:100E7000B8436863F4E74CE0FFF780FD801B02286D
:100E800047D8686B8007F7D4206A002846D0696885
:100E90000907890F022943D001263606022828684F
:100EA00005D0B0432860FFF769FD044633E0B04346
:100EB0002860FFF763FD074604E0FFF75FFDC01BF6
:100EC000022826D828688001F7D4E86AE16A000978
:100ED00000010843E862616AA06A084369683D222C
:100EE0001204914308436860286830432860FFF784
:100EF00045FD044604E0FFF741FD001B022808D829
:100F000028688001F7D509E0FFF738FD001B0228AB
:100F100001D90320FEBD28688001F5D40020FEBD64
:100F20000120FEBD00100240007000408813000048
:100F3000094910B5401E884201D9012010BD074C57
:100F400060610321081F00F01DFA0020A061072046
:100F50002061002010BD0000FFFFFF0000E000E066
:100F600070B5040005D025466035687A002802D0A7
:100F700006E0012070BD00202872204600F026F80F
:100F800024206872206801684908490001602046F1
:100F900000F038FB0128EDD0606A002802D020461E
:100FA00000F096FA206841680922D202914341601C
:100FB000206881682A2291438160206801680122AB
:100FC00011430160204600F0E9FA70BD10B586B00B
:100FD000044614216846FFF7B7F812492068884292
:100FE0001DD11148C269012149040A43C261C26985
:100FF0000A40059242690A434261406908400590EF
:101000000C20009002200190002002900320039009
:101010000120049009206946C006FFF7FBFB06B0DB
:1010200010BD00000044004000100240FFB506461D
:1010300004466036707A83B00D46202858D1002DC2
:101040000CD00598002809D00120A1680003814236
:1010500007D12069002804D1E80702D0012007B099
:10106000F0BD307A012843D0012030720020E066C4
:1010700021207072FFF782FC0190274640370598C7
:1010800038820598788218E0788A401E788206981F
:101090000090002280212046019B00F04BFB00289D
:1010A00018D10120A1680003814202D120690028E3
:1010B00012D02168287808856D1C788A0028E3D131
:1010C00006980090002240212046019B00F032FB50
:1010D000002808D00320C2E728882168C005C00D79
:1010E0000885AD1CE9E72020707200203072B6E759
:1010F0000220B4E7FEE7000010B50F4C00224021AB
:101100002046FFF734FC00F075F9012280212046CB
:10111000FFF72DFC052000F0CCFF012240212046E6
:10112000FFF725FC052000F0C4FF002240212046E7
:10113000FFF71DFC10BD00000004004870B500243E
:1011400000F044F9104E0025002240213046FFF700
:101150000EFC052000F0ADFF012240213046FFF7D4
:1011600006FC6006040E80213046FFF7F7FB0028DE
:1011700001D0641CE4B2052000F09BFF6D1CEDB2B1
:10118000082DE1D3204670BD0004004870B5054627
:1011900000F030F9144E002240213046FFF7E7FB03
:1011A0000024E80901D0012200E00022802130461D
:1011B000FFF7DDFB6806050E052000F07AFF01222F
:1011C00040213046FFF7D3FB052000F072FF0022DC
:1011D00040213046FFF7CBFB052000F06AFF641C7E
:1011E000E4B2082CDDD370BD0004004810B500F057
:1011F00001F90E4C012280212046FFF7B8FB0122A5
:1012000040212046FFF7B3FB052000F052FF0022EB
:1012100080212046FFF7ABFB052000F04AFF0022AB
:1012200040212046FFF7A3FB10BD0000000400484A
:1012300010B500F0DFF80B4C002280212046FFF7AC
:1012400096FB012240212046FFF791FB052000F08C
:1012500030FF012280212046FFF789FB052000F0A6
:1012600028FF10BD0004004870B5144D0024012271
:1012700080212846FFF77BFB052000F01AFF00F0D5
:10128000A5F8012240212846FFF771FB052000F058
:1012900010FF05E0641CE4B2FA2C01D9012070BDF6
:1012A00080212846FFF75AFB0028F3D10022402175
:1012B0002846FFF75CFB002070BD000000040048DA
:1012C000F0B587B014216846FEF73EFF1D4842691D
:1012D000012149040A43426142690A400592426978
:1012E00049000A4342614069092608408C11F6060C
:1012F0000590002221463046FFF739FB124F0022AD
:10130000C0213846FFF733FB0094002401250195E6
:101310000294694630460394FFF77CFA202000903F
:101320000A480190694602943846FFF773FAC020D4
:10133000009002946946019503943846FFF76AFAD3
:1013400007B0F0BD0010024000040048000021106A
:1013500010B50A4808490160E121490241600021B5
:101360008160C16001618161C1610C2201624261E1
:101370004162FFF7F5FD10BD004400402800002049
:10138000704700008307FF22DB0E9A408907090E91
:10139000994000280BDA0007000F08388308084836
:1013A0009B001818C36993430B43C36170478308BC
:1013B00004489B001B181868904308431860704746
:1013C00000ED00E000E400E07047000000B585B0EB
:1013D00014216846FEF7B8FE80200090002001909E
:1013E0000290039069460248FFF714FA05B000BD69
:1013F0000004004800B585B014216846FEF7A4FE3D
:101400008020009001200190002002900390694606
:101410000248FFF7FFF905B000BD000000040048D6
:10142000704710B5FFF7B0FA10BD30B591B030215C
:101430006846FEF789FE00250D95012003900E9564
:1014400010200995022404900F9507200094800431
:101450000A900C9508940B956846FFF7BFFB072090
:101460000CA931C160020F9001210CA8FFF7CEFA40
:1014700011B030BD13480168012211430160416879
:10148000114A114041600168104A11400160016831
:10149000012292049143016041683F22120491436A
:1014A0004160C16A09090901C162016BFF2254321E
:1014B00091430163416B4908490041630021816008
:1014C00070470000001002400CB8FFF8FFFFF6FE66
:1014D00010B5818CC90707D001684A6801235B04F5
:1014E0009A43836A1A434A60818C890707D5016849
:1014F0004A6801231B049A43C36A1A434A60818CD9
:10150000490707D501684A6801239B049A43036B86
:101510001A434A60818C090707D501684A6801238C
:10152000DB039A43436B1A434A60818CC90607D593
:101530000268916801231B039943836B19439160EF
:10154000818C890607D501688A6801235B039A4369
:10155000C36B1A438A60818C490612D503685A68A6
:1015600001210905046C8A4322435A60026C8A42B5
:1015700007D10268516803235B059943436C194303
:101580005160818C090607D501684A680123DB0494
:10159000806C9A4302434A6010BD0000F8B50026F3
:1015A0000446C666FFF7EAF90546144920688842F2
:1015B0001DD10068124F000709D501212B460022DA
:1015C00049052046009700F0B5F800280DD12068A5
:1015D000006840070BD501212B46002289052046D3
:1015E000009700F0A7F8002801D00320F8BD2020C4
:1015F00060346072A07226720020F8BD003801408D
:10160000FFFFFF01F8B504462369A268E5691A43A4
:10161000636910202B43002125681A432B680E466E
:101620003E4F3B4013432B6023685A6803252D032C
:10163000AA43E5682A435A60236AA26925681A43C7
:10164000AB680B273F02BB431343AB60344A2568AA
:10165000954210D1334A126B9207920F0ED0012A95
:1016600005D0022A05D0032A09D1022007E0042070
:1016700005E0082003E02C4A954200D10020012219
:10168000E369D203934224D100280CD002280DD064
:10169000042813D0082817D001260A0912010807C8
:1016A000400F10432FE0FFF74DFA09E061681F4A31
:1016B00048088018FEF71AFD81B2EEE7FFF752FAEC
:1016C000616840004A08F4E7616801224808120492
:1016D000EFE7002808D0022809D004280BD00828FA
:1016E00014D001263046F8BDFFF72CFA05E06168FA
:1016F0000F4A48080CE0FFF735FA61684A0880187D
:10170000FEF7F4FC80B22168C860EBE76168480826
:101710008018FEF7EBFC80B2E860E3E7F369FFFFB7
:101720000038014000100240004400400024F40052
:1017300000127A00FFB581B017460E4604460A9D96
:101740001DE0681C1BD0002D05D0FFF717F9049988
:10175000401AA84213D920680168FF22A1329143A0
:101760000160206881684908490081602020603458
:101770006072A07200202072032005B0F0BD2068C6
:10178000C1693046884304D00020B842D9D0002037
:10179000F3E70120F9E700000FB410B503A9044BEB
:1017A000044A029800F0E8F810BC08BC04B01847DE
:1017B000C5200008040000202021020C01D01021C7
:1017C0001046020A01D010460839020901D010461D
:1017D000091F820801D01046891E420801D0881EC8
:1017E0007047081A704702E008C8121F08C1002A93
:1017F000FAD170477047002001E001C1121F002A92
:10180000FBD17047F0B51FB486B00998089A030D54
:101810000021024314D05148514A1818504305146E
:101820001198012810981AD0281A401C00264D4FF4
:101830004D49009601910490002812DA444211E0CB
:101840001198012449A3012801D11098C143069899
:10185000119A84600360C26041600BB0F0BD4042E9
:10186000E4E70446210500203F4A001C5141039152
:10187000029012E0E00707D032463B4601990098FB
:10188000FEF76EFC0191009032463B461046194629
:10189000FEF766FC06460F466410002CEAD1049859
:1018A000039B0028029A0999089806DAFEF758FC6B
:1018B000019B009AFEF754FC05E0FEF7A3FE019B96
:1018C000009AFEF79FFE04460E460022284BFEF7C4
:1018D00031FF03D80020C043014607E00022254B1A
:1018E00020463146FEF7DCFDFEF704FF102409E038
:1018F000002C0ADB0A220023FEF702FD079B303290
:101900001A55641E02460A43F2D11122641C079B39
:10191000121B1C19119B012B03D0012308430ED16C
:101920000AE0084304D0112010900020119077E7BE
:101930001098151A6D1E0BE01098824202DD0023EC
:101940006D1C03E0824201DA00236D1E002BEED0F5
:10195000069811998260C16030C07EE701FCFFFFEC
:10196000104D0000000014400000F03F3000000067
:101970000000F0430000E03FFFB597B006460025A9
:1019800018E2252877D100242746FD49049400E079
:101990000443761C32780120203A90400842F7D167
:1019A00030782A280ED002223078014630390929B1
:1019B00016D804990A235943303940181443761C29
:1019C0000490F1E7189802C804911890002904DAED
:1019D0000120400304434842049002200443761C43
:1019E00030782E2814D1042004437078761C2A28DD
:1019F00009D11898761C80C8189009E00A214F4335
:101A0000303FC719761C3078014630390929F5D99D
:101A100030786C2810D006DC4C281AD068280ED0FC
:101A20006A2817D104E0742813D07A2812D110E064
:101A30000120400504430CE00121090501E00321D8
:101A400009050C437178814203D101200005241857
:101A5000761C761C3078119066280BD013DC582841
:101A60007DD009DC00287BD04528F6D04628F4D06C
:101A700047281AD1A5E118E0632835D0642870D032
:101A8000652812D19DE170286CD008DC6728F1D060
:101A900069287BD06E280DD06F2806D1BAE0732854
:101AA0002ED0752871D0782859D01A9A1999904754
:101AB0006D1C7EE16002400F022809D003280DD082
:101AC0000428189801680DD00D60001D189070E171
:101AD0001898EA1701680D604A60F6E718980168DF
:101AE0000D80F2E70D70F0E718986A4601781172E0
:101AF000001D18900020507202A80090012005E0FF
:101B0000189802C8189000200091C04361070DD5B5
:101B1000002101E00199491C0191B94212DA814288
:101B2000F8DB009A515C0029F4D10BE0002101E0C0
:101B30000199491C01918142FADB019A0099895C63
:101B40000029F5D1019904981A9B471A2146384675
:101B5000199A00F097FA0199401945180BE04FE0E7
:101B60002CE113E04EE0009800990078491C0091A8
:101B70001A9A199990470198401E0190401CF2D181
:101B8000214638461A9B199A10E137E00A200021B5
:101B9000009001916002410F022907D0189A01CAF2
:101BA0001892C2179446032908D00AE01898C01D5D
:101BB000C108C90005C91891944607E000B2C217D0
:101BC0009446042902D140B2C1178C4600226146D6
:101BD000944506DA0A460021404291418C462D2167
:101BE00002E0210504D52B216A461173012103E08F
:101BF000E10701D02021F7E7029155E00A200AE031
:101C0000102008E0102000900021042004430191DE
:101C1000082703E008200021019100906002410F95
:101C2000022907D0189A01CA189200229446032963
:101C300008D008E01898C01DC108C90005C918914E
:101C4000944603E080B2042900D1C0B20021029181
:101C5000210729D51199702906D0009A1021019BDE
:101C60004A401A4305D00EE040216A461173012113
:101C700008E06146014306D030216A46117311998C
:101C8000517302210291009A0821019B4A401A4394
:101C90000AD16146014301D1610705D530216A4669
:101CA000117301217F1E02911199582904D035A189
:101CB0000E910DA90D910DE037A1F9E76146019B49
:101CC000009AFEF71DFB0E9B8C469B5C0D9A521EE4
:101CD0000D92137061460143F0D10D9805A9081AC1
:101CE00020300190600703D501200004844300E008
:101CF00001270198874201DD381A00E00020019990
:101D000000904118029809180498401A0490E003C2
:101D100006D421461A9B199A049800F0B3F9451984
:101D2000002706E003A81A9AC05D199990476D1C18
:101D30007F1C02988742F5DBE0030CD521461A9BF5
:101D4000199A049800F09EF9451904E01A9A302077
:101D5000199990476D1C0099481E00900029F5DCE8
:101D600008E00D980D990078491C0D911A9A19995F
:101D700090476D1C0199481E01900029F1DC63E138
:101D80000928010030313233343536373839616251
:101D90006364656600000000303132333435363715
:101DA00038394142434445460000000000F05AF9EA
:101DB0004519761C3078002800D0E2E528461BB093
:101DC000F0BD600700D406271898C01DC108C900DF
:101DD00048680A680831C30FDB071891190001D061
:101DE0009CA108E0210501D59BA104E0E10701D0F9
:101DF0009AA100E09AA1430011985B081091652810
:101E00000CD006DC452809D046281DD0472841D1F2
:101E100041E0662818D067283CD13CE00021112F12
:101E200001DB112000E0781C0191009008A911A8A5
:101E3000FFF7E8FC139905910021119A15927F1C78
:101E400012980197009150E00120C00703900120F3
:101E5000019008A9009711A8FFF7D4FC139A1499D0
:101E600005920022119B009212981593059A0192F7
:101E7000002901D0104602E0791C40180190381A60
:101E800001D5019804E04042401E0090781C01906A
:101E9000C01B029043E0012F00DA01270021112F1F
:101EA00001DD112000E038460191009008A911A839
:101EB000FFF7A8FC13990591119A00211298159229
:101EC0000091019721070CD40599B94201DB0199D2
:101ED00000E00191012904DD159A491E515C302969
:101EE00006D0B84201DA011D05DA0121029115E0A0
:101EF0000199491EEDE7002805DC00994118009181
:101F00000199091A03E0019A411C914200DD0191F7
:101F10000099401A401C02900120C007039020073E
:101F200006D402990198814202DB0020C04302904E
:101F300000206946C87707AF012103980337C90716
:101F4000884224D0022011902B2012900398002860
:101F50000CDA404203902D20129007E00A210398EA
:101F6000FEF7C4F830317F1E039039701199481E76
:101F700011900029F2DC03980028EFD1791E129805
:101F800008703078202108404530BF1E387006A800
:101F9000C01BC01D039010980078002800D00120BD
:101FA000019941180298C017091803980918049854
:101FB000401A401E0490E00306D421461A9B199A49
:101FC000049800F05FF8451910980078002803D0B5
:101FD0001A9A199990476D1CE00324D521461A9B43
:101FE000199A049800F04EF845191CE00098002852
:101FF00007DB00990598884203DD1598405C199924
:1020000001E0199930201A9A904700986D1C401CE5
:1020100000900298401E0290002804D11A9A2E20A7
:10202000199990476D1C0199481E01900029DDDC2B
:1020300005E038781A9A7F1C199990476D1C03990E
:10204000481E03900029F4DC21461A9B199A049833
:10205000ACE600002D0000002B0000002000000076
:1020600000000000F8B5044600251E461746880407
:1020700004D405E039462020B0476D1C641EF9D514
:102080002846F8BDFFB50446002581B01E46C803AA
:1020900001D5302700E02027880404D505E0384624
:1020A0000399B0476D1C641EF9D5284605B0F0BDF4
:1020B0007047002805D00221491C6429FCD3401E2A
:1020C000F9D1704708B56946087002230122024819
:1020D000FEF7ACFF08BD000028000020F3B581B07A
:1020E00000F022F8302108421CD008200024FEF71E
:1020F000C9F80D46064601986100405EFEF7AEF84D
:102100000E22D243FEF794F832462B46FEF728F80B
:10211000FEF7DAF8A2000299641CE4B28850032C9E
:10212000E9D3FEBD0220E1E710B5092000F040F838
:102130000149487010BD00000000002010B50121C9
:102140000B2000F055F80B2000F032F80849087019
:102150004021202000F04CF80121212000F048F817
:102160001D21092000F044F80A20FFF7A1FF10BD4F
:102170000000002070B50446012000F019F80502A7
:10218000002000F015F805432580032000F010F82A
:102190000502022000F00CF805436580052000F0E0
:1021A00007F80502042000F003F80543A58070BD80
:1021B00010B50446FFF71AF81A20FEF7E7FFFFF7FD
:1021C00053F82046FEF7E2FFFFF74EF8FFF730F82E
:1021D000FFF70CF81B20FEF7D9FFFFF745F8FEF7D5
:1021E000ADFF0446FEF788FFFFF722F8204610BD3A
:1021F00070B50D460446FEF7F9FF1A20FEF7C6FF3C
:10220000FFF732F82046FEF7C1FFFFF72DF828460A
:10221000FEF7BCFFFFF728F8FFF70AF870BD0000D3
:102220001FB5FEF7B9FBFFF700F9FFF749F8FFF715
:102230008FF8FFF783FF174C012109200903C0061F
:10224000FEF791FB1448FFF795FF12491248FFF77C
:1022500045FF7D20C000FEF7BBFAA068FEF720F81E
:10226000074600916068FEF71BF805460E46206899
:10227000FEF716F80B46009903916946E0C1024645
:1022800006A0FFF789FA04480621415E0AA0FFF77D
:1022900083FAD1E71C0000200A0000204D616E6522
:1022A0007469633D2025662020202020256620209B
:1022B0002020202566200000202074656D70657246
:1022C00061747572653D2025640A000000000000FD
:1022D00000000000010203040607080900000000D6
:1022E0000102030404230008000000201C00000079
:1022F000E6170008202300081C0000207C040000D2
:10230000F6170008000000000000000000000000B8
:1023100000000000000000000000000000127A0031
:04000005080000BD32
:00000001FF
