:020000040800F2
:10000000A8150020D1000008E51800080D1600080A
:1000100000000000000000000000000000000000E0
:10002000000000000000000000000000B9190008F6
:10003000000000000000000061190008BB19000862
:10004000E3000008E3000008E3000008E300000804
:10005000E3000008E3000008E3000008ED080008E2
:10006000E3000008E3000008E3000008E3000008E4
:10007000E3000008E3000008E3000008E3000008D4
:10008000E3000008E300000800000000E3000008AF
:10009000E3000008E3000008E3000008E3000008B4
:1000A000E3000008E3000008E3000008E3000008A4
:1000B000E300000800000000E30000080348854654
:1000C00000F002FC00480047E5290008A8150020C0
:1000D0000448804704480047FEE7FEE7FEE7FEE7E6
:1000E000FEE7FEE72D1A0008BD00000830B50B46FC
:1000F000014600202022012409E00D46D5409D4202
:1001000005D31D469540491B254695404019154687
:10011000521E002DF1DC30BD10B5202A04DB08464C
:10012000203AD040002110BD0B46D340D0402024BF
:10013000A21A91400843194610BDD2B201E00270E4
:10014000401C491EFBD270470022F6E710B513464B
:100150000A4604461946FFF7F0FF204610BDF8B5E1
:1001600002464A40D40F42004B0052085B089A42B4
:1001700002D20246084611464A0023D0C30D4A0067
:10018000DDB2120EAD1A202D35DA49020126490AD8
:10019000F6058A19002C00D0524220214F1B11462F
:1001A000B9402A411018C20D9A4221D0002C17D014
:1001B000012D08DCDA05801AD20F8019D207DBB2D4
:1001C00000F0C9FAF8BDDA05801A012340001B06C9
:1001D000C01880185A428018CA0F1043490007E01F
:1001E0004908C2071143DA05801A801940088018AF
:1001F00000F0A9FAF8BD61000122511A001BF7E7CF
:100200000122D2075140AAE70122D2075040A6E7B7
:1002100070B502464A40D50F40004A00ED0740083D
:100220005208002814D0002A12D0C40DD30D410268
:100230000120C0055202490A520AE41A091812188C
:100240007D34914201D3641C00E04900002C01DAA6
:10025000002070BD0023914201D3891A0343400856
:1002600049000028F7D100290AD0914202D101218A
:10027000C90705E0914201D2012101E00121C943F2
:10028000E005C018401900F05EFA70BDF0B50746F1
:100290000846584087B0C00F049048000E465900E9
:1002A00040084908BC1A884105D2384631461E46E6
:1002B00017460B4602465800400810434CD0300DFC
:1002C000039040055900400D490D0590401A0290D9
:1002D000402872DA18030121000B09050843019038
:1002E00004980092002805D00199524200208841CC
:1002F00000920190029840210A1A0199009800F09A
:10030000FFF905460C466B4607CB00F009FAC01909
:100310007141039A0E0D0023D71756401A467A40B2
:10032000164344D0049A002A2DD0029A012A039A37
:1003300015DC1205C01A914101263605001C7141D9
:10034000D20F059ED2070093019202962A462346B9
:1003500000F047FA07B0F0BD38463146FAE7160517
:10036000224A0F46B218C01AB74101210905001CE4
:100370004F4100187F41114618187941E20F104390
:100380006D19644113E0E2076D0815436408C20764
:100390001443039A01261205C01A91413605001C28
:1003A0007141CE07400830434908C01851412A46E0
:1003B000234600F009FACDE7FFE704980122400048
:1003C000C117121A00238B4104983146C417381AFA
:1003D000A141EEE730B40124E407634030BC55E7A7
:1003E00030B40124E407614030BC4FE70000E0FF77
:1003F000F0B51FB488B00B990998002448400999BA
:10040000C00F490049080991C0070B9900904900A5
:1004100049080B9109990898A64608431CD00B99E6
:100420000A98084318D0099801244000420D48005A
:10043000410D099824050003000B204309900B98F7
:100440000003000B20430B9050181C494018002259
:1004500001901446104605E0002001460DB0F0BDA5
:10046000032801DA034600E003239C46C11A0AAEC2
:100470000AE05F0008ADED5B4F00F75B7D430027AE
:10048000AA187C41491C5B1E6145F2DD410004ABAA
:100490005A522104120C0A43240C401C0828DFDBAA
:1004A000019802900099704601910090059B049A72
:1004B0000799069800F095F9D0E700000DFCFFFFC2
:1004C000F0B50C465C4085B0E40FE40703944C00A3
:1004D00000266408590094464908024602962243C1
:1004E00021D062460A431ED06200570D4A000E0317
:1004F0002303550D012402462C492405781B1B0BB0
:10050000360B401823432643614600901C46501A80
:10051000B44103D30098401C009002E09218009868
:100520005B41002803DA0020014605B0F0BD002041
:10053000012109050746864611E064461D46141B45
:10054000B54106D36546521BB341744607430C437D
:10055000A646CD0740084908284392185B41054646
:100560000D43EAD11046184313D060461946504057
:100570007140084306D06046101AB34106D20122EA
:10058000002306E000220123DB0702E00122D24320
:100590005310009874460105381C6141029C039D6C
:1005A0000019694100F010F9BFE70000FD030000E9
:1005B00010B500229623114600F0CDF810BD0000C2
:1005C0000EB5C217C10F5040CA0740180021054B95
:1005D0000293019200910A460B4600F002F903B023
:1005E00000BD0000330400000EB505490291002152
:1005F00000910A460B46019100F0F3F803B000BDEC
:1006000033040000C20FD207400040080BD0C10DD8
:100610000723DB01C91840020905400A1143C2083B
:1006200040071143704700200146704710B500296C
:1006300004DB0124E40740428C412146002B04DB0B
:100640001C460123DB075242A341994200D190424C
:1006500010BD0000CB0FDB07490010B5490802466A
:100660000A4307D00A0D07240903E401090B121BF2
:10067000002A01DC002010BDC900440F0C43C1005A
:10068000E018D205801800F05EF810BD0122D207F4
:10069000002800DB101A002900DB511A8142704744
:1006A000F0B51FB40646002082B0054640240191F3
:1006B00000901BE0019922460F463046FFF72CFDC3
:1006C000049A059B801A994110D310461946224678
:1006D00000F016F8361A8F410197224601200021BA
:1006E000009F00F00DF838184D4100902046641E20
:1006F0000028DFDC019B00982946324607B0F0BD98
:1007000010B5202A04DB0146203A9140002010BD9C
:10071000914020239C1A0346E3401943904010BDAA
:1007200010B5202A06DBCB170846203A1041C11726
:100730000B4306E00B461341D0402024A21A9140FF
:100740000843194610BD002904DA401C490001D1B4
:1007500040084000704770B40024050C05D11024F7
:10076000000402D1002921D01124050E01D100027C
:100770000834050F01D10001241D850F01D180002F
:10078000A41C002801DB4000641C002908D020259F
:100790002E1B0D46F540A14000D0012129430843FE
:1007A00001061B1B000ADB1D02D5002070BC704730
:1007B000DB05181880180029F8DA401C4900F5D12B
:1007C00070BC40084000704710B5002B08DA0024C8
:1007D000401C614192185B411A4301D1400840001E
:1007E00010BDF0B51FB482B005460C0003D008461A
:1007F00001F048FB02E001F045FB2030024600908A
:1008000021462846FFF77CFF049B059A04460F46C5
:1008100018431143084314D0184610431BD00098C6
:1008200040210A1A18460599FFF776FC05460E4640
:10083000009A05990498FFF763FF084305D001204B
:1008400004E02046394607B0F0BD0020C11705433B
:100850000E432C43374300990E986305401A7905DF
:10086000E40A00220C43FD0A0A3002D500200146AA
:10087000E9E70105101969410C9C0D9D00196941BA
:10088000FFF7A2FFDFE700004A0009030123090B7D
:100890001B0519430A4B10B5520D9A4202DA00208B
:1008A000014610BD064B34339A4203DC9A1AFFF717
:1008B00033FC10BD034BD218FFF722FF10BD000020
:1008C000FF030000CDFBFFFF064C0125064E05E0AF
:1008D000E36807CC2B430C3C98471034B442F7D361
:1008E000FFF7F0FB282F0008482F000810B5202044
:1008F00000F00AF810BD7047202802D10121014AFA
:10090000117070471000002010B50446054840697A
:100910002040002804D0034844612046FFF7ECFF44
:1009200010BD00000004014078B5034600220024F9
:100930000020DEE0012696400D6835402C46002C54
:100940007ED04D68022D02D04D68122D15D1D508EC
:10095000AE001D462035A8595507EE0E0F25B540AF
:100960000646AE4330465607F60E0D69B54028439D
:10097000D508AD001E462036705118685600032574
:10098000B5400646AE4330460D79AD07AD0F560073
:10099000B540284318604D68012D08D04D68022DE0
:1009A00005D04D68112D02D04D68122D18D19868D0
:1009B00056000325B5400646AE4330465600CD6886
:1009C000B540284398605868012595400646AE43D7
:1009D000304610264D6835402D0995402843586013
:1009E000D86856000325B5400646AE43304656004B
:1009F0008D68B5402843D860012636074D683540DC
:100A0000B54275D100BF3E4DAD69012635433C4E20
:100A1000B5613546AD69ED07ED0F009500BF00BF2C
:100A2000384D9608B600A85995072E0F0F25B540EA
:100A30000646AE4330460925ED06AB4203D100E041
:100A400056E000250FE0304DAB4201D101250AE010
:100A50002E4DAB4201D1022505E02D4DAB4201D117
:100A6000032500E005259607360FB5402843254DA0
:100A70009608B600A851274D28680546A543284684
:100A8000012636044D683540B54202D1054625435E
:100A90002846204D286068680546A543284601265B
:100AA00076044D683540B54202D1054625432846B7
:100AB000184D6860A8680546A543284601263605F6
:100AC0004D683540B54202D1054625432846114DB3
:100AD000A860E8680546A5432846012676054D68C6
:100AE0003540B54202D1054625432846094DE86008
:100AF000521C0D68D540002D00D01BE778BD0000CA
:100B000000100240080001400004004800080048AE
:100B1000000C004800040140024613690B40002B02
:100B200001D0012000E00020704742694A40426144
:100B30007047002A01D0816100E0816270470000A7
:100B40000148006870470000180000200248006853
:100B5000401C0149086070471800002010B5064885
:100B600000681021084304490860002000F006F8DE
:100B700000F018F8002010BD0020024070B50446B7
:100B800000F010F906467D21C900FFF7AFFA0546CF
:100B900000F028FC00222146501E00F02FF8002013
:100BA00070BD000008B500BF0D48806901210843F1
:100BB0000B49886108468069C007C00F009000BFDC
:100BC00000BF00BF0846C069090408430449C86162
:100BD0000846C06909040840009000BF00BF08BD76
:100BE0000010024000BFC206D20E01219140024A0D
:100BF000116000BF7047000000E100E070B50446DE
:100C00000D4616462946204600F06EFE70BD0000D7
:100C100070B504460D4600265D480068C007C00F49
:100C2000A8420ED25A48006840084000284358495C
:100C3000086008460068C007C00FA84201D0012024
:100C400070BD022120680840022807D15148406841
:100C5000F0218843A16808434E4948602078C007C6
:100C6000C00F00285FD06068012808D1494800689B
:100C7000012149040840002815D10120E0E76068FF
:100C8000022808D14348006801214906084000288D
:100C900009D10120D4E73F4800680221084000281C
:100CA00001D10120CCE73B484068800880006168A2
:100CB000084338494860FFF743FF0646606801284B
:100CC0000FD107E0FFF73CFF801B3349884201D971
:100CD0000320B5E72F4840680C2108400428F1D1D3
:100CE00021E0606802280FD107E0FFF729FF801B91
:100CF0002949884201D90320A2E7264840680C21EF
:100D000008400828F1D10EE007E0FFF719FF801B2B
:100D10002149884201D9032092E71E4840680C21EE
:100D200008400028F1D11A480068C007C00FA84247
:100D30000ED917480068400840002843144908604D
:100D400008460068C007C00FA84201D0012077E71D
:100D5000042120680840042808D10E484068072173
:100D600009028843E16808430A49486000F032F804
:100D700008494968F02211400909084A515CC840F5
:100D8000074908600020FFF7F9FE002058E700003F
:100D9000002002400010024088130000102F0008BD
:100DA0001C00002001480068704700001C00002063
:100DB00000B5FFF7F7FF0549496807221202114005
:100DC000090A034A515CC84000BD000000100240FF
:100DD000202F0008F0B589B024A001460EC9C068D4
:100DE00005AC0EC4089025A001460EC9C06801AC30
:100DF0000EC4049000240027002500260020009047
:100E0000224844680C202040002827D0042802D023
:100E1000082822D102E01E48009022E00F20800422
:100E20002040800C05A90E5C1848C06A0007000F1E
:100E300001A90F5C0120000420400121090488421F
:100E400006D139461248FFF751F97043054602E0D2
:100E5000104835464543009503E000BF0C4800901C
:100E600000BF00BF009809B0F0BD000002030405F8
:100E7000060708090A0B0C0D0E0F101001020304DF
:100E800005060708090A0B0C0D0E0F100010024092
:100E900000127A0000093D00F8B5044600252078CC
:100EA000C007C00F002871D0F94840680C210840E5
:100EB00004280BD0F64840680840082812D1F448AE
:100EC000406801210904084088420BD1F0480068BD
:100ED00001214904084000286BD06068002868D1CF
:100EE0000120F8BD00BF6068012807D1E84800680C
:100EF000012109040843E649086031E060680028E0
:100F00000ED1E3480068012109048843E0490860E4
:100F100008460068012189048843DD4908601FE014
:100F2000606805280ED1DA48006801218904084369
:100F3000D749086008460068012109040843D449DC
:100F400008600DE0D2480068012109048843D049B7
:100F5000086008460068012189048843CC4908607C
:100F600000BF6068002812D0FFF7EAFD054606E0E2
:100F7000FFF7E6FD401B642801D90320B1E7C44810
:100F800000680121490408400028F1D011E0FFF772
:100F9000D7FD054606E0FFF7D3FD401B642801D9C5
:100FA00003209EE7BA480068012149040840002850
:100FB000F1D1022120680840022861D1B44840687C
:100FC0000C21084000280BD0B14840680840082890
:100FD0001BD1AF484068012109040840002814D102
:100FE000AB48006802210840002804D0E0680128CE
:100FF00001D0012075E7A6480068F82188432169DF
:10100000C9000843A24908603AE0E068002820D0FF
:101010009F480068012108439D490860FFF790FD43
:10102000054606E0FFF78CFD401B022801D903208E
:1010300057E797480068022108400028F2D09448FA
:101040000068F82188432169C90008439049086075
:1010500016E08F480068400840008D490860FFF79F
:101060006FFD054606E0FFF76BFD401B022801D926
:10107000032036E786480068022108400028F2D1A4
:10108000082120680840082831D1E069002817D0DD
:101090007F48406A012108437D494862FFF750FDBF
:1010A000054606E0FFF74CFD401B022801D903204E
:1010B00017E77748406A022108400028F2D016E07E
:1010C0007348406A4008400071494862FFF738FDA4
:1010D000054606E0FFF734FD401B022801D9032036
:1010E000FFE66B48406A022108400028F2D1042143
:1010F00020680840042871D100266548C069890627
:10110000084000280DD100BF6148C069084360490C
:10111000C8610846C06909040840009000BF00BFCC
:1011200001265C480068FF2101310840002816D1E3
:1011300058480068084357490860FFF701FD054615
:1011400006E0FFF7FDFC401B642801D90320C8E638
:1011500050480068FF21013108400028F1D000BF4D
:10116000A068012806D14A48006A0121084348497D
:1011700008622BE0A06800280CD14548006A4008AE
:101180004000434908620846006A042188434049F8
:1011900008621BE0A06805280CD13D48006A0421C4
:1011A00008433B4908620846006A01210843384960
:1011B00008620BE03648006A400840003449086283
:1011C0000846006A042188433149086200BFA068CC
:1011D000002813D0FFF7B4FC054608E029E0FFF72C
:1011E000AFFC401B2C49884201D9032079E62848EE
:1011F000006A022108400028F1D011E0FFF7A0FCAE
:10120000054607E0FFF79CFC401B2349884201D9B3
:10121000032066E61E48006A022108400028F1D13A
:10122000012E05D11A48C069310788431849C861A1
:1012300000BF10212068084010285FD16069012894
:101240002CD11348406B04210843114948630846D8
:10125000406B012108430E494863FFF771FC0546C6
:1012600006E0FFF76DFC401B022801D9032038E699
:101270000748406B022108400028F2D00448406B28
:10128000F8218843A169C90008430149486335E052
:101290000010024000700040881300006069401D8B
:1012A00000280FD14E48406B042188434C494863C5
:1012B0000846406BF8218843A169C90008434849A2
:1012C00048631BE04648406B042108434449486397
:1012D0000846406B400840004863FFF731FC054674
:1012E00006E0FFF72DFC401B022801D90320F8E59A
:1012F0003B48406B022108400028F2D1206A0028B8
:101300006CD0374840680C210840082864D0206A17
:10131000022847D132480068012109068843304934
:101320000860FFF70DFC054606E0FFF709FC401BCF
:10133000022801D90320D4E5294800680121490683
:1013400008400028F1D100BF2548C06A000900010B
:10135000E16A08432249C862616AA06A08432049D9
:1013600049683D221204914308431D49486000BF6B
:101370000846006801210906084319490860FFF77B
:10138000DFFB054606E0FFF7DBFB401B022801D927
:101390000320A6E5124800680121490608400028FC
:1013A000F1D01BE00E4800680121090688430C4972
:1013B0000860FFF7C5FB054606E0FFF7C1FB401BD1
:1013C000022801D903208CE505480068012149065F
:1013D00008400028F1D101E0012082E5002080E5ED
:1013E0000010024070B504462546681E094988422F
:1013F00001D901200CE0681E074948610321081F3C
:1014000000F072FA0020044988610720086100207A
:1014100070BD0000FFFFFF0000E000E010B50446D3
:10142000002C01D1012010BDA069002800D000E0EF
:1014300000BF6920005D002805D10021682001550A
:10144000204600F02DF8242169200155206800680D
:101450004008400021680860204600F0D9FB0128C0
:1014600000D1E0E7606A002802D0204600F018FBB7
:10147000206840680921C9028843216848602068C3
:1014800080682A21884321688860206800680121DB
:10149000084321680860204600F07AFBC3E700009B
:1014A00010B586B00446142101A8FEF74DFE194977
:1014B000206888422CD100BF1748C0690121490427
:1014C00008431549C8610846C0690121490408401C
:1014D000009000BF00BF00BF0F48406908430E499D
:1014E000486108464069012149040840009000BF56
:1014F00000BF0C20019002200290002003900320E6
:1015000004900120059001A90920C006FFF70CFAFC
:1015100006B010BD0044004000100240FEB5044675
:101520000D4616461F46002001906920005D2028C8
:101530006AD1002D01D0002E01D10120FEBD012174
:101540000903A068884208D12069002805D1E8076E
:10155000C00F002801D00120F0E700BF6820005D27
:10156000012801D10220E9E701216820015500BFCF
:101570000020E066212169200155FFF7E1FA019082
:10158000502006535220065325E05220005B401E97
:1015900081B2522001530097002280212046019BF6
:1015A00000F028FC002801D00320C7E7012109032F
:1015B000A06888420BD12069002808D10295029DBD
:1015C0002888C005C00D21680885AD1C03E0287877
:1015D0006D1C216808855220005B0028D5DC00972F
:1015E000002240212046019B00F004FC002801D08D
:1015F0000320A3E720216920015500BF00216820B6
:10160000015500BF002099E7022097E700BFFEE7E1
:1016100010B5002240210D48FFF78BFA00F0B6F913
:10162000012280210948FFF784FA052001F0B2F871
:10163000012240210548FFF77CFA052001F0AAF8B5
:10164000002240210148FFF774FA10BD0004004851
:1016500070B5002400F086F900251BE0002240212F
:101660000E48FFF766FA052001F094F801224021A8
:101670000A48FFF75EFA6006040E80210748FFF76C
:101680004BFA002801D0601CC4B2052001F082F89A
:10169000681CC5B2082DE1DB204670BD000400487F
:1016A00070B5044600F072F9002240211748FFF798
:1016B00040FA002526E080202040C011002805D0F7
:1016C000012280211148FFF734FA04E00022802132
:1016D0000E48FFF72EFA6006040E052001F05AF8B6
:1016E000012240210948FFF724FA052001F052F8B1
:1016F000002240210548FFF71CFA052001F04AF8B6
:10170000681CC5B2082DD6DB70BD0000000400487F
:1017100010B500F03BF9012280210C48FFF709FACF
:10172000012240210948FFF704FA052001F032F8B0
:10173000002280210548FFF7FCF9052001F02AF876
:10174000002240210148FFF7F4F910BD00040048D1
:1017500010B500F01BF9002280210A48FFF7E9F9D3
:10176000012240210748FFF7E4F9052001F012F8B3
:10177000012280210348FFF7DCF9052001F00AF877
:1017800010BD00000004004810B500240122802193
:101790001148FFF7CEF9052000F0FCFF00F0E2F859
:1017A000012240210C48FFF7C4F9052000F0F2FFA8
:1017B00005E0601CC4B2FA2C01DD012010BD8021BF
:1017C0000548FFF7A9F90028F3D10022402102487B
:1017D000FFF7AFF90020F1E70004004800B587B03B
:1017E000142102A8FEF7B0FC00BF2A48406901217D
:1017F00049040843274948610846406901214904D2
:101800000840019000BF00BF00BF22484069490066
:10181000084320494861084640690121890408407D
:10182000019000BF00BF002289110920C006FFF708
:1018300080F90022C0211848FFF77BF9012000033E
:1018400002900120039000200490059002A9092035
:10185000C006FFF769F8202002901048039000208E
:10186000049002A90C48FFF75FF8C0200290012005
:10187000039000200490059002A90748FFF754F850
:10188000002211460720FFF7B9F90720FFF7AAF950
:1018900007B000BD00100240000400480000111015
:1018A00010B50E480E490860E12040024860002152
:1018B0000B488160C16001610C214161002181619F
:1018C000C16101620020064948620846FFF7A6FD93
:1018D000002801D0FFF70FF810BD000000440040C1
:1018E000300000207047000010B5002819DA1A4AAD
:1018F00003071B0F083B9B089B00D2588307DC0E95
:10190000FF23A3409A438B071B0E8407E40EA340DA
:101910001A43114B0407240F083CA408A4001A51D1
:1019200018E00E4A03231B02D21883089B00D258EA
:101930008307DC0EFF23A3409A438B071B0E84070B
:10194000E40EA3401A43054B032424021B19840808
:10195000A4001A5110BD00001CED00E000E100E001
:101960007047000000B585B014216846FEF7ECFB17
:101970008020009000200190029003906946024868
:10198000FEF7D2FF05B000BD0004004800B585B0E9
:1019900014216846FEF7D8FB8020009001200190BA
:1019A00000200290039069460248FEF7BDFF05B093
:1019B00000BD000000040048704710B5FFF7C6F8EE
:1019C00010BD00B591B0302105A8FEF7BDFB002089
:1019D000019002900390049002200590012008904D
:1019E0001020099002200D9000210E9107218904FA
:1019F0000F910021109105A8FFF74EFA002801D0A1
:101A0000FEF779FF0720019002200290002003904A
:101A1000012080020490012101A8FFF7F9F80028B5
:101A200001D0FEF768FF11B000BD00001948006842
:101A300001210843174908600846406816490840D4
:101A40001449486008460068144908401149086074
:101A5000084600680121890488430E490860084649
:101A600040683F21090488430A4948600846C06A23
:101A700000090001C8620846006BFF215431884309
:101A8000044908630846406B400840004863002052
:101A900088607047001002400CB8FFF8FFFFF6FEA8
:101AA000818CC907C90F002908D001684968012243
:101AB00052049143826A1143026851600222416AD2
:101AC0001140002907D001684968D2039143C26AD6
:101AD0001143026851600422416A1140002907D075
:101AE0000168496812049143026B11430268516016
:101AF0000822416A1140002907D001684968120391
:101B00009143426B1143026851601022416A1140B7
:101B1000002907D00168896812029143826B114342
:101B2000026891602022416A1140002907D00168B3
:101B3000896812029143C26B11430268916040228E
:101B4000416A1140002915D0016849689203914308
:101B5000026C11430268516001221205016C91422E
:101B600008D101684968032252059143426C114330
:101B7000026851608022416A1140002907D0016843
:101B8000496812039143826C1143026851607047A7
:101B900038B5044600250020E066FEF7D1FF054673
:101BA00019492068884223D120680068082108402C
:101BB00008280BD115482B460022890400902046A6
:101BC00000F018F9002801D0032038BD2068006813
:101BD0000421084004280BD10C482B46002209059B
:101BE0000090204600F006F9002801D00320ECE721
:101BF0002021692001556A20015500BF002168207D
:101C0000015500BF0020E0E700380140FFFFFF0161
:101C1000FEB5044600251026002700200290019002
:101C20002169A068084361690843E16908430546E2
:101C300020680068684908402843216808602068D7
:101C40004068032109038843E1680843216848602C
:101C5000216AA06908430546206880680B210902B3
:101C6000884328432168886000BF5C492068884217
:101C700017D15B48006B8007800F002806D0012831
:101C800008D0022808D0032808D101E0002607E088
:101C9000022605E0042603E0082601E0102600BF26
:101CA00006E050492068884201D1002600E0102655
:101CB00000BF0121C903E069884249D1042E20D028
:101CC00004DC002E07D0022E32D111E0082E25D0E0
:101CD000102E2DD12DE0FFF76BF840006168490808
:101CE000401800906168FEF701FA80B2029023E08C
:101CF00061684A083C4BD018FEF7F8F980B20290B0
:101D00001AE0FFF767F84000616849084018009042
:101D10006168FEF7EBF980B202900DE061684A0855
:101D200001231B04D018FEF7E1F980B2029003E012
:101D300000BF0120019000BF00BF2C49029808405D
:101D4000074602980007400F07432068C76040E03D
:101D5000042E21D004DC002E07D0022E34D111E055
:101D6000082E26D0102E2FD12FE0FFF721F8616822
:101D70004908401800906168FEF7B8F980B2216800
:101D8000C86025E061684A08194BD018FEF7AEF923
:101D900080B22168C8601BE0FFF71CF86168490841
:101DA000401800906168FEF7A1F980B22168C86010
:101DB0000EE061684A080123DB03D018FEF796F9AC
:101DC00080B22168C86003E000BF0120019000BF1D
:101DD00000BF0198FEBD0000F369FFFF003801401D
:101DE00000100240004400400024F400F0FF000016
:101DF00000127A00FFB581B004460D4617460A9ED0
:101E000024E0701C002821D0002E05D0FEF798FE9B
:101E10000499401AB04219D920680068FF21A13105
:101E20008843216808602068806840084000216875
:101E300088602021692001556A20015500BF0021DA
:101E40006820015500BF032005B0F0BD2068C069BF
:101E50002840A84201D1012000E00020B842D0D0A3
:101E60000020F1E70FB410B503A9044B044A02980F
:101E700000F0E8F810BC08BC04B01847A927000817
:101E8000040000202021020C01D010211046020A7B
:101E900001D010460839020901D01046091F8208F6
:101EA00001D01046891E420801D0881E7047081ACA
:101EB000704702E008C8121F08C1002AFAD1704713
:101EC0007047002001E001C1121F002AFBD17047BA
:101ED000F0B51FB486B00998089A030D002102439B
:101EE00014D05148514A181850430514119801282C
:101EF00010981AD0281A401C00264D4F4D490096C4
:101F000001910490002812DA444211E01198012452
:101F100049A3012801D11098C1430698119A846001
:101F20000360C26041600BB0F0BD4042E4E704468C
:101F3000210500203F4A001C51410391029012E00C
:101F4000E00707D032463B4601990098FEF750FA69
:101F50000191009032463B4610461946FEF748FA7A
:101F600006460F466410002CEAD10498039B002813
:101F7000029A0999089806DAFEF73AFA019B009A44
:101F8000FEF736FA05E0FEF79BFA019B009AFEF792
:101F900097FA04460E460022284BFEF747FB03D86B
:101FA0000020C043014607E00022254B2046314671
:101FB000FEF76CF9FEF768FC102409E0002C0ADB40
:101FC0000A220023FEF76CFB079B30321A55641E71
:101FD00002460A43F2D11122641C079B121B1C19F2
:101FE000119B012B03D0012308430ED10AE00843C3
:101FF00004D0112010900020119077E71098151A46
:102000006D1E0BE01098824202DD00236D1C03E080
:10201000824201DA00236D1E002BEED00698119942
:102020008260C16030C07EE701FCFFFF104D000000
:10203000000014400000F03F300000000000F043BA
:102040000000E03FFFB597B00646002518E22528BE
:1020500077D100242746FD49049400E00443761C10
:1020600032780120203A90400842F7D130782A286F
:102070000ED00222307801463039092916D8049949
:102080000A235943303940181443761C0490F1E771
:10209000189802C804911890002904DA012040031E
:1020A00004434842049002200443761C30782E28D2
:1020B00014D1042004437078761C2A2809D118987A
:1020C000761C80C8189009E00A214F43303FC71999
:1020D000761C3078014630390929F5D930786C28DA
:1020E00010D006DC4C281AD068280ED06A2817D1E8
:1020F00004E0742813D07A2812D110E001204005A2
:1021000004430CE00121090501E0032109050C430A
:102110007178814203D1012000052418761C761CB9
:102120003078119066280BD013DC58287DD009DC5C
:1021300000287BD04528F6D04628F4D047281AD16D
:10214000A5E118E0632835D0642870D0652812D145
:102150009DE170286CD008DC6728F1D069287BD01D
:102160006E280DD06F2806D1BAE073282ED07528BE
:1021700071D0782859D01A9A199990476D1C7EE130
:102180006002400F022809D003280DD004281898B7
:1021900001680DD00D60001D189070E11898EA17C5
:1021A00001680D604A60F6E7189801680D80F2E753
:1021B0000D70F0E718986A4601781172001D1890AA
:1021C0000020507202A80090012005E0189802C873
:1021D000189000200091C04361070DD5002101E057
:1021E0000199491C0191B94212DA8142F8DB009A47
:1021F000515C0029F4D10BE0002101E00199491C58
:1022000001918142FADB019A0099895C0029F5D19C
:10221000019904981A9B471A21463846199A00F0EA
:1022200097FA0199401945180BE04FE02CE113E0B3
:102230004EE0009800990078491C00911A9A19996B
:1022400090470198401E0190401CF2D1214638462B
:102250001A9B199A10E137E00A20002100900191A1
:102260006002410F022907D0189A01CA1892C217BA
:102270009446032908D00AE01898C01DC108C90077
:1022800005C91891944607E000B2C2179446042984
:1022900002D140B2C1178C4600226146944506DA4D
:1022A0000A460021404291418C462D2102E0210541
:1022B00004D52B216A461173012103E0E10701D007
:1022C0002021F7E7029155E00A200AE0102008E0FB
:1022D000102000900021042004430191082703E00E
:1022E00008200021019100906002410F022907D0CF
:1022F000189A01CA189200229446032908D008E0CF
:102300001898C01DC108C90005C91891944603E07A
:1023100080B2042900D1C0B200210291210729D541
:102320001199702906D0009A1021019B4A401A4346
:1023300005D00EE040216A461173012108E0614694
:10234000014306D030216A4611731199517302215D
:102350000291009A0821019B4A401A430AD1614622
:10236000014301D1610705D530216A46117301216E
:102370007F1E02911199582904D035A10E910DA903
:102380000D910DE037A1F9E76146019B009AFEF738
:1023900087F90E9B8C469B5C0D9A521E0D92137012
:1023A00061460143F0D10D9805A9081A203001902B
:1023B000600703D501200004844300E00127019851
:1023C000874201DD381A00E0002001990090411891
:1023D000029809180498401A0490E00306D4214694
:1023E0001A9B199A049800F0B3F94519002706E0E2
:1023F00003A81A9AC05D199990476D1C7F1C02981A
:102400008742F5DBE0030CD521461A9B199A049804
:1024100000F09EF9451904E01A9A30201999904766
:102420006D1C0099481E00900029F5DC08E00D980D
:102430000D990078491C0D911A9A199990476D1CB5
:102440000199481E01900029F1DC63E1092801008F
:10245000303132333435363738396162636465661A
:1024600000000000303132333435363738394142DC
:10247000434445460000000000F05AF94519761C17
:102480003078002800D0E2E528461BB0F0BD600798
:1024900000D406271898C01DC108C90048680A68FA
:1024A0000831C30FDB071891190001D09CA108E087
:1024B000210501D59BA104E0E10701D09AA100E02C
:1024C0009AA1430011985B08109165280CD006DC96
:1024D000452809D046281DD0472841D141E066282B
:1024E00018D067283CD13CE00021112F01DB1120DE
:1024F00000E0781C0191009008A911A8FFF7E8FC02
:10250000139905910021119A15927F1C1298019739
:10251000009150E00120C00703900120019008A91C
:10252000009711A8FFF7D4FC139A14990592002282
:10253000119B009212981593059A0192002901D0DF
:10254000104602E0791C40180190381A01D5019814
:1025500004E04042401E0090781C0190C01B029095
:1025600043E0012F00DA01270021112F01DD1120A6
:1025700000E038460191009008A911A8FFF7A8FCD7
:1025800013990591119A00211298159200910197C3
:1025900021070CD40599B94201DB019900E00191B2
:1025A000012904DD159A491E515C302906D0B84234
:1025B00001DA011D05DA0121029115E00199491E98
:1025C000EDE7002805DC0099411800910199091AEE
:1025D00003E0019A411C914200DD01910099401AEB
:1025E000401C02900120C0070390200706D40299E6
:1025F0000198814202DB0020C0430290002069461E
:10260000C87707AF012103980337C907884224D050
:10261000022011902B201290039800280CDA4042DF
:1026200003902D20129007E00A210398FDF75EFD2C
:1026300030317F1E039039701199481E1190002986
:10264000F2DC03980028EFD1791E129808703078D8
:10265000202108404530BF1E387006A8C01BC01D91
:10266000039010980078002800D0012001994118AB
:102670000298C0170918039809180498401A401EB8
:102680000490E00306D421461A9B199A049800F09E
:102690005FF8451910980078002803D01A9A199904
:1026A00090476D1CE00324D521461A9B199A049883
:1026B00000F04EF845191CE00098002807DB00994F
:1026C0000598884203DD1598405C199901E0199935
:1026D00030201A9A904700986D1C401C0090029878
:1026E000401E0290002804D11A9A2E201999904772
:1026F0006D1C0199481E01900029DDDC05E0387849
:102700001A9A7F1C199990476D1C0399481E0390D3
:102710000029F4DC21461A9B199A0498ACE60000C3
:102720002D0000002B000000200000000000000031
:10273000F8B5044600251E461746880404D405E073
:1027400039462020B0476D1C641EF9D52846F8BDD7
:10275000FFB50446002581B01E46C80301D53027C9
:1027600000E02027880404D505E038460399B047E7
:102770006D1C641EF9D5284605B0F0BD07E00021A8
:1027800000E0491C7D22D2009142FAD3401E00286D
:10279000F5D1704705E0002100E0491C6429FCD315
:1027A000401E0028F7D1704738B504460D46E0B208
:1027B00000900223012269460148FEF7AFFE38BDB2
:1027C00030000020F0B589B005460E4600F07AF8DA
:1027D00030210840002802D0102804D101E002274F
:1027E00003E0082701E0082700BF00BF00243CE009
:1027F0006000285E00281BDA3846FDF7F5FE0591DB
:1028000004906100685EFDF7DBFE00222A4B019117
:102810000090FDF755FE03910290059B049AFDF789
:10282000E7FD07910690FDF715FFA10070501AE033
:102830003846FDF7D9FE059104906100685EFDF70A
:10284000BFFE00221C4B01910090FDF739FE039161
:102850000290059B049AFDF7CBFD07910690FDF7CA
:10286000F9FEA1007050601CC4B2032CC0DB06202E
:10287000285E00280FDA6100685EFDF7A1FE0022E5
:102880000E4B05910490FDF71BFE07910690FDF796
:10289000E1FEF0600EE06100685EFDF791FE00224F
:1028A000074B05910490FDF70BFE07910690FDF78D
:1028B000D1FEF06009B0F0BD0000E040000059C05A
:1028C0000000594010B5092000F055F80149087082
:1028D00010BD00000100002010B540210A2000F0CA
:1028E0006AF801210B2000F066F80B2000F043F895
:1028F000084908704021202000F05DF801212120C6
:1029000000F059F81D21092000F055F80A20FFF7C2
:1029100035FF10BD0000002070B50446012000F016
:102920002AF80502002000F026F8054328B220808E
:10293000A41C032000F01FF80502022000F01BF881
:10294000054328B22080A41C052000F014F80502DD
:10295000042000F010F8054328B22080A41C0820B1
:1029600000F009F80502072000F005F8054328B239
:102970002080A41C70BD70B50446FEF7C9FE1A2065
:10298000FEF78EFEFEF700FF2046FEF789FEFEF7FB
:10299000FBFEFEF7DDFEFEF7BBFE1B20FEF780FE12
:1029A000FEF7F2FEFEF754FE0546FEF731FEFEF797
:1029B000CFFE284670BD70B505460C46FEF7A8FE52
:1029C0001A20FEF76DFEFEF7DFFE2846FEF768FED2
:1029D000FEF7DAFE2046FEF763FEFEF7D5FEFEF7B1
:1029E000B7FE70BDFEF7BAF8FEF7EBFFFEF7F6FE96
:1029F000FEF756FFFFF770FF1848FFF78DFF002026
:102A00001749087017491548FFF7DCFE09E013481D
:102A1000FFF782FF00201249087012490F48FFF7A4
:102A2000D1FE1049012000F01FF80028EFD013E07C
:102A3000012109030920C006FEF777F80748FFF7D0
:102A40006BFF00200649087006490448FFF7BAFEEC
:102A50000449002000F008F8EAE700000800002020
:102A60001000002020000020F3B59DB00E46002489
:102A70000BE0A0003258F0206043FE494018091FC7
:102A8000C97889004250601CC4B2032CF1DBFA49BA
:102A9000C86FFDF7B7FDF94AF94B17911690FDF78E
:102AA000F5FB19911890FDF7D5FDF349C867F1487A
:102AB000001FC078401CEF49091FC870002451E076
:102AC000EC48001FC078142826DA002700250BE008
:102AD000F0206043E74A8018AA0081583846FDF785
:102AE0003EFB0746681CC5B2E248001FC078A842FA
:102AF000EEDCE049091FC878FDF75AFD0146199040
:102B00003846FDF785FB0746F0206043DD49411854
:102B1000681E80000F5023E00027D648001FC078B1
:102B20001438C5B20BE0F0206043D24A8018AA00E6
:102B300081583846FDF713FB0746681CC5B2CD48DF
:102B4000001FC078A842EEDCCF493846FDF760FB95
:102B50000746F0206043CB494118681E80000F50A3
:102B6000601CC4B2032CABDB1D98012830D10024BB
:102B70002BE0002700250BE0F0206043C14A8018BD
:102B8000AA0081583846FDF7EAFA0746681CC5B224
:102B9000B848001FC078A842EEDCB649091FC878C3
:102BA000FDF706FD014619903846FDF731FB074653
:102BB000E000B64940184760E00040184068E10076
:102BC000B24A50500027601CC4B2032CD1DB13E181
:102BD00000240EE1022C7DD1E100AC4A891848683E
:102BE000FDF710FD4900490819911890FDF732FDD5
:102BF0001B90F02161439F4A8A189E49091FC9789A
:102C0000491E89005058FDF7FDFC490049081991FB
:102C10001890FDF71FFD1A901A991B98FDF7F0FA0E
:102C20001790FDF7EFFC9A4A9A4B19911890FDF70F
:102C3000FDFC7DD898480078401C97490870E0005A
:102C4000924940184768E0000858E1008F4A891807
:102C50004860E00011460F508F480078142839DB97
:102C60008448001F8078002808D18348C06F8249BB
:102C70007C31486001207F49091F8870F020604343
:102C8000804A82187B48001FC078401E800011587F
:102C9000E0007E4A801840681990FDF7F7FC2BD8B9
:102CA00000207D4908707448C16FF02060437B4A62
:102CB0008018704A121F127892008150F0206043F1
:102CC0006C4941186B48001FC078401E80000958AD
:102CD000F02000E08BE060436C4A18328018654AAF
:102CE000121F1278920081506248001F0078401C29
:102CF0006049091F08707AE00020674908700021C8
:102D0000F0206043664A80185A4A121F12789200D7
:102D10008150F0206043574941185648001FC07841
:102D2000401E80000958F02060435E4A801800E091
:102D30000CE0504A121F5278920081504D48001FFB
:102D40004078401C4B49091F487050E00020524910
:102D50000870E0004D4940184768F0216143494A36
:102D60008A184449091FC978491E89005058FDF73F
:102D700049FC424A4C4B13911290FDF739FB1791D5
:102D80001690E100414A5058FDF73CFC3B4A524244
:102D9000464B13911290FDF72BFB15911490179B46
:102DA000169AFDF773FA19911890FDF753FCE1009C
:102DB000364A89184860E00011460F502D48001F20
:102DC0008078012813D13A480078401C38490870AF
:102DD0000846007814280ADB2748C06F26497C3152
:102DE000886000202349091F887031490870601CE1
:102DF000C4B2032C00DAEDE61E48001FC0783C2860
:102E000003DB00201B49091FC870F068FDF7FAFBBF
:102E1000199118901D494869FDF7F4FB1791169018
:102E20001A49C868FDF7EEFB1591149017494868D8
:102E3000FDF7E8FB13911290B068FDF7E3FB1191E9
:102E400010907068FDF7DEFB0F910E903068FDF773
:102E5000D9FB0D910C90199918980B910A9017991C
:102E6000169809910890159914980791069013994E
:102E700012981FE0A4000020201100209A9999992F
:102E80009999B93F740300200000A0414406002036
:102E9000333333333333D33F14000020FC0B002093
:102EA000CC0E00202C0900209999A93F6666EE3FC0
:102EB000130000200591049011991098039102903D
:102EC0000F990E980191009006A00D9B0C9AFEF7A9
:102ED000C9FF0E48C078322802DA00201FB0F0BDCA
:102EE0000120FBE7256620202020256620202020C9
:102EF00025662020202025662020202025662020F1
:102F0000202025662020202025660A00A000002021
:102F10000000000000000000010203040607080989
:102F20000000000001020304482F000800000020F8
:102F300020000000B21E0008682F000820000020BA
:102F400088150000C21E00080000000000000000FC
:102F50000000000000000000000000000000000071
:082F60000000000000127A00DD
:04000005080000BD32
:00000001FF
