:020000040800F2
:10000000700A002009010008F1130008F50D00082E
:10001000ED13000849050008DF2A00080000000071
:100020000000000000000000000000009122000815
:10003000E108000800000000C11500083124000894
:100040002301000823010008230100086D1E000899
:100050002301000823010008E50800080D09000835
:1000600023010008230100082301000823010008E0
:1000700023010008230100082301000823010008D0
:1000800023010008230100082301000823010008C0
:1000900023010008230100082301000823010008B0
:1000A00023010008230100082301000823010008A0
:1000B000C1250008230100081526000823010008B7
:1000C0002301000823010008230100082301000880
:1000D000230100082301000823010008E12800088B
:1000E0002301000823010008230100082301000860
:1000F00023010008DFF80CD000F02AF80048004780
:10010000292D0008700A002006488047064800474D
:10011000FEE7FEE7FEE7FEE7FEE7FEE7FEE7FEE7B7
:10012000FEE7FEE735240008F5000008D2B201E042
:1001300000F8012B491EFBD270470022F6E710B5EC
:1001400013460A4604461946FFF7F0FF204610BD45
:10015000064C074D06E0E06840F0010394E8070014
:1001600098471034AC42F6D3FFF7C8FFF8410008B7
:100170001842000870B58C1810F8015B15F00703E1
:1001800001D110F8013B2A1106D110F8012B03E030
:1001900010F8016B01F8016B5B1EF9D12B0705D438
:1001A0000023521E0DD401F8013BFAE710F8013B81
:1001B000CB1A921C03E013F8015B01F8015B521E9D
:1001C000F9D5A142D8D3002070BDCA430260704760
:1001D00021B1826842F00102826003E0826822F06D
:1001E000010282607047000000B589B023480068B2
:1001F00040F00100214908600E20019003208DF895
:10020000080000208DF80B0001A91D4800F018FD22
:10021000012001F01DFB00BF212001F0F7FA0028AA
:10022000FAD00121480201F019FA002003908DF85C
:10023000100001208DF8110000200590079001208A
:100240008DF8200003A90F4800F034F801224FF484
:1002500040310C4800F058F810210A4800F014F81A
:1002600001210848FFF7B4FF00BF4021054800F016
:1002700017F80028F9D009B000BD00001C38024072
:1002800000000240002401400A460021816821F05C
:10029000F0011143816070470146886D80B270475C
:1002A0000246002013680B400BB1012000E0002043
:1002B0007047000030B50246002000235068104C03
:1002C00020400D790C6844EA052420435060906872
:1002D0000C4C2040D1E903542C438D682C434D79BC
:1002E00044EA450420439060106B20F0F8700C7DC8
:1002F000641EE4B2234340EA0350106330BD0000A3
:10030000FFFEFFFCFDF7FFC01AB143680B434360DB
:1003100002E043688B4343607047F0B504460D46E6
:1003200000200021132D11DDE068A5F1140606EB75
:100330004607072606FA07F18843A5F1140606EBDF
:10034000460603FA06F10843E06020E0092D11DDBE
:100350002069A5F10A0606EB4607072606FA07F10B
:100360008843A5F10A0606EB460603FA06F10843A0
:1003700020610CE0606905EB4507072606FA07F1E6
:10038000884305EB450603FA06F108436061072A36
:100390000FDA206C561E06EB86071F2606FA07F1B9
:1003A0008843561E06EB860605FA06F108432064CC
:1003B0004AE00D2A0FDAE06BD61F06EB86071F26F0
:1003C00006FA07F18843D61F06EB860605FA06F102
:1003D0000843E06338E0132A11DAA06BA2F10D069E
:1003E00006EB86071F2606FA07F18843A2F10D06E1
:1003F00006EB860605FA06F10843A06324E0192AF5
:1004000011DA606BA2F1130606EB86071F2606FAC7
:1004100007F18843A2F1130606EB860605FA06F1FA
:100420000843606310E0206BA2F1190606EB860713
:100430001F2606FA07F18843A2F1190606EB860685
:1004400005FA06F108432063F0BD816841F0804160
:100450008160704770B50546012001F0B3F80024B3
:1004600008E04FF4C87002F007FC204600F058FC8A
:10047000601CC4B2042CF4DB034A0449034810385E
:1004800000F0A2FB70BD00009400002030000808BE
:100490000448008800F0020008B1CB207047CA2051
:1004A000FCE70000100802401CB50220009000206C
:1004B0008DF804008DF806008DF805008DF8070012
:1004C0006946024800F0BCFB1CBD00000008024069
:1004D00070B501F0D3F8194801F018F917484068D1
:1004E0006422B0FBF2F1B1F1807F00D31DE021F076
:1004F0007F40401E4FF0E022506150170F2200282D
:1005000007DA13071D0E0E4B00F00F04241F1D55B4
:1005100003E013071C0E0B4B1C5400BF00204FF0D0
:10052000E02290610720106100BF01F057F8FFF74B
:100530005BFEFFF7B9FF02F057FB70BDCC01002056
:1005400018ED00E000E400E000BFFEE710B588B061
:1005500004462E48006840F480202C4908602B484F
:100560000838006840F0020028490839086007226E
:100570000A21274800F0ACFB07220B21244800F099
:10058000A7FB4FF48060069002208DF81C0003202A
:100590008DF81D0000208DF81E0001208DF81F0031
:1005A00006A91B4800F04CFB4FF40060069006A91A
:1005B000174800F045FB02940020ADF80C00ADF8A0
:1005C0000E00ADF81000ADF814000C20ADF81200CC
:1005D00002A9104802F018FA01210E4802F0B8F9F9
:1005E000012240F225510B4802F0E8F927208DF84E
:1005F000040001208DF805008DF806008DF8070035
:1006000001A800F035FF08B010BD000024380240FA
:1006100000040240004800402DE9F041774800689E
:10062000401C76490860764A76497648103800F0D2
:10063000A3FA754A734920317248103000F09CFAD1
:100640007248FFF707FF724A6E4940316D483030FB
:1006500000F092FA6E480088C0F308006D490880E7
:1006600000BF6C48001F008800F040000028F8D050
:1006700067488088C0F308006649088000BF654865
:10068000001F008800F040000028F8D06048008972
:10069000C0F308005F49088000BF5E48001F008863
:1006A00000F040000028F8D059488089C0F30800C5
:1006B0005849088000BF5748001F008800F04000DC
:1006C0000028F8D0514800785249088000BF5148AE
:1006D000001F008800F040000028F8D04A48006859
:1006E000050AC5F308004B49088000BF4948001FB0
:1006F000008800F040000028F8D043480088C0F38C
:1007000008004449088000BF4248001F008800F0EC
:1007100040000028F8D03C484068060AC6F30800AC
:100720003C49088000BF3B48001F008800F04000A3
:100730000028F8D034488088C0F308003549088084
:1007400000BF3448001F008800F040000028F8D0A7
:1007500000243048048000BF2E48001F008800F0AD
:1007600040000028F8D000202A49088000BF29480E
:10077000001F008800F040000028F8D00020254924
:10078000088000BF2348001F008800F040000028B8
:10079000F8D000201F49088000BF1E48001F0088B5
:1007A00000F040000028F8D0FFF772FE16490861FB
:1007B00008460769C7F308001649088000BF1548B6
:1007C000001F008800F040000028F8D0F0201149F8
:1007D000088000BF0F48001F008800F0400000287C
:1007E000F8D0E7200B49088000BF0A48001F0088A6
:1007F00000F040000028F8D0BDE8F081640000203F
:100800008C01002010000808940000202400002023
:10081000AC010020044800401CB50121042000F078
:10082000FDFE0121084600F0F9FE4FF4C070009073
:1008300001208DF8040003208DF8050000208DF8BC
:10084000060001208DF8070069460B4800F0F8F912
:100850004FF48070009001208DF8040003208DF883
:10086000050000208DF8060001208DF8070069467C
:10087000024800F0E5F91CBD0008024000000240FB
:1008800030B504460425680300F086F90546042DBA
:1008900001D100202060284630BD70B504460D46C9
:1008A0000426700300F078F90646042E04D1256072
:1008B000400300F071F90646304670BD05480068F7
:1008C00000F0010028B104480249083108600348DB
:1008D00008607047043C0240EFCDAB890504030279
:1008E0007047000010B5012000F03CF840B1012035
:1008F00004490870002004490870012000F01AF82B
:1009000010BD00006C0000206D00002010B502201A
:1009100000F028F840B10020044908700120044983
:100920000870022000F006F810BD00006C000020E6
:100930006D00002001490860704700001404014068
:10094000002007490860091D0860091D0860091D8D
:1009500008606FF07F400249143108607047000062
:1009600000040140014600200022074B1B6803EAF7
:100970000102054B14331B680B4013B10AB101206F
:1009800000E00020704700000004014000212349DE
:100990008279002A3AD00A46126803689A430B46C5
:1009A0001A600A1D126803689A430B1D1A600279C7
:1009B00011440A6803681A430A60184A0832126828
:1009C00003689A43154B08331A601A1D12680368AE
:1009D0009A43124B0C331A604279102A0ED11A1F17
:1009E000126803681A430D4B08331A601A1D126807
:1009F00003681A43094B0C331A600DE0074942792A
:100A000011440A6803681A430A6005E00279114438
:100A10000A6803689A430A607047000000040140B6
:100A20001CB501211D2000F0F9FD03208DF8040004
:100A30008DF8050000208DF807004FF6FF7000903C
:100A400069462E4800F0FCF869462D4800F0F8F899
:100A500069462C4800F0F4F84FF6FC700090032033
:100A60008DF804008DF8050000208DF80700694618
:100A7000254800F0E5F86946234800F0E1F8002138
:100A80001D2000F0CBFD4FF0804000884FF6FE7136
:100A900008404FF0804108801C4800884FF6FE71E6
:100AA00008401A4908801A4800884FF6BF7108406C
:100AB00017490880174800884DF6FF71084015490E
:100AC00008801548006820F00100134908601348A9
:100AD000006820F4007011490860081D0068104982
:100AE00008400E49091D086002F012F8012000F0CC
:100AF0002BFD0121084600F031FD1CBD000802401D
:100B0000000C0240001002400004024000040040BB
:100B1000003800400C4800400824014020380240C2
:100B2000FCBFFBFF0149086070470000183C024011
:100B300004200B49096801F0010109B101200EE010
:100B40000749096801F4807109B1022007E00449EE
:100B5000096801F4F05109B1032000E00420704756
:100B6000183C02400348006840F002000149086058
:100B700070470000043C02401EB50023029301931D
:100B80000093019305E00368009C42F82430121D95
:100B9000001D8842F7D31EBD08B502460420009010
:100BA000FFF7C6FF009003E0FFF7C2FF0090521E60
:100BB0009DF80000012801D1002AF5D10AB90520CD
:100BC00000909DF8000008BD70B504460D4616461D
:100BD000FFF774FE41F60270FFF7A4FF281B401CCC
:100BE0008008144908600020134908600DE012498C
:100BF0000968042202FB0140FFF742FE0F4908701A
:100C00000D480068401C0C4908600B480068094901
:100C100009688842EBD307E020463168FFF73DFEC4
:100C2000042801D1361D241DAC42F5D3FFF79AFFED
:100C300070BD000010010020140100200C010020F4
:100C4000F0B50A4600210023002400BF3DE0012545
:100C500005FA01F3156805EA03049C4234D10568DE
:100C60004F000326BE40B543056015794E00B540E0
:100C70000668354305601579012D02D01579022DDE
:100C800016D185684F000326BE40B543856055796F
:100C90004E00B540866835438560858801268E40C4
:100CA000B5438580858896798E40B6B23543858078
:100CB000C5684F000326BE40B543C560D5794E00D8
:100CC000B540C6683543C560491C1029BFD3F0BD87
:100CD000F0B5002300244D07ED0E02FA05F3CE1007
:100CE00000F1200555F826504E07F70E0F26BE409E
:100CF000B543CF1000F1200646F82750CE1000F182
:100D0000200555F8265045EA0304CE1000F12005D1
:100D100045F82640F0BD41837047018370470000CD
:100D200010B5044624B1012C09D0022C15D10DE0D8
:100D30000623012211462D48FFF7EFFA0DE00623A6
:100D4000012202212948FFF7E8FA06E006230122E2
:100D500003212648FFF7E1FA00BF00BF0121234825
:100D6000FFF736FA2148FFF770FB00BF02211F484A
:100D7000FFF796FA0028F9D01C48FFF78DFAA0F289
:100D8000B91042F2F0314843102101EBE03018492C
:100D900041F82400084650F82400B0F5167F03D926
:100DA000002041F8240014E0114850F8240008B154
:100DB000012000E000200E4951F82410202901D222
:100DC000012100E00021084018B10020084941F845
:100DD000240002210548FFF7F8F90448FFF735FB26
:100DE00000210248FFF7F4F910BD00000024014083
:100DF0009400002000BFFEE730B589B005460C46E0
:100E00002748006840F00400254908602448083855
:100E1000006840F0020022490839086002208DF87D
:100E2000080003208DF8090000208DF80A00012039
:100E30008DF80B004020019001A91A48FFF700FF30
:100E4000022206211748FFF743FF0795ADF8184027
:100E50000020ADF82000ADF81A0006A9124801F0F4
:100E6000E1FC0020ADF80C000220ADF80E000120DE
:100E7000ADF810000020ADF812000320ADF814000A
:100E800003A9094801F05FFC0121074801F03BFC80
:100E900001220321044801F08DFC09B030BD00009F
:100EA00024380240000402400008004070B52120B0
:100EB00000F054F9002000F051F97F2000F04EF9C5
:100EC000012001F0B3FE002419E0222000F046F9D1
:100ED000E0B200F043F9072000F040F9012001F0F2
:100EE000A5FE002504E0002000F044F9681CC5B20E
:100EF000802DF8DB012001F099FE601CC4B2082CA3
:100F0000E3DB70BD10B54FF480512848FFF703FFB5
:100F1000642001F08BFE4FF480512448FFF7FDFE62
:100F2000AE2000F01BF9A82000F018F93F2000F0D7
:100F300015F9D32000F012F9002000F00FF940203D
:100F400000F00CF9A12000F009F9C82000F006F922
:100F5000DA2000F003F9122000F000F9812000F0FF
:100F6000FDF8CF2000F0FAF8A42000F0F7F8A62052
:100F700000F0F4F8D52000F0F1F8802000F0EEF851
:100F80008D2000F0EBF8142000F0E8F8AF2000F01E
:100F9000E5F8D92000F0E2F8F82000F0DFF8DB20D7
:100FA00000F0DCF8402000F0D9F810BD0004024049
:100FB0002DE9F047074689469246984600240026C8
:100FC00000252DE0102101FB0571C8B2494600F053
:100FD000ABF8002409E018F8060000F0CBF8012077
:100FE00001F024FE761C601CC4B2102CF3DB09F166
:100FF0000102D1B2102202FB0572D0B200F094F8C7
:10100000002409E018F8060000F0B4F8012001F00F
:101010000DFE761C601CC4B2102CF3DB681CC5B23C
:101020005545CFDBBDE8F0872DE9F04704468846FB
:1010300015464FF000090026002723E0E85D203820
:1010400000F0FF097E2C04DD002408F1010000F00F
:10105000FF084146204600F067F800260CE009EB47
:1010600049010B4A02EB4101885D00F083F8012041
:1010700001F0DCFD701CC6B2062EF0DBA01DC4B270
:10108000781CC7B2E85D0028D8D1BDE8F087000021
:10109000E03900082DE9F04706460F469046002546
:1010A0000024A14637E018F809002038C5B2782E90
:1010B00002DD0026781CC7B23946304600F034F80D
:1010C00000240AE004EB0511164A505C00F052F8C7
:1010D000012001F0ABFD601CC4B2082CF2DB781CCF
:1010E000C1B2304600F020F800240BE004EB0511FB
:1010F00008310C4A505C00F03DF8012001F096FDEB
:10110000601CC4B2082CF1DB06F10800C6B209F17C
:10111000010000F0FF0918F809000028C3D1BDE85C
:10112000F0870000083C000870B504460D462120F9
:1011300000F014F8E0B200F011F87F2000F00EF893
:10114000222000F00BF8E8B200F008F8072000F0C9
:1011500005F8012001F06AFD70BD000010B50446DD
:1011600040210348FFF7D7FD204600F0C7F910BD26
:101170000008024010B5044640210348FFF7CDFDAA
:10118000204600F0BBF910BD0008024018B1012153
:10119000034A118003E00121014A921C118070472B
:1011A000180802401CB50D48006840F004000B49C7
:1011B0000860012000908DF804008DF805000020E3
:1011C0008DF806008DF8070069460548FFF738FDE1
:1011D000012003491A3108801CBD00001C38024060
:1011E0000008024010B500F0A2F8002001F07AFCDF
:1011F000C72000F055FF012001F074FC00F093F8C7
:1012000010BD00001CB50121042000F007FA1020D9
:10121000009001208DF8040003208DF805000020C7
:101220008DF8060001208DF8070069460948FFF790
:1012300007FD10210748FFF770FD00F0C9FE03E02D
:1012400000F038F804490860034800680349884200
:10125000F6D11CBD00080240280100201620200005
:101260002DE9F04106460C461746002001F03AFCF5
:10127000032000F015FFC4F3074000F011FFC4F392
:10128000072000F00DFFE0B200F00AFF002506E0A5
:1012900007480560FF2000F003FF70556D1CBD423C
:1012A000F6D3012001F01EFC0120BDE8F081000012
:1012B000300100202DE9F041002400250026002700
:1012C000002001F00FFC9F2000F0EAFEFF2000F05C
:1012D000E7FE0546FF2000F0E3FE0646FF2000F093
:1012E000DFFE0746012001F0FDFB280440EA06204E
:1012F00040EA07042046BDE8F08110B50024002034
:1013000001F0F0FB052000F0CBFE00BFFF2000F055
:10131000C7FE044604F001000028F7D1012001F0C7
:10132000E1FB204610BD10B5FFF7E7FF10BD10B57B
:10133000002001F0D7FB062000F0B2FE012001F0F2
:10134000D1FB10BD2DE9F04107460E461446F0B220
:10135000C0F58075AC4200D8254611E02A463146DA
:10136000384600F011F8AC4200D10AE02F442E4478
:10137000641BB4F5807F02D94FF4807500E02546E8
:10138000ECE700BFBDE8F0812DE9F04106460C46D0
:101390001746FFF7CCFF002001F0A4FB022000F06D
:1013A0007FFEC4F3074000F07BFEC4F3072000F08B
:1013B00077FEE0B200F074FE002508E0705D00F0FA
:1013C0006FFE09480068401C074908606D1CBD425B
:1013D000F4D3012001F086FB012001F027FCFFF788
:1013E000A2FFBDE8F08100003401002000BFFEE74D
:1013F000704708B54FF4E06000F076F81E208DF8D5
:10140000000004208DF8010001208DF802008DF805
:101410000300684600F02CF81C208DF8000008201E
:101420008DF8010004208DF8020001208DF80300E2
:10143000684600F01DF806208DF800000E208DF89B
:1014400001008DF8020001208DF80300684600F0CD
:101450000FF807208DF800000F208DF801008DF89F
:10146000020001208DF80300684600F001F808BD75
:1014700070B5002100230F22C4781CB3174C2468D8
:1014800004F4E064C4F5E064C4F30721C1F104048A
:10149000E3B20A4144789C40E1B28478144021438D
:1014A0000C07210E0E4C05786155047804F01F05D9
:1014B0000124AC4005786D11AD0005F1E025C5F8BB
:1014C000004109E0047804F01F050124AC40054DFB
:1014D0000678761145F8264070BD00000CED00E05E
:1014E00000E400E080E100E002490143024A1160AB
:1014F000704700000000FA050CED00E010B504464E
:1015000000BF0221044800F09FFE0028F9D02146C8
:10151000014800F0A2FE10BD0038004010B540F2B6
:101520003F6001F0AFF9FFF73DFE0120FFF72EFE0F
:10153000012000F047F840F23F614FF4FA60FFF7F6
:101540005BFCFFF756FF10BD0349096841EA8001C3
:10155000014A1160704700000070004010B502465B
:1015600000200C4B186820F00300104318600A4B51
:101570001B6843F00403084C2360012901D130BFEC
:1015800000E020BF044B1B6823F00403024C2360DF
:1015900010BD00000070004010ED00E001498862BD
:1015A0007047000000000E420149086270470000C9
:1015B00000000E42014948627047000000000E42E0
:1015C0007047000018B12021034A118003E0202158
:1015D000014A921C11807047180802401CB50D4842
:1015E000006840F004000B490860202000900120B2
:1015F0008DF804008DF8050000208DF806008DF8A8
:10160000070069460448FFF71BFB202002491A31F6
:1016100008801CBD1C3802400008024029B1064A5F
:1016200012680243044B1A6004E0034A12688243C2
:10163000014B1A60704700001C38024029B1064A6D
:1016400012680243044B1A6004E0034A12688243A2
:10165000014B1A60704700002438024029B1064A45
:1016600012680243044B1A6004E0034A1268824382
:10167000014B1A60704700002038024010B501206D
:1016800000F0E6F800BF212000F0C0F80028FAD0F2
:10169000012000F023F94FF4404000F0E5F800206D
:1016A00000F0CEF8312000F0B1F808B100BFFEE73D
:1016B00010BD00001248006840F4807010490860B6
:1016C0000F48083000680F4908400D49083108608C
:1016D0000B4800680C490840094908600846006842
:1016E00020F48020086006480830006820F47D005F
:1016F0000349083108600020091D08607047000098
:10170000003802400CC0FF88FEFFFEEEF0B500215D
:1017100000220023002600240025374F3F6807F0F1
:101720000C0131B1042912D0082913D00C2934D16D
:1017300013E0314F3F1F3F68C7F342356F1C4FF036
:10174000010C0CFA07FC4FEACC37076033E02B4F53
:10175000076030E02A4F07602DE0274F3F6807F40D
:101760007012254F3F6807F44003264F07EB92475E
:101770003A78012707EB93531F4F3F6807F48036F1
:101780002EB91E4F5743B7FBF3F7076004E01C4F19
:101790005743B7FBF3F707600DE0174F3F1F3F6854
:1017A000C7F342356F1C4FF0010C0CFA07FC4FEAEF
:1017B000CC37076000BF00BF0F4F3F6807F0F00154
:1017C0000909114F7C5C0768E74047600A4F3F6892
:1017D00007F4E061090A0C4F7C5C4768E7408760CA
:1017E000054F3F6807F46051C90A074F7C5C4768A2
:1017F000E740C760F0BD0000083802400024F40054
:1018000000127A00400100204901002010B5014675
:101810000022002300204A11012A02D1074C23682C
:1018200002E0064C3434236801F01F020124944086
:101830001C400CB1012000E0002010BD0038024027
:101840000021024A117011460870704702380240A8
:1018500001490860704700000000474201490860E4
:10186000704700008006474201460020034A106886
:1018700020F46040084310607047000004380240C4
:101880000149086070470000D8064742002100F473
:101890004032B2F5403F08D10C4A116821F0C041F6
:1018A00000F0C0421143094A1160084A34321268FC
:1018B00022F44032054B34331A601A46126800F4A1
:1018C00040331A43014B34331A60704700380240EA
:1018D0000149086070470000DC06474201460020CD
:1018E000034A106820F003000843106070470000AE
:1018F00008380240014600BF080900EB80004200A2
:1019000001F00F001044C0B270470146002204E00D
:10191000501CC2B2A1F10A00C1B20A29F8DA1007BC
:1019200041EA106070470000002101098AB242F0CC
:101930008002044B1B6803F0800363EA0202014B40
:101940001A6070470C2800400FB585B00020049045
:10195000039001210807FFF771FE0120FFF724FE25
:101960000120FFF7B5FF0020FFF7B2FF0120FFF7CE
:1019700075FF00BF4120FFF749FF0028FAD04FF460
:101980000030FFF783FF0120FFF77AFF00F084FAB1
:101990007F202F494860FF208860002008600846AB
:1019A00000F058F99DF818008DF810009DF8190006
:1019B0008DF811009DF81A008DF812009DF81F0097
:1019C0008DF8130004A9012000F0DAF99DF81D003C
:1019D0008DF80C009DF81C008DF80D009DF81B0083
:1019E0008DF80E009DF81E008DF80F0003A9012050
:1019F00000F062F94FF48010FEF79CFF4FF4801066
:101A0000009000208DF8040008208DF805000120CA
:101A10008DF806006846FEF7B9FF03208DF8080030
:101A200000208DF809008DF80A0001208DF80B00C8
:101A300002A8FFF71DFD042000F05EFA052000F06B
:101A400007FA0121880300F0D3F809B000BD0000B7
:101A50006002002008B50022009200200021104AF8
:101A6000126802F04002CAB9421E0D4B1A6000BF54
:101A70000B4A126802F04001009A521C0092009A30
:101A8000B2F5005F01D00029F2D0054A126802F0D9
:101A900040020AB1012002E0002000E0012008BD60
:101AA0000C2800400348006820F0800001490860CD
:101AB000704700000C28004070B506460C46002513
:101AC0000E4800680E4900EA0105280CE070C5F3D5
:101AD0000420607005F03F00A070C5F34230207014
:101AE0005EB9E078FFF706FFE0706078FFF702FF6D
:101AF0006070A078FFF7FEFEA07070BD0428004063
:101B00003FFFFF0030B501460020002200230D4CAE
:101B1000246804F004020B4C383C24680C408D0C03
:101B200021FA05F502EAD53544EA0503054C343CB3
:101B3000246804EA11121BB194B20CB1012000E038
:101B4000002030BD4028004070B506460C460025F8
:101B50000F4800680F4900EA0105C5F305402070F1
:101B6000C5F30620607005F07F00A07005F48000CA
:101B7000000CE0705EB92078FFF7BCFE2070607842
:101B8000FFF7B8FE6070A078FFF7B4FEA07070BDDC
:101B9000002800407F7F7F001FB5044603A9012075
:101BA000FFF7D2FF02A90120FFF786FF9DF80A0088
:101BB0008DF803009DF809008DF804009DF80B00D6
:101BC0008DF805009DF80C008DF800009DF80D00C3
:101BD0008DF801009DF80E008DF80200009820603D
:101BE000BDF80400A0809DF80600A0711FBD000094
:101BF000CA22174B1A6053221A6091B1144A1C3A38
:101C0000126820F004031A43114B1C3B1A60104A5F
:101C10001C32126800F004031A430D4B1C331A6087
:101C200011E00B4A1C3A126820F004039A43084B57
:101C30001C3B1A60064A1C32126800F004039A43E7
:101C4000034B1C331A60FF22014B1A6070470000DF
:101C50002428004030B504460025CA2015490860F4
:101C600053200860FFF7F6FE00B91DE011481C384C
:101C7000006820F040000F491C39086008460068E1
:101C8000216808430B491C3908600A491439A068C7
:101C9000086008460068A18840EA014005491439F7
:101CA0000860FFF7FFFE0125FF2002490860284673
:101CB00030BD0000242800402DE9F04105460C46C7
:101CC000002600274DB9607800F01000102804D1DC
:101CD000607820F010000A30607005B908E0607884
:101CE000FFF708FE0646A078FFF704FE064600BF91
:101CF00055B1E0780004617840EA0120A1780843FA
:101D0000217840EA413611E0E078FFF7FEFD4FEA26
:101D100000486078FFF7F9FD48EA0028A078FFF74F
:101D2000F4FD48EA0008207848EA4036CA20124903
:101D3000086053200860FFF78DFE08B9002714E003
:101D40000E4830400C4920390860FFF7ABFE0A48C6
:101D50001C38006800F0200030B900F09DF808B988
:101D6000002702E0012700E00127FF200249086068
:101D70003846BDE8F0810000242800403FFFFF0006
:101D80002DE9F04105460C46002600274DB92E48A6
:101D9000006800F0400000B102E00020E07000BFE9
:101DA0000DE02948006800F0400020B12078FFF7DE
:101DB000A1FD064602E00020E07000BF00BF55B163
:101DC00020780004617840EA0120A1780843E17896
:101DD00040EA014611E02078FFF797FD4FEA0048FE
:101DE0006078FFF792FD48EA0028A078FFF78DFDA4
:101DF00048EA0008E07848EA0046CA2012491C3147
:101E0000086053200860FFF725FE08B9002713E09B
:101E10000E4830400C4908390860FFF743FE0A4875
:101E2000006800F0200030B900F036F808B900274B
:101E300002E0012700E00127FF2003491C31086070
:101E40003846BDE8F0810000082800407F7F7F0011
:101E5000CA21054A116053211160034910390860F5
:101E6000FF211160704700002428004010B54FF496
:101E70008040FFF747FE60B1012006490870FFF778
:101E800063FB4FF48010FEF755FD4FF48040FFF7E1
:101E90004BFD10BD1C01002008B50022009200205F
:101EA0000021CA22134B1A6053221A60114A183AB1
:101EB000126822F0A0020F4B183B1A6000BF0D4AB7
:101EC000183A126802F02001009A521C0092009AFF
:101ED000B2F5004F01D00029F1D0064A183A126835
:101EE00002F020020AB1012000E00020FF22014B95
:101EF0001A6008BD24280040CA210A4A11605321F3
:101F0000116008491C39096821F00701054A1C3A8B
:101F100011601146096801431160FF21014A1160F7
:101F2000704700002428004018B5014600230093A4
:101F300000220020CA23194C23605323236049B197
:101F4000164B1C3B1B6843F48063144C1C3C236001
:101F500001201FE0114B1C3B1B6823F480630F4CD6
:101F60001C3C236000BF0D4B183B1B6803F00402B0
:101F7000009B5B1C0093009BB3F5005F01D0002A1F
:101F8000F1D0064B183B1B6803F004030BB900208B
:101F900000E00120FF23014C236018BD24280040ED
:101FA00008B56A4608490846FEF7E6FD0098B0F510
:101FB000800F03D805490098086002E0002003491B
:101FC00008600248006808BD0000080824010020DD
:101FD00000B587B001210846FFF730FB0121080357
:101FE000FFF73CFB052211462B48FEF771FE052248
:101FF00006212948FEF76CFE052207212648FEF738
:1020000067FEE020009002208DF8040003208DF888
:10201000050000208DF8060069461F48FEF710FEF7
:102020004FF48070009001208DF8040003208DF89B
:10203000050000208DF8060001208DF80700694694
:102040001548FEF7FDFD012000F04CFD0020ADF825
:1020500008004FF48270ADF80A000020ADF80C00C3
:102060000220ADF80E000120ADF810004002ADF8DE
:1020700012001820ADF814000020ADF8160007205B
:10208000ADF8180002A9054800F0E9F8012103485D
:1020900000F01EF807B000BD000002400030014013
:1020A000014600BF094A128902F00202002AF9D053
:1020B000064A918100BF054A128902F00102002AF6
:1020C000F9D0024A9289D0B2704700000030014036
:1020D00021B1028842F04002028004E002884FF6FB
:1020E000BF731A400280704700B587B00121880392
:1020F000FFF7A4FA05220D213848FEF7E9FD052275
:102100000E213648FEF7E4FD05220F213348FEF785
:10211000DFFD4FF42040009002208DF804000320E2
:102120008DF8050000208DF8060069462B48FEF763
:1021300087FD4FF48050009001208DF804000320AB
:102140008DF8050000208DF8060069462348FEF74B
:1021500077FD4020009001208DF8040003208DF8C9
:10216000050000208DF8060069461D48FEF768FD51
:102170000420009001208DF8040003208DF8050054
:1021800000208DF8060069461448FEF759FD4FF40B
:102190004040ADF808004FF48270ADF80A0000200E
:1021A000ADF80C000220ADF80E000120ADF81000D3
:1021B0004002ADF812001820ADF814000020ADF870
:1021C00016000720ADF8180002A9064800F047F8ED
:1021D00001210448FFF77CFF07B000BD0004024066
:1021E000000802400038004070B504460D4616460F
:1021F000324629460248FFF733F8014C70BD000013
:102200006C02002070B505460E461446FFF7C8FE66
:102210000B480068401C10B90948046004E00848F5
:102220000068204406490860054A06490846FEF74A
:10223000CBFC2246024801682846FFF783F870BDB0
:1022400024010020000108080246002013890B40E9
:102250000BB1012000E0002070478181704710B56C
:102260000022028802F441520B884C8823438C8858
:102270002343CC8823430C8923434C8923438C89F3
:102280002343CC8923431A4302800B8A038210BD67
:102290007047000030B500228B071C0F0F2303FA94
:1022A00004F20B4B8C1053F824309343084C8D10E0
:1022B00044F8253023468C1053F824308C07240F23
:1022C00000FA04F42343024C8D1044F8253030BD4D
:1022D0000800014070B504460E46FE220521204646
:1022E000FDF724FFAA2060713078A0710E480078B5
:1022F000E07170782072FEF7CBF860745520A074FE
:102300000A4A0B490A481038FEF736FC002507E058
:10231000002104F1090041550421001D41556D1CA7
:10232000042DF5DB70BD00000100002094000020AA
:10233000300008080CB50020019000902F4800687C
:1023400040F001002D49086000BF2C48006800F0F3
:1023500002000090009818B90198B0F5A06FF4D170
:102360002648006800F0020010B10120009001E052
:1023700000200090009801283FD12148006820F0FB
:1023800001001F4908600846006820F0020008604C
:102390000846006820F004000860184824300068EF
:1023A00040F08050154924310860C8141549086070
:1023B00000BF1448406800F010000028F9D10F4811
:1023C000083000680D490831086008460068086058
:1023D0000846006808600846006820F003000860AE
:1023E0000846006840F00100086000BF034808305C
:1023F000006800F00C000428F8D10CBD0038024041
:10240000003C024000700040042808D14FF0E02159
:10241000096941F004014FF0E022116107E04FF03B
:10242000E021096921F004014FF0E02211617047B9
:102430007047000010B51548006840F480701349DB
:102440000860124808300068114908400F490831F7
:1024500008600E4800680F4908400C4908600846AB
:10246000006820F48020086008480830006820F4E4
:102470007D000649083108600020091D0860FFF74B
:1024800059FF4FF000600449086010BD0038024059
:102490000CC0FF88FEFFFEEE08ED00E0F0B50C4634
:1024A000154600210022068C4FF6FE773E4006843A
:1024B000018B028C4FF60C7631407E1C06EA031627
:1024C0002E4331434FF6F576324044F00106324355
:1024D00001830284F0BDF0B50C46154600210022B0
:1024E0000026078C4FF6EF7C07EA0C070784018B68
:1024F000028C4FF6FF7707EA041640F6FF47394093
:102500004FF6FF7707EA033739434FF6FF7707EABD
:10251000052739434FF65F773A4046F010073A43B4
:1025200001830284F0BDF0B50C461546002100225F
:102530000026078C4FF6FF6C07EA0C070784818B97
:10254000028C4FF6FF7707EA04264FF60C773940E6
:102550004FF6FF7707EA03172F4339434FF2FF5730
:102560003A4046F480773A4381830284F0BDF0B567
:102570000C461546002100220026078C4EF6FF7CF3
:1025800007EA0C070784818B028C4FF6FF7707EA76
:10259000043640F6FF4739404FF6FF7707EA052734
:1025A00039434FF6FF7707EA0337394345F6FF779C
:1025B0003A4046F480573A4381830284F0BD0000DC
:1025C00010B50121880700F0ADF8D8B101218807C6
:1025D00000F096F80020FEF7A3FB0120FEF7A0FB19
:1025E0000220FEF79DFB08480078401C0649087051
:1025F0000121880700F084F8044A0549044810388E
:10260000FEF7E2FA10BD00006E00002094000020EA
:102610003000080810B50221354800F083F8012881
:1026200044D100220121324800F0C4F8314800783A
:1026300020B101280DD0022828D126E000212C4805
:1026400000F0C1F800202C490860012029490870D9
:102650001DE029480068212810D2254800F05FF8C5
:1026600025490A680968491C234B1960234941F828
:10267000220000211E4800F0A6F805E002201D49B6
:10268000087000201C49086001E000E000BF00BFA6
:102690000221174800F034F80121154800F030F805
:1026A00001221146124800F085F81FE00121104870
:1026B00000F038F8012819D10E480078012805D11A
:1026C00000200C4908700C49086006E009480078B1
:1026D000022802D10320074908700121044800F0B4
:1026E0000FF800220121024800F064F810BD00003C
:1026F000000800406F00002070000020DC01002076
:10270000CA430282704721B1028842F0010202806E
:1027100004E002884FF6FE731A40028070470146BB
:10272000486A704730B50246002000230024158A0D
:1027300005EA0103958905EA010413B10CB10120F2
:1027400000E0002030BD70B505460C46208850B929
:102750002389A28861882846FFF7A0FEE1882846E1
:1027600000F033F825E0208804280AD12389A288C4
:1027700061882846FFF7AFFEE188284600F02EF872
:1027800017E0208808280AD12389A2886188284672
:10279000FFF7C9FEE188284600F02DF809E02389FB
:1027A000A28861882846FFF7E2FEE188284600F00B
:1027B0002BF870BD1AB183890B43838102E08389B2
:1027C0008B438381704741627047028B4FF6F373EE
:1027D0001A400283028B0A4302837047028B4FF236
:1027E000FF331A400283028B4FF6FF7303EA012383
:1027F0001A4302837047828B4FF6F3731A40828329
:10280000828B0A4382837047828B4FF2FF331A40D8
:102810008283828B4FF6FF7303EA01231A4382837C
:102820007047000000220288B0F1804F08D0104BA2
:10283000984205D00F4B984202D00F4B984204D1DA
:102840004FF68F731A404B881A430C4B984207D0AF
:102850000B4B984204D04FF6FF431A400B891A43A2
:1028600002804B68C3620B88038501238382704713
:102870000004004000080040000C00400010004030
:10288000001400403EB504461448006840F00100C2
:1028900012490860019442F20F70ADF80000002068
:1028A000ADF80800ADF8020069464FF08040FFF730
:1028B000B9FF4FF6FE704FF080410882084600884D
:1028C00040F0800008800846008840F00100088041
:1028D0000846808940F0010088813EBD24380240CE
:1028E00010B540F22551144800F03EF818B31248D4
:1028F00000F0F0F8C1B2114802680068401C0F4BAC
:1029000018600F48815401200E4908600E48006885
:10291000401C0D490860FDF77FFF4FF480710B48A4
:10292000FEF7F9F906480078C12804D1FDF774FED6
:1029300000200249086010BD00480040000100204E
:10294000E8000020E0000020DC0000200008024039
:1029500021B1828942F40052828104E082894DF6DD
:10296000FF731A408281704770B50246002400232D
:102970000025002040F66A16B14200D100BFC1F325
:10298000421501F01F03012606FA03F3012D02D1BF
:102990009689334006E0022D02D1168A334001E0C9
:1029A000968A33400C12012606FA04F41688344045
:1029B00013B10CB1012000E0002070BDF0B503465A
:1029C000002400260025002040F66A17B94200D1F5
:1029D00000BF1846C1F3421401F01F06012707FA91
:1029E00006F5012C01D10C3004E0022C01D110308D
:1029F00000E014301AB107682F43076002E007684F
:102A0000AF430760F0BD00002DE9FF4705460E46C5
:102A10000024A14600BFA046B08900B100BF2C8AA7
:102A200024F44054F08804432C82AC8941F20C60B9
:102A30008443B08831890843718908430443AC81D9
:102A4000AC8A24F44074B0890443AC826846FEF733
:102A50005DFE1F48854202D1DDF80C9001E0DDF8F3
:102A60000890A88900F4004040B109EBC90000EBD0
:102A7000091031684900B0FBF1F707E009EBC90024
:102A800000EB091031688900B0FBF1F76420B7FB57
:102A9000F0F004012009642101FB1078A88900F4FA
:102AA000004040B1322000EBC800B0FBF1F000F074
:102AB0000700044308E0322000EB08106421B0FB5B
:102AC000F1F000F00F0004432C81BDE8FF87000007
:102AD0000038014001468888C0F30800704700BFF5
:102AE000FEE7000010B5044614B1012C0CD105E03E
:102AF0004FF480710548FEF70EF905E04FF4807140
:102B00000248FEF70AF900BF00BF10BD00000240F6
:102B100000B585B0FDF714FF01210846FEF79EFDC4
:102B20004FF48010FDF706FF4FF480100290002054
:102B30008DF80C0008208DF80D0001208DF80E0096
:102B400002A8FDF723FF03208DF8100000208DF868
:102B500011008DF8120001208DF8130004A8FEF773
:102B600087FC0320009000208DF8040001208DF8E0
:102B700005008DF8070069461248FEF761F800214C
:102B80000120FFF787FB01210846FFF783FB0120A7
:102B9000029000208DF80C000C208DF80D00012013
:102BA0008DF80E0002A8FDF7F1FE0220029002A8A7
:102BB000FDF7ECFE0120FDF7BDFE0220FDF7BAFE99
:102BC00005B000BD0004024002E008C8121F08C1A1
:102BD000002AFAD170477047002001E001C1121F9E
:102BE000002AFBD17047000010B56FF00400FFF71A
:102BF0000BFC0A4800680A49B0FBF1F0094908706B
:102C00000846007800EB4001C1EBC0104FF6FF71A1
:102C100001EAC0000449088010BD000074000020D3
:102C20000024F400680000206A0000200146114AD8
:102C300012884A434FF0E0235A6100229A611A46F3
:102C4000126942F001021A6100BF4FF0E0221069E0
:102C500000F001021AB100F48032002AF5D04FF0E2
:102C6000E022126922F001024FF0E0231A610022F3
:102C70009A6170476A0000200146114A12784A435F
:102C80004FF0E0235A6100229A611A46126942F01D
:102C900001021A6100BF4FF0E022106900F001024A
:102CA0001AB100F48032002AF5D04FF0E022126908
:102CB00022F001024FF0E0231A6100229A6170476E
:102CC00068000020F0B503460D4616460027294649
:102CD0000A2E03D0002008702846F0BD33B93020FA
:102CE00001F8010B002008702846F6E7002B03DAF4
:102CF0002D2001F8010B5B4242F210720DE093FBB4
:102D0000F2F404B937B104F1300001F8010B04FB0F
:102D1000123301270A2092FBF0F2002AEFDC002098
:102D200008702846D9E7000088B00120FEF736FC7D
:102D300001210807FEF782FC0120FEF73BFC002082
:102D4000FE490870FE490870FEF753FBFEF7B2FC1F
:102D50000020FC49C87219208872012008721220D4
:102D6000C8710020087311200871232048710420C5
:102D700088710A20086008460FC8FEF7E5FD0120AB
:102D8000F149087004204870FDF746FD4FF480714A
:102D9000EE48FDF7C2FF8021EC48FDF7BCFFFFF7CE
:102DA000A3F90421EA48FDF7B6FF012404E0601E00
:102DB000E8490C54601CC4B2112CF8DBFEF722FA6F
:102DC0000120E549086000204860402088600B2011
:102DD000C8600A46E149E1481038FDF7F5FEAA202F
:102DE000DF4908600B204860DE4800684078886052
:102DF0005520C8600A46D9494039D8485038FDF7AF
:102E0000E3FE4DE20120FFF78FF8FDF709FE0020F9
:102E1000FFF78AF8FDF75CFBFEF7F4F9D24800787B
:102E200000287DD0C848FDF715FB01A8FEF7B4FEC9
:102E3000CE4801990160BDF8081081809DF80A1004
:102E40008171002442792146641CC2484254C7481B
:102E500002792146641CBF484254C448C2782146C6
:102E6000641CBC484254C14802782146641CB948DD
:102E70004254BE4842782146641CB6484254BB487E
:102E800082782146641CB3484254B948007802163F
:102E90002146641CAF484254B548007802142046CD
:102EA000611CCCB2AB490A54B148007802122046EA
:102EB000611CCCB2A7490A54AD4802782146601C77
:102EC000C4B2A4484254AA48007902162046611CA4
:102ED000CCB2A0490A54A648007902142046611CCD
:102EE000CCB29C490A54A248007902122046611CC7
:102EF000CCB298490A549E4802792046611CCCB253
:102F000094490A549A48007A02162046611CCCB2B1
:102F100090490A549648007A02142046611C00E049
:102F20002CE0CCB28B490A549148007A0212204618
:102F3000611CCCB287490A548D48027A2046611C34
:102F4000CCB284490A54224600218248FFF75AF93C
:102F5000FFF726F8B0F5800F0AD3FEF743F90120FA
:102F6000844908600A467D49B0310846FDF72CFEC9
:102F70008048002102688048FFF736F97F4A774988
:102F8000403976485038FDF7F7FD7C480068AA289C
:102F90000AD17A48C068552806D1784800796A492C
:102FA00008707648007A4870644800786449097867
:102FB00040EA4100012827D1FEF7B0FA4FF4E13092
:102FC000FDF7C4FA604903A8FFF784F901206C49B2
:102FD00008700846007848B16A480068012802D1A4
:102FE0000020684908600020654908705648FDF7D0
:102FF00031FA002051490870514908704FF480712E
:103000005248FDF78AFE4BE14C4800784C4909785C
:1030100040EA4100022803D0534800780028F2D04B
:10302000002051490870FEF779FA002056490870CF
:10303000FFF75AF804214648FDF76DFEFDF762FFE1
:10304000FDF734FF514B022200212420FDF7B0FF91
:103050004A4A4249403941485038FDF78DFD444ABB
:103060003E4920393D483038FDF786FD3648FDF7AA
:10307000F1F9424800793449087008460078394926
:1030800009680870374800680078414908700A22CA
:1030900040493F480078FFF715FE3E4A0021562080
:1030A000FDF7F8FF3C4B082203210020FDF780FFCD
:1030B0002F4800680A21B0FBF1F0384908602C481D
:1030C00000680A21B0FBF1F201FB120034490860EC
:1030D0000A22344931480068FFF7F4FD2F480068A0
:1030E000092815D92F4A06211220FDF7D3FF2EA259
:1030F00007212220FDF798FF0A222C492848006862
:10310000FFF7E0FD294A06212720FDF7C3FF14E061
:10311000244A06211520FDF7BDFF23A207211D200B
:10312000FDF782FF0A2221491D480068FFF7CAFD0A
:103130001E4A06212220FDF7ADFF39E06C00002079
:103140006D0000205C0100202400002000080240E7
:10315000000402406C010020BC010020500008085F
:103160009C010020200000201C0100200200002003
:1031700094000020240100206C0200208C0100201B
:1031800000000020E00000206E000020C032000897
:103190001C00002026000020003300084C00002006
:1031A000500000202B0000202E00000030000020E6
:1031B0003C4840680A21B0FBF1F03B4908603948BF
:1031C00040680A21B0FBF1F201FB120037490860A8
:1031D0000A22374934480068FFF774FD3248006816
:1031E000092816D9324A06215120FDF753FFAFF2C4
:1031F000480207216120FDF717FF0A222D492B48BD
:103200000068FFF75FFD2B4A06216620FDF742FFAD
:1032100015E0274A06215420FDF73CFFAFF2780263
:1032200007215C20FDF700FF0A2222491F480068A1
:10323000FFF748FD1F4A06216120FDF72BFFC8203C
:10324000FFF7F4FCC820FFF7F1FCC820FFF7EEFC05
:10325000C820FFF7EBFCC820FFF7E8FCC820FFF709
:10326000E5FCC820FFF7E2FCC820FFF7DFFCC82020
:10327000FFF7DCFCC820FFF7D9FCC820FFF7D6FC1D
:10328000C820FFF7D3FC00200B4908700B490870D9
:10329000FDF70CFE0020FEF795F90020FDF776FF04
:1032A000B0E50000940000205400002058000020E9
:1032B000350000203A0000206D0000206C00002046
:1032C0000484E45C44C40000F808090E08080800FF
:1032D00002017F10103F80601F000000000000000E
:1032E0000000FE0282828282FA8282828282020050
:1032F00080601F40404040407F4040445840400074
:103300000808E8292E28E80808C80C0BE808080077
:103310000000FF0949897F00000F40807F00000006
:103320001010D0FF901008080809FA0808080800D3
:10333000040300FF0003404141417F4141414000FF
:10334000000000000000000000000000000000007D
:10335000000000000000000000000000000000006D
:10336000000000FC242424242222222322202000E6
:103370004020180700FE424242424242FE00000046
:103380001010D0FF901008080809FA080808080073
:10339000040300FF0003404141417F41414140009F
:1033A000000000000000000000000000000000001D
:1033B000000000000000000000000000000000000D
:1033C0000808E8292E28E80808C80C0BE8080800B7
:1033D0000000FF0949897F00000F40807F00000046
:1033E0004850E21400209A423E8202FE000830005B
:1033F00044442524140D04FF040C152424444400E3
:103400004042CC0000445454547F5454544440002F
:1034100000007F201000FF15151555957F00000056
:10342000404042CC0040A09E8282829EA02020008C
:103430000000003F908840432C10284641808000C7
:10344000001715D55557557D555755D515170000FB
:103450004040407F555555555555557F404040009B
:10346000202020FF202080F88040FF2010F0000066
:103470001030100F0808003F40405F42444378007E
:10348000202020FF202000F80000FF4040400000E6
:103490001030100F0848407F40407F4040404000BF
:1034A0000808E8292E28E80808C80C0BE8080800D6
:1034B0000000FF0949897F00000F40807F00000065
:1034C0004850E21400209A423E8202FE000830007A
:1034D00044442524140D04FF040C15242444440002
:1034E000001088C43310545454FF54547C101000FE
:1034F000020100FF0010121212FF1212121000003F
:103500004044C4444444401010FF101010F0000028
:10351000103C131014B840300E014080403F0000B2
:10352000808080808080808080808080808080001B
:10353000000000000000000000000000000000008B
:1035400000FE9292FE9292FE00F21AD612F2020051
:1035500022120A06FF060A12804F300F204F800009
:1035600004040484E43C2724242424E40404040004
:1035700004020100FF0909090949897F00000000D0
:10358000001010101010FF1010101010F0000000AC
:103590000080402018060100204080403F000000CD
:1035A0000000800000E002041800000040800000DD
:1035B000100C0300003F40404040407800010E00E6
:1035C00000FE2222FE0000F8080809EE08080800A4
:1035D000807F0282FF80601F4041417F4141400067
:1035E00000000000000000000000000000000000DB
:1035F00000000000000000000000000000000000CB
:1036000000000000000000000000000000000000BA
:103610000000008080C0C0C0E0E0E07030309098D2
:10362000D8C8E8E0E0F0F0F0F0F0F0F0F0F0E0E022
:10363000C0C000000000000000000000000000000A
:10364000000000000000000000000000000000007A
:10365000000000000000000000000000000000006A
:10366000000000000000000000000000000000005A
:10367000000000000000000000000000000000004A
:10368000000000000000000080C0E0F0F0F8FCFC4A
:103690007E3F1F8F87C7E3F1F9FCFCFEFFFFFFFFB2
:1036A000FFFFFFFFFFFFFFFFFFFFFFFFFFFFFFFF2A
:1036B000FFFFFFFE0000000000000000000000000F
:1036C00000000000000000000000000000000000FA
:1036D00000000000000000000000000000000000EA
:1036E00000000000000000000000000000000000DA
:1036F00000000000000000000000000000000000CA
:1037000080C0E0F0F8FCFEFFFF3F1F0F87C3E1F031
:10371000F8FCFEFFFFFFFFFFFFFFFFFFFFFFFF7F44
:103720003F3F1F1F0F0F0F0F0F0F0F1F3F7FFFFF99
:10373000FFFFFF1F80C0E0E0F0F8F8FCFCFCFEFE9D
:10374000FEFEFCFCF8F0E0000000000000000000BD
:103750000000000000000000000000000000000069
:103760000000000000000000000000000000000059
:103770000000000000000000000000C0E0F0FCFEBF
:10378000FFFFFF7F3F0F87C1E0F8FCFEFFFFFFFF59
:10379000FFFFFFFFFFFFFF7F3F1F0F070301000039
:1037A0000000000000000000000000000000FFFF1B
:1037B000FFFF7F3F3F1F0F0F0707070303030303AD
:1037C00007070F7FFFFF7F000000000000000000E0
:1037D00000000000000000000000000000000000E9
:1037E00000000000000000000000000000000000D9
:1037F00000000000101C1F1F1F1F1F1F1F1F1F1F67
:103800001F0701000C0E0F0F0F0F0F0F0F0F0F0FE1
:103810000F0F0F0F07030000000000000000000062
:10382000000000000000000000000000000F07037F
:103830000100000000000000000000000000000087
:103840000000000007010000000000000000000070
:103850000000000000000000000000000000000068
:103860000000000000000000000000000000000058
:10387000000000000000000000000000000000FF49
:10388000FFFFFFFF0240E0F0B030302020E0F0FE0C
:10389000FFFF9F1F7FFFFCF08000030F3FFFFFFF34
:1038A000FCF08000000080E0F0FCFEFFFFFFFFFF67
:1038B0000000C0F0F8F8FCFC3E1E0E0F0F078787D3
:1038C00087878F8E8E0E0000000000000000000031
:1038D00000000000000000000000000000000000E8
:1038E00000000000000000000000000000000000D8
:1038F000000000000080C0C0C0C0C0C0C0C0E0FF69
:10390000FFFFFF7F10000103078FEEFCFFFF7F7FAB
:1039100063E0E1C1C3C3DFFFFFFEF8C00000031F87
:103920007FFFFFFEFCFFFF3F1F0701FFFFFFFFFFC1
:1039300000000F1F3F7FFFFFF8F0E0E0E0E3E3E36C
:10394000C3FFFFFFFFFF00000000000000000000B9
:103950000000000000000000000000000000000067
:103960000000000000000000000000000000000057
:10397000000000000000010101010101010101013D
:103980000100000000000000000101010101000031
:10399000000000000001010101010101010000001F
:1039A000000101010101000000000001010101010D
:1039B0000000000000000000000101010101010100
:1039C00001010101000000000000000000000000F3
:1039D00000000000000000000000000000000000E7
:1039E0000000000000000000002F000000000700A1
:1039F000070000147F147F1400242A7F2A1200621B
:103A000064081323003649552250000005030000C6
:103A100000001C224100000041221C000014083E4E
:103A200008140008083E0808000000A06000000814
:103A30000808080800006060000000201008040268
:103A4000003E5149453E0000427F40000042615126
:103A50004946002141454B31001814127F100027C0
:103A600045454539003C4A49493000017109050383
:103A700000364949493600064949291E00003636B4
:103A80000000000056360000000814224100001417
:103A900014141414000041221408000201510906F4
:103AA00000324959513E007C1211127C007F494975
:103AB0004936003E41414122007F4141221C007FA6
:103AC00049494941007F09090901003E4149497AB4
:103AD000007F0808087F0000417F4100002040412E
:103AE0003F01007F08142241007F40404040007F9A
:103AF000020C027F007F0408107F003E4141413EDE
:103B0000007F09090906003E4151215E007F091925
:103B100029460046494949310001017F0101003F22
:103B20004040403F001F2040201F003F4038403FA2
:103B30000063140814630007087008070061514906
:103B4000454300007F41410000552A552A55000099
:103B500041417F0000040201020400404040404017
:103B6000000001020400002054545478007F4844AF
:103B7000443800384444442000384444487F0038E6
:103B80005454541800087E0901020018A4A4A47C0F
:103B9000007F080404780000447D400000408084D9
:103BA0007D00007F102844000000417F4000007C21
:103BB00004180478007C080404780038444444382D
:103BC00000FC242424180018242418FC007C080479
:103BD000040800485454542000043F444020003C52
:103BE0004040207C001C2040201C003C4030403CD9
:103BF000004428102844001CA0A0A07C0044645469
:103C00004C441414141414140000000000000000AC
:103C10000000000000000000000000F800000000AC
:103C2000000000333000000000100C06100C0600ED
:103C3000000000000000000040C07840C078400054
:103C4000043F04043F040400007088FC08300000B6
:103C5000001820FF211E0000F008F000E01800000E
:103C600000211C031E211E0000F0088870000000C7
:103C70001E2123241927211010160E000000000019
:103C80000000000000000000000000E01804020036
:103C9000000000071820400000020418E0000000A7
:103CA0000040201807000000404080F080404000A5
:103CB0000202010F01020200000000F000000000FB
:103CC0000101011F010101000000000000000000CF
:103CD00080B0700000000000000000000000000044
:103CE00000010101010101010000000000000000CD
:103CF0000030300000000000000000008060180468
:103D0000006018060100000000E010080810E00044
:103D1000000F102020100F00001010F8000000000D
:103D20000020203F20200000007008080888700054
:103D300000302824222130000030088888483000D4
:103D40000018202020110E000000C02010F80000F4
:103D500000070424243F240000F80888880808008D
:103D60000019212020110E0000E0108888180000A2
:103D7000000F112020110E0000380808C838080074
:103D80000000003F000000000070880808887000F4
:103D9000001C222121221C0000E010080810E00075
:103DA0000000312222110F00000000C0C0000000FE
:103DB0000000003030000000000000800000000023
:103DC000000080600000000000008040201008001B
:103DD00000010204081020004040404040404000E4
:103DE00004040404040404000008102040800000BF
:103DF0000020100804020100007048080808F000C4
:103E00000000003036010000C030C828E810E00093
:103E10000718272423140B000000C038E00000001E
:103E2000203C23020227382008F888888870000088
:103E3000203F202020110E00C0300808080838005C
:103E4000071820202010080008F808080810E000D3
:103E5000203F202020100F0008F88888E808100074
:103E6000203F20202320180008F88888E808100048
:103E7000203F200003000000C03008080838000080
:103E800007182020221E020008F808000008F80881
:103E9000203F210101213F20000808F80808000008
:103EA0000020203F2020000000000808F80808003B
:103EB000C08080807F00000008F888C028180800B3
:103EC000203F20012638200008F8080000000000EC
:103ED000203F20202020300008F8F800F8F80800E3
:103EE000203F003F003F200008F830C00008F808DD
:103EF000203F200007183F00E01008080810E000ED
:103F00000F10202020100F0008F808080808F00003
:103F1000203F210101010000E01008080810E00026
:103F20000F18242438504F0008F8888888887000BB
:103F3000203F2000030C302000708808080838005B
:103F40000038202121221C00180808F80808180051
:103F50000000203F2000000008F808000008F808D2
:103F6000001F202020201F000878880000C8380883
:103F7000000007380E010000F80800F80008F800FB
:103F8000033C0700073C0300081868808068180895
:103F900020302C03032C30200838C800C838080013
:103FA0000000203F2000000010080808C838080062
:103FB0002038262120201800000000FE0202020006
:103FC0000000007F40404000000C30C000000000B6
:103FD000000000010638C00000020202FE000000DE
:103FE000004040407F000000000004020202040084
:103FF00000000000000000000000000000000000C1
:1040000080808080808080800002020400000000A8
:1040100000000000000000000000808080800000A0
:104020000019242222223F2008F80080800000008E
:10403000003F112020110E00000000808080000051
:10404000000E112020201100000000808088F80060
:10405000000E112020103F20000080808080000092
:10406000001F222222221300008080F088888818F6
:104070000020203F20200000000080808080800001
:10408000006B94949493600008F800808080000096
:10409000203F210000203F20008098980000000071
:1040A0000020203F202000000000008098980000A1
:1040B00000C08080807F000008F8000080808000C1
:1040C000203F24022D302000000808F800000000E6
:1040D0000020203F202000008080808080808000A1
:1040E000203F20003F20003F808000808080000033
:1040F000203F210000203F200000808080800000C1
:10410000001F202020201F008080008080000000F1
:1041100080FFA12020110E00000000808080800020
:10412000000E112020A0FF80808080008080800011
:1041300020203F212000010000008080808080003E
:104140000033242424241900008080E080800000B3
:104150000000001F20200000808000000080800000
:10416000001F202020103F20808080000080808061
:1041700000010E30080601008080008000808080F1
:104180000F300C030C300F00008080008080800016
:104190000020312E0E312000808080000080808041
:1041A00080818E70180601000080808080808000F1
:1041B0000021302C2221300000000000807C02020F
:1041C00000000000003F404000000000FF00000031
:1041D00000000000FF0000000002027C80000000E0
:1041E0000040403F000000000006010102020404FC
:1041F000000000000000000018420008000000203D
:104200005C010000740100085C4200085C010020B1
:1042100014090000D82B0008110210E103502804F3
:104220000210011324F4780A030406080C10182065
:1042300030251A02135C07080930A90432AA320893
:1042400029AB02230232CAF2557A0501011A09127A
:0C425000F9041D172020B9C829C499C822
:0400000508000109E5
:00000001FF
