:020000040800F2
:10000000A805002009010008130E0008190B0008BC
:10001000110E0008B90400082119000800000000B2
:10002000000000000000000000000000B112000805
:100030000D07000800000000A90F000801140008C7
:100040002301000823010008230100082301000800
:1000500023010008230100081107000839070008E0
:1000600023010008230100082301000823010008E0
:1000700023010008230100082301000823010008D0
:1000800023010008230100082301000823010008C0
:1000900023010008230100082301000823010008B0
:1000A00023010008230100082301000823010008A0
:1000B000BD14000823010008F514000823010008FE
:1000C0002301000823010008230100082301000880
:1000D000230100082301000823010008A5170008D8
:1000E0002301000823010008230100082301000860
:1000F00023010008DFF80CD000F02AF80048004780
:10010000591B0008A80500200648804706480047FC
:10011000FEE7FEE7FEE7FEE7FEE7FEE7FEE7FEE7B7
:10012000FEE7FEE705140008F5000008D2B201E082
:1001300000F8012B491EFBD270470022F6E710B5EC
:1001400013460A4604461946FFF7F0FF204610BD45
:10015000064C074D06E0E06840F0010394E8070014
:1001600098471034AC42F6D3FFF7C8FF541C000880
:10017000741C0008C943016070470029816802D0DF
:1001800041F0010101E021F00101816070470000B0
:10019000214810B5016888B041F0010101603020AC
:1001A000069003208DF81C0000248DF81F4006A93E
:1001B0001A4800F009FC012000F0CEFF212000F0D9
:1001C000AFFF0028FAD00121480200F02FFF009471
:1001D0008DF80440012002940494114C8DF8050020
:1001E0008DF814006946204600F02CF801224FF4E7
:1001F0004031204600F04CF81021204600F012F863
:1002000001212046FFF7B9FF4021204600F013F8F6
:100210000028F9D008B010BD1C3802400000024090
:1002200000240140826822F0F0020A438260704795
:10023000806D80B270470246002012680A4200D0EA
:100240000120704730B542680F4B0C791A400B689B
:1002500042EA04221343436082680C4B4D791A40F2
:10026000D1E9034323438C6844EA45042343134301
:100270008360026B097D22F0F872491EC9B242EA1E
:100280000151016330BD0000FFFEFFFCFDF7FFC020
:10029000002A426801D00A4300E08A434260704766
:1002A00070B5072413290AD9C568A1F1140606EB15
:1002B0004606B440A543B3401D43C56014E0092978
:1002C0000AD90569A1F10A0606EB4606B440A54322
:1002D000B3401D43056107E0456901EB4106B440A9
:1002E000A543B3401D4345611F23072A09D2046C6F
:1002F000521E02EB820293409C4391400C430464E3
:1003000070BD0D2A09D2C46BD21F02EB820293404A
:100310009C4391400C43C46370BD132A09D2846B83
:100320000D3A02EB820293409C4391400C4384635C
:1003300070BD192A09D2446B133A02EB8202934032
:100340009C4391400C43446370BD046B193A02EB2B
:10035000820293409C4391400C43046370BD8168CA
:1003600041F08041816070472DE9F04105461A4C0B
:1003700000201A4E1A4F20708046687821788842F3
:1003800001D884F80080207836F8201089B200F077
:10039000B3FC00F0C3FBB84204D1124A124928460C
:1003A00000F03CFC00F0C8FD0028E6D04FF0804093
:1003B000818921F0010181810C48018821F002012D
:1003C0000180002000F0F2FD00F050FCBDE8F0419B
:1003D000002000F041BC000074000020E00000207C
:1003E0007A84FF01151A0008A11900080C080040C2
:1003F00070B50546012000F0D9FD00244FF4C87601
:1004000007E0304601F08EFB204600F03FFB641C05
:10041000E4B26878A042F4D8002000F0C7FDBDE83F
:1004200070400448024A0349103800F09FBA0000A7
:10043000E00000203000080803480088800701D54C
:10044000CB207047CA207047100802401CB502201C
:100450000090002001906946014800F0B5FA1CBDEB
:100460000008024010B500F0EDFD114800F004FE58
:100470000F4864214068B0FBF1F0B0F1807F0DD2ED
:1004800020F07F414FF0E020491E4161094AF021F0
:1004900082F8141D002181610721016100F090FDA7
:1004A000FFF776FEFFF7D2FFBDE8104001F002BB78
:1004B000100100200FE000E0FEE70000F0B5064666
:1004C0002B4887B0016841F4802101602848083832
:1004D000016841F002010160264F07220A213846D7
:1004E00000F0C1FA07220B21384600F0BCFA38159B
:1004F000009002208DF8040003208DF805000024F0
:100500008DF8064001258DF807506946384600F001
:100510005BFAE80200906946384600F055FAADF8FB
:100520000C40ADF80E40ADF81040ADF814400C2072
:10053000114CADF81200029602A9204601F09AF97A
:100540000121204601F055F9012240F225512046B3
:1005500001F078F927208DF818008DF819508DF8E2
:100560001A508DF81B5006A800F090FC07B0F0BDA3
:100570002438024000040240004800402DE9F041C8
:100580002C4F7869401C786100F07CF84FF4807142
:10059000294800F078FA07F10800284E284D007825
:1005A000F06028802C1F20884006FCD53068C0F3FE
:1005B0000821298021884906FCD5C0F3080028803D
:1005C00020884006FCD57068C0F308212980218866
:1005D0004906FCD5C0F30800288020884006FCD5D9
:1005E000FFF72AFFB060288020884006FCD5114C18
:1005F0003834A08881B2012000F07EFB60680828B2
:100600000ED003280ED0012107280ED0012805D1D5
:10061000386960B10820606000203861BDE8F08171
:10062000032000E007206060F8E76160F6E73961C9
:10063000F4E700000000002000040240E000002079
:1006400004480040034900200988090500D501201D
:1006500070470000100402401CB50121022000F088
:10066000CDFC00208DF80400012001028DF805006A
:1006700000918DF807006946014800F0A5F91CBDFE
:10068000000402401CB54FF4C070009001208DF8AA
:10069000040003218DF8051000218DF806108DF857
:1006A00007006946014800F08FF91CBD00040240B4
:1006B00010B504464FF4004000F03AF9042801D187
:1006C0000021216010BD70B505464FF400460C4670
:1006D000304600F02DF9042805D12C603046BDE8E5
:1006E000704000F025B970BD05480068C00705D00E
:1006F0000348044908300160034901607047000065
:10070000043C0240EFCDAB890504030270470000B2
:1007100010B5012000F02AF8002809D00548012171
:1007200081700021C170BDE81040012000F018B8B0
:1007300010BD00007400002010B5022000F016F873
:10074000002809D00548002181700121C170BDE851
:100750001040022000F004B810BD0000740000201A
:10076000014908607047000014040140064A014630
:1007700000201268044B0A4014331B680B4202D05D
:10078000002A00D0012070470004014030B51A490A
:100790008379026853B30B6893430B600A1D136897
:1007A0000468A343136002790A441368046823436E
:1007B0001360114A083213680468A3431360131DC1
:1007C0001C680568AC431C604479102C05D021449A
:1007D0000A68006802430A6030BD1168046821435A
:1007E0001160196800680143196030BD0079084440
:1007F00001689143016030BD000401401CB5012136
:100800001F2000F0FBFB03208DF804008DF805008D
:1008100000208DF807004FF6FF70009069462248CF
:1008200000F0D2F86946214800F0CEF86946204829
:1008300000F0CAF869461F4800F0C6F869461E482D
:1008400000F0C2F800211D2000F0D8FB4FF08040DE
:10085000018821F0010101801848018821F001017F
:1008600001801748018821F0400101801548018866
:1008700021F4005101801448016821F00101016058
:100880001248016821F400710160001D0168104ADE
:100890001140016001F046F8012000F057FB0121F2
:1008A000084600F05BFB1CBD00080240000C024043
:1008B000001002400000024000040240000400401A
:1008C000003800400C480040082401402038024015
:1008D000FCBFFBFF0149086070470000183C024064
:1008E000084904200A68D20701D0012070470A682D
:1008F000D20501D502207047096811F4F05FFAD0E3
:1009000003207047183C02400248016841F0020190
:1009100001607047043C024018B50023009304E0D6
:1009200008C8009C42F82430121D8842F8D318BD34
:1009300008B5034604208DF80000FFF7D1FF8DF8BD
:10094000000004E0FFF7CCFF8DF800005B1E9DF86F
:100950000000012801D013B104E0002BF2D10520E2
:100960008DF800009DF8000008BD00002DE9F04161
:1009700016460F460546FFF7B7FE41F60270FFF731
:10098000A9FF781B0F4C401C80086060002006E027
:1009900005EB8000FFF78CFE2070A068401CA06073
:1009A00061688842F4D307E028463168FFF78BFE80
:1009B000042801D12D1D361DBD42F5D3BDE8F041FF
:1009C000FFF7A2BFB8000020F0B5002301240327E1
:1009D0000D6804FA03F21540954240D1D0F800C0EA
:1009E0005E0007FA06F52CEA050CC0F800C091F885
:1009F00004C0D0F800E00CFA06FC4CEA0E0CC0F87B
:100A000000C091F804C0BCF1010F02D0BCF1020F8C
:100A10001DD1D0F808C02CEA050CC0F808C091F828
:100A200005C0D0F808E00CFA06FC4CEA0E0CC0F841
:100A300008C0B0F804C02CEA020CA0F804C0B0F85A
:100A400004C08A799A404CEA020CA0F804C0C2683B
:100A5000AA43C260CA79C568B2402A43C2605B1C1F
:100A6000102BB5D3F0BD4B07DB0E9A40C90810B56B
:100A700000EB8100016A0F249C40A1430162016ADE
:100A80001143016210BD41837047000070B5204CD6
:100A9000050006D0012D08D0022D30D0032D0AD13B
:100AA00031E006230122042102E006230122052170
:100AB0002046FFF7F5FB01212046FFF75EFB2046AD
:100AC000FFF74DFC02212046FFF7B5FB0028F9D0C7
:100AD0002046FFF7ADFBC821801E48430D49801218
:100AE00041F8250002212046FFF744FB2046FFF78E
:100AF00036FC2046BDE870400021FFF73EBB0623D0
:100B000001221946D4E7062301220721D0E700007D
:100B100000240140E0000020FEE7000070B5114B0A
:100B20000020197803291BD10F4A0024116883394A
:100B3000092914D25FF0010152F82150A5F11206E3
:100B4000092E02D240F0010002E0ED1F092D07D26C
:100B5000491C4000C9B22129EED31C7070BD1C7025
:100B6000002070BD75000020200100202DE9F04715
:100B7000814627488A4688B0016841F00401016037
:100B800023480838016841F00201016002258DF810
:100B9000105003268DF8116000244020DFF8748087
:100BA0008DF81240012703908DF8137003A9404679
:100BB000FFF70AFF022206214046FFF754FFDFF845
:100BC0005880ADF814A0CDF81890ADF81C40ADF8E1
:100BD000164005A9404600F08FFDADF80040ADF885
:100BE0000470ADF80250ADF80640ADF808606946F3
:100BF000404600F0F8FC0121404600F0DCFC0122F8
:100C00000321404600F045FD08B0BDE8F087000034
:100C10002438024000040240000800402DE9F04161
:100C20000C4C07460120A071002016460D46E071CD
:100C3000FFF774FFE060E07910B1FF2803D004E013
:100C40003846A84701E03846B047A0790128EFD0E0
:100C5000BDE8F08100000020012108B1024801E058
:100C60000148801C018070471808024010B5082414
:100C7000234601220849094800F030F86408F7D1FA
:100C80000424234601220449044800F027F8641E86
:100C900014F0FF04F5D110BDA00000208D11000854
:100CA0001CB50C48016841F00401016001248DF875
:100CB00004408DF8054000208DF806008DF80700EF
:100CC000009469460448FFF77FFE03481A30048009
:100CD0001CBD00001C3802400008024070B50446EC
:100CE0001D46885CA0472846A04700F073FBBDE87E
:100CF0007040022000F0FCBE70B50C46024608238E
:100D000014491548FFF7EAFF6420B4FBF0F00A2508
:100D1000B0FBF5F105FB11020E49042308310E4822
:100D2000FFF7DCFFB4FBF5F0B0FBF5F105FB1102BA
:100D30000849022308310848FFF7D0FFB4FBF5F05B
:100D400005FB1042BDE8704002490123083102480A
:100D5000FFF7C4BFA20000208D11000870B50E4639
:100D600004460246082312491248FFF7B7FF0A2536
:100D7000B6FBF5F0B0FBF5F105FB11020C490423BD
:100D8000891D0C48FFF7AAFFB6FBF5F005FB1062C2
:100D900007490223891D0748FFF7A0FFE41CE2B2C0
:100DA000BDE87040012302490248FFF797BF0000E9
:100DB000A40000208D11000870B50546082300220C
:100DC00011491248FFF78AFF0A24B5FBF4F0B0FB83
:100DD000F4F104FB11020C4904230A310B48FFF71C
:100DE0007DFFB5FBF4F004FB1052074902230A31E2
:100DF0000648FFF773FFBDE8704001230022024957
:100E00000248FFF76BBF0000A00000208D11000812
:100E1000FEE7704738B54FF4E06000F069F81E2037
:100E20008DF8000004258DF8015001248DF8024052
:100E30008DF80340684600F029F81C208DF800006A
:100E400008208DF801008DF802508DF803406846A7
:100E500000F01CF806208DF800000E208DF801002F
:100E60008DF802008DF80340684600F00FF8072067
:100E70008DF800000F208DF801008DF802008DF82C
:100E80000340684600F002F838BD000030B50F227C
:100E9000C47801780123FCB1144C246801F1E021ED
:100EA00004F4E064C4F5E064C4F30724C4F1040569
:100EB000E2404478AC408578154025432A0181F80A
:100EC0000024007800F01F018B404009800000F1F1
:100ED000E020C0F8003130BD01F01F008340480918
:100EE000800000F1E020C0F8803130BD0CED00E062
:100EF0000249084302490860704700000000FA05F3
:100F00000CED00E010B540F23F64204600F022FCFA
:100F1000FFF7C6FE0120FFF79FFE00F04FF901200A
:100F200000F044F821464FF4FA60FFF71FFEBDE8D9
:100F30001040FFF76FBF00000349002009888907B0
:100F400000D50120704700001004024002490A68E1
:100F500042EA800008607047007000400A4B1A683F
:100F600022F0030202431A600848026842F00402B9
:100F70000260012905D020BF016821F00401016051
:100F8000704730BFF8E700000070004010ED00E04F
:100F9000014988627047000000000E420149486222
:100FA0007047000000000E4270470000202108B189
:100FB000024801E00148801C018070471808024087
:100FC0001CB50C48016841F00401016001208DF856
:100FD00004008DF8050000208DF8060020248DF80F
:100FE0000700009469460448FFF7EEFC02481A30F7
:100FF00004801CBD1C38024000080240044A00293D
:10100000116801D0014300E0814311607047000086
:101010001C380240044A0029116801D0014300E055
:10102000814311607047000024380240044A0029BF
:10103000116801D0014300E0814311607047000056
:101040002038024010B5012000F086F8212000F081
:1010500067F80028FAD0012000F08EF84FF44040E5
:1010600000F080F8002000F06FF8312000F058F810
:10107000002800D0FEE710BD30B5254A1168A2F166
:10108000040411F00C034FF4004105D0042B09D0E7
:10109000082B09D00C2B09D02368C3F342335B1C07
:1010A000994018E01B4916E01B4914E011681368C9
:1010B00001F47011194C03F4400304EB91410978D9
:1010C000012404EB9353146814F4803F1DD0124C98
:1010D0006143B1FBF3F1016011680F2303EA1111C1
:1010E0000E4B09335C5C0168E140416014680725E0
:1010F00005EA14241C5D21FA04F48460126805EAF0
:10110000D2229A5CD140C16030BD024CE0E70000C1
:10111000083802400024F40000127A00C4000020C5
:10112000014600204A09012A09D0064A126801F046
:101130001F0101238B40134200D001207047014A58
:10114000343AF3E734380240024900220A7008704A
:1011500070470000023802400149086070470000F3
:1011600000004742034A116821F4604101431160C5
:101170007047000004380240034A116821F003015F
:1011800001431160704700000838024005490A8891
:101190009207FCD5034A121D10800888C007FCD0B6
:1011A00010887047083800400029018802D041F0BB
:1011B000400101E021F0400101807047F0B52D4869
:1011C00087B0016841F0020101602A4808300168D7
:1011D00041F480410160284F05220D213846FFF778
:1011E00042FC05220E213846FFF73DFC05220F2167
:1011F0003846FFF738FC4FF46040022605908DF822
:10120000186003208DF8190000248DF81A408DF81D
:101210001B4005A93846FFF7D7FBF00201250590D2
:101220008DF818508DF8195005A93846FFF7CCFBFA
:101230002020ADF80C00ADF800404FF48270ADF8FE
:101240000200ADF808506802ADF80440ADF80A009D
:10125000ADF80E400720094CADF81000ADF806605F
:101260006946204600F00CF801212046FFF79CFF5C
:1012700007B0F0BD1C3802400004024000380040B6
:1012800030B502884C8802F441530A88CD88224345
:101290008C882C4322430C8922434C8922438C891D
:1012A0002243CC8922431A430280098A018230BD3D
:1012B0007047000010B58A0721F003040649130F98
:1012C00021440F228C689A4094438C608A6898402D
:1012D00002438A6010BD00000000014070B50D4659
:1012E0000446FE220521FEF721FFAA20607128781E
:1012F000A0710D480078E07168782072FFF79CF8C3
:1013000060745520A0740A48084A09491038FFF74C
:1013100003FB0020034604222118401C4B724A7331
:101320000428F9DB70BD000000000020E000002070
:10133000300008080CB50021234801910091026893
:1013400042F0010202604FF4A042036813F002036E
:10135000009302D1019B9342F7D10068800730D5FA
:10136000012000901948016821F001010160016825
:1013700021F002010160016821F0040101601248BE
:101380002430016841F080510160C11410480160AF
:101390004168C906FCD40C48083001680160016846
:1013A000016001680160016821F0030101600168CA
:1013B00041F0010101600168C1F381010129FAD105
:1013C0000CBD00910CBD000000380240003C024002
:1013D0000070004003494FF4805008808A1C108040
:1013E00008807047180402404FF0E0210428086983
:1013F00003D020F004000861704740F00400FAE7D1
:1014000070470000104810B5016841F48071016018
:101410000D4908310A680D4B1A400A6002680C4BEE
:101420001A400260026822F480220260086820F4F8
:101430007D000860091D00200860FFF77BFF05495B
:101440004FF00060086010BD003802400CC0FF88FB
:10145000FEFFFEEE08ED00E070B5048C24F0010400
:101460000484058B048C4FF6FF7606EA03131343BE
:1014700025F0F3052B4324F00A020A4342F0010150
:101480000383018470BDF0B5048C24F0100404843F
:10149000078B068C4FF6FF7404EA011527F4734797
:1014A00004EA0331394304EA02220A4326F0A00188
:1014B000294341F0100102830184F0BD70B5012180
:1014C0008D07284600F083F8002810D00121284617
:1014D00000F06EF8064C2078FFF7D8FA2078401C10
:1014E00020702846BDE87040012100F061B870BD51
:1014F0007400002070B52B4D0221284600F067F8DB
:101500000026294C01280BD00121284600F05FF865
:10151000012845D16078012832D0022833D034E048
:1015200000220121284600F0B4F8607810B10128AB
:101530001CD107E00021284600F0B3F801206660C6
:10154000607013E0606821280DD2284600F03DF855
:10155000164A616842F82100491C61600021284652
:1015600000F09FF802E002206070666002212846C9
:1015700000F01EF80121284600F01AF8012209E0C7
:101580006670666001E0032060700121284600F06B
:101590000FF800222846BDE87040012100F079B81C
:1015A00070BD0000000800407400002020010020F1
:1015B000C943018270470029018802D041F001012E
:1015C00001E021F0010101807047406A7047024646
:1015D0000020138A92890B4202EA010202D0002AFB
:1015E00000D0012070472DE9F0410D460E88498852
:1015F000AA882B89044616B3042E28D0082E268CE0
:101600004FF6FF702BD026F480562684A78B268CAD
:1016100000EA022200EA013127F473473A4300EA64
:101620000330104326F420420A4342F48051A08341
:101630002184E9882046BDE8F04100F050B8FFF76A
:101640000BFFE9882046BDE8F04100F02CB8FFF719
:101650001AFFE9882046BDE8F04100F02CB826F4D6
:1016600080762684A78B268C00EA012100EA0310ED
:10167000104327F0F307384326F420620A4342F46C
:101680008071A0832184E9882046BDE8F04100F004
:101690001EB8002A828901D00A4300E08A43828171
:1016A000704741627047028B22F00C020283028B6A
:1016B0000A4302837047028B22F440620283028B4A
:1016C0004FF6FF7303EA01210A4302837047828BBE
:1016D00022F00C028283828B0A4382837047828BC2
:1016E00022F440628283828B4FF6FF7303EA01216A
:1016F0000A438283704700000288B0F1804F08D00F
:101700000F4B984205D00F4B984202D00E4B984297
:1017100003D122F070034A881A430C4B984206D03A
:101720000B4B984203D022F440730A891A4302807B
:101730004A68C262098801850121818270470000E0
:101740000004004000080040000C00400010004071
:10175000001400403EB512490A6842F001020A60D6
:10176000019042F20F70ADF800000020ADF80800C3
:10177000ADF802004FF0804469462046FFF7BCFFF9
:101780004FF6FE702082208840F080002080208864
:1017900040F001002080A08940F00100A0813EBD02
:1017A0002438024010B50E4C40F22551204600F07E
:1017B0002AF8002813D00B4901200860FEF762FFC9
:1017C000A1150948FFF75FF9204600F0A5F8202190
:1017D000204600F00BF8BDE81040FEF7CFBE10BD6C
:1017E000004800409C00002000040240C9430180E2
:1017F00070470029818902D041F4005101E021F4B1
:1018000000518181704730B501F01F02012400258D
:10181000C1F3421304FA02F2012B0FD0022B0FD0B6
:10182000838A4FEA11210088134204FA01F400EA86
:10183000040001D000B10125284630BD8389F0E7BE
:10184000038AEEE710B5C1F3421301F01F04012132
:10185000A140012B07D0022B07D01430002A0268C8
:1018600005D00A4304E00C30F8E71030F6E78A436D
:10187000026010BD7FB50446008A0D4620F4405139
:10188000E88808432082A08941F20C618843A98836
:101890002A8911436A8902431143A181A08A20F455
:1018A0004071A8890843A0826846FFF7E5FB194804
:1018B000844201D1039800E00298A189090400EB59
:1018C000C00101EB0010296801D5490000E0890042
:1018D000B0FBF1F06422B0FBF2F109010B096FF0EB
:1018E00018056B4300EB8300A3891D044FF03203FE
:1018F00006D503EBC000B0FBF2F000F0070005E0F6
:1019000003EB0010B0FBF2F000F00F000843208161
:101910007FBD0000003801408088C0F30800704798
:10192000FEE700007FB5002503208DF80C50012450
:1019300002908DF80D408DF80F4002A90F48FFF777
:1019400043F801210846FFF771FB00210120FFF752
:10195000B1FC01210846FFF7ADFC8DF804500C20C6
:101960008DF8050000948DF806406846FEF70EFFDE
:10197000022000906846FEF709FF7FBD0004024088
:1019800002E008C8121F08C1002AFAD17047704748
:10199000002001E001C1121F002AFBD170470000A6
:1019A00070B51A4C05461A49E06840184FF000011E
:1019B00014D000F69440B0F5204012D000F21C4044
:1019C000B0F5005004D0A0F57760B0F5004F0BD112
:1019D0006078E070A2786270A07004E0FF20E0718F
:1019E00001E0E171A171E1606078282808D0042845
:1019F00005D169780120FFF7B1F96878207170BDD1
:101A000029780020FFF7AAF92878F7E700000020DE
:101A100022DE01FE70B5234C234A4FF00005E16839
:101A20008B1822461179527823D003F69443B3F5EC
:101A3000204335D003F21C43B3F5005305D0A3F582
:101A40007763B3F5004F06D10BE001B9227120791D
:101A5000401E0CE0E5602179BDE870400220FFF7F0
:101A60007DB9491CC8B220719042F3D90120207180
:101A7000F0E7282A02D0042A02D002E0017000E038
:101A800041700A49AA220A6002784A604078886058
:101A90005520C86006480A4605491038FEF766FF1B
:101AA000E571D7E70000002022DE01FE00010020E2
:101AB0001000080810B56FF00400FFF795FC094806
:101AC00009490068B0FBF1F0C1B2084801EB4102DE
:101AD0000170C2EBC1114FF6FF7202EAC1014180F1
:101AE00010BD00007C0000200024F40070000020E5
:101AF0000B49498848434FF0E021486100228A6140
:101B0000086940F0010008610869C30701D0C003FB
:101B1000FAD5086920F0010008618A617047000069
:101B2000700000200B49097848434FF0E0214861DC
:101B300000228A61086940F0010008610869C30752
:101B400001D0C003FAD5086920F0010008618A615C
:101B5000704700007000002086B00120FFF718FADF
:101B600001210807FFF756FA0120FFF717FA324F55
:101B7000324E00243C703470FFF74CF9304D4FF07A
:101B80000109022085F800906870DFF8B880A5F19F
:101B9000080BBA46FEF732FEFEF764FC2A48294AD3
:101BA00029491038FEF7B8FED8F800104046AA2997
:101BB00007D1C168552904D10179297098F8080026
:101BC00068709AF800103078574641EA40000128C2
:101BD00012D00228DED1FFF795F91C4F3C7028780F
:101BE000FFF7EAF838780228F9D31548FEF7BCFB6E
:101BF00034708AF80040CDE7FFF784F94FF41650AF
:101C0000FEF75CFC0E496846FFF768FB10498BF84D
:101C100005900A68012A00D10C608BF8054000BFCE
:101C2000FEF710FD0028FBD10548FEF7E1FB3C70F4
:101C30003470FEF711FDADE776000020770000203C
:101C400008000020F00000201000080874000020A8
:101C50009C000020741C000800000020E000000030
:101C600080190008541D0008E0000020C80400008E
:101C700090190008E12804000000000000000000A6
:101C8000000000000000000001000000AA000000A9
:101C90000000000000000000000000000000000044
:101CA00000000000CA00000055000000AA0000006B
:101CB00008000000E1000000090000000000000032
:101CC0000000000000000000000000000000000014
:101CD000000000000000000000000000CA0000003A
:101CE000550000000000000000000000000000009F
:101CF0000024F400030406080C1018203000000033
:101D000000000000000102030406070809000000AB
:101D100000000000BFFFFEF79EA7C6BCB3F0C0F9ED
:101D2000A4B0999282F880907F0000000400000027
:101D30000000000000000000030406080C1018203A
:101D4000300000000001020304010203040607083A
:041D50000900000086
:0400000508000109E5
:00000001FF
