:020000040800F2
:10000000A004002045010008490100084B01000838
:100010004D0100084F0100085101000800000000D8
:100020000000000000000000000000005301000874
:10003000550100080000000057010008DD0D000810
:100040005B0100085B0100085B0100085B01000820
:100050005B0100085B010008FD05000801060008BF
:100060000306000805060008070600085B010008F3
:100070005B0100085B0100085B0100085B010008F0
:100080005B0100085B0100085B0100085B010008E0
:100090005B0100085B0100085B010008090600081D
:1000A000A90E0008B50E0008B10E0008AD0E00083C
:1000B000B90E0008BB0E0008BD0E00085B01000869
:1000C0005B0100085B0100085B0100085B010008A0
:1000D0005B0100085B0100085B0100085B01000890
:1000E000FF0500085B0100085B0100085B010008D8
:1000F0005B0100085B0100085B0100085B01000870
:100100005B0100085B010008E10E00085B010008CC
:100110005B0100085B010008E30E00085B010008BA
:100120005B0100085B0100085B0100085B0100083F
:10013000DFF80CD000F056F8004800475D160008C4
:10014000A004002005480047FEE7FEE7FEE7FEE7C3
:10015000FEE7FEE7FEE7FEE7FEE7FEE73101000807
:1001600040EA01039B0703D009E008C9121F08C039
:10017000042AFAD203E011F8013B00F8013B521EB9
:10018000F9D27047D2B201E000F8012B491EFBD230
:1001900070470022F6E710B513460A460446194692
:1001A000FFF7F0FF204610BD421C10F8011B00298C
:1001B000FBD1801A704730B50B4601460020202243
:1001C000012409E021FA02F59D4205D303FA02F564
:1001D000491B04FA02F52844151EA2F10102F1DCC4
:1001E00030BD0000064C074D06E0E06840F001031A
:1001F00094E8070098471034AC42F6D3FFF79CFF11
:1002000010180008301800082DE9F04106462A4869
:10021000006800F10A07102E0CD006DC022E0BD06D
:10022000042E0FD0082E11D10EE0202E06D0402E25
:100230000CD105E0012409E0022407E0042405E0D4
:10024000062403E0032401E0052400BF00BF2DE0E5
:1002500000F03FF90546202E01D0402E03D1032D9A
:1002600009D0052D07D0042E01D0082E09D1042D68
:1002700001D0062D05D13A460221084600F092F938
:100280000546A54205D03A462146304600F08AF997
:100290000546082D05D13A460221084600F082F9AC
:1002A0000546A54202D10120BDE8F0810248006860
:1002B000B842CDD30020F7E7080000202DE9F04731
:1002C0004FF0000800260024662000F05AF981460D
:1002D000C9F340196D2000F054F905466A2000F07A
:1002E00050F90746B9F1000F03D0E843C5B2F8430F
:1002F000C7B205F0800008B146F0200605F04000C6
:1003000008B146F0010605F0200008B146F00106EC
:1003100005F0100018B146F0100644F0100405F086
:10032000080018B146F0080644F0080405F004007F
:1003300018B146F0040644F0040405F0020018B1B8
:1003400046F0020644F0020405F0010018B146F040
:10035000010644F0010407F0200018B148F002083B
:1003600044F0800407F0100018B148F0010844F090
:10037000400407F0080018B148F0040844F02004D5
:1003800041466A2000F032F931466B2000F02EF928
:10039000B9F1000F01D0E043C4B22046BDE8F087B8
:1003A00010B56E2000F0EDF8044602216C2000F03C
:1003B0001DF9204610BD10B56E2000F0E2F804468D
:1003C00001216C2000F012F9204610BD10B5044642
:1003D0002146652000F00AF910BD70B504460D46AF
:1003E00004F01F04662000F0CCF820F01F00044346
:1003F0002146662000F0FAF805F01F05672000F09E
:10040000C0F820F01F0005432946672000F0EEF8F1
:1004100070BD2DE9F04105460E461746002406E062
:10042000315D6219D0B200F0E1F8601CC4B2BC4288
:10043000F6DB0120BDE8F08170B50546622000F0D2
:10044000A0F8044615B144F0200401E024F0200493
:100450002146622000F0CAF870BD10B5044621465E
:10046000682000F0C3F810BD70B505460D2000F0FF
:1004700088F8044635B144F0800444F0400444F068
:10048000200405E024F0800424F0400424F020043B
:1004900021460D2000F0AAF870BD10B5692000F0CB
:1004A00070F8044624F0010424F004042146692075
:1004B00000F09CF810BD10B5692000F062F8044609
:1004C00044F0010444F004042146692000F08EF851
:1004D00010BD10B5612000F054F800F00F0010BD01
:1004E00010B50820FFF790FE10BD10B51020FFF7E3
:1004F0008BFE10BD10B50220FFF786FE10BD10B5B3
:100500004020FFF781FE10BD10B500F045F8142023
:1005100001F028F9FFF7EEFF612000F032F8044601
:1005200044F0100424F020042146612000F05EF81D
:100530000020FFF799FFFFF7C1FE10BD10B500F0D6
:1005400047FF10BD70B5482000F01BF80546AA21F2
:10055000482000F04BF8482000F013F804462946E4
:10056000482000F043F8AA2C01D1012070BD0020E2
:10057000FCE770B504460D462946204600F072FFA0
:1005800070BD38B50446FF2000906946204600F053
:1005900037FF9DF8000038BD10B5FF217F2000F027
:1005A00025F810BD2DE9F04105460E4617462946AF
:1005B000602000F01BF807E0FFF78BFF0446A6421F
:1005C00001D0082C00D103E003480068B842F3D3FF
:1005D00000BF2046BDE8F0810800002070B5044649
:1005E0000D462946204600F0F7FF70BD70B5044661
:1005F0000D462946204600F0BDFF70BD704770478C
:100600007047704770477047704710B500F0EEFBB9
:1006100000F005F800F01AFC00F0D0FD10BD08B5A0
:100620004FF4A06000F0DCF81E208DF800000220DE
:100630008DF8010000208DF8020001208DF80300E4
:10064000684600F095F832208DF8000002208DF801
:10065000010000208DF8020001208DF8030068469B
:1006600000F086F836208DF8000000208DF801009B
:100670008DF8020001208DF80300684600F078F83C
:1006800014208DF8000002208DF8010001208DF863
:1006900002008DF80300684600F06AF806208DF825
:1006A000000002208DF8010000208DF802000120DA
:1006B0008DF80300684600F05BF807208DF8000015
:1006C00002208DF8010000208DF8020001208DF835
:1006D0000300684600F04CF808208DF80000022066
:1006E0008DF8010000208DF8020001208DF8030034
:1006F000684600F03DF809208DF8000002208DF8D2
:10070000010000208DF8020001208DF803006846EA
:1007100000F02EF80A208DF8000002208DF801006C
:1007200000208DF8020001208DF80300684600F0DB
:100730001FF817208DF8000000208DF801008DF8BB
:10074000020001208DF80300684600F011F828200F
:100750008DF8000002208DF8010000208DF80200C5
:1007600001208DF80300684600F002F808BD000083
:1007700070B5002100230F22C47804B3154C2468FF
:1007800004F4E064C4F5E064210AC1F10403CA4042
:10079000447804FA03F184781440214309010E4C93
:1007A0000678A155047804F01F050124AC400578B3
:1007B0006D11AD0005F1E025C5F8004109E00478B0
:1007C00004F01F050124AC40044D0678761145F86D
:1007D000264070BD0CED00E000E400E080E100E0A8
:1007E00002490143024A1160704700000000FA0507
:1007F0000CED00E000B589B000F062F9072853D293
:10080000DFE800F0045229391852420028480088D5
:10081000401C27490880084600782649087024486B
:100820000088001248704FF47A722021214800F0AD
:1008300039FA3AE01E4802881FA101A800F0E6FC40
:1008400001A9012000F09CFF4FF47A7220211D487D
:1008500000F00CFA29E01C480088401C1A49088066
:100860000846028819A101A800F0D0FC01A90220C5
:1008700000F086FF19E018A101A800F0C7FC01A94B
:10088000022000F07DFF10E017480088401C80B275
:1008900015490880024615A101A800F0B7FC01A97E
:1008A000032000F06DFF00E000BF00BF09B000BDF5
:1008B000040000206000002073656E643A20256407
:1008C00000000000400000200200002072656376F6
:1008D0003A20256400000000726563763A2074694E
:1008E0006D656F7574000000060000206572726F00
:1008F000723A20256400000000B589B000F0E0F8ED
:1009000030B102280BD004282FD0062848D137E078
:100910004FF0FF322021244800F0A8F941E023489D
:100920000088401C214908800846028820A101A8AF
:1009300000F06CFC01A9012000F022FF0A2000F069
:1009400011FF1E480088401C1C490880084600789A
:100950001B49087019480088001248704FF47A72D9
:100960002021174800F09EF91BE01448028815A1C9
:1009700001A800F04BFC01A9022000F001FF10E0EB
:1009800013480088401C80B211490880024611A11A
:1009900001A800F03BFC01A9032000F0F1FE00E0FB
:1009A00000BF00BF09B000BD4000002002000020D1
:1009B000726563763A202564000000000400002080
:1009C0006000002073656E643A202564000000001A
:1009D000060000206572726F723A202564000000E4
:1009E00029B1064A12690243044B1A6104E0034A22
:1009F00012698243014B1A617047000000100240E7
:100A000029B1064AD2680243044BDA6004E0034A83
:100A1000D2688243014BDA60704700000010024048
:100A200010B51520FFF7D2FC07210A20FFF7D5FCEF
:100A30003F20FFF712FD0020FFF716FD0120FFF712
:100A4000FBFCFFF752FD10BD10B5FFF777FDFFF778
:100A50005BFD0C2214490020FFF7DBFC0C2213493C
:100A60001046FFF7D6FC082211491820FFF7D1FCE9
:100A7000182210492020FFF7CCFC1D220E493820F7
:100A8000FFF7C7FC0B220D495520FFF7C2FC0920D8
:100A9000FFF777FD20F0070444F002010920FFF77B
:100AA000A5FDFFF7BDFF10BDB0170008BC1700087B
:100AB000C8170008D0170008E81700080518000834
:100AC00010B501245D4800780A2871D2DFE800F0F3
:100AD00005071E384B5279939CA30024AAE0FFF728
:100AE00009FDFFF7EBFBFFF7D8FCFFF759FCFFF719
:100AF000F7FC18B909205149087002E002204F495B
:100B000008704F4800684F49086093E04E480068FD
:100B1000C0F3C00010B10320484908704B4800687A
:100B2000B0F1FF3F0BD04648006846490968401ABB
:100B300046490968884202D904204049087079E092
:100B4000FFF7D8FC4248018842480068FFF711FDD2
:100B5000FFF7B4FB40490870FFF7C7FC0020374996
:100B60000870022466E0FFF7C0FC002033490870DB
:100B700003245FE0FFF7BEFCFFF7A0FBFFF79BFC41
:100B8000FFF719FC3548018835480068FFF726FD56
:100B90006E20FFF7F6FC00F0020010B9092027498B
:100BA0000870FFF7ACFC20B909202449087003E065
:100BB0003FE0062021490870214800682949086063
:100BC00038E021480068C0F3401010B107201B49ED
:100BD000087025480068B0F1FF3F0BD01848006846
:100BE00020490968401A20490968884202D908202A
:100BF000124908701EE0FFF761FBFFF776FC00204A
:100C00000E490870042415E0FFF76FFC00200B4923
:100C1000087005240EE0FFF7BFFC142000F0A2FDD1
:100C2000FFF768FCFFF7FCFE00200449087006246B
:100C300000E000BF00BF204610BD00001C000020E7
:100C40000800002034000020081401402C0000207F
:100C500028000020200000203C0000202A00002066
:100C600024000020380000203000002070B5064627
:100C70000C4615460748066007480480074805608B
:100C80000548018803480068FFF783FA01200449FA
:100C9000087070BD20000020280000202C000020DB
:100CA0001C00002010B5054B1860054B1980054B42
:100CB0001A600523044C237010BD0000240000209E
:100CC0002A000020300000201C00002010B500F099
:100CD00001F810BD0CB50020019000903348006869
:100CE00040F480303149086000BF3048006800F4AB
:100CF000003000900198401C0190009818B90198AC
:100D0000B0F5A06FF1D12948006800F4003010B1AF
:100D10000120009001E0002000900098012843D1BC
:100D20002348006840F01000214908600846006828
:100D300020F0030008600846006840F002000860E8
:100D40001A484068194948600846406848600846A3
:100D5000406840F4806048600846406820F47C1099
:100D600048600846406840F49810486008460068AB
:100D700040F08070086000BF0C48006800F0007010
:100D80000028F9D00948406820F00300074948606E
:100D90000846406840F00200486000BF03484068D1
:100DA00000F00C000828F9D10CBD00000010024032
:100DB00000200240042808D14FF0E021096941F0E9
:100DC00004014FF0E022116107E04FF0E0210969D2
:100DD00021F004014FF0E0221161704702480068E1
:100DE000401C0149086070470800002010B51348F6
:100DF000006840F001001149086008464068104949
:100E000008400E494860084600680E4908400B49F2
:100E100008600846006820F48020086008464068A2
:100E200020F4FE0048604FF41F008860FFF74EFF7B
:100E30004FF000600449086010BD0000001002403F
:100E40000000FFF8FFFFF6FE08ED00E070B5134963
:100E5000B1F1807F00D31DE021F07F40401E4FF0B4
:100E6000E022506150170F22002807DA13071D0EE9
:100E70000B4B00F00F04241F1D5503E013071C0E3D
:100E8000084B1C5400BF00204FF0E0229061072067
:100E9000106100BF0420FFF78DFF70BD40190100F5
:100EA00018ED00E000E400E000BFFEE700BFFEE751
:100EB00000BFFEE700BFFEE77047704707480088A5
:100EC00000F0010048B10548001F008800F0010053
:100ED00018B14FF6FE7001490880704710080040B5
:100EE0007047704721B1028842F08002028004E01E
:100EF00002884FF67F731A4002807047CA4302820D
:100F0000704721B1028842F00102028004E00288A9
:100F10004FF6FE731A4002807047000010B5044679
:100F20006848844208D10121C014FFF769FD0021FF
:100F3000E014FFF765FDC4E0B4F1804F08D1012152
:100F40000846FFF74DFD00210120FFF749FDB8E0FD
:100F50005D48844208D101210220FFF741FD0021B4
:100F60000220FFF73DFDACE05848844208D1012142
:100F70000420FFF735FD00210420FFF731FDA0E03C
:100F80005348844208D101210820FFF729FD0021A0
:100F90000820FFF725FD94E04E48844208D1012146
:100FA0001020FFF71DFD00211020FFF719FD88E03C
:100FB0004948844208D101212020FFF711FD00217A
:100FC0002020FFF70DFD7CE04448844208D1012138
:100FD0004014FFF715FD00216014FFF711FD70E0CC
:100FE0003F48844209D10121C804FFF709FD0021CF
:100FF0004FF40020FFF704FD63E03A48844209D132
:1010000001210805FFF7FCFC00214FF48010FFF7D9
:10101000F7FC56E03448844209D101214805FFF726
:10102000EFFC00214FF40010FFF7EAFC49E02F48E5
:10103000844208D101214020FFF7D2FC002140204A
:10104000FFF7CEFC3DE02A48844208D101218020F0
:10105000FFF7C6FC00218020FFF7C2FC31E02548E5
:10106000844208D101218015FFF7BAFC0021A015A8
:10107000FFF7B6FC25E02048844209D1012108048D
:10108000FFF7BEFC00214FF48030FFF7B9FC18E0F9
:101090001A48844209D101214804FFF7B1FC00211C
:1010A0004FF40030FFF7ACFC0BE01548844208D148
:1010B00001218804FFF7A4FC00214FF48020FFF7F2
:1010C0009FFC10BD002C01400004004000080040BF
:1010D000000C0040001000400014004000340140AB
:1010E000004C0140005001400054014000180040F5
:1010F000001C00400020004000400140004401402E
:10110000004801401AB183890B43838102E083893F
:101110008B43838170470000002202881D4B984258
:101120000ED01D4B98420BD0B0F1804F08D01B4B16
:10113000984205D01A4B984202D01A4B984204D1DB
:101140004FF68F731A404B881A43174B984207D0BB
:10115000164B984204D04FF6FF431A40CB881A43EF
:1011600002808B8883850B8803850A4B98420BD0BD
:10117000094B984208D00E4B984205D00D4B98422F
:1011800002D00D4B984201D10B7A03860123838252
:1011900070470000002C0140003401400004004072
:1011A00000080040000C0040001000400014004007
:1011B0000040014000440140004801400EB5124883
:1011C000FFF7ACFE40F2E730ADF804004720ADF881
:1011D00000000020ADF80600ADF8020069460A489C
:1011E000FFF79AFF01210848FFF788FE0021064813
:1011F000FFF778FE012211460348FFF783FF002125
:101200000148FFF77EFE0EBD000C00400FB4084BF6
:1012100010B504A902AA039800F01CF8044602A91C
:10122000002000F0C1F8204610BC5DF814FB00005F
:10123000A913000802E008C8121F08C1002AFAD149
:1012400070477047002001E001C1121F002AFBD146
:10125000704700002DE9FF4F89B09B4604460025EA
:1012600006E025280BD05A460B999047641C6D1C4C
:1012700020780028F5D10DB02846BDE8F08F002772
:10128000B8460122474900E0074314F8013F203BDC
:1012900002FA03F00842F7D120782E2819D114F869
:1012A000010F47F004072A280ED06FF02F02207894
:1012B000A0F1300109290CD808EB880102EB4101AB
:1012C00000EB0108641CF2E70A98641C50F8048BD8
:1012D0000A9020780028CED0642808D0692806D04B
:1012E00075281ED05A460B9990476D1C58E00A99F4
:1012F0004FF00A0901C90A91002802DA40422D2163
:1013000002E0390504D52B218DF82010012103E0DE
:10131000F90704D02021F7E78A4608AE0DE0002146
:10132000FAE70A994FF00A0901C90A91F7E7494615
:10133000FEF741FF303106F8011D0028F7D1ADEB73
:10134000060000F12009780701D44FF00108C845D4
:1013500002DDA8EB090000E000208046002706E03F
:1013600008A85A46C05D0B9990476D1C7F1C5745D5
:10137000F6DB04E030205A460B9990476D1CB8F11B
:101380000001A8F10108F5DC05E016F8010B5A464A
:101390000B9990476D1CB9F10001A9F10109F4DC2A
:1013A000641C65E7092801000A68531C0B60107073
:1013B0007047072000BF011EA0F10100FBD170475C
:1013C000082000BF011EA0F1010290B2FAD17047BF
:1013D00010B54020084908600860102007490860DF
:1013E00008600420091F0860086080200860086009
:1013F000FFF7DFFF10BD0000100C01401414014086
:1014000070B504460D460420144908601020091DDB
:10141000086008608020091F0860086040201049AB
:101420000860FFF7C6FFFFF7C4FF44F0800000F03C
:101430007FF800F059F8287010200849091D08604D
:10144000FFF7B7FFFFF7B5FF40200549091F086008
:101450000420024908608020086070BD101401401B
:10146000140C014070B505460E4680201C490860EA
:10147000086040201B490860086010201849091DB9
:1014800008600860002425E080201549091D0860D7
:10149000FFF78FFFFFF78DFF00F026F8285510208B
:1014A0000F49091D0860FFF78BFFFFF789FFFFF762
:1014B00087FF80200A490860FFF782FFFFF780FF5F
:1014C000FFF77EFFFFF77CFFFFF77AFFFFF778FF5C
:1014D000601C84B2B442D7DB80200149086070BD33
:1014E00010140140100C014070B5FF24002519E0D4
:1014F00010200E490860FFF75CFF6006040E102004
:101500000A49091F086009480C380068C0F38000C8
:1015100010B144F0010401E024F00104FFF749FF99
:10152000681CC5B2082DE3DB204670BD14140140D1
:1015300070B50446002518E010200D49086004F03D
:10154000800018B10420091F086002E00420084947
:101550000860FFF72EFF6006040E10200449091FE3
:101560000860FFF726FF681CC5B2082DE4DB70BDDC
:101570001414014070B504460D4604201449086057
:101580001020091D086008608020091F086008609D
:10159000402010490860FFF70CFFFFF70AFF04F036
:1015A0007F00FFF7C5FF2846FFF7C2FF102008495C
:1015B000091D0860FFF7FDFEFFF7FBFE402005490F
:1015C000091F08600420024908608020086070BD7F
:1015D00010140140140C014070B505460E468020E1
:1015E0001C490860086040201B4908600860102002
:1015F0001849091D08600860002425E0802015496D
:10160000091D0860FFF7D5FEFFF7D3FE285DFFF741
:101610008FFF10200F49091D0860FFF7D1FEFFF76B
:10162000CFFEFFF7CDFE80200A490860FFF7C8FE15
:10163000FFF7C6FEFFF7C4FEFFF7C2FEFFF7C0FECE
:10164000FFF7BEFE601C84B2B442D7DB80200149A4
:10165000086070BD10140140100C0140002403E02C
:10166000601C10490855641C202CF9DBFEF7CDFFE7
:10167000FFF7EAF9FEF766FF28B90BA1002000F09A
:101680007FF800BFFEE70DA1002000F079F808E028
:101690000E480078012802D1FFF7ACF801E0FFF70F
:1016A0002BF9F5E760000020434D543233303041D0
:1016B000206E6F7420666F756E642100434D543246
:1016C00033303041207265616479000000000020F1
:1016D000642200FB02F140E000BF00BF00BF00BF7A
:1016E00000BF00BF00BF00BF00BF00BF00BF00BF02
:1016F00000BF00BF00BF00BF00BF00BF00BF00BFF2
:1017000000BF00BF00BF00BF00BF00BF00BF00BFE1
:1017100000BF00BF00BF00BF00BF00BF00BF00BFD1
:1017200000BF00BF00BF00BF00BF00BF00BF00BFC1
:1017300000BF00BF00BF00BF00BF00BF00BF00BFB1
:1017400000BF00BF00BF00BF00BF00BF00BF00BFA1
:1017500000BF00BF00BF00BF00BF0A1EA1F1010112
:10176000BAD1704730B5044604EB8400450002E06E
:101770000120FFF7ADFF281EA5F10105F8D130BD0E
:1017800070B506460C46202211460848FEF7FAFCC2
:101790002046FEF709FD05462A4621460348FEF786
:1017A000DFFC00200149487570BD0000800000206A
:1017B0000066EC1CF0801408910202D0AEE0350007
:1017C00000F410E2422000814271CE1C425B1C1CDE
:1017D00032180099C19B060A9F392929C0512A5302
:1017E0000000B40000010000120800AA020000007E
:1017F000000000D42D001F00000000000000006069
:10180000FF00001F105026030042B000370A3F7F40
:1018100030180008000000204000000034120008CA
:101820007018000840000020600400004412000806
:1018300000000000000000000000000000000000A8
:101840000000000000000000000000000000000098
:10185000000000000000000000000000FFFFFFFF8C
:10186000FFFFFFFF0000000000000000000000007C
:0400000508000131BD
:00000001FF
