:020000040800F2
:10000000600C002009010008B53A00081D35000801
:10001000B13A0008F9020008254800080000000075
:10002000000000000000000000000000653F000824
:10003000B904000800000000353B00082D4000080E
:10004000230100082301000823010008DD3C00080B
:100050002301000823010008BD040008E90400088A
:1000600023010008230100082301000823010008E0
:1000700023010008230100082301000823010008D0
:1000800023010008230100082301000823010008C0
:1000900023010008230100082301000823010008B0
:1000A00023010008230100082301000823010008A0
:1000B0002D410008230100087D41000823010008AC
:1000C0002301000823010008230100082301000880
:1000D000230100082301000823010008B14700089C
:1000E0002301000823010008230100082301000860
:1000F00023010008DFF80CD000F02AF80048004780
:1001000025490008600C0020064880470648004743
:10011000FEE7FEE7FEE7FEE7FEE7FEE7FEE7FEE7B7
:10012000FEE7FEE7C9400008F5000008D2B201E092
:1001300000F8012B491EFBD270470022F6E710B5EC
:1001400013460A4604461946FFF7F0FF204610BD45
:10015000064C074D06E0E06840F0010394E8070014
:1001600098471034AC42F6D3FFF7C8FF304B000875
:10017000504B000870B58C1810F8015B15F00703A0
:1001800001D110F8013B2A1106D110F8012B03E030
:1001900010F8016B01F8016B5B1EF9D12B0705D438
:1001A0000023521E0DD401F8013BFAE710F8013B81
:1001B000CB1A921C03E013F8015B01F8015B521E9D
:1001C000F9D5A142D8D3002070BD70B504460025F2
:1001D00020680068C0F38010F0B12068806820F0CB
:1001E00001002168886000F0F5FF05460EE000F090
:1001F000F1FF401B022809D9E06C40F01000E064D8
:10020000206D40F001002065012070BD206800686D
:10021000C0F380100028EAD10020F6E738B5044684
:1002200000250020009020680068C0F3801090BB7B
:100230002068806840F001002168886017480068E5
:100240001749B0FBF1F000EB4000009002E000988D
:10025000401E009000980028F9D100F0BBFF054631
:1002600013E000F0B7FF401B02280ED9E06C40F00D
:100270001000E064206D40F00100206500BF002008
:1002800084F8480000BF012038BD20680068C0F332
:1002900080100028E5D00020F6E700009C00002038
:1002A00040420F0070B50546012003F045FC0024D4
:1002B00008E04FF4C87004F02EFB204600F0CCFAA2
:1002C000601CC4B2042CF4DB034A04490348103810
:1002D00000F08AFA70BD0000A0000020300008087D
:1002E00010B50221034800F067FF08B1CB2010BD14
:1002F000CA20FCE70008024000BFFEE71FB55448D3
:100300000068401C52490860524A5349524810380C
:1003100000F0E7F9514A504920314F48103000F0C1
:10032000E0F94F48FFF7BEFF4E4A4B4940314A487B
:10033000303000F0D6F94B48007803900A230122B0
:1003400003A9494803F072F84648007903900A234C
:10035000012203A9444803F069F84248007A039057
:100360000A23012203A9404803F060F83D48007BBE
:1003700003900A23012203A93B4803F057F80A23FC
:1003800001223749384803F051F834480088C0F357
:10039000072003900A23012203A9334803F046F8FB
:1003A0002E48007803900A23012203A92E4803F067
:1003B0003DF82A488088C0F3072002900A230122D2
:1003C00002A9294803F032F82448007903900A234F
:1003D000012203A9244803F029F8002000900A23F1
:1003E00001226946204803F021F8002000900A23EA
:1003F000012269461C4803F019F80A2301226946C4
:10040000194803F013F80A2301226946164803F03D
:100410000DF8FFF765FF114908610846007C01905F
:100420000A23012201A9104803F000F8F0200090EF
:100430000A23012269460C4802F0F8FFE7200090E9
:100440000A2301226946084802F0F0FF1FBD0000A0
:100450008C0000207005002010000808A00000207B
:1004600038000020900500208007002000B587B0EC
:10047000142102A8FFF761FE00BF0D48006840F09C
:1004800004000B4908600846006800F00400019071
:1004900000BF00BF4FF4C070029001200390049091
:1004A0000020059002A9034800F09EFD07B000BDA2
:1004B0001C380240000802407047000010B5074891
:1004C000006800F0010028B10120054908700020F3
:1004D00004490870012000F079FD10BD14040140AA
:1004E000900000209100002010B50748006800F03F
:1004F000020028B100200549087001200449087055
:10050000022000F063FD10BD1404014090000020A3
:100510009100002000B5B7B0142101A8FFF70DFE2F
:1005200000F01CFF00BF6648006840F0805064493E
:1005300008600846006800F08050009000BF00BFCF
:1005400000F018FF00BF5E480838006840F0010066
:100550005B49083908600846006800F00100009017
:1005600000BF00BF00BF0846006840F004000860FC
:100570000846006800F00400009000BF00BF00BF04
:100580000846006840F0080008600846006800F06F
:100590000800009000BF00BF4FF6FF7001900320DD
:1005A00002900020039001A9464800F01DFD01A91A
:1005B000454800F019FD4FF6FC70019003200290B1
:1005C0000020039001A9414800F00EFD3C48083886
:1005D000006820F001003A490839086008460068C0
:1005E00020F0040008600846006820F00800086059
:1005F00000BF2998006A41F21111084028B92998D2
:10060000006820F001002999086000BF00BF1B9816
:10061000006A41F21111084028B91B98006820F0C7
:1006200001001B99086000BF29480068006820F09D
:10063000400027490968086026480068C06820F41F
:10064000005024490968C86006A800F026FC1C4830
:10065000001F006820F400701949091F086008464F
:10066000006820F4805008600846006820F480404C
:100670000860081D006820F00100091D0860084698
:10068000006820F0020008600846006820F48040FE
:1006900008600846006820F48020086004F0DCF858
:1006A0000121084600F072FE0B48006840F004008B
:1006B000094908604FF480100849086037B000BD50
:1006C0002438024000080240000C024000040240AE
:1006D000600600203001002000700040140401403A
:1006E00070471EB50023029301930093019305E028
:1006F0000368009C42F82430121D001D8842F7D385
:100700001EBD000000201849096801F48071B1F590
:10071000807F07D11549496941F00201134A5161AF
:1007200040F480701049096801F40071B1F5007F50
:1007300007D10E49496941F001010C4A516140F469
:1007400000700949096801F40061B1F5006F07D133
:100750000649496941F00401044A516140F40060CE
:100760000149086070470000183C0240440800201E
:1007700070B5044600F02EFD054609E0601C38B156
:1007800024B100F027FD401BA04201D9032070BD19
:100790001448006800F001000028EFD111480068FB
:1007A00000F00200022801D10E4908600D480068DF
:1007B00000F48070B0F5807F0DD00A48006800F426
:1007C0000060B0F5006F06D00648006800F40070C5
:1007D000B0F5007F03D1FFF795FF0120D7E7002098
:1007E000D5E70000183C024070B504460D46164699
:1007F00000F0AAFB281B401C800814490860002058
:10080000134908600EE012480068042202FB004110
:10081000022000F06FFB0F4908700D480068401C73
:100820000B4908600A480068084909688842EAD309
:1008300007E021460220326800F09CFB08B9361D13
:10084000241DAC42F5D300F075FB70BD24010020DF
:1008500028010020200100203EB5044624B1012CCF
:100860000CD0022C20D114E0012000900190062031
:10087000029069462B4800F05BF815E002200090DA
:1008800001200190062002906946264800F050F8A9
:100890000AE00320009001200190062002906946A2
:1008A000204800F045F800BF00BF1E4800F0AFFA36
:1008B0000A211C4800F04CFA1A4800F025F91A49A0
:1008C000086008460068A0F2B91042F2F0314843CF
:1008D000102101EBD030154941F82400084650F8AA
:1008E0002400B0F5167F03D9002041F8240014E05D
:1008F0000E4850F8240008B1012000E000200B4908
:1009000051F82410202901D2012100E000210840E3
:1009100018B10020054941F82400024800F0BDFA52
:100920003EBD0000E0050020B4000020A000002033
:1009300038B5024600230020009000BF92F848001E
:10094000012801D1022038BD012082F8480000BFF3
:100950004868072812D21068006C0C79641E04EBFA
:1009600084051F24AC40A0430D796D1E05EB850561
:100970000C68AC4020431468206453E048680D289C
:1009800012D21068C06B0C79E41F04EB84051F249D
:10099000AC40A0430D79ED1F05EB85050C68AC401C
:1009A00020431468E0633DE04868132812D21068C1
:1009B000806B0C790D3C04EB84051F24AC40A043F4
:1009C0000D790D3D05EB85050C68AC40204314689E
:1009D000A06327E04868192812D21068406B0C7990
:1009E000133C04EB84051F24AC40A0430D79133D58
:1009F00005EB85050C68AC4020431468606311E08A
:100A00001068006B0C79193C04EB84051F24AC4082
:100A1000A0430D79193D05EB85050C68AC402043DA
:100A20001468206308680A2810D2106840690C789E
:100A300004EB44050724AC40A0430D7805EB4505C5
:100A40008C68AC402043146860612CE0086814286E
:100A500012D2106800690C780A3C04EB44050724A4
:100A6000AC40A0430D780A3D05EB45058C68AC40D1
:100A700020431468206116E008681A2812D810680C
:100A8000C0680C78143C04EB44050724AC40A04338
:100A90000D78143D05EB45058C68AC402043146887
:100AA000E06000E000BF0868102802D00868112844
:100AB0001DD11248006800F40000C0B90F4800685A
:100AC00040F400000D4C2060086810280FD10C483D
:100AD00000680C4CB0FBF4F000EB8000400000908C
:100AE00002E00098401E009000980028F9D100BF55
:100AF000002082F8480000BF184624E70427014080
:100B00009C00002040420F0001460868806D70473D
:100B1000F8B504460027002600250CB90120F8BDD1
:100B2000206910B1E06A00B100BF606B102800D0EE
:100B300000BFE06CA0B90020206584F8480000BF29
:100B40006148006840F001005F490860084600689D
:100B500000F00100009000BF00BF204600F0BEF88A
:100B6000E06C00F01000002874D1E06C20F4885094
:100B700040F00200E0645548006820F440306168AD
:100B80000843524908606169E06808434FF4007205
:100B900092FAA2F2B2FA82F2E16B91400843216A22
:100BA0000843022292FAA2F2B2FA82F2616A9140FA
:100BB00008430543606B102803D0D4E90D010843B6
:100BC000054320680068C0F3801090BBA06905430E
:100BD000E169A06808432169B1F5807F02D02169ED
:100BE000012902D14FF4807100E00021084306433F
:100BF000E06A012816D1606A60B9206B401E4FF48C
:100C0000604191FAA1F1B1FA81F1884040F40060AD
:100C1000064307E0E06C40F02000E064206D40F007
:100C20000100206520684068294908403043216858
:100C30004860206880682749084028432168886008
:100C40002069B0F5807F02D02069012803D14FF4DC
:100C5000807001E035E00020B0F5807F10D1206881
:100C6000006B20F0F871A06A401E4FF0F87292FA03
:100C7000A2F2B2FA82F2904001432068016305E0DB
:100C80002068006B20F0F870216808632068806895
:100C900011490840A84208D100202065E06C20F0EE
:100CA000020040F00100E0640CE0E06C20F0020083
:100CB00040F01000E064206D40F001002065012745
:100CC00000E0012738462AE7203802400427014087
:100CD000FF16FCFC8DF1FFC0FEFF80BF10B586B093
:100CE0000446142101A8FFF728FA16492068884213
:100CF00025D100BF1448006840F400701249086014
:100D00000846006800F40070009000BF00BF00BFFC
:100D1000081F006840F00100091F086008460068CD
:100D200000F00100009000BF00BF0E2001900320E2
:100D300002900020039001A9044800F055F906B084
:100D400010BD000000240140203802400000024095
:100D500070B504460D4600262068806800F4806067
:100D600078B12068806800F4807050B1E06C40F089
:100D70002000E06400BF002084F8480000BF01208C
:100D800070BD00F027FA064612E0681C80B125B15C
:100D900000F020FA801BA8420AD9E06C40F0040061
:100DA000E06400BF002084F8480000BF0320E7E7AC
:100DB0002068006800F002000028E6D0A06918B999
:100DC0006FF0120021680860E06C40F40070E0648D
:100DD0002068806800F04050B8B9606AA8B92068FF
:100DE000006B00F0F87020B12068806800F480602B
:100DF00058B9E06C20F48070E064E06C00F480503E
:100E000018B9E06C40F00100E0640020B8E770B56C
:100E10000446002500BF94F84800012801D10220B3
:100E200070BD012084F8480000BF2046FFF7F6F9A6
:100E3000054685BBE06C40F20161884340F4807058
:100E4000E0642068406800F4806028B1E06C20F421
:100E5000005040F48050E064E06C00F4805020B119
:100E6000206D20F00600206501E00020206500BF15
:100E7000002084F8480000BF6FF02200216808605D
:100E80002068806800F0405028B92068806840F0F1
:100E90008040216888602846C2E770B50446002576
:100EA00000BF94F84800012801D1022070BD012044
:100EB00084F8480000BF2046FFF787F905462DB9A2
:100EC000E06C20F4885040F00100E06400BF002096
:100ED00084F8480000BF2846E8E731B5002400F058
:100EE00079F9044600BF00F075F9001B00998842AB
:100EF000F9D338BD70B504460D4600264CF250308B
:100F0000FFF736FC06468EB9002009494861022CDD
:100F100000D12860012C01D1002028800CB90020CC
:100F200028704CF25030FFF723FC0646304670BD67
:100F3000440800200348006840F0010001490860AF
:100F400000207047043C02400748006800F00100A0
:100F500030B106480449083108600548086001E0DE
:100F6000012070470020FCE7043C0240EFCDAB8934
:100F7000050403022DE9F04107460C4615460126FB
:100F800000BF1048007C012802D10220BDE8F0819A
:100F900001200C49087400BF4CF25030FFF7E8FB09
:100FA000064646B900200749486125604CF250309A
:100FB000FFF7DEFB064600BF00200249087400BFB1
:100FC0003046E3E7440800207047000010B50446AF
:100FD00004480068204020B1024804602046FFF722
:100FE000F3FF10BD1404014078B50346002200242D
:100FF0000020CAE0012696400D6805EA0604002C90
:1010000071D04D68022D02D04D68122D13D1D60833
:1010100003F1200555F826005507EE0E0F25B540C3
:10102000A8435607F60E0D69B5402843D60803F1CC
:10103000200545F82600186856000325B540A8434A
:101040000D7905F003055600B540284318604D683A
:10105000012D08D04D68022D05D04D68112D02D00C
:101060004D68122D13D1986856000325B540A8434A
:101070005600CD68B54028439860586801259540D2
:10108000A8430D79C5F30015954028435860D868EA
:1010900056000325B540A84356008D68B540284347
:1010A000D8604D6805F08055B5F1805F6CD100BF08
:1010B000394D2D6845F00105374E356035462D68B0
:1010C00005F00105009500BF00BF344D960855F8A6
:1010D000260095072E0F0F25B540A843304DAB4293
:1010E00002D1002515E04FE02E4DAB4201D1012584
:1010F0000FE02D4DAB4201D102250AE02B4DAB4252
:1011000001D1032505E02A4DAB4201D1042500E0C1
:1011100005259607360FB5402843204D960845F81B
:101120002600244D2868A0434D6805F48035B5F5A8
:10113000803F00D120431F4D28602D1D2868A0430B
:101140004D6805F40035B5F5003F00D12043194D39
:101150002D1D28602D1D2868A0434D6805F48015BD
:10116000B5F5801F00D12043124D083528602D1D94
:101170002868A0434D6805F40015B5F5001F00D19F
:1011800020430C4D0C352860521C0D68D540002DB5
:101190007FF430AF78BD00002038024008000140E5
:1011A000000002400004024000080240000C02401F
:1011B0000010024000040140024613690B400BB1CD
:1011C000012000E0002070470AB1816101E00B04BA
:1011D0008361704701480068704700009800002054
:1011E00001464AF6AA200A681060002070470000F5
:1011F00002480068401C01490860704798000020C0
:1012000010B5032000F096F8002000F005F800F07B
:1012100017F8002010BD000070B5044607480068AC
:101220004FF47A71B0FBF1F5284601F01BFE002265
:101230002146501E00F03FF8002070BD9C000020A9
:1012400008B500BF1448006840F00040124908602B
:101250000846006800F00040009000BF00BF00BFDB
:10126000081F006840F00100091F08600846006878
:1012700000F00100009000BF00BF00BF081D006823
:1012800040F08050091D08600846006800F080505A
:10129000009000BF00BF08BD2438024000BF00F02E
:1012A0001F02012191404209920002F1E022C2F89E
:1012B000001100BF70472DE9F05F80460D461646CD
:1012C000002702F01BFC074639462A46334601F048
:1012D0000700C0F1070ABAF1040F02D94FF0040A5F
:1012E00001E0C0F1070AD14600F1040ABAF1070F84
:1012F00002D24FF0000A01E0A0F1030AD4464FF0F9
:10130000010A0AFA09FAAAF1010A0AEA020A0AFA21
:101310000CFA4FF0010B0BFA0CFBABF1010B0BEAD3
:10132000030B4AEA0B042146404602F0EFFBBDE8FE
:10133000F09F000000BF00F00702064B19684FF64F
:10134000FF031940044B0B4343EA0221014B196090
:1013500000BF70470CED00E00000FA05012081029B
:1013600091FAA1F1B1FA81F1014A42F821007047E6
:1013700000000E420120410291FAA1F1B1FA81F17F
:10138000014A42F82100704700000E420D4A1268DF
:1013900022F0030202430B4B1A600B4A126842F020
:1013A0000402094B1A60012901D130BF02E040BF9D
:1013B00020BF20BF044A126822F00402024B1A60C8
:1013C000704700000070004010ED00E0F8B50446E2
:1013D00000260025207800F0010020B9207800F0D8
:1013E000020002287ED1207800F0010000B100BF89
:1013F000207800F00200022800D100BF00277148C9
:10140000006800F0805070B900BF6E48006840F07E
:1014100080506C4908600846006800F080500090D9
:1014200000BF00BF01276848006800F48070B0B9B1
:101430006548006840F4807063490860FFF7CAFEA1
:10144000064606E0FFF7C6FE801B642801D903208C
:10145000F8BD5D48006800F480700028F2D059485B
:101460002438006800F0C045606800F0C040A84221
:1014700004D1A06800F0C040A8420DD0606800F41C
:101480004030B0F5403F07D14E482438006800F4A2
:10149000003008B10120DBE74A481030006800F452
:1014A0004035002D62D0606800F44030A84203D07F
:1014B000207800F0010048B9A06800F44030A8424C
:1014C00054D0207800F0020002284FD13D4810305F
:1014D000006820F440350120C10591FAA1F1B1FA6C
:1014E00081F100E06BE0394A02EB8101C1F880062E
:1014F00000204FF4000191FAA1F1B1FA81F102EB61
:101500008101C1F880062F481030056005F4807015
:1015100060B3FFF75FFE064608E0FFF75BFE801B47
:1015200041F28831884201D9032091E74020C1006F
:1015300091FAA1F1B1FA81F108430121B1EB601FE9
:1015400003D120482438006802E01E4810300068AB
:101550004021CA0092FAA2F2B2FA82F2114301F0DB
:101560001F020121914008400028D6D000BF00BFD3
:10157000606800F44030B0F5403F0BD1114824388A
:10158000006820F0C040616801F0C04108430D4987
:101590002439086000BF0B4810300068616801F40E
:1015A0004031084307491031086000BF012F05D1C1
:1015B0000448006820F080500249086000BF002005
:1015C00046E7000024380240007000400000474217
:1015D00070B504460D460026B348006800F00100CF
:1015E000A84218D200BF012D05D1AF48006840F0D5
:1015F0000400AD490860AC48006820F001002843B1
:10160000A949086000BF0846006800F00100A84230
:1016100001D0012070BD207800F00200022807D11F
:10162000A248006820F0F000A16808439F490860C4
:10163000207800F0010000287BD06068022821D1CA
:101640002020010391FAA1F1B1FA81F108430121AF
:10165000B1EB601F03D195480838006802E0934859
:101660002C30006820210A0392FAA2F2B2FA82F228
:10167000114301F01F0201219140084000286CD164
:101680000120C7E76068032820D12020010591FAD6
:10169000A1F1B1FA81F108430121B1EB601F03D13F
:1016A00082480838006802E080482C300068202119
:1016B0000A0592FAA2F2B2FA82F2114301F01F0275
:1016C000012191400840A8BB0120A3E760680128E0
:1016D00020D12020022191FAA1F1B1FA81F1084331
:1016E0000121B1EB601F03D170480838006802E0A7
:1016F0006E482C3000682021022292FAA2F2B2FA3F
:1017000082F2114301F01F0201219140084088B983
:1017100001207FE72020010191FAA1F1B1FA81F1C6
:1017200008430121B1EB601F05D16048083800680B
:1017300004E069E011E05D482C30006820210A01D6
:1017400092FAA2F2B2FA82F2114301F01F020121D1
:101750009140084008B901205CE75448006820F037
:1017600003006168084351490860FFF733FD0646EE
:101770006068022810D108E0FFF72CFD801B41F2C1
:101780008831884201D9032044E74848006800F0C6
:101790000C000828F0D137E06068032810D108E079
:1017A000FFF718FD801B41F28831884201D90320E0
:1017B00030E73E48006800F00C000C28F0D123E030
:1017C0006068012810D108E0FFF704FD801B41F29A
:1017D0008831884201D903201CE73448006800F0B2
:1017E0000C000428F0D10FE008E0FFF7F3FC801BA9
:1017F00041F28831884201D903200BE72B48006869
:1018000000F00C000028F0D12748006800F001002B
:10181000A84218D900BF012D05D12348006840F027
:101820000400214908602048006820F00100284396
:101830001D49086000BF0846006800F00100A8428A
:1018400001D00120E6E6207800F00400042807D14A
:101850001648006820F4E060E16808431349086016
:10186000207800F00800082808D11048006820F40B
:101870006050216940EAC1000C49086000F09AF804
:101880000A49096801F0F001F02292FAA2F2B2FAD4
:1018900082F2D140064A515CC840064908600020E7
:1018A000FFF7BAFC0020B5E6003C024008380240D1
:1018B000154B00089C0000202048006840F4807010
:1018C0001E4908601D480830006820F003001B49CD
:1018D000083108601948006819490840174908602C
:1018E0000020164908310860081F006815490840A3
:1018F00000214FF07F4292FAA2F2B2FA82F29140B6
:1019000041F4204108430D49091D0860084600685C
:1019100020F4F85010214FF4F85292FAA2F2B2FAE1
:1019200082F2914008430549091D086000200349DF
:101930000C310860044805490860704700380240CF
:10194000FEFFFAEEFF1FFF000024F4009C000020C1
:1019500001480068704700009C00002000B5FFF7B8
:10196000F7FF0749096801F4E0614FF4E06292FA79
:10197000A2F2B2FA82F2D140024A515CC84000BDE4
:1019800008380240254B000800B5FFF7E1FF074982
:10199000096801F460514FF4605292FAA2F2B2FA6F
:1019A00082F2D140024A515CC84000BD0838024072
:1019B000254B0008F0B5002100230024002200255B
:1019C0000020254E316801F00C067EB3042E04D0B1
:1019D000082E04D00C2E2AD103E020483AE02048FB
:1019E00038E001F470164FF4701797FAA7F7B7FABA
:1019F00087F7FE401B4FBB5D01F440064FF44007E4
:101A000097FAA7F7B7FA87F7FE40741C124E3668AC
:101A100006F4803626B1124E5E43B6FBF4F203E0C4
:101A20000E4E5E43B6FBF4F2104613E000E000BF3A
:101A3000094E361F366806F460464FF4604797FA41
:101A4000A7F7B7FA87F726FA07F56E1C0127B74004
:101A5000F80300BF00BFF0BD083802400024F400C6
:101A600000366E010C4B0008F8B5044600252078BE
:101A700000F00100002879D0F748006800F00C0061
:101A800008280CD0F448006800F00C000C282BD17A
:101A9000F148006800F48030B0F5803F24D1202068
:101AA000010391FAA1F1B1FA81F108430121B1EBEF
:101AB000601F03D1E8480838006802E0E6482C308F
:101AC000006820210A0392FAA2F2B2FA82F21143CC
:101AD00001F01F020121914008400028CBD060682E
:101AE000002843D10120F8BD00BF6068012808D15B
:101AF000D9480838006840F48030D7490839086070
:101B00002DE0606868B9D4480838006820F4803057
:101B1000D149083908600846006820F48020086030
:101B20001DE0606805280DD1CB480838006840F4F6
:101B30008020C949083908600846006840F48030B0
:101B400008600CE0C4480838006820F48030C249BE
:101B5000083908600846006820F48020086000BF4B
:101B6000606860B3FFF736FB054607E052E0FFF719
:101B700031FB401B642801D90320B4E72020010376
:101B800091FAA1F1B1FA81F108430121B1EB601F93
:101B900003D1B1480838006802E0AF482C30006833
:101BA00020210A0392FAA2F2B2FA82F2114301F062
:101BB0001F020121914008400028D8D02AE0FFF7F9
:101BC00009FB054606E0FFF705FB401B642801D929
:101BD000032088E72020010391FAA1F1B1FA81F1F5
:101BE00008430121B1EB601F03D19B48083800680E
:101BF00002E099482C30006820210A0392FAA2F2F0
:101C0000B2FA82F2114301F01F0201219140084013
:101C10000028D8D1207800F00200022845D18E4853
:101C2000006800F00C0004280AD08B48006800F01F
:101C30000C000C283BD18848006800F48030A8BB19
:101C40002020022191FAA1F1B1FA81F1084301218A
:101C5000B1EB601F03D180480838006802E07E487D
:101C60002C3000682021022292FAA2F2B2FA82F20B
:101C7000114301F01F0201219140084020B1E068AA
:101C8000012801D001202EE77348001F006820F4CE
:101C9000F8504FF4F85292FAA2F2B2FA82F22169A5
:101CA000914008436C49091F08607DE0FFE7E06848
:101CB000F0B3012090FAA0F1B1FA81F1674A42F83D
:101CC0002100FFF787FA054606E0FFF783FA401B7D
:101CD000022801D9032006E72020022191FAA1F170
:101CE000B1FA81F108430121B1EB601F03D15A48D9
:101CF0000838006802E058482C3000682021022291
:101D000092FAA2F2B2FA82F2114301F01F0201210B
:101D1000914008400028D8D04F48001F006820F4A8
:101D2000F8504FF4F85292FAA2F2B2FA82F200E0BE
:101D300006E02169914008434749091F086033E0E4
:101D40000020012191FAA1F1B1FA81F1434A42F850
:101D50002100FFF73FFA054606E0FFF73BFA401B7C
:101D6000022801D90320BEE62020022191FAA1F128
:101D7000B1FA81F108430121B1EB601F03D136486C
:101D80000838006802E034482C3000682021022224
:101D900092FAA2F2B2FA82F2114301F01F0201217B
:101DA000914008400028D8D1207800F01000102879
:101DB00073D12948006800F00C0000286ED1202063
:101DC000010191FAA1F1B1FA81F108430121B1EBCE
:101DD000601F03D120480838006802E01E482C30FC
:101DE000006820210A0192FAA2F2B2FA82F21143AB
:101DF00001F01F0201219140084018B1A06908B903
:101E0000012070E61449091F206A096801F4604145
:101E1000884225D9206A01F0A1FE08B1012062E6BE
:101E20000D48001F006820F46040216A08430A49F9
:101E3000091F08600846006820F07F404FF07F428D
:101E400092FAA2F2B2FA82F2E169914008430249A1
:101E5000091F086023E000000838024000004742E4
:101E6000FC48006820F46040216A0843F949086092
:101E70000846006820F07F404FF07F4292FAA2F2BD
:101E8000B2FA82F2E16991400843F2490860206A9F
:101E900001F064FE18B1012025E6A5E01FE04FF433
:101EA000604191FAA1F1B1FA81F1206AC840401C69
:101EB00001218140C803E749091D096801F0F001CB
:101EC000F02292FAA2F2B2FA82F2D140E24A515CD6
:101ED000C840E24908600020FFF79EF984E0A0694D
:101EE000F0B30120010291FAA1F1B1FA81F1DC4ACB
:101EF00042F82100FFF76EF9054606E0FFF76AF9A0
:101F0000401B022801D90320EDE52020010191FAB0
:101F1000A1F1B1FA81F108430121B1EB601F03D1B6
:101F2000CC48001F006802E0CA4830300068202119
:101F30000A0192FAA2F2B2FA82F2114301F01F02F0
:101F40000121914008400028D8D0C248006820F400
:101F50006040216A0843BF4908600846006800E005
:101F60000DE020F07F404FF07F4292FAA2F2B2FAE9
:101F700082F2E16991400843B649086034E00020EC
:101F80004FF4807191FAA1F1B1FA81F1B44A42F8AB
:101F90002100FFF71FF9054606E0FFF71BF9401B7C
:101FA000022801D903209EE52020010191FAA1F128
:101FB000B1FA81F108430121B1EB601F03D1A548BB
:101FC000001F006802E0A3483030006820210A01A9
:101FD00092FAA2F2B2FA82F2114301F01F02012139
:101FE000914008400028D8D1207800F00800082847
:101FF0006ED16069A8B3012090FAA0F1B1FA81F125
:10200000974A02EB8101C1F88006FFF7E3F8054625
:1020100006E0FFF7DFF8401B022801D9032062E544
:102020004020022191FAA1F1B1FA81F10843012186
:10203000B1EB601F03D18748001F006802E08548AC
:10204000303000684021022292FAA2F2B2FA82F203
:10205000114301F01F020121914008400028D8D00F
:1020600036E0FFE70021012090FAA0F0B0FA80F0FE
:102070007B4A02EB8000C0F88016FFF7ABF80546FC
:1020800006E0FFF7A7F8401B022801D903202AE544
:102090004020022191FAA1F1B1FA81F10843012116
:1020A000B1EB601F03D16B48001F006802E0694874
:1020B000303000684021022292FAA2F2B2FA82F293
:1020C000114301F01F020121914008400028D8D19E
:1020D000207800F00400042875D100265D482030E7
:1020E000006800F0805080B900BF5A482030006876
:1020F00040F080505749203108600846006800F0E1
:102100008050009000BF00BF01265648006800F4D0
:102110008070B0B95348006840F48070514908603D
:10212000FFF758F8054606E0FFF754F8401B64280F
:1021300001D90320D7E44B48006800F480700028E0
:10214000F2D000BFA068012808D1424830300068B2
:1021500040F480703F49303108602DE0A06868B9D4
:102160003C483030006820F480703A4930310860D3
:102170000846006820F4806008601DE0A06805281B
:102180000DD134483030006840F48060314930313E
:1021900008600846006840F4807008600CE02D4834
:1021A0003030006820F480702A49303108600846D9
:1021B000006820F48060086000BFA06870B3FFF77B
:1021C00009F8054609E06AE0FFF704F8401B41F210
:1021D0008831884201D9032085E44020C10091FA6A
:1021E000A1F1B1FA81F108430121B1EB601F03D1E4
:1021F0001848001F006802E016483030006840218F
:10220000CA0092FAA2F2B2FA82F2114301F01F025E
:102210000121914008400028D6D035E0FEF7DAFFD2
:10222000054608E0FEF7D6FF401B41F288318842A0
:1022300001D9032057E44020C10091FAA1F1B1FA7D
:1022400081F108430121B1EB601F0DD10148001F4E
:1022500000680BE004380240154B00089C00002089
:1022600000004742007000406C4800684021CA00EE
:1022700092FAA2F2B2FA82F2114301F01F02012196
:10228000914008400028CDD1012E07D16348103875
:10229000006820F0805061491039086000BF606A12
:1022A000F0B35E482C38006800F00C000C287AD09F
:1022B000606A022879D100204FF0807191FAA1F173
:1022C000B1FA81F1564A42F82100FEF783FF054634
:1022D00006E0FEF77FFF401B022801D9032002E43D
:1022E0002020010591FAA1F1B1FA81F10843012101
:1022F000B1EB601F03D149483438006801E047481A
:10230000006820210A0592FAA2F2B2FA82F2114381
:1023100001F01F020121914008400028D9D100E0BE
:102320007AE0D4E90A010843216B08433B492C3980
:10233000096821F47D01084338492C3908600120DF
:10234000010691FAA1F1B1FA81F1354A42F8210072
:10235000FEF740FF054606E0FEF73CFF401B022863
:1023600001D9032009E42020010591FAA1F1B1FA75
:1023700081F108430121B1EB601F03D127483438B4
:10238000006801E02548006820210A0592FAA2F2BF
:10239000B2FA82F2114301F01F020121914008407C
:1023A0000028D9D038E035E0FFE700214FF08070F9
:1023B00090FAA0F0B0FA80F0194A42F82010FEF727
:1023C00009FF054606E0FEF705FF401B022801D97C
:1023D000032058E42020010591FAA1F1B1FA81F11E
:1023E00008430121B1EB601F03D10C483438006869
:1023F00001E00A48006820210A0592FAA2F2B2FA26
:1024000082F2114301F01F0201219140084000288F
:10241000D9D101E0012036E4002034E43438024010
:10242000000047422DE9F04104460D4616460027BC
:1024300000BF207F012802D10220BDE8F0810120E9
:10244000207700BF0220607700BFCA202168486261
:1024500053202168486200BF2068806800F48060D3
:10246000E0B1FEF7B7FE074612E0FEF7B3FEC01B71
:10247000B0F57A7F0CD900BFFF202168486200BF09
:102480000320607700BF0020207700BF0320D4E73F
:102490002068C068C0F380000028E6D1206880680A
:1024A00020F48060216888602068C06800F08000A7
:1024B00060F490602168C860FEF78CFE074612E069
:1024C000FEF788FEC01BB0F57A7F0CD900BFFF2055
:1024D0002168486200BF0320607700BF002020779A
:1024E00000BF0320A9E72068C068C0F3800000286F
:1024F000E6D0206845612068806820F007002168E8
:1025000088602068806830432168886013480068CC
:1025100040F480101149086010480830006840F409
:1025200080100E49083108602068806840F48040BF
:10253000216888602068806840F480602168886035
:1025400000BFFF202168486200BF0120607700BF04
:102550000020207700BF00BF6FE7000000040140AB
:102560000121034A11700905024A116070470000F9
:10257000000000201404014010B504462068C06823
:10258000C0F3802050B12046FFF7EAFF2068C06802
:1025900000F0800060F490602168C8604FF4801003
:1025A000024908600120607710BD0000140401405A
:1025B00070B505460B4616460024286840680E494B
:1025C00000EA0104200CD870C4F30420587004F011
:1025D0003F009870C4F3423018705EB9D87801F0AB
:1025E00013FBD870587801F00FFB5870987801F001
:1025F0000BFB9870002070BD3FFFFF002DE9F041FC
:1026000006460C4617460025306800680F4900EA68
:102610000105C5F305402070C5F30620607005F084
:102620007F00A07005F48000000CE0705FB9207896
:1026300001F0EAFA2070607801F0E6FA6070A078A4
:1026400001F0E2FAA0700020BDE8F0817F7F7F00FA
:1026500010B504460CB9012010BD607F20B90020E0
:102660002077204600F04EF80220607700BFCA2095
:102670002168486253202168486200BF204601F06B
:10268000DBFA40B100BFFF202168486200BF042090
:1026900060770120E0E720688068194908402168D8
:1026A0008860216960680843616908432168896816
:1026B0000843216888602168E06808612068016932
:1026C000208941EA0040216808612068C06820F044
:1026D00080002168C8602068006C20F48020216898
:1026E00008642068006CA16908432168086400BF81
:1026F000FF202168486200BF012060770020ABE71F
:10270000BFFF8FFF10B504460B492068884212D1E5
:102710000120810591FAA1F1B1FA81F1074A02EB9A
:102720008101C1F88006002211460320FEF7C3FD97
:102730000320FEF7B3FD10BD002800400000474213
:102740002DE9F04104460D461646002700BF207FC4
:10275000012802D10220BDE8F0810120207700BFCE
:10276000022060774EB9687800F01000102804D17C
:10277000687800F0EF000A30687086B9E87801F0F8
:102780004EFA0304687801F04AFA43EA0023A87875
:1027900001F045FA0343287843EA403711E06878AE
:1027A00001F032FA0746A87801F02EFA0746E878D9
:1027B0000004697840EA0120A9780843297840EAB2
:1027C000413700BFCA20216848625320216848620F
:1027D00000BF204601F030FA60B100BFFF20216841
:1027E000486200BF0420607700BF0020207700BF50
:1027F0000120B0E713483840216848602068C0686D
:1028000020F080002168C860204600F0B3F860B175
:1028100000BFFF202168486200BF0420607700BF2E
:102820000020207700BF012095E700BFFF2021682E
:10283000486200BF0120607700BF0020207700BF02
:1028400000BF88E73FFFFF002DE9F04104460D4639
:102850001646002700BF207F012802D10220BDE8D4
:10286000F0810120207700BF02206077CEB9206878
:10287000806800F0400000B102E00020E87000BF76
:10288000287801F0CCF90304687801F0C8F943EA2C
:102890000023A87801F0C3F90343E87843EA00472E
:1028A00016E02068806800F0400020B1287801F030
:1028B000ABF9074602E00020E87000BF287800046A
:1028C000697840EA0120A9780843E97840EA01479D
:1028D00000BFCA202168486253202168486200BFB7
:1028E000204601F0A9F960B100BFFF2021684862CD
:1028F00000BF0420607700BF0020207700BF0120C8
:10290000ADE71B483840216808602068806820F4E3
:10291000802021688860D5E9010108432168896821
:102920000843216888602068C06820F08000216822
:10293000C860204600F01EF860B100BFFF2021688B
:10294000486200BF0420607700BF0020207700BFEE
:10295000012084E700BFFF202168486200BF0120FA
:10296000607700BF0020207700BF00BF77E700003E
:102970007F7F7F0070B5044600252068C06820F086
:10298000A0002168C860FEF725FC054607E0FEF7B9
:1029900021FC401BB0F57A7F01D9032070BD20686F
:1029A000C06800F020000028F1D00020F6E710B544
:1029B00004460CB9012010BD94F8510028B900203C
:1029C00084F85000204600F031F8022084F85100CD
:1029D0002068006820F0400021680860D4E9010107
:1029E0000843E16808432169084361690843218B72
:1029F00001F400710843E1690843216A0843A16AB0
:102A00000843216808600421A06901EA1040616A56
:102A10000843216848602168E06A08610020606519
:102A2000012084F851000020C5E7000010B586B0F1
:102A30000446142101A8FDF780FB32492068884232
:102A40002AD100BF3048006840F480502E49086009
:102A50000846006800F48050009000BF00BF00BF2F
:102A6000081F006840F00100091F08600846006860
:102A700000F00100009000BF00BFE02001900220A4
:102A8000029000200390032004900520059001A9E6
:102A90001E48FEF7A9FA32E01D49206888422ED16F
:102AA00000BF1948001D006840F480401649091D08
:102AB00008600846006800F48040009000BF00BF36
:102AC00000BF1148001F006840F002000E49091FB6
:102AD00008600846006800F00200009000BF00BFD8
:102AE0004FF46040019002200290002003900320E8
:102AF00004900520059001A90648FEF775FA06B076
:102B000010BD0000003001402038024000000240AB
:102B100000380040000402402DE9F84304460E4608
:102B200017461D46DDF820800020009094F85100E3
:102B3000012803D094F85100222876D10EB107B1B4
:102B400015B90120BDE8F88300BF94F850000128B2
:102B500001D10220F6E7012084F8500000BF94F86C
:102B60005100012802D1322084F851000020606514
:102B7000A763A587E5872663A586E586A064E0644C
:102B8000A06AB0F5005F0DD100BF2068006820F496
:102B90000050216808602068006840F400502168F7
:102BA000086000BF2068006800F04000402805D0A1
:102BB0002068006840F0400021680860E068B0F5D7
:102BC000006F75D1606830B16068B0F5827F0CD15C
:102BD000E08E012809D1206B00882168C860206B35
:102BE000801C2063E08E401EE086E08EF0B9A06A73
:102BF000B0F5005F05D12068006840F4805021687E
:102C00000860434600220121204601F021F908B165
:102C1000032097E72068C068A16B0880A06B801C28
:102C2000A063E08F401EE087C7E019E131E0434632
:102C300000220221204601F00BF908B1032081E7B0
:102C4000206B00882168C860206B801C2063E08EA8
:102C5000401EE086E08E48B9A06AB0F5005F05D15D
:102C60002068006840F480502168086043460022D4
:102C70000121204601F0ECF808B1032062E720684A
:102C8000C068A16B0880A06B801CA063E08F401E11
:102C9000E087E08E0028CADC60680028C4D1434683
:102CA00000220121204601F0D3F810B1032049E7AA
:102CB0000AE02068C068A16B0880A06B801CA0633C
:102CC000E08F401EE08778E0606830B16068B0F562
:102CD000827F0BD1E08E012808D1216B481C206334
:102CE00008782168C860E08E401EE086E08ED0B98A
:102CF000A06AB0F5005F05D12068006840F48050FC
:102D000021680860434600220121204601F0A0F816
:102D100008B1032016E72068C068A16B0870E08F37
:102D2000401EE08749E030E0434600220221204671
:102D300001F08EF808B1032004E7216B481C2063E2
:102D400008782168C860E08E401EE086E08E48B9B1
:102D5000A06AB0F5005F05D12068006840F480509B
:102D600021680860434600220121204601F070F8E6
:102D700008B10320E6E62068C068C1B2A26B501C0F
:102D8000A0631170E08F401EE087E08E0028CBDC4E
:102D9000606890B9434600220121204601F058F8AE
:102DA00008B10320CEE62068C068C1B2A26B501CF7
:102DB000A0631170E08F401EE087A06AB0F5005F4D
:102DC00012D1434600220121204601F041F828B1EA
:102DD000606D40F0020060650320B3E62068C068C3
:102DE00080B20090BDF800004346012280212046B9
:102DF00001F02EF828B1606D40F0200060650320DE
:102E0000A0E6012084F85100A06AB0F5005F21D14E
:102E100020688068C0F30010E0B1606D40F00200EF
:102E20006065A06AB0F5005F0DD100BF2068006842
:102E300020F40050216808602068006840F40050C9
:102E40002168086000BF00BF002084F8500000BF68
:102E5000012077E600BF002084F8500000BF71E633
:102E600002206FE670B504462546681EB0F1807FEB
:102E700001D301200FE0681E4FF0E02148610F21CF
:102E80004FF0FF3000F042FE00204FF0E02188615B
:102E900007200861002070BD024600BF92F8340090
:102EA000012801D102207047012082F8340000BFC0
:102EB000022082F835001068406820F07000136826
:102EC0005860106840680B681843136858601068B1
:102ED000806820F0800013689860106880684B68F4
:102EE000184313689860012082F8350000BF002065
:102EF00082F8340000BF00BFD5E710B504460CB916
:102F0000012010BD94F8350028B9002084F8340061
:102F1000204600F00DF8022084F83500211D2068BD
:102F200001F0A2F9012084F835000020E9E7000053
:102F300038B504462068B0F1804F16D100BF18485C
:102F4000006840F00100164908600846006800F07B
:102F50000100009000BF00BF002211461C20FEF7B8
:102F6000AAF91C20FEF79AF919E00E492068884258
:102F700015D100BF0A48006840F004000849086005
:102F80000846006800F00400009000BF00BF002267
:102F900011461E20FEF78FF91E20FEF77FF938BD7F
:102FA00024380240000800402DE9F04104460D4657
:102FB000002600BF94F83400012802D10220BDE8A9
:102FC000F081012084F8340000BF022084F835002D
:102FD0002068866826F0770626F47F46206886609B
:102FE000286850283BD00CDC202860D004DC002866
:102FF00053D0102865D155E030285DD0402860D1ED
:1030000041E0602835D070280DD0B0F5805F03D046
:10301000B0F5005F55D115E02068806820F007000A
:10302000216888604EE0D5E902136A68206801F0E3
:1030300053F92068866826F0770646F07706206800
:1030400086603FE0D5E902136A68206801F044F920
:103050002068806840F480402168886032E0EA6837
:103060006968206801F04EF95021206801F040F9AC
:1030700028E0EA686968206801F059F96021206851
:1030800001F036F91EE0EA686968206801F03AF953
:103090004021206801F02CF914E00021206801F0A3
:1030A00027F90FE01021206801F022F90AE0202121
:1030B000206801F01DF905E03021206801F018F9C1
:1030C00000E000BF00BF012084F8350000BF0020F1
:1030D00084F8340000BF00BF71E7704710B50446A4
:1030E00020680069C0F34000D8B12068C068C0F310
:1030F0004000B0B16FF00200216808610120207526
:103100002068806900F0030018B12046FFF7E5FF52
:1031100005E0204600F08BF8204600F089F80020FA
:10312000207520680069C0F38000D8B12068C068AD
:10313000C0F38000B0B16FF0040021680861022084
:1031400020752068806900F4407018B12046FFF7B0
:10315000C4FF05E0204600F06AF8204600F068F859
:103160000020207520680069C0F3C000D8B1206835
:10317000C068C0F3C000B0B16FF0080021680861FA
:10318000042020752068C06900F0030018B12046B3
:10319000FFF7A3FF05E0204600F049F8204600F0C5
:1031A00047F80020207520680069C0F30010D8B1EE
:1031B0002068C068C0F30010B0B16FF01000216843
:1031C0000861082020752068C06900F4407018B1BB
:1031D0002046FFF782FF05E0204600F028F8204651
:1031E00000F026F8002020752068006900F001003A
:1031F00058B12068C06800F0010030B16FF00100E4
:1032000021680861204600F014F820680069C0F3C6
:10321000801058B12068C068C0F3801030B16FF0E2
:10322000400021680861204600F004F810BD704796
:1032300070477047704710B504460CB9012010BDA7
:10324000A06900B100E000BF94F8390028B900205F
:1032500084F83800204600F025F8022084F8390070
:103260002068C06820F400502168C860204601F042
:1032700075F82068006920F4904021680861206892
:10328000406920F02A00216848612068C06840F445
:1032900000502168C8600020E063012084F83900F4
:1032A0000020CCE710B586B00446142101A8FCF735
:1032B00044FF1D492068884234D100BF1B48006884
:1032C00040F48020194908600846006800F4802016
:1032D000009000BF00BF00BF14480838006840F0ED
:1032E00002001249083908600846006800F0020030
:1032F000009000BF00BF4FF4406001900220029098
:1033000001200390032004900720059001A908489C
:10331000FDF76AFE002211462720FDF7CCFF27208B
:10332000FDF7BCFF06B010BD004800402438024045
:10333000000402402DE9F04704460D461646994622
:103340004FF0000894F83980B8F1010F02D0B8F1BD
:10335000120F69D105B116B90120BDE8F08700BF91
:1033600094F83800012801D10220F6E7012084F802
:10337000380000BF0020E06394F83900122803D120
:10338000322084F8390002E0222084F83900A68532
:10339000E68535E0E08D401EE085A068B0F5805FF1
:1033A00018D14B4600222021204601F083F908B1B4
:1033B0000320D2E72F46206930B920684068C0F367
:1033C00008003880AD1C1BE020684068C0B238801F
:1033D0006D1C15E04B4600222021204601F06AF9C1
:1033E00008B10320B9E7206920B92068406805F8D2
:1033F000010B05E02068406800F07F0005F8010B34
:10340000E08D0028C6DC94F83900322803D1122060
:1034100084F8390002E0012084F8390000BF002060
:1034200084F8380000BF98E7022096E72DE9F047BE
:1034300004460D46164699464FF0000894F8398028
:10344000B8F1010F02D0B8F1220F65D105B116B95C
:103450000120BDE8F08700BF94F83800012801D1B1
:103460000220F6E7012084F8380000BF0020E06366
:1034700094F83900222803D1322084F8390002E080
:10348000122084F83900A684E68428E0E08C401EEF
:10349000E084A068B0F5805F14D14B460022802103
:1034A000204601F007F908B10320D2E72F463888FB
:1034B000C0F3080021684860206908B9AD1C0EE01F
:1034C0006D1C0CE04B4600228021204601F0F2F8F2
:1034D00008B10320BDE715F8010B21684860E08CB6
:1034E0000028D3DC4B4600224021204601F0E2F8C0
:1034F00008B10320ADE794F83900322803D1222027
:1035000084F8390002E0012084F8390000BF00206F
:1035100084F8380000BF9CE702209AE700BFFEE76E
:1035200010B500F074F8002001F07EF9C72000F01B
:10353000E3FB012001F078F900F065F810BD000010
:103540002DE9F04106460C461746002001F06CF9C3
:10355000032000F0D1FBC4F3074000F0CDFBC4F31F
:10356000072000F0C9FBE0B200F0C6FB002506E032
:1035700007480560FF2000F0BFFB70556D1CBD4281
:10358000F6D3012001F050F90120BDE8F0810000E0
:10359000140000202DE9F04100240025002600271A
:1035A000002001F041F99F2000F0A6FBFF2000F071
:1035B000A3FB0546FF2000F09FFB0646FF2000F01E
:1035C0009BFB0746012001F02FF9280440EA062062
:1035D00040EA07042046BDE8F08110B50024002031
:1035E00001F022F9052000F087FB00BFFF2000F06A
:1035F00083FB044604F001000028F7D1012001F00C
:1036000013F9204610BD10B5FFF7E7FF10BD10B548
:10361000002001F009F9062000F06EFB012001F006
:1036200003F910BD2DE9F04107460E461446F0B2ED
:10363000C0F58075AC4200D8254611E02A463146D7
:10364000384600F011F8AC4200D10AE02F442E4475
:10365000641BB4F5807F02D94FF4807500E02546E5
:10366000ECE700BFBDE8F0812DE9F04106460C46CD
:103670001746FFF7CCFF002001F0D6F8022000F03B
:103680003BFBC4F3074000F037FBC4F3072000F016
:1036900033FBE0B200F030FB002508E0705D00F085
:1036A0002BFB09480068401C074908606D1CBD429F
:1036B000F4D3012001F0B8F8012001F026F9FFF75A
:1036C000A2FFBDE8F0810000180000200EB5002028
:1036D0000090019002901748174908600020486048
:1036E000002115488160C160016141611021816143
:1036F0004FF44031C16100210162012141628162C8
:103700000021C1621021416300218163C163FDF783
:10371000FFF908B1FCF7E4FF0120009001900020C0
:10372000029069460448FDF703F908B1FCF7D8FF99
:103730000EBD000000240140E005002000B587B068
:10374000142102A8FCF7F9FC00BF4948006840F0CA
:103750000400474908600846006800F00400019032
:1037600000BF00BF00BF0846006840F001000860CD
:103770000846006800F00100019000BF00BF00BFD4
:103780000846006840F0020008600846006800F043
:103790000200019000BF00BF012210213548FDF753
:1037A00013FD00224FF4D0713248FDF70DFD0022C9
:1037B0004FF480513048FDF707FD012211022F48D8
:1037C000FDF702FD302002900120039000200490BC
:1037D000059002A92748FDF707FC0320029028481E
:1037E00003900120049002A92348FDF7FDFB4FF44C
:1037F000805002900120039000200490059002A9BF
:103800001D48FDF7F1FB4FF4C070029001200390BA
:1038100004900020059002A91648FDF7E5FB4FF43F
:10382000807002900120039000200490059002A96E
:103830001248FDF7D9FB4FF4C070029000200390AE
:103840000120049002A90C48FDF7CEFB002211468E
:103850000620FDF730FD0620FDF720FD0022114671
:103860000720FDF728FD0720FDF718FD07B000BD74
:103870001C380240000802400004024000000240E0
:10388000000021101FB500200190029003900090CD
:103890001F4820490860002048607F211D48816042
:1038A000FF21C1600021016141618161FEF7D0FE0D
:1038B00008B1FCF715FF00208DF804008DF8050015
:1038C0008DF8060002900390012201A91148FEF72D
:1038D000BBFF08B1FCF704FF01208DF800008DF854
:1038E00001008DF8020000208DF8030001226946D6
:1038F0000848FEF725FF08B1FCF7F2FE0422052177
:103900000448FEF78FFD08B1FCF7EAFE1FBD00007A
:10391000002800404006002010B50E480E490860FF
:103920004FF48270486000210B488160C160022121
:10393000016101214161490281610021C16101628E
:10394000416281620A21C162FFF731F808B1FCF7D8
:10395000C7FE10BD003001406006002010B50E48C3
:103960000E4908604FF48270486000210B48816066
:10397000C160016141614FF4007181610021C16149
:103980000162416281620A21C162FFF710F808B149
:10399000FCF7A6FE10BD000000380040B80600206D
:1039A00000B587B000200390049005900690019028
:1039B00002904FF080401449086042F20F70486056
:1039C00000211148816040F23F61C1600021016126
:1039D000FFF793FA08B1FCF783FE4FF48050039091
:1039E00003A90948FFF7E0FA08B1FCF779FE0020C7
:1039F0000190029001A90448FFF74EFA08B1FCF7C4
:103A00006FFE07B000BD00001007002000B587B0B2
:103A100000200390049005900690019002901448B5
:103A20001449086040F23F604860002111488160FD
:103A30004FF4FA61C16000210161FFF75EFA08B13D
:103A4000FCF74EFE4FF48050039003A90948FFF79E
:103A5000ABFA08B1FCF744FE00200190029001A9E6
:103A60000448FFF719FA08B1FCF73AFE07B000BDA9
:103A7000000800404807002010B50B480B490860BB
:103A80004FF4E1304860002108488160C160016165
:103A90000C21416100218161C161FFF7CCFB08B1BC
:103AA000FCF71EFE10BD000000480040800700200B
:103AB00000BFFEE7704710B5012204211E20FDF76C
:103AC000FAFB1E20FDF7EAFB042208211C20FDF76B
:103AD000F2FB1C20FDF7E2FB0E2211460620FDF74B
:103AE000EAFB0620FDF7DAFB0F2211460720FDF75F
:103AF000E2FB0720FDF7D2FB10BD00000248006882
:103B0000C0F30220704700000CED00E010B5002863
:103B100007DA0A07140E054A00F00F031B1FD454DE
:103B200003E00A07130E024A135410BD18ED00E01B
:103B300000E400E07047000010B504462CB10122FB
:103B400020210548FDF740FB04E000222021024827
:103B5000FDF73AFB10BD00000008024018B5024610
:103B6000002300212548006800F0F00050BB2348E6
:103B70001C30006800F0805020B12148006800F43B
:103B8000C05318E000BF1D481C30006840F0805052
:103B90001A4C1C3420602046006800F080500090D1
:103BA00000BF00BF1648006800F4C05320460068FC
:103BB00020F080502060B3F5C05F03D1B2F5404FD4
:103BC00000D1012100BF012905D10E48006840F055
:103BD00004000C4C20600B48006820F001000843F2
:103BE000084C206000BF2046006800F001008842B9
:103BF00001D0012018BD0020FCE700000838024079
:103C000000700040003C0240014600BF080900EB84
:103C10008000420001F00F001044C0B2704701461E
:103C2000002203E0521CA1F10A00C1B20A29F9DA0C
:103C3000100741EA1060704770B5044600252068FF
:103C4000C06800F04000A0B9681E2168C860FDF798
:103C5000C1FA054607E0FDF7BDFA401BB0F57A7FD3
:103C600001D9032070BD2068C06800F04000002822
:103C7000F1D00020F6E7000010B586B0044601221E
:103C800003A91548FEF7BAFC012202A91248FEF763
:103C90008FFC9DF80A008DF803009DF809008DF84F
:103CA00004009DF80B008DF805009DF80C008DF8C0
:103CB00000009DF80D008DF801009DF80E008DF8B4
:103CC000020000982060BDF80400A0809DF8060066
:103CD000A07106B010BD00004006002010B50248DB
:103CE000FEF74AFC10BD00004006002001480068B5
:103CF000704700000800002001B582B00A200123AF
:103D000001AA02A900900348FEF706FF9DF80400EF
:103D10000EBD00006006002000B587B0142102A887
:103D2000FCF70BFA00BF3048006840F480402E4991
:103D300008600846006800F48040019000BF00BFA2
:103D40004FF4604002900220039000200490032072
:103D500005900520069002A92448FDF745F94FF487
:103D600080500290012003900020049003200590D1
:103D700002A91E48FDF738F9402002900120039067
:103D8000002004900320059002A91948FDF72CF9A2
:103D9000042002900120039000200490032005904D
:103DA00002A91248FDF720F91248134908604FF4A0
:103DB00082704860002110488160C1600221016169
:103DC00001214161490281611821C1610021016223
:103DD000416281620A21C162FEF7E9FD08B1FCF788
:103DE0007FFC07B000BD0000243802400004024000
:103DF0000008024000380040B806002070B50446B4
:103E00000D461646324629460248FFF799FB014CFB
:103E100070BD00007001002070B505460E461446C6
:103E2000FFF764FF09480068401C10B907480460A8
:103E300004E006480068204404490860224603481C
:103E400001682846FFF7EEFB70BD00000800002067
:103E50002DE9F04104460E4617461D464FF0000876
:103E6000FDF7B8F98046002F3ED132E0681C78B3E8
:103E70002DB1FDF7AFF9A0EB0800A84229D92068C1
:103E8000406820F0E000216848602068006820F069
:103E9000400021680860A06AB0F5005F0DD100BF46
:103EA0002068006820F400502168086020680068DD
:103EB00040F400502168086000BF012084F85100E0
:103EC00000BF002084F8500000BF0320BDE8F0814F
:103ED000FFE7206880683040B04201D1012000E057
:103EE00000200028C2D03BE030E0681C70B32DB148
:103EF000FDF770F9A0EB0800A84227D920684068B8
:103F000020F0E000216848602068006820F0400050
:103F100021680860A06AB0F5005F0DD100BF20687D
:103F2000006820F40050216808602068006840F4B0
:103F300000502168086000BF012084F8510000BFD4
:103F4000002084F8500000BF0320BFE7206880688D
:103F50003040B04201D1012000E000200028C4D14F
:103F60000020B3E7704700000FB585B00020029035
:103F70000390049001902A482A4908600020486074
:103F80007F2128488160FF21C160002101614161DA
:103F90008161FEF75DFB08B1FCF7A2FB9DF81800FC
:103FA0008DF808009DF819008DF809009DF81A0099
:103FB0008DF80A00002003900490012202A91948FC
:103FC000FEF742FC08B1FCF78BFB9DF81D008DF855
:103FD00004009DF81C008DF805009DF81B008DF86D
:103FE00006009DF81E008DF80700012201A90D486A
:103FF000FEF7A6FB08B1FCF773FB042209480599FC
:10400000FEF710FA08B1FCF76BFB4FF4801006497D
:104010000860042203480599FEF704FA09B000BDC0
:1040200000280040400600201404014010B5FDF7B0
:10403000DFF810BD00B595B0342108A8FCF77DF875
:10404000142103A8FCF779F8002000900190029059
:104050001C48006820F4C05040F400601949086012
:104060000A20089001200B9010200C9001200D9048
:10407000022011900021129113914105149108A87A
:10408000FDF7F2FC08B1FCF72BFB0F200390032097
:1040900004900020059006904FF480600790012165
:1040A00003A8FDF795FA08B1FCF71AFB0120009070
:1040B000400401906846FDF789F908B1FCF710FB50
:1040C00015B000BD007000401448006840F48070D6
:1040D00012490860114808300068114908400F492A
:1040E000083108600D4800680E4908400B49086017
:1040F0000846006820F480200860084808300068FE
:1041000020F47D000549083108600020091D086081
:104110004FF000600449086070470000003802401A
:104120000CC0FF88FEFFFEEE08ED00E010B50F4862
:104130000068006900F0010098B10020FCF78CFBDA
:104140000120FCF789FB0220FCF786FB0848007879
:10415000401C07490870074A074907481038FCF710
:1041600043FB0248FEF7BAFF10BD00001007002015
:1041700092000020A00000203000080810B536484A
:1041800000680069C0F34000002841D03248006850
:10419000C06820F0010030490968C8602F480078E5
:1041A00020B101280CD0022827D125E000202A497F
:1041B000096848622A4908600120284908701DE002
:1041C00027480068212810D223480068416A244803
:1041D00002680068401C224B1860224840F82210F8
:1041E00000201D490968486205E002201B4908704B
:1041F00000201B49086001E000E000BF00BF164836
:104200000068C06840F0010013490968C8601EE0FA
:1042100011480068006900F00100C0B10F48007843
:10422000012805D100200D4908700D49086006E0FD
:104230000A480078022802D103200849087006487D
:104240000068C06820F0010003490968C86002489E
:10425000FEF744FF10BD0000480700209300002037
:1042600094000020C007002000220268B0F1804FB7
:1042700005D0144B984202D0134B984203D122F040
:1042800070024B681A43B0F1804F0ED00D4B98422C
:104290000BD00D4B984208D00C4B984205D00C4BDC
:1042A000984202D00B4B984203D122F44072CB6863
:1042B0001A4302608B68C3620B6883620123436107
:1042C0007047000000040040000800400008014062
:1042D000000C01400010014030B50C4600218168FF
:1042E00021F47F4142EA032525432943816030BD03
:1042F0000A460021816821F0700142F0070319434A
:104300008160704730B50B46144600210022026AD6
:10431000056A25F001050562816921F0F00141EA95
:10432000041122F00A021A438161026230BD30B5E5
:104330000B46144600210022056A25F0100505628F
:104340008169026A21F4704141EA043122F0A0023D
:1043500042EA03128161026230BD00002DE9F041A2
:10436000044600252068006920F44050E1680843B5
:10437000216808612169A068084361690843E1690F
:1043800040EA01052068C06849F20C61884328436F
:104390002168C8602068406920F44070A169084322
:1043A00021684861E069B0F5004F7CD1C0492068C0
:1043B00088425DD1FDF7E8FA00EBC00101EB001087
:1043C00061684900B0FBF1F06421B0FBF1F0060137
:1043D000FDF7DAFA00EBC00101EB0010616849005B
:1043E000B0FBF1F7FDF7D0FA00EBC00101EB0010D4
:1043F00061684900B0FBF1F06421B0FBF1F000EB23
:10440000C00101EB0010A7EB8000322101EBC000DE
:104410006421B0FBF1F000F0F80006EB4006FDF778
:10442000B3FA00EBC00101EB001061684900B0FB7A
:10443000F1F7FDF7A9FA00EBC00101EB001061688C
:104440004900B0FBF1F06421B0FBF1F000EBC001DA
:1044500001EB0010A7EB8000322101EBC0006421CA
:10446000B0FBF1F000F007003044216888601CE1E7
:10447000FDF774FA00EBC00101EB00106168490020
:10448000B0FBF1F06421B0FBF1F00601FDF766FA34
:1044900000EBC00101EB001061684900B0FBF1F7CF
:1044A000FDF75CFA00E043E000EBC00101EB001017
:1044B00061684900B0FBF1F06421B0FBF1F000EB62
:1044C000C00101EB0010A7EB8000322101EBC0001E
:1044D0006421B0FBF1F000F0F80006EB4006FDF7B8
:1044E0003DFA00EBC00101EB001061684900B0FB30
:1044F000F1F7FDF733FA00EBC00101EB0010616842
:104500004900B0FBF1F06421B0FBF1F000EBC00119
:1045100001EB0010A7EB8000322101EBC000642109
:10452000B0FBF1F000F00700304421688860BCE087
:104530005F49206888425CD1FDF726FA00EBC00194
:1045400001EB001061688900B0FBF1F6FDF71CFA81
:1045500000EBC00101EB001061688900B0FBF1F0D5
:104560006421B0FBF1F000EBC00101EB0010A6EB01
:104570008000322101EB00106421B0FBF1F000F06B
:10458000F006FDF701FA00EBC00101EB00106168D5
:104590008900B0FBF1F06421B0FBF1F006EB0016EE
:1045A000FDF7F2F900EBC00101EB00106168890032
:1045B000B0FBF1F7FDF7E8F900EBC00101EB0010EB
:1045C00061688900B0FBF1F06421B0FBF1F000EB11
:1045D000C00101EB0010A7EB8000322101EB0010BD
:1045E0006421B0FBF1F000F00F00304421688860D6
:1045F0005BE0FDF7B3F900EBC00101EB001061686F
:104600008900B0FBF1F6FDF7A9F900EBC00101EB61
:10461000001061688900B0FBF1F06421B0FBF1F09B
:1046200000EBC00101EB0010A6EB8000322101EB92
:1046300000106421B0FBF1F000F0F006FDF78EF9F8
:1046400000EBC00101EB001061688900B0FBF1F0E4
:104650006421B0FBF1F006EB0016FDF77FF900EBEB
:10466000C00101EB001061688900B0FBF1F7FDF7B4
:1046700075F900EBC00101EB001061688900B0FB27
:10468000F1F06421B0FBF1F000EBC00101EB001090
:10469000A7EB8000322101EB00106421B0FBF1F0A8
:1046A00000F00F00304421688860BDE8F081000010
:1046B000003801402DE9F04104460E4617461D46DC
:1046C0004FF00008FCF786FD80469FBB2BE0681C7E
:1046D00048B32DB1FCF77EFDA0EB0800A84222D91B
:1046E0002068C06820F080002168C8602068C06829
:1046F00020F020002168C8602068C06820F4807025
:104700002168C8602068406920F001002168486184
:10471000012084F8390000BF002084F8380000BF71
:104720000320BDE8F081206800683040B04202D12B
:10473000012001E003E000200028C8D035E02AE095
:10474000681C40B32DB1FCF745FDA0EB0800A84262
:1047500021D92068C06820F080002168C8602068E6
:10476000C06820F020002168C8602068C06820F47C
:1047700080702168C8602068406920F001002168CD
:104780004861012084F8390000BF002084F8380017
:1047900000BF0320C5E7206800683040B04201D167
:1047A000012000E000200028CAD10020B9E7000065
:1047B00010B5164800680068C0F3401028B31448CC
:1047C00002680068401C124B1860124811180A2336
:1047D00001220E48FEF7AEFD01200F4908600F4888
:1047E0000068401C0D490860FBF740FE00224FF4B2
:1047F00080710B48FCF7E8FC06480078C12804D11A
:10480000FBF77CFD00200249086010BD80070020F6
:1048100014010020FC000020F4000020F000002023
:104820000008024000BFFEE710B5044614B1012C99
:104830000DD106E000224FF480710648FCF7C4FC5D
:1048400005E0012211020348FCF7BEFC00BF00BFD7
:1048500010BD00000000024000B587B0142102A87E
:10486000FBF76BFC00BF1D48006840F002001B49CD
:1048700008600846006800F00200019000BF00BF19
:1048800003200290164803900120049002A91548C5
:10489000FCF7AAFB002211460620FCF70CFD0620BF
:1048A000FCF7FCFC002211460720FCF704FD072062
:1048B000FCF7F4FC19200C498872012008720220D0
:1048C000C87103204872102008711220487104201A
:1048D00088710520086007B000BD00001C38024048
:1048E0000000211000040240D005002002E008C8AA
:1048F000121F08C1002AFAD170477047002001E05A
:1049000001C1121F002AFBD1704710B50446204692
:10491000FCF7E3FA10BD10B504460120FCF7DDFA00
:1049200010BD00001CB5FCF76BFCFFF783FBFEF726
:1049300005FFFEF7F1FFFEF7A5FFFFF731F8FFF7E0
:1049400065F8FEF7C3FEFFF797F8FFF707F8FCF7E7
:1049500005FD00BF5B48006840F080505949086081
:104960000846006800F08050019000BF00BFFCF7CF
:1049700001FD00205449087054490870FFF79BF866
:10498000FCF79AFF01205249087004204870FBF799
:104990006DFD012211024F48FCF716FC0022802118
:1049A0004C48FCF711FCFFF7B7F9002204214A48F4
:1049B000FCF70AFC012049490860002048604020BB
:1049C00088600B20C8600A46454945481038FBF707
:1049D0000BFFAA20434908600B204860424800684A
:1049E000407888605520C8600A463D4940393C48B7
:1049F0005038FBF7F9FE19203C49887201200872F3
:104A00000220C871032048721020087112204871DA
:104A1000042088710520086008460FC8FFF7A4FA33
:104A2000012210212B48FCF7CFFB03E0FEF7B2FD7B
:104A30002F4908602E4800682E498842F6D101248B
:104A400003E0601E2C4A1454641C112CF9D338E086
:104A50006846FFF711F9294800990160BDF8041074
:104A600081809DF8061081714079234908702348A0
:104A7000007948702148C078887020480078C87054
:104A80001E48407808711D48807848711C48FCF722
:104A9000A7FB092200211848FFF7BEF9FFF726F906
:104AA000B0F5800F04D3FEF73BFD002015490860E8
:104AB00009221448016814480068FFF79FF9FBF7C2
:104AC00029FDC5E724380240900000209100002015
:104AD000380000200008024000040240A005002029
:104AE000500008088005002034000020D005002078
:104AF0007800002016202000B00500208000002053
:104B000034060020080000207C0000200304060872
:104B10000C1018203000000000000000000102030B
:104B20000406070809000000000102030400000059
:104B3000504B000800000020300100007401000804
:104B4000784B000830010020300B0000FC480008C2
:104B500041041E17202022E103622804F2013C6870
:104B6000FF1F14A9048132AA4A089B1102230232B2
:084B7000CAF2557A0501012A81
:04000005080000F5FA
:00000001FF
