:020000040800F2
:1000000088020020890100089D0300089F03000862
:10001000A1030008A3030008A503000800000000D6
:10002000000000000000000000000000A90300081C
:10003000A703000800000000AB030008AD030008A0
:10004000AF030008B1030008B3030008B5030008BC
:10005000B7030008B9030008BB030008BD0300088C
:10006000BF030008C1030008C3030008C50300085C
:10007000C7030008C9030008CB030008CD0300082C
:10008000CF030008D1030008D3030008D5030008FC
:10009000D7030008D9030008DB030008DD030008CC
:1000A000DF030008E1030008E3030008E50300089C
:1000B000E7030008E9030008EB030008ED0300086C
:1000C0007F04000881040008F7040008F904000810
:1000D000FB040008FD040008FF04000801050008F7
:1000E00003050008050500080705000800F002F8F0
:1000F00000F03CF80AA090E8000C82448344AAF186
:100100000107DA4501D100F031F8AFF2090EBAE883
:100110000F0013F0010F18BFFB1A43F0010318473B
:10012000A0090000C0090000103A24BF78C878C1B7
:10013000FAD8520724BF30C830C144BF04680C60ED
:10014000704700000023002400250026103A28BF35
:1001500078C1FBD8520728BF30C148BF0B60704739
:100160001FB5AFF300801FBD10B510BD00F0DFF963
:100170001146FFF7F5FF00F0B0F800F0FDF9FFF7CA
:10018000F3FF00F003FA0000034800470348044966
:10019000024A044B70470000ED0000088800002070
:1001A000880200208800002010B5034607E0187878
:1001B0000C78A04201D0002010BD5B1C491C10002F
:1001C000A2F10104A2B2F2D10120F5E708B5C020E6
:1001D000ADF8000003208DF802001C208DF803000C
:1001E0006946644800F0F6F94FF44060ADF800004D
:1001F0006946604800F0EEF9C020ADF8000010201C
:100200008DF8030003208DF8020069465A4800F07B
:10021000E1F908BD08B500214FF0006000F030FBA7
:100220004FF4C06000F022FB1F208DF80000012079
:100230008DF8010000208DF8020001208DF80300E8
:10024000684600F0D8FA21208DF8000000208DF8D3
:100250000100684600F0CFFA08BD10B500F032FB8F
:100260004FF4803000F0C0FB00F006FC43490870FA
:1002700008460078012826D1002000F0ABFB0020C2
:1002800000F0D6FB4FF4806000F0C8FB022000F0C5
:1002900095F9102000F086F94FF4E0114FF480300A
:1002A00000F0D6FB012000F0CDFB00BF392000F0AC
:1002B00071FB0028FAD0022000F0D4FB00BF00F050
:1002C00081FB0828FBD101214FF4C00000F0E2FAC5
:1002D0000121082000F0EAFA10BD10B5FFF7BDFFBC
:1002E000FFF798FFFFF772FF0121254800F0E4F9BE
:1002F0000121244800F0E0F901224FF4C0612048B8
:1003000000F0FFF901224FF4C0611E4800F0F9F936
:1003100000201D4908804BF6FF70488030208880FF
:100320004FF48060C880000108811848C8601448F4
:1003300000F0F0F9302014498880124800F0EAF902
:1003400001210F4800F0C2F900BF114800780528CC
:10035000FBDB04220F491048FFF726FF20B940219C
:10036000054800F087F903E08021034800F082F996
:1003700000BFFEE7000C0140001001400C0000200F
:10038000005400400058004018000020400D0300B9
:100390000500002008000020000000207047704782
:1003A0007047704770477047704770477047704795
:1003B0007047704770477047704770477047704785
:1003C0007047704770477047704770477047704775
:1003D0007047704770477047704770477047704765
:1003E00070477047704770477047704710B5464870
:1003F00000F080F96FF44031401806D0A0F580205D
:10040000813808D0022837D118E0002230213E4838
:1004100000F0DDF931E001213B4800F02DF9012128
:100420003A4800F029F93A480478601C384A1070BC
:100430003848015D344800F0D2F91EE034480078B5
:1004400004280ADA32480478601C314A10703148B6
:10045000015D2D4800F0C3F90DE000224FF4C061AA
:10046000294800F04EF90121284800F0BAF901218D
:10047000254800F0B6F900E000BF00BF10BD70478E
:1004800010B5224800F036F9102826D0B0F1021F2E
:1004900004D0A0F5003040382AD100E029E01E4801
:1004A000007804280ADA194800F08EF91A490C7805
:1004B000611C194A1170194908550DE0134800F0E4
:1004C00083F91749087014480078401C12490870D5
:1004D00001210D4800F004F90BE012490B4800F02F
:1004E000D5F800224FF4C061084800F00AF900E096
:1004F00000BF00BF10BD704770477047704770471E
:1005000070477047704770470054004000580040E3
:10051000040000200000002005000020080000204A
:100520000600002010000060704770477047754655
:1005300000F028F8AE4605006946534620F0070053
:10054000854618B020B5FFF721FEBDE820404FF0EA
:1005500000064FF000074FF000084FF0000B21F0AD
:100560000701AC46ACE8C009ACE8C009ACE8C0097A
:10057000ACE8C0098D4670470446AFF300802046C2
:10058000FFF7FDFD004870472800002003494FF0A9
:100590001800ABBE704700000900000026000200F2
:1005A0007047000004490A6822F010020A600A68D5
:1005B00002430A60704700000020024004490A68B4
:1005C00002F038020A600A6802430A6070470000BD
:1005D00000200240F0B5CB780022DC0603F00F03C8
:1005E00001D58C7823430C880F2714F0FF0F4FF0B0
:1005F000010C1CD0D0F800500E880CFA02F42640F2
:10060000A64210D1960007FA06FE25EA0E0E03FA5E
:1006100006F5CE7845EA0E05282E00D14461CE7845
:10062000482E00D10461521C082AE5D305600A88CF
:10063000FF2A1ED94568002202F108060CFA06F4CA
:100640000E882640A64210D1960007FA06FE25EA3B
:100650000E0E03FA06F5CE7845EA0E05282E00D1D7
:100660004461CE78482E00D10461521C082AE3D39D
:100670004560F0BD016170470029018802D041F05A
:10068000200101E021F020010180704721F07F422C
:10069000090F012902D1D14381827047022901D17A
:1006A000808A70470629818A04D1018841F00101BE
:1006B00001807047008B70470029018802D041F00B
:1006C000010101E021F0010101807047002901884A
:1006D00002D041F4807101E021F480710180704703
:1006E0000029018802D041F4007101E021F4007179
:1006F00001807047818A008B41EA004121F07F40F0
:100700007047002A828801D00A4300E08A43828031
:100710007047000070B50446808886B00D4620F012
:100720003F0601A800F0ECF825490398B0FBF1F171
:1007300089B20E43A680228822F001022280214B3A
:10074000EA689A421CD85200B0FBF2F080B204284A
:1007500000D20420491C2184A083208840F001009D
:10076000208020884FF6F53108402988EA88114317
:10077000014321802889A9880843208106B070BDE3
:100780006B88A3F53F46FF3E05D102EB4202B0FB6A
:10079000F2F080B206E019235A43B0FBF2F080B2C7
:1007A00040F48040020501D140F001004FF4967200
:1007B00051434FF47A72B1FBF2F140F40040C9E7C3
:1007C00040420F00A0860100008AC0B2704712B1FB
:1007D00041F0010101E001F0FE0101827047018258
:1007E00070470029018802D041F4805101E021F4D2
:1007F000805101807047F0B50F23C27801784FF027
:10080000E024012742B3D4F80C2D467802F4E062CC
:10081000C2F5E062120AC2F10405D3408278AE400C
:100820001A40324315018A07D20E954021F0030188
:100830000B19D3F80064FF2191408E430D402E43E5
:10084000C3F800640078410900F01F0004EB810147
:100850008740C1F80071F0BD01F01F0087404809D2
:1008600004EB8000C0F88071F0BD0000024908432D
:1008700002490860704700000000FA050CED00E036
:10088000024A1140014302480160704780FFFF1F88
:1008900008ED00E0044A0029D16901D0014300E0DD
:1008A0008143D1617047000000100240044A0029D2
:1008B000916901D0014300E08143916170470000DC
:1008C000001002400B48016841F0010101604168DD
:1008D000094A114041600168084A114001600168FD
:1008E00021F4802101604268002122F4FE0242606E
:1008F00081607047001002400000FFF8FFFFF6FE25
:1009000030B5204A5168204B11F00C0103D0042966
:1009100001D0082901D0036011E05168022401F4DC
:10092000701104EB91415468184D14F4803F02D0CB
:100930005468A40301D5694300E05943016051683C
:10094000134B01F0F00109095C5C0168E140416072
:10095000546804F4E064240A1C5D21FA04F4846001
:10096000546804F46054E40A1B5DD940C1605268C5
:10097000074B02F44042920B1B1F9A5CB1FBF2F151
:10098000016130BD0010024000127A0000093D00F4
:10099000B00A0008034600205909094A012901D17B
:1009A000116804E0022901D1116A00E0516A03F0E4
:1009B0001F02012393400B4200D00120704700002A
:1009C000001002400248406800F00C007047000030
:1009D00000100240034A516821F0F00101435160C8
:1009E00070470000001002400B490A6822F4803270
:1009F0000A600A68B0F5803F22F480220A6007D0BE
:100A0000B0F5802F03D1086840F4A020086070473B
:100A1000086840F48030F9E700100240034A51684A
:100A200021F4E06101435160704700000010024072
:100A3000034A516821F4605141EAC0005060704798
:100A40000010024001490866704700000000424261
:100A5000034B5A68084322F47C12104358607047D5
:100A600000100240034A516821F003010143516024
:100A7000704700000010024030B50B4C40F2FF15EB
:100A80003120FFF787FF20706068401C606020788D
:100A900010B96068A842F3D13120FFF77BFF00282E
:100AA00000D0012030BD0000100000200204060824
:100AB0000000000001020304010203040607080904
:100AC000E00A0008000000201800000028010008CB
:100AD000F80A000818000020700200004401000815
:100AE00001020304000000000000000000000000FC
:080AF0000000000000000000FE
:04000005080000ED02
:00000001FF
