:020000040800F2
:10000000C015002009010008B70F0008E50B000823
:10001000B50F00082D040008D523000800000000DB
:10002000000000000000000000000000251D000886
:100030009D0600080000000065110008851E0008EC
:100040002301000823010008230100088517000888
:100050002301000823010008A1060008C9060008C2
:1000600023010008230100082301000823010008E0
:1000700023010008230100082301000823010008D0
:1000800023010008230100082301000823010008C0
:1000900023010008230100082301000823010008B0
:1000A00023010008230100082301000823010008A0
:1000B000411F000823010008991F000823010008C0
:1000C0002301000823010008230100082301000880
:1000D0002301000823010008230100084922000829
:1000E0002301000823010008230100082301000860
:1000F00023010008DFF80CD000F02AF80048004780
:1001000059250008C01500200648804706480047CA
:10011000FEE7FEE7FEE7FEE7FEE7FEE7FEE7FEE7B7
:10012000FEE7FEE7891E0008F5000008D2B201E0F4
:1001300000F8012B491EFBD270470022F6E710B5EC
:1001400013460A4604461946FFF7F0FF204610BD45
:10015000064C074D06E0E06840F0010394E8070014
:1001600098471034AC42F6D3FFF7C8FFA03200081E
:10017000C0320008C943016070470029816802D07D
:1001800041F0010101E021F00101816070470000B0
:10019000214810B5016888B041F0010101600E20CE
:1001A000069003208DF81C0000248DF81F4006A93E
:1001B0001A4800F067FC012001F0CEF8212001F080
:1001C000AFF80028FAD00121480201F00DF80094A0
:1001D0008DF80440012002940494114C8DF8050020
:1001E0008DF814006946204600F02CF801224FF4E7
:1001F0004031204600F04CF81021204600F012F863
:1002000001212046FFF7B9FF4021204600F013F8F6
:100210000028F9D008B010BD1C3802400000024090
:1002200000240140826822F0F0020A438260704795
:10023000806D80B270470246002012680A4200D0EA
:100240000120704730B542680F4B0C791A400B689B
:1002500042EA04221343436082680C4B4D791A40F2
:10026000D1E9034323438C6844EA45042343134301
:100270008360026B097D22F0F872491EC9B242EA1E
:100280000151016330BD0000FFFEFFFCFDF7FFC020
:10029000002A426801D00A4300E08A434260704766
:1002A00070B5072413290AD9C568A1F1140606EB15
:1002B0004606B440A543B3401D43C56014E0092978
:1002C0000AD90569A1F10A0606EB4606B440A54322
:1002D000B3401D43056107E0456901EB4106B440A9
:1002E000A543B3401D4345611F23072A09D2046C6F
:1002F000521E02EB820293409C4391400C430464E3
:1003000070BD0D2A09D2C46BD21F02EB820293404A
:100310009C4391400C43C46370BD132A09D2846B83
:100320000D3A02EB820293409C4391400C4384635C
:1003300070BD192A09D2446B133A02EB8202934032
:100340009C4391400C43446370BD046B193A02EB2B
:10035000820293409C4391400C43046370BD8168CA
:1003600041F080418160704770B5012000F0FCFED3
:1003700000244FF4C875284602F0A4F8204600F087
:10038000E5FB641CE4B2032CF5D3BDE870400448DF
:10039000024A0349103800F01DBB00007000002025
:1003A0003000080803480088800701D5CB2070473B
:1003B000CA207047100802401CB50220009000209F
:1003C00001906946014800F05DFB1CBD0008024039
:1003D00010B500F015FF134800F04EFF11486421DE
:1003E0004068B0FBF1F0B0F1807F0DD220F07F418A
:1003F0004FF0E020491E41610B4AF02182F8141DA4
:10040000002181610721016100F0B8FEFFF7C0FE05
:10041000FFF7D2FF02F01EF8FFF7CEFFBDE8104055
:1004200002F018B8200100200FE000E0FEE7000015
:10043000F0B506462B4887B0016841F48021016081
:1004400028480838016841F002010160264F072260
:100450000A21384600F065FB07220B21384600F0E0
:1004600060FB3815009002208DF8040003208DF801
:10047000050000248DF8064001258DF807506946D7
:10048000384600F0FFFAE80200906946384600F06E
:10049000F9FAADF80C40ADF80E40ADF81040ADF8EB
:1004A00014400C20114CADF81200029602A920460F
:1004B00001F03AFF0121204601F0F4FE012240F252
:1004C0002551204601F017FF27208DF818008DF8E0
:1004D00019508DF81A508DF81B5006A800F0A8FD91
:1004E00007B0F0BD2438024000040240004800403C
:1004F00070B54148414AC168491CC1604048404903
:10050000103800F0E1F93E493D483E4A20311030B4
:1005100000F0DAF93848401DFFF726FF374A38491E
:10052000374820324031303000F0CEF93348364D74
:1005300020300188C1F3080129802C1F2188490639
:10054000FCD58188C1F30801298021884906FCD5A2
:100550000189C1F30801298021884906FCD58089D9
:10056000C0F30800288020884006FCD52248401DA2
:100570000078288020884006FCD5224E3068C0F3E1
:100580000821298021884906FCD5C0F3080028806D
:1005900020884006FCD57068C0F308212980218896
:1005A0004906FCD5C0F30800288020884006FCD509
:1005B0000020288021884906FCD52880218849060A
:1005C000FCD5288021884906FCD528802088400653
:1005D000FCD5FFF7E7FE3061288020884006FCD577
:1005E000F020288020884006FCD5E720288020883D
:1005F0004006FCD570BD000000000020E000002097
:100600001000080870000020044800401CB50121BB
:10061000042000F0D1FD4FF4C070009001208DF84F
:10062000040003218DF8051000218DF806108DF8C7
:1006300007006946014800F025FA1CBD0008024089
:1006400010B504464FF4004000F0A6F9042801D18B
:100650000021216010BD70B505464FF400460C46E0
:10066000304600F099F9042805D12C603046BDE8E9
:10067000704000F091B970BD05480068C00705D012
:1006800003480449083001600349016070470000D5
:10069000043C0240EFCDAB89050403027047000023
:1006A00010B5012000F02AF8002809D005480121E2
:1006B00081700021C170BDE81040012000F018B821
:1006C00010BD00004800002010B5022000F016F810
:1006D000002809D00548002181700121C170BDE8C2
:1006E0001040022000F004B810BD000048000020B7
:1006F000014908607047000014040140064A0146A1
:1007000000201268044B0A4014331B680B4202D0CD
:10071000002A00D0012070470004014030B51A497A
:100720008379026853B30B6893430B600A1D136807
:100730000468A343136002790A44136804682343DE
:100740001360114A083213680468A3431360131D31
:100750001C680568AC431C604479102C05D021440A
:100760000A68006802430A6030BD116804682143CA
:100770001160196800680143196030BD00790844B0
:1007800001689143016030BD000401407CB5012146
:100790001D2000F011FD03248DF804404FF6FF707A
:1007A0008DF80540002500908DF8075069462A48CD
:1007B00000F068F96946294800F064F9694628485C
:1007C00000F060F96946274800F05CF98DF80440B4
:1007D0008DF805404FF6FC70234C00908DF80750C3
:1007E0006946204600F04EF96946204600F04AF975
:1007F00000211D2000F0E0FC2005018821F001010E
:1008000001801A48018821F00101018018480188FF
:1008100021F0400101801748018821F40051018036
:100820001548016821F0010101601448016821F4B4
:1008300000710160001D0168114A1140016001F062
:10084000CBFD052001F028F8012000F057FC012124
:10085000084600F05BFC7CBD00080240000C024032
:10086000001002400000024000040240000400406A
:10087000003800400C480040082401402038024065
:10088000FCBFFBFF0149086070470000183C0240B4
:10089000084904200A68D20701D0012070470A687D
:1008A000D20501D502207047096811F4F05FFAD033
:1008B00003207047183C02400248016841F00201E1
:1008C00001607047043C024018B50023009304E027
:1008D00008C8009C42F82430121D8842F8D318BD85
:1008E0002DE9F041012188B0080300F071FC0225D8
:1008F000E0208DF818500326DFF8948005908DF8DD
:10090000196000248DF81A4005A9404600F0BAF895
:1009100005221146404600F004F905220621404612
:1009200000F0FFF805220721404600F0FAF8012701
:10093000E8018DF8187005908DF819608DF81A404F
:1009400005A9404600F09EF8ADF800404FF48270D3
:10095000ADF80200ADF808702802ADF80A001820C2
:10096000ADF80C00ADF80440ADF80E400720094C7E
:10097000ADF81000ADF806506946204601F087F842
:100980000121204600F0BEFF08B0BDE8F081000064
:10099000000002400030014008B5034604208DF8F5
:1009A0000000FFF775FF8DF8000004E0FFF770FF0F
:1009B0008DF800005B1E9DF80000012801D013B1E6
:1009C00004E0002BF2D105208DF800009DF8000016
:1009D00008BD00002DE9F04116460F460546FFF719
:1009E0004BFE41F60270FFF74DFF781B0F4C401C89
:1009F00080086060002006E005EB8000FFF720FE25
:100A00002070A068401CA06061688842F4D307E0B1
:100A100028463168FFF71FFE042801D12D1D361D21
:100A2000BD42F5D3BDE8F041FFF746BF9800002076
:100A30002DE9704001F06AF80028FBD1104D4FF409
:100A400080742146284600F07CF8902000F040FF9A
:100A5000002000F03DFF002000F03AFF002000F0F1
:100A600037FF002000F034FF002000F031FF0020AD
:100A700000F02EFF21462846BDE8704000F063B824
:100A800000000240F0B50023012403270D6804FA9A
:100A900003F21540954240D1D0F800C05E0007FA3D
:100AA00006F52CEA050CC0F800C091F804C0D0F897
:100AB00000E00CFA06FC4CEA0E0CC0F800C091F8FD
:100AC00004C0BCF1010F02D0BCF1020F1DD1D0F85F
:100AD00008C02CEA050CC0F808C091F805C0D0F891
:100AE00008E00CFA06FC4CEA0E0CC0F808C0B0F89E
:100AF00004C02CEA020CA0F804C0B0F804C08A7943
:100B00009A404CEA020CA0F804C0C268AA43C26032
:100B1000CA79C568B2402A43C2605B1C102BB5D3AA
:100B2000F0BD4B07DB0E9A40C90810B500EB810001
:100B3000016A0F249C40A1430162016A11430162D2
:100B400010BD4183704701837047000070B5234C8E
:100B5000050004D0012D06D0022D0AD13AE006236B
:100B60000122114602E00623012202212046FFF75E
:100B700097FB01212046FFF700FB2046FFF7EFFB24
:100B800002212046FFF757FB0028F9D02046FFF747
:100B90004FFB42F2F031A0F2B9104843102101EBB3
:100BA000E0310F480022B1F5167F40F8251002D839
:100BB00019B1202901D240F8252002212046FFF753
:100BC000D9FA2046FFF7CBFB2046BDE87040002154
:100BD000FFF7D3BA062301220321C7E7002401400F
:100BE00070000020FEE700002DE9F047814627480D
:100BF0008A4688B0016841F0040101602348083842
:100C0000016841F00201016002258DF810500326B1
:100C10008DF8116000244020DFF874808DF81240B8
:100C2000012703908DF8137003A94046FFF72AFFB0
:100C3000022206214046FFF774FFDFF85880ADF826
:100C400014A0CDF81890ADF81C40ADF8164005A9D9
:100C5000404601F0A3FAADF80040ADF80470ADF8DD
:100C60000250ADF80640ADF808606946404601F014
:100C70000CFA0121404601F0F0F90122032140461F
:100C800001F059FA08B0BDE8F087000024380240AE
:100C9000000402400008004070B5212000F046F931
:100CA000002000F043F97F2000F040F9012001F01E
:100CB000EFFB0024222000F039F9204600F036F93D
:100CC000072000F033F9012001F0E2FB00250020AD
:100CD00000F03AF96D1CEDB2802DF8D3012001F03F
:100CE000D7FB641CE4B2082CE4D370BD70B52A4D68
:100CF0004FF4805421462846FFF723FF642001F07B
:100D0000C7FB21462846FFF71EFFAE2000F00EF974
:100D1000A82000F00BF93F2000F008F9D32000F0E4
:100D200005F9002000F002F9402000F0FFF8A120B2
:100D300000F0FCF8C82000F0F9F8DA2000F0F6F82E
:100D4000122000F0F3F8812000F0F0F8CF2000F03E
:100D5000EDF8A42000F0EAF8A62000F0E7F8D5208E
:100D600000F0E4F8802000F0E1F88D2000F0DEF8DB
:100D7000142000F0DBF8AF2000F0D8F8D92000F004
:100D8000D5F8F82000F0D2F8DB2000F0CFF8BDE86D
:100D90007040402000F0CAB8000402402DE9F05F26
:100DA00000241F4691468A468346254628E000BF18
:100DB0000BEB051808F0FF00514600F09DF80026E7
:100DC000385D00F0C1F8012001F062FB761CF6B23C
:100DD000641C102EF4D30AF10100C1B208F0FF0028
:100DE00000F08AF80026385D00F0AEF8012001F02E
:100DF0004FFB761CF6B2641C102EF4D36D1CEDB2C2
:100E00004D45D5D3BDE8F09F2DE9F0479046894682
:100E10000546002620E02038C7B27E2D04D909F10E
:100E20000100002500F0FF094946284600F064F85B
:100E30000C4907EB4700002401EB4007385D00F048
:100E400083F8012001F024FB641CE4B2062CF5D3E6
:100E5000AD1D761CEDB2F6B218F806000028DAD106
:100E6000BDE8F087882A00082DE9F04792468946B8
:100E7000804600251F4E36E02038C7B2B8F1780F03
:100E800005D909F101004FF0000800F0FF094946BB
:100E9000404600F031F8002404EB0710305C00F00D
:100EA00053F8012001F0F4FA641CE4B2082CF3D3E7
:100EB00009F10100C1B2404600F01EF85FF00004E5
:100EC00004EB07103044007A00F03EF8012001F0F6
:100ED000DFFA641CE4B2082CF2D308F108006D1CA0
:100EE00000F0FF08EDB21AF805000028C4D1BDE8F3
:100EF000F0870000B02C000870B504460D46212094
:100F000000F014F8204600F011F87F2000F00EF8F1
:100F1000222000F00BF8284600F008F8072000F027
:100F200005F8BDE87040012001F0B2BA10B50446E2
:100F300040210448FFF705FE2046BDE8104000F0C0
:100F4000B3B800000008024010B504464021044830
:100F5000FFF7F9FD2046BDE8104000F0A5B80000FD
:100F600000080240012108B1024801E00148801C4C
:100F700001807047180802401CB50C48016841F018
:100F80000401016001248DF804408DF80540002023
:100F90008DF806008DF80700009469460448FFF7B5
:100FA00071FD03481A3004801CBD00001C3802404B
:100FB00000080240FEE7704738B54FF4E06000F0EB
:100FC00069F81E208DF8000004258DF801500124D9
:100FD0008DF802408DF80340684600F029F81C2087
:100FE0008DF8000008208DF801008DF802508DF872
:100FF0000340684600F01CF806208DF800000E2023
:101000008DF801008DF802008DF80340684600F06D
:101010000FF807208DF800000F208DF801008DF8E3
:1010200002008DF80340684600F002F838BD000069
:1010300030B50F22C47801780123FCB1144C246828
:1010400001F1E02104F4E064C4F5E064C4F3072492
:10105000C4F10405E2404478AC408578154025434E
:101060002A0181F80024007800F01F018B4040091C
:10107000800000F1E020C0F8003130BD01F01F0019
:1010800083404809800000F1E020C0F8803130BD85
:101090000CED00E002490843024908607047000077
:1010A0000000FA050CED00E070B5074C0546022182
:1010B000204600F0E1FC0028F9D029462046BDE892
:1010C000704000F0E2BC00000038004010B540F273
:1010D0003F64204601F090F8FFF74EFF0120FFF734
:1010E00041FF012000F040F821464FF4FA60FFF77D
:1010F0007BFDBDE81040FFF75FBF000002490A68B2
:1011000042EA800008607047007000400A4B1A688D
:1011100022F0030202431A600848026842F0040207
:101120000260012905D020BF016821F0040101609F
:10113000704730BFF8E700000070004010ED00E09D
:10114000014988627047000000000E4201490862B0
:101150007047000000000E420149486270470000DD
:1011600000000E4270470000202108B1024801E053
:101170000148801C01807047180802401CB50C48CB
:10118000016841F00401016001208DF804008DF830
:10119000050000208DF8060020248DF8070000943B
:1011A00069460448FFF76EFC02481A3004801CBDF3
:1011B0001C38024000080240044A0029116801D08E
:1011C000014300E081431160704700001C38024079
:1011D000044A0029116801D0014300E081431160F5
:1011E0007047000024380240044A0029116801D0E9
:1011F000014300E081431160704700002038024045
:1012000010B5012000F0A8F8212000F089F800288E
:10121000FAD0012000F0D8F84FF4404000F0AAF8CE
:10122000002000F091F8312000F07AF8002800D07A
:10123000FEE710BD0D48016841F4807101600B4963
:1012400008310A680A4B1A400A600268094B1A40C2
:101250000260026822F480220260086820F47D00A7
:1012600008600020091D0860704700000038024037
:101270000CC0FF88FEFFFEEE30B5254A1168A2F1D2
:10128000040411F00C034FF4004105D0042B09D0E5
:10129000082B09D00C2B09D02368C3F342335B1C05
:1012A000994018E01B4916E01B4914E011681368C7
:1012B00001F47011194C03F4400304EB91410978D7
:1012C000012404EB9353146814F4803F1DD0124C96
:1012D0006143B1FBF3F1016011680F2303EA1111BF
:1012E0000E4B09335C5C0168E140416014680725DE
:1012F00005EA14241C5D21FA04F48460126805EAEE
:10130000D2229A5CD140C16030BD024CE0E70000BF
:10131000083802400024F40000127A00C7000020C0
:10132000014600204A09012A09D0064A126801F044
:101330001F0101238B40134200D001207047014A56
:10134000343AF3E734380240024900220A70087048
:1013500070470000023802400149086070470000F1
:1013600000004742024900220A70087070470000DE
:1013700035380240034A116821F46041014311608D
:1013800070470000043802400149086070470000BF
:10139000D8064742C0F30141032907D1094A116821
:1013A00021F0C04300F0C0411943116005493431B8
:1013B0000A6822F440320A600A6800F440300243AE
:1013C0000A60704700380240034A116821F00301A7
:1013D000014311607047000008380240010901EB29
:1013E000810100F00F0000EB4100C0B27047002106
:1013F00003E0491C0A38C9B2C0B20A28F9D2090769
:1014000040EA116070470000C0F3100040F0800017
:10141000C1430348026802F0800211430160704733
:101420000C28004010B501210807FFF7D1FE01206C
:10143000FFF78CFE0120FFF795FF4920FFF770FFB3
:101440000028FAD04FF48030FFF7A4FF0120FFF707
:101450009BFF00F0ADF90548FF217F22C0E9012183
:101460000348C0E901210021016010BDA400002053
:10147000B401002008B5002000900C48016849061E
:1014800012D44FF0FF31016043140168009A01F05B
:101490004001521C00929A4201D00029F5D0006808
:1014A000400601D4002008BD012008BD0C280040E2
:1014B0000248016821F08001016070470C2800405B
:1014C00010B50C460E4909680E4A11400A0CE2702C
:1014D000C1F30423637001F03F03A370C1F34231F1
:1014E000217000280BD11046FFF778FFE07060787C
:1014F000FFF774FF6070A078FFF770FFA07010BD59
:10150000042800403FFFFF000D4A10B5126800217B
:1015100002F004030A4A383A1268840C20FA04F4F0
:10152000024003EAD4331A43064B1B6803EA101047
:1015300003D00004000C00D00121084610BD0000BB
:10154000402800400C28004010B50C460F4909689F
:101550000F4A1140C1F305422270C1F306236370A4
:1015600001F07F03A370402303EA1141E1700028DA
:101570000BD11046FFF732FF20706078FFF72EFF87
:101580006070A078FFF72AFFA07010BD002800400F
:101590007F7F7F001CB5012469462046FFF7D4FFFA
:1015A00001A92046FFF78CFF1CBD000030B50E4D91
:1015B000CA222A6053222A600B4B0B4A1C3B1C3266
:1015C000002920F00404196800F0040004D021432D
:1015D00019601168014303E0A14319601168814358
:1015E0001160FF20286030BD2428004070B50C46F3
:1015F000010060784FF000062AD0FFF7EFFEA078D8
:10160000FFF7ECFEA078E17840EA014560782178A8
:10161000000240EA41300543194CCA2020605320A3
:101620002060FFF727FF78B116480540144820389E
:101630000560FFF73DFF12481C380068800602D4A1
:1016400000F0B6F800B10126FF202060304670BDE2
:10165000C10603D520F010000A306070E078FFF773
:10166000C6FE05046078FFF7C2FE45EA0025A078B3
:10167000FFF7BDFE0543207845EA4035CCE7000082
:10168000242800403FFFFF002DE9F041244F0C4685
:1016900002004FF0000620783A6831464FEA426275
:1016A00004D0002A15DAFFF799FE13E0002A00DBC8
:1016B000E170FFF79CFE05046078FFF798FE45EAAD
:1016C0000025A078FFF793FE0543E07845EA004542
:1016D0000AE0E170A078217840EA01456078E1787D
:1016E000000240EA014005430D4CCA201C34206032
:1016F00053202060FFF7BEFE68B10A480540084845
:1017000008380560FFF7D4FE3868800602D400F080
:101710004FF800B10126FF2020603046BDE8F0817F
:10172000082800407F7F7F0070B504460D480D46B5
:101730000021C1700470210A4170210C81700146A2
:101740000120FFF7A1FF0748210E001D81704570A1
:10175000290A0170290CC170BDE8704001460120C2
:10176000FFF744BFB00000200549CA220A60532297
:101770000A60034A103A1060FF20086070470000BA
:101780002428004010B54FF480442046FFF7BCFEEB
:1017900000280AD00549012008702046FFF734FED2
:1017A000A001BDE81040FEF7A3BF10BDA4000020BB
:1017B00018B500200F490090CA2008605320086027
:1017C0000C481838026822F0A0020260C4130268B4
:1017D000009B02F020025B1C0093A34201D0002A70
:1017E000F5D00068800601D5012000E00020FF222E
:1017F0000A6018BD24280040084ACA2111605321FC
:10180000116006491C390B6823F007030B600B6855
:1018100003430B60FF201060704700002428004045
:101820002DE9F0474FF480142046FEF761FF194D73
:1018300000264FF008082C602E7185F805800127DE
:10184000AF712846FEF76AFF2C1F4FF0030984F89A
:1018500000906670A670E7702046FFF7E9FB4FF432
:10186000804A01215046FFF7A1FE85F80580AF713F
:10187000201DFEF753FF84F800906670A670E77095
:101880002046FFF7D5FB5046BDE8F0470121FFF7A2
:101890008DBE0000BC00002070B505464FF48044AA
:1018A00000212046FFF782FE0420FFF7A5FF28460F
:1018B000FFF75AFF2046BDE870400121FFF776BED2
:1018C00003220021014800F027B90000C4000020D5
:1018D00070B50B4C05460221204600F0CDF80128DA
:1018E000F9D12946204600F0D0F80121204600F029
:1018F000C3F80128F9D1204600F0C5F8C0B270BD88
:10190000003001400029018802D041F0400101E08F
:1019100021F04001018070472DE9F041012188B09C
:101920008803FFF755FCDFF8D48005220D214046DF
:10193000FFF7F7F805220E214046FFF7F2F80522DF
:101940000F214046FFF7EDF802274FF420408DF8B5
:101950000470032500908DF8055000248DF8064092
:1019600069464046FFF78EF80126F8028DF80460BC
:1019700000908DF805508DF8064069464046FFF707
:1019800081F840208DF8046000908DF805508DF8A6
:10199000064069461A48FFF775F804208DF8046080
:1019A00000908DF805508DF8064069464046FFF7D7
:1019B00069F8A803ADF808004FF48270ADF80A008A
:1019C000ADF810607002ADF812001820ADF81400E8
:1019D000ADF80C40ADF8164007200A4CADF81800E1
:1019E000ADF80E7002A9204600F051F80121204602
:1019F000FFF788FF08B0BDE8F08100000004024056
:101A0000000802400038004070B514460D460646F6
:101A100003220021164800F07FF8154A1078FF28AD
:101A200005D15178FF2902D19178FF291ED0517834
:101A300093781031884004F10801194410FA01F03C
:101A4000B0F5001F01D30B490844010C1170010AC5
:101A50005170907003220021054800F0A9F8224639
:101A600029463046BDE8704000F0A2B82046E7E7BE
:101A7000C40000200300E0FF0246002012890A4251
:101A800000D001207047808970478181704730B550
:101A900002884C8802F441530A88CD8822438C88FE
:101AA0002C4322430C8922434C8922438C892243B4
:101AB000CC8922431A430280098A018230BD00008A
:101AC00070B5040300F0C0F80F4E4FF4807529463E
:101AD0003046FFF736F82020FFF7FAFEC4F3074040
:101AE000FFF7F6FEC4F30720FFF7F2FEE0B2FFF7C0
:101AF000EFFE29463046FFF726F800BF00F006F853
:101B00000028FBD170BD00000000024010B500F0BD
:101B100037F800F0010010BD2DE9F04115460C46E4
:101B20004FEA0006FFF7F2FF0028FBD1DFF84C80F8
:101B30004FF4807739464046FFF703F80B20FFF754
:101B4000C7FEC4F30740FFF7C3FEC4F30720FFF747
:101B5000BFFEE0B2FFF7BCFE0020FFF7B9FE002495
:101B600004E00020FFF7B4FE3055641CAC42F8D30B
:101B700039464046BDE8F041FEF7E5BF00000240AF
:101B800070B50A4E4FF4807529463046FEF7D9FFEE
:101B90000520FFF79DFE0020FFF79AFE0446294628
:101BA0003046FEF7D0FF204670BD00000000024026
:101BB0002DE9F05FC1F30B06DFF888A00F0BC6F527
:101BC0008054884681461546A24200D814463903FF
:101BD0008B464FF480525046FFF79EFF0020194A73
:101BE00004E03118515CFF2902D1401CA042F8D317
:101BF000A04220D23846FFF763FF002006E000BF76
:101C000019F800208319401C0AF80320A042F7D3DA
:101C100059464FF480520B4800F032F8A5420ED0DE
:101C2000A144A0442D1B00264FF480547F1CA542E4
:101C3000CDD82C46CBE7224641464846ECE7BDE8E6
:101C4000F09F0000C001002070B50C4D4FF480746F
:101C500021462846FEF775FF0620FFF739FE502083
:101C6000FFF736FE0120FFF733FE0220FFF730FEBC
:101C700021462846BDE87040FEF765BF00000240DF
:101C80002DE9F0410746C1F30B00C0F580540E4624
:101C90001546A24200D814464FF4805822463146D9
:101CA000384600F00DF8A54207D0274426442D1BE6
:101CB0004446A542F2D82C46F0E7BDE8F08100008A
:101CC0002DE9F04115460C460646FFF7BDFFDFF84B
:101CD00050804FF4807739464046FEF732FF0220AD
:101CE000FFF7F6FDC4F30740FFF7F2FDC4F307204A
:101CF000FFF7EEFDE0B2FFF7EBFD002403E0305DFF
:101D0000FFF7E6FD641CAC42F9D339464046FEF7C6
:101D10001AFF00BFFFF7FAFE0028FBD1BDE8F081F3
:101D2000000002407047000010B58A0721F003044C
:101D30000649130F21440F228C689A4094438C600B
:101D40008A68984002438A6010BD0000000001408C
:101D500070B504460D461646FFF764FB3246294629
:101D60002046FFF7E1FC0520FFF796FDBDE8704037
:101D7000FFF756BD70B50D460446FE220521FEF75D
:101D8000D5F9AA2060712878A0710D480078E0711B
:101D900068782072FEF706FB60745520A0740A482C
:101DA000084A09491038FEF78FFD00200346042237
:101DB0002118401C4B724A730428F9DB70BD0000E7
:101DC0000000002070000020300008080CB5002141
:101DD000234801910091026842F0010202604FF431
:101DE000A062036813F00203009302D1019B9342A7
:101DF000F7D10068800730D50120009019480168AC
:101E000021F001010160016821F002010160016817
:101E100021F00401016012482430016841F0805132
:101E20000160C114104801604168C906FCD40C4827
:101E300008300168016001680160016801600168A3
:101E400021F003010160016841F0010101600168B6
:101E5000C1F381010129FAD10CBD00910CBD000034
:101E600000380240003C0240007000404FF0E0218A
:101E70000428086903D020F004000861704740F08E
:101E80000400FAE770470000104810B5016841F4FB
:101E9000807101600D4908310A680D4B1A400A60D3
:101EA00002680C4B1A400260026822F48022026031
:101EB000086820F47D000860091D00200860FFF715
:101EC00085FF05494FF00060086010BD00380240F2
:101ED0000CC0FF88FEFFFEEE08ED00E070B5048C3C
:101EE00024F001040484058B048C4FF6FF7606EA87
:101EF0000313134325F0F3052B4324F00A020A438E
:101F000042F001010383018470BDF0B5048C24F01C
:101F100010040484078B068C4FF6FF7404EA011545
:101F200027F4734704EA0331394304EA02220A43DF
:101F300026F0A001294341F0100102830184F0BD85
:101F400010B501218C07204600F093F800281CD022
:101F50000121204600F07EF80020FEF7F7FD012069
:101F6000FEF7F4FD0220FEF7F1FD08480178491C58
:101F700001700121204600F06DF80648BDE81040D0
:101F8000034A04491038FEF725BD10BD4800002063
:101F9000700000203000080870B52B4D0221284643
:101FA00000F067F80026294C01280BD001212846B3
:101FB00000F05FF8012845D16078012832D002286E
:101FC00033D034E000220121284600F0B4F86078D4
:101FD00010B101281CD107E00021284600F0B3F819
:101FE00001206660607013E0606821280DD22846E9
:101FF00000F03DF8164A616842F82100491C616012
:102000000021284600F09FF802E002206070666020
:102010000221284600F01EF80121284600F01AF897
:10202000012209E06670666001E003206070012112
:10203000284600F00FF800222846BDE87040012134
:1020400000F079B870BD0000000800404800002092
:1020500030010020C943018270470029018802D065
:1020600041F0010101E021F0010101807047406A67
:10207000704702460020138A92890B4202EA01024D
:1020800002D0002A00D0012070472DE9F0410D4612
:102090000E884988AA882B89044616B3042E28D0B6
:1020A000082E268C4FF6FF702BD026F480562684FF
:1020B000A78B268C00EA022200EA013127F473473D
:1020C0003A4300EA0330104326F420420A4342F424
:1020D0008051A0832184E9882046BDE8F04100F0CA
:1020E00050B8FFF7FBFEE9882046BDE8F04100F05C
:1020F0002CB8FFF70AFFE9882046BDE8F04100F060
:102100002CB826F480762684A78B268C00EA012141
:1021100000EA0310104327F0F307384326F4206247
:102120000A4342F48071A0832184E9882046BDE8F7
:10213000F04100F01EB8002A828901D00A4300E075
:102140008A438281704741627047028B22F00C0201
:102150000283028B0A4302837047028B22F440629F
:102160000283028B4FF6FF7303EA01210A430283C5
:102170007047828B22F00C028283828B0A43828317
:102180007047828B22F440628283828B4FF6FF730A
:1021900003EA01210A438283704700000288B0F1FC
:1021A000804F08D00F4B984205D00F4B984202D079
:1021B0000E4B984203D122F070034A881A430C4B0D
:1021C000984206D00B4B984203D022F440730A8900
:1021D0001A4302804A68C26209880185012181820E
:1021E000704700000004004000080040000C004060
:1021F00000100040001400403EB512490A6842F049
:1022000001020A60019042F20F70ADF80000002058
:10221000ADF80800ADF802004FF080446946204652
:10222000FFF7BCFF4FF6FE702082208840F0800050
:102230002080208840F001002080A08940F001002B
:10224000A0813EBD2438024070B5134C40F22551A8
:10225000204600F031F800281CD0204600F0B6F8E7
:102260000E4DA5F10C04A16868540120491CC4E975
:1022700001012068401C2060FEF7C8F94FF480710E
:102280000748FEF75EFC2878C12803D1FEF730F935
:102290000020A06070BD0000004800408C000020BD
:1022A000000802400029818902D041F4005101E078
:1022B00021F400518181704730B501F01F020124E3
:1022C0000025C1F3421304FA02F2012B0FD0022BB6
:1022D0000FD0838A4FEA11210088134204FA01F4D7
:1022E00000EA040001D000B10125284630BD8389F1
:1022F000F0E7038AEEE710B5C1F3421301F01F04C3
:102300000121A140012B07D0022B07D01430002A55
:10231000026805D00A4304E00C30F8E71030F6E715
:102320008A43026010BD00007FB50446008A0D4656
:1023300020F44051E88808432082A08941F20C61D2
:102340008843A9882A8911436A8902431143A181DC
:10235000A08A20F44071A8890843A0826846FEF74D
:102360008BFF1948844201D1039800E00298A189AB
:10237000090400EBC00101EB0010296801D54900F8
:1023800000E08900B0FBF1F06422B0FBF2F109013A
:102390000B096FF018056B4300EB8300A3891D0444
:1023A0004FF0320306D503EBC000B0FBF2F000F0B3
:1023B000070005E003EB0010B0FBF2F000F00F00A7
:1023C000084320817FBD0000003801408088C0F3B1
:1023D00008007047FEE700007FB5002503208DF858
:1023E0000C50012402908DF80D408DF80F4002A989
:1023F0000F48FEF747FB01210846FEF7F5FE0021D6
:102400000120FFF791FC01210846FFF78DFC8DF8B4
:1024100004500C208DF8050000948DF806406846A5
:10242000FEF77CF9022000906846FEF777F97FBD41
:102430000004024002E008C8121F08C1002AFAD1B5
:1024400070477047002001E001C1121F002AFBD134
:102450007047000010B56FF00400FFF707FD094852
:1024600009490068B0FBF1F0C1B2084801EB410234
:102470000170C2EBC1114FF6FF7202EAC101418047
:1024800010BD0000500000200024F4004400002093
:102490000B49498848434FF0E021486100228A6196
:1024A000086940F0010008610869C30701D0C00352
:1024B000FAD5086920F0010008618A6170470000C0
:1024C000440000200B49097848434FF0E02148615F
:1024D00000228A61086940F0010008610869C307A9
:1024E00001D0C003FAD5086920F0010008618A61B3
:1024F0007047000044000020F0B500260B4635462A
:102500000A2A02D00D701846F0BD00281FD006DA46
:102510004FF02D021A7001F10103C0F1000042F2E8
:1025200010744FF00A0700BF90FBF4F252EA060C59
:1025300006D002F1300603F8016B02FB14000126FD
:1025400094FBF7F4002CEFDC1D700846F0BD302042
:1025500018704B1CF8E700008EB00120FEF7F0FD6C
:1025600001210807FEF734FE0120FEF7F5FDE74ED6
:10257000E7484FF0000A86F800A080F800A0FEF7B8
:102580001BFDFEF757FEDFF88CB3012558468BF88C
:10259000005004274770FEF739F82902DE48FEF79D
:1025A000D2FA8021DC48FEF7CCFAFFF7B5F9FEF746
:1025B00097F90020494660F31F610222204662F32A
:1025C0001F6065F30701032262F30F21192262F3F2
:1025D0001741102262F30700122262F30F2067F303
:1025E00017404246FFF7B4FB0421CC48FEF7A9FA96
:1025F000CB4800210B24C0E900514021C0E902145E
:102600000246C848C7491038FEF7E4F9C448AA2171
:1026100020380246C0E90014ABF10504C14F21691E
:10262000403F497881605521C160BE4839465038E5
:10263000FEF7D0F9BA4DB946303DDFF8EC82B44F21
:10264000FEF7A4F8FDF7C4FEDDE90410039AFEF7D7
:10265000EFF90120FEF788FDAE48FDF785FEB3488F
:102660000178012901D180F800A054F83D0F0190B4
:10267000A188ADF80810A1798DF80A100299FEF72B
:1026800089FF54F8040B069034F84109ADF81C009A
:10269000B8F80010ADF81E1098F802008DF8200070
:1026A000FFF70EF9A2484278017810329140807805
:1026B00009220830814006A8FFF7A6F9984A9948F0
:1026C000303A49465038FEF7FFF82868AA2808D162
:1026D000E868552805D129798BF80010297A8BF8FC
:1026E00001103078397840EA4100012869D0022889
:1026F000A6D1FEF7EBFC8F4981F800A0FFF70CF99B
:1027000004218648FEF71DFAFEF7F0FAFEF7C4FA38
:10271000894B022200212420FEF740FB804A814899
:10272000303A49465038FEF7CFF87E497D487E4A18
:1027300020393038FEF7C8F87648FDF715FE2879BD
:102740008BF8000021690A220870724960701F31FD
:10275000FFF7D2FE6F4A00211F325620FEF784FB9E
:10276000764B082203210020FEF718FBD8F8002042
:102770000A21B2FBF1F0B2FBF1F301FB1321C4E932
:10278000050164490A222431FFF7B6FE6069614AF7
:10279000092802F124024FF0060133D91220FEF776
:1027A00063FB67A207212220FEF72EFB59490A226C
:1027B0002931A069FFF7A0FE564A062129322720B9
:1027C00032E0FEF783FC4FF4E130FDF731FE514972
:1027D00009A8FFF7CFFA0120A0705A480168012923
:1027E00001D1C0F800A084F802A04A48FDF7BCFD62
:1027F00086F800A087F800A04FF480714648FEF7E5
:10280000A2F91DE71520FEF72FFB4DA207211D2081
:10281000FEF7FAFA3F490A222931A069FFF76CFE58
:102820003C4A062129322220FEF71EFBD8F804205C
:102830000A21B2FBF1F0B2FBF1F301FB1321C4E971
:10284000070134490A222E31FFF756FEE069314A6A
:10285000092802F12E024FF0060112D95120FEF78D
:1028600003FB37A207216120FEF7CEFA29490A228D
:102870003331206AFFF740FE264A062133326620B4
:1028800011E05420FEF7F0FA2DA207215C20FEF79C
:10289000BBFA20490A223331206AFFF72DFE1D4A78
:1028A000062133326120FEF7DFFAC820FFF7F0FD82
:1028B000C820FFF7EDFDC820FFF7EAFDC820FFF7AD
:1028C000E7FDC820FFF7E4FDC820FFF7E1FDC820C1
:1028D000FFF7DEFDC820FFF7DBFDC820FFF7D8FDBE
:1028E000C820FFF7D5FDC820FFF7D2FDC820FFF7AD
:1028F000CFFD87F800A086F800A0FEF7CDF90020F4
:10290000FEF732FC0020FEF72DFB99E64A0000207E
:102910004B00002005000020000802400004024097
:10292000100100205000080870000020A4000020C2
:10293000C400002048000020482900088829000819
:102940002E000000840000200484E45C44C40000E5
:10295000F808090E0808080002017F10103F806087
:102960001F000000000000000000FE028282828240
:10297000FA8282828282020080601F404040404092
:102980007F404044584040000808E8292E28E808C5
:1029900008C80C0BE80808000000FF0949897F00FF
:1029A000000F40807F0000001010D0FF901008083A
:1029B0000809FA0808080800040300FF0003404162
:1029C00041417F4141414000000000000000000003
:1029D00000000000000000000000000000000000F7
:1029E0000000000000000000000000FC242424245B
:1029F00022222223222020004020180700FE4242EB
:102A000042424242FE0000001010D0FF9010080821
:102A10000809FA0808080800040300FF0003404101
:102A200041417F41414140000000000000000000A2
:102A30000000000000000000000000000000000096
:102A400000000000000000000808E8292E28E8081F
:102A500008C80C0BE80808000000FF0949897F003E
:102A6000000F40807F0000004850E21400209A428E
:102A70003E8202FE0008300044442524140D04FF69
:102A8000040C152424444400000000000000000051
:102A9000002F000000000700070000147F147F14BF
:102AA00000242A7F2A120062640813230036495545
:102AB000225000000503000000001C22410000001D
:102AC00041221C000014083E08140008083E0808B3
:102AD000000000A06000000808080808000060600E
:102AE0000000002010080402003E5149453E00004D
:102AF000427F4000004261514946002141454B312F
:102B0000001814127F10002745454539003C4A49FA
:102B1000493000017109050300364949493600066C
:102B20004949291E000036360000000056360000D4
:102B3000000814224100001414141414000041224F
:102B4000140800020151090600324959513E007C27
:102B50001211127C007F49494936003E4141412211
:102B6000007F4141221C007F49494941007F0909FA
:102B70000901003E4149497A007F0808087F0000AA
:102B8000417F4100002040413F01007F0814224165
:102B9000007F40404040007F020C027F007F04081D
:102BA000107F003E4141413E007F09090906003E79
:102BB0004151215E007F09192946004649494931A2
:102BC0000001017F0101003F4040403F001F2040C5
:102BD000201F003F4038403F006314081463000783
:102BE0000870080700615149454300007F414100DA
:102BF00000552A552A55000041417F00000402017A
:102C00000204004040404040000001020400002057
:102C100054545478007F4844443800384444442095
:102C200000384444487F00385454541800087E0942
:102C300001020018A4A4A47C007F0804047800000A
:102C4000447D4000004080847D00007F10284400C7
:102C50000000417F4000007C04180478007C0804D8
:102C6000047800384444443800FC24242418001814
:102C7000242418FC007C0804040800485454542000
:102C800000043F444020003C4040207C001C204089
:102C9000201C003C4030403C004428102844001CCC
:102CA000A0A0A07C004464544C44141414141414C4
:102CB0000000000000000000000000000000000014
:102CC000000000F8000000000000003330000000A9
:102CD00000100C06100C06000000000000000000B0
:102CE00040C07840C0784000043F04043F04040022
:102CF000007088FC08300000001820FF211E000032
:102D0000F008F000E018000000211C031E211E0046
:102D100000F00888700000001E21232419272110CC
:102D200010160E000000000000000000000000006F
:102D3000000000E018040200000000071820400016
:102D400000020418E0000000004020180700000006
:102D5000404080F0804040000202010F010202006A
:102D6000000000F0000000000101011F010101004E
:102D7000000000000000000080B0700000000000B3
:102D8000000000000000000000010101010101013C
:102D900000000000000000000030300000000000D3
:102DA00000000000806018040060180601000000A8
:102DB00000E010080810E000000F102020100F00A5
:102DC000001010F8000000000020203F202000002C
:102DD0000070080808887000003028242221300084
:102DE00000300888884830000018202020110E008C
:102DF0000000C02010F8000000070424243F240035
:102E000000F80888880808000019212020110E0009
:102E100000E0108888180000000F112020110E001B
:102E200000380808C83808000000003F0000000013
:102E30000070880808887000001C222121221C00D4
:102E400000E010080810E0000000312222110F00FD
:102E5000000000C0C0000000000000303000000092
:102E60000000008000000000000080600000000002
:102E7000000080402010080000010204081020001B
:102E80004040404040404000040404040404040066
:102E900000081020408000000020100804020100FB
:102EA000007048080808F0000000003036010000FB
:102EB000C030C828E810E0000718272423140B00AE
:102EC0000000C038E0000000203C23020227382028
:102ED00008F8888888700000203F202020110E000C
:102EE000C030080808083800071820202010080003
:102EF00008F808080810E000203F202020100F00EC
:102F000008F88888E8081000203F202023201800B7
:102F100008F88888E8081000203F2000030000001F
:102F2000C03008080838000007182020221E0200C0
:102F300008F808000008F808203F210101213F207F
:102F4000000808F8080800000020203F20200000AA
:102F500000000808F8080800C08080807F0000009A
:102F600008F888C028180800203F200126382000D3
:102F700008F8080000000000203F2020202030003A
:102F800008F8F800F8F80800203F003F003F200054
:102F900008F830C00008F808203F200007183F005C
:102FA000E01008080810E0000F10202020100F008B
:102FB00008F808080808F000203F2101010100007E
:102FC000E01008080810E0000F18242438504F00C3
:102FD00008F8888888887000203F2000030C302083
:102FE00000708808080838000038202121221C00C1
:102FF000180808F8080818000000203F200000000A
:1030000008F808000008F808001F202020201F00F2
:103010000878880000C83808000007380E01000052
:10302000F80800F80008F800033C0700073C03001C
:10303000081868808068180820302C03032C302082
:103040000838C800C83808000000203F20000000F1
:1030500010080808C8380800203826212020180049
:10306000000000FE020202000000007F404040001D
:10307000000C30C000000000000000010638C00055
:1030800000020202FE000000004040407F000000FD
:103090000000040202020400000000000000000022
:1030A0000000000000000000808080808080808020
:1030B0000002020400000000000000000000000008
:1030C00000008080808000000019242222223F20FE
:1030D00008F8008080000000003F112020110E0041
:1030E0000000008080800000000E112020201100D0
:1030F000000000808088F800000E112020103F2082
:103100000000808080800000001F22222222130005
:10311000008080F0888888180020203F2020000050
:103120000000808080808000006B94949493600005
:1031300008F8008080800000203F210000203F2010
:1031400000809898000000000020203F2020000010
:10315000000000809898000000C08080807F000000
:1031600008F8000080808000203F24022D302000DD
:10317000000808F8000000000020203F2020000088
:103180008080808080808000203F20003F20003FA2
:103190008080008080800000203F210000203F20B0
:1031A0000000808080800000001F202020201F0061
:1031B000808000808000000080FFA12020110E0090
:1031C0000000008080808000000E112020A0FF8081
:1031D000808080008080800020203F21200001002E
:1031E0000000808080808000003324242424190083
:1031F000008080E0808000000000001F2020000090
:103200008080000000808000001F202020103F20D0
:10321000808080000080808000010E300806010060
:1032200080800080008080800F300C030C300F0005
:1032300000808000808080000020312E0E31200030
:10324000808080000080808080818E701806010060
:1032500000808080808080000021302C222130007E
:1032600000000000807C020200000000003F40409F
:1032700000000000FF00000000000000FF00000050
:103280000002027C800000000040403F000000007F
:10329000000601010202040400000000000000001A
:1032A000C032000800000020E000000034240008C4
:1032B000A0330008E0000020E014000044240008CF
:1032C000E10000000000000000000000010000001C
:1032D00000000000000000000000000000000000EE
:1032E00000000000000000000000000000000000DE
:1032F00000000000000000000000000000000000CE
:1033000000000000000000000000000000000000BD
:103310000024F400030406080C10182030000000FC
:103320000000000000010203040607080900000075
:103330000100000001000000010000000100000089
:103340000000000000000000000000000505050569
:10335000050505050505000004000000000000004B
:10336000000000000000000000000000000000005D
:10337000000000000000000000000000000000004D
:1033800000000000000000030406080C10182030A4
:1033900000000000010203040102030406070809FB
:0400000508000109E5
:00000001FF
